:100000000C940A160C9434160C9434160C94341672
:100010000C9434160C9434160C9434160C94341638
:100020000C9434160C9434160C946ECE0C94EBCEC7
:100030000C9434160C9434160C9434160C94341618
:100040000C9434160C94A4790C9434160C94341635
:100050000C9434160C9434160C94F18E0C94CDCD73
:100060000C9434160C9434160C9434160C943416E8
:100070000C9434160C9434160C9434160C943416D8
:100080000C9434160C9434160C9434160C943416C8
:100090000C945BC80C9434164C8F598F758F828FDB
:1000A0009C8F9F8FA18FA48FA68FA98FB18F5CCBC0
:1000B00088CBAACBAACBAACBAACBAACBAACBAACBBA
:1000C000AACBAACBAACBAACBAACBA0CB98CB90CBBE
:1000D000AACBAACBAACBAACBAACBAACBAACB82CBA0
:1000E00068CB70CB7ACB084AD73B3BCE016E84BC41
:1000F000BFFDC12F3D6C74319ABD56833DDA3D0082
:10010000C77F11BED9E4BB4C3E916BAAAABE0000CA
:1001100000803F05A84CCDB2D44EB93836A9020CA8
:1001200050B9918688083CA6AAAA2ABE0000008081
:100130003F004E414E494E495459494E46CDCCCCD4
:100140003D0AD7233C17B7D13877CC2B329595E6AB
:10015000241FB14F0A000020410000C84200401C8B
:100160004620BCBE4CCA1B0E5AAEC59D7448617277
:1001700064636F6465642044656661756C742053C4
:10018000657474696E6773204C6F616465640053B5
:10019000746F7265642073657474696E677320721E
:1001A000657472696576656400204400204900200A
:1001B00020204D3330312050005049442073657465
:1001C00074696E67733A00205A0020590020204D50
:1001D000323036205800486F6D65206F6666736553
:1001E0007420286D6D293A00204500205A002058BF
:1001F0000020420020540020204D32303520530092
:10020000416476616E636564207661726961626CD7
:1002100065733A20533D4D696E2066656564726171
:10022000746520286D6D2F73292C20543D4D696E07
:100230002074726176656C206665656472617465B0
:1002400020286D6D2F73292C20423D6D696E696DDC
:10025000756D207365676D656E742074696D6520BA
:10026000286D73292C20583D6D6178696D756D205E
:100270005859206A65726B20286D6D2F73292C20C8
:10028000205A3D6D6178696D756D205A206A6572DE
:100290006B20286D6D2F73292C2020453D6D6178D2
:1002A000696D756D2045206A65726B20286D6D2F14
:1002B00073290020540020204D3230342053004157
:1002C0006363656C65726174696F6E3A20533D615A
:1002D0006363656C65726174696F6E2C20543D7246
:1002E00065747261637420616363656C65726174C7
:1002F000696F6E00204500205A0020590020204DD3
:100300003230312058004D6178696D756D20416340
:1003100063656C65726174696F6E20286D6D2F73F3
:1003200032293A00204500205A0020590020204D53
:100330003230332058004D6178696D756D206665E7
:100340006564726174657320286D6D2F73293A009E
:10035000204500205A0020590020204D39322058D5
:100360000053746570732070657220756E69743AFD
:100370000053657474696E67732053746F7265649B
:100380000041A042A1E045A3A4A5A64BA74D484F1C
:10039000A8504354A9AA58E1ABACE2ADAE62AFB0ED
:1003A000B161B2B3B4E365B6B7B8B9BABBBCBD6F9F
:1003B000BE7063BF79E478E5C0C1E6C2C3C4C5C6F8
:1003C000C7D09ED181D182D0B0D0BDD0BED0B2D066
:1003D000BBD0B5D0BD2E20234D39393900507269BC
:1003E0006E7465722073746F7070656420647565D7
:1003F00020746F206572726F72732E2046697820A8
:10040000746865206572726F7220616E6420757306
:1004100065204D39393920746F20726573746172AB
:10042000742E202854656D70657261747572652034
:1004300069732072657365742E2053657420697426
:100440002061667465722072657374617274696E7E
:10045000672900D09ED181D182D0B0D0BDD0BED08E
:10046000B2D0BBD0B5D0BD2E20234D31313200509B
:1004700072696E7465722068616C7465642E206B9D
:10048000696C6C28292063616C6C656421006F6B5A
:1004900000526573656E643A20002200556E6B6EE3
:1004A0006F776E20636F6D6D616E643A2022004C31
:1004B0006173657220454E41424C45440A004C61CF
:1004C0007365722044495341424C45440A005061CF
:1004D0007374612045787472756465722044697222
:1004E00065637420454E41424C45440A0050617397
:1004F0007461204578747275646572204469726510
:1005000063742044495341424C45440A005061738E
:100510007461204578747275646572204652204576
:100520004E41424C45440A00506173746120457845
:100530007472756465722046522044495341424C9E
:1005400045440A004D61676E756D204164646F6EAD
:1005500073207374617475733A0A004C6173657229
:10056000204F4E0A004C61736572204F46460A00C8
:10057000496E6974204C61736572204669727374A8
:10058000210A004C6173657220454E41424C45443E
:100590000A004C617365722044495341424C454402
:1005A0000A005061737461204578747275646572D5
:1005B0002044697265637420454E41424C45440AAB
:1005C000005061737461204578747275646572209F
:1005D0004469726563742044495341424C45440A5E
:1005E000005061737461204578747275646572207F
:1005F000465220454E41424C45440A0050617374B6
:1006000061204578747275646572204652204449B1
:100610005341424C45440A002D3D20D0B3D0BED1B9
:1006200082D0BED0B220D0BA20D0BFD0B5D187D032
:10063000B0D182D0B8203D2D00D09FD0B5D187D089
:10064000B0D182D18C20D18120534420D0BAD0B0F7
:10065000D180D182D18B202020005A204F66667332
:100660006574203A20007A5F6D61783A20007A5FE5
:100670006D696E3A20005A204F6666736574005AA1
:10068000204F6666736574206F6B007A5F6D696ECC
:100690003A2000795F6D61783A2000785F6D61786B
:1006A0003A200020453A00205A3A0020593A0020CA
:1006B000436F756E7420583A200020453A00205A46
:1006C0003A0020593A00583A0020004D61676E7593
:1006D0006D20506173746120457874727564657221
:1006E00020454E41424C4544004649524D574152E7
:1006F000455F56455253494F4E3A4D61676E756D91
:100700002D554E492D4230332D68316220464952D5
:100710004D574152455F4E414D453A4D61726C69AE
:100720006E2056313B20537072696E7465722F676C
:1007300072626C206D617368757020666F722067DD
:10074000656E36204649524D574152455F55524CD1
:100750003A68747470733A2F2F6769746875622EE3
:10076000636F6D2F4D61676E756D33442050524F2E
:10077000544F434F4C5F56455253494F4E3A312EDA
:1007800030204D414348494E455F545950453A4DFC
:1007900061676E756D2D33442D67656E2E322D4D5C
:1007A00061676E756D2D554E492D4230332D683180
:1007B000622045585452554445525F434F554E545C
:1007C0003A3120555549443A6565346536396334C4
:1007D0002D643131312D346334352D623939322D68
:1007E0003761363765313038633664380A004D6119
:1007F000676E756D2D33442D67656E2E3220D09255
:10080000D18BD0BAD0BB2E002020202A20D0A1D15D
:1008100082D0BED0BB20D0BDD0B0D0B3D180D0B5B7
:10082000D182202A20200020423A0020453A00545C
:100830003A00D09DD0B0D0B3D180D0B5D0B220D1C5
:1008400081D182D0BED0BBD0B0202E2E2E20202031
:1008500020002A20D0ADD0BAD181D182D180D183DD
:10086000D0B4D0B5D18020D0BDD0B0D0B3D180D05D
:10087000B5D182202A0020573A0020453A00543A48
:1008800000D09DD0B0D0B3D180D0B5D0B220D18D22
:10089000D0BAD181D182D180D183D0B4D0B5D1802A
:1008A000D0B0202E2E002042403A0020403A0020B6
:1008B0002F003A00205400202F0020423A00202F21
:1008C000006F6B20543A002569206D696E2C20253D
:1008D000692073656300456E642066696C65206CF1
:1008E00069737400426567696E2066696C65206C87
:1008F00069737400D09DD0B5D18220D0B4D0B2D06D
:10090000B8D0B6D0B5D0BDD0B8D18F2E00496E6961
:1009100074204C61736572204669727374210A00F9
:100920002D3D20D0B3D0BED182D0BED0B220D0BA1F
:1009300020D0BFD0B5D187D0B0D182D0B8203D2D46
:1009400000D09FD180D0BED0B4D0BED0BBD0B6D066
:10095000B5D0BDD0B8D0B520D0BFD0B5D187D0B03C
:10096000D182D0B800D09ED09A20D0B4D0BBD18F45
:1009700020D0BFD180D0BED0B4D0BED0BBD0B6D0F6
:10098000B5D0BDD0B8D18F00D09FD0B0D183D0B773
:10099000D0B020282347342900D09FD0B5D187D0AC
:1009A000B0D182D18C202569D1872E202569D0BC79
:1009B000D0B8D0BD2E00256920686F7572732025D0
:1009C00069206D696E7574657300446F6E65207083
:1009D00072696E74696E672066696C6500D09ED11D
:1009E00081D182D0B0D0BDD0BED0B2D0BBD0B5D036
:1009F000BD2E20234D393939005072696E746572ED
:100A00002073746F707065642064756520746F2046
:100A10006572726F72732E20466978207468652043
:100A20006572726F7220616E6420757365204D3936
:100A3000393920746F20726573746172742E2028A6
:100A400054656D706572617475726520697320728A
:100A5000657365742E205365742069742061667413
:100A600065722072657374617274696E6729004ED5
:100A70006F204C696E65204E756D626572207769D6
:100A8000746820636865636B73756D2C204C6173AB
:100A900074204C696E653A20004E6F204368656390
:100AA0006B73756D2077697468206C696E65206E54
:100AB000756D6265722C204C617374204C696E6593
:100AC0003A2000636865636B73756D206D69736DA3
:100AD000617463682C204C617374204C696E653AB4
:100AE00020004C696E65204E756D626572206973D9
:100AF000206E6F74204C617374204C696E65204EBB
:100B0000756D6265722B312C204C617374204C69B9
:100B10006E653A20004D313130004D363030004D99
:100B2000363030205300446F6E6520736176696EF5
:100B3000672066696C652E006F6B004D32390020AE
:100B400020506C616E6E65724275666665724279A0
:100B50007465733A20002046726565204D656D6F9F
:100B600072793A20004D61722020342032303230C8
:100B700000436F6D70696C65643A20002849727794
:100B8000696E20636F2E2C204D61676E756D20336A
:100B9000442900207C20417574686F723A20004D12
:100BA000617220203420323032302031353A3130F9
:100BB0003A343700204C6173742055706461746559
:100BC000643A2000312E302E30004D61726C696E17
:100BD0000020536F66747761726520526573657487
:100BE00000205761746368646F6720526573657491
:100BF000002042726F776E206F75742052657365A6
:100C000074002045787465726E616C20526573655E
:100C10007400506F77657255700073746172740060
:100C20002200656E717565696E672022002200657D
:100C30006E717565696E672022000101FF0000A0DA
:100C4000400000A04000000040000082430000344B
:100C5000430000344300008243000034430000009E
:100C600000000082430000344300003443000000D1
:100C70000000000000000000006563686F3A004556
:100C800072726F723A007C3C3E5E2B3D3F2F5B5D83
:100C90003B2C2A225C004D383420582059205A2001
:100CA000450043616E6E6F7420656E7465722073CB
:100CB00075626469723A20004D3234004D3233203F
:100CC0002573006175746F25692E67006572726FF8
:100CD000722077726974696E6720746F2066696C20
:100CE00065004E6F74205344207072696E74696E93
:100CF00067002F005344207072696E74696E67201C
:100D00006279746520002E0044656C6574696F6EAD
:100D1000206661696C65642C2046696C653A200028
:100D200046696C652064656C657465643A002E00E4
:100D30006F70656E206661696C65642C2046696C15
:100D4000653A200057726974696E6720746F206677
:100D5000696C653A20002E006F70656E20666169CF
:100D60006C65642C2046696C653A20002E006F701B
:100D7000656E206661696C65642C2046696C653A15
:100D8000200046696C652073656C6563746564005A
:100D90002053697A653A200046696C65206F70655A
:100DA0006E65643A20002E006F70656E2066616982
:100DB0006C65642C2046696C653A20004E6F772084
:100DC00066726573682066696C653A20004E6F77BD
:100DD00020646F696E672066696C653A2000222086
:100DE000706F73002220706172656E743A22005336
:100DF0005542524F5554494E452043414C4C207466
:100E000061726765743A2200747279696E67207442
:100E10006F2063616C6C207375622D67636F64650E
:100E20002066696C6573207769746820746F6F2021
:100E30006D616E79206C6576656C732E204D41581E
:100E4000206C6576656C2069733A005344206361B9
:100E50007264206F6B006F70656E526F6F742066E6
:100E600061696C656400766F6C756D652E696E697D
:100E700074206661696C656400534420696E69740E
:100E8000206661696C0020636F6C64206578747201
:100E90007573696F6E2070726576656E7465640037
:100EA00028002920453A00280029205A3A00280025
:100EB0002920593A00280020583A00537465707070
:100EC00065722063757272656E742076616C7565EB
:100ED00073205B2528726177295D3A00656E647323
:100EE000746F7073206869743A205A00205A3A006F
:100EF000656E6473746F7073206869743A2059006A
:100F000020593A00656E6473746F70732068697459
:100F10003A20580020583A00656E6473746F7073FD
:100F2000206869743A200024F4D43050C38E20C263
:100F3000A24017828B7011127A910D816CD90AA888
:100F400061E108C7586607615143061E4B5D05C144
:100F500045A7041A411104093D9803713931034032
:100F600036DB0265339102D4305402802E1D0263B9
:100F70002CEE01752AC501B028A001102781018F30
:100F80002564012B244B01E0223401AC211F018D8B
:100F9000200D01801FFC00841EED00971DDF00B8AE
:100FA0001CD200E61BC600201BBC00641AB200B2B3
:100FB00019A8000A19A0006A189900D117910040D9
:100FC000178B00B516840031167E00B31579003AF0
:100FD000157300C7146F0058146A00EE136600887A
:100FE00013630025135E00C7125B006C12570015D7
:100FF000125400C111510070114F0021114B00D645
:101000001049008D1047004610440002104200C0F5
:101010000F4000800F3E00420F3C00060F3B00CB0C
:101020000E3800930E37005C0E3500270E3400F3A7
:101030000D3200C10D3100900D3000600D2E0032D8
:101040000D2D00050D2C00D90C2B00AE0C290085B0
:101050000C29005C0C2700350C27000E0C2600E83C
:101060000B2400C40B2400A00B23007D0B23005A8B
:101070000B2100390B2100180B2000F80A1F00D9A2
:101080000A1E00BB0A1E009D0A1D00800A1D006387
:101090000A1C00470A1B002C0A1B00110A1A00F741
:1010A000091A00DD091900C4091900AB09190092D9
:1010B0000917007B091800630917004C0916003650
:1010C000091600200916000A091500F5081500E0A8
:1010D000081400CC081400B8081400A408140090E8
:1010E0000813007D0812006B081300580812004610
:1010F0000812003408110023081100120811000121
:10110000081100F0071000E0071000D0071000C021
:10111000071000B0070F00A107100091070E008311
:10112000070F0074070F0065070E0057070E0049F0
:10113000070E003B070D002E070E0020070D0013C1
:10114000070D0006070D00F9060C00ED060D00E086
:10115000060C00D4060C00C8060C00BC060C00B03F
:10116000060C00A4060B0099060C008D060B0082ED
:10117000060B0077060B006C060B0061060A005791
:10118000060B004C060A0042060A0038060A002E2A
:10119000060A0024060A001A060A001006090007BB
:1011A000060A00FD050900F4050900EB050900E247
:1011B000050900D9050900D0050900C7050900BEC9
:1011C000050900B5050800AD050800A50509009C46
:1011D000050800940508008C050800840508007CBB
:1011E000050800740508006C050700650508005D2A
:1011F000050700560508004E050700470507004093
:1012000005080038050700310507002A05070023F7
:101210000507001C050600160507000F0507000856
:1012200005060002050700FB040600F5040700EEB2
:10123000040600E8040600E2040700DB040600D50B
:10124000040600CF040600C9040600C3040600BD5E
:10125000040600B7040600B1040500AC040600A6AD
:10126000040600A00405009B0406009504050090F8
:101270000406008A04050085040500800406007A3F
:1012800004050075040500700405006B0405006684
:10129000040500610405005C0405005704050052C4
:1012A0000405004D04050048040500430405003E04
:1012B0000404003A04050035040500300404002C41
:1012C00004050027040400230405001E0404001A7A
:1012D00004040016040500110404000D04040009B0
:1012E0000405000404040000040400FC030400F8E6
:1012F000030400F4030400F0030400EC030400E81A
:10130000030400E4030400E0030400DC030400D849
:10131000030400D4030400D0030400CC030400C879
:10132000030300C503030024F404D9201BC40C5C90
:101330000E9804C4095F0265077101F405F900FB0A
:1013400004B30048048700C1036900580355000333
:10135000034500BE023A008402310053022A0029EC
:1013600002250004022000E4011C00C8011900AF9E
:10137000011700980114008401130071011000612D
:1013800001100051010E0043010D0036010B002B2E
:10139000010B0020010B00150109000C01090003DD
:1013A000010800FB000800F3000800EB000700E460
:1013B000000600DE000600D8000600D2000600CCC1
:1013C000000500C7000500C2000500BD000400B90B
:1013D000000400B5000400B1000400AD000400A941
:1013E000000400A5000300A20003009F0004009B6E
:1013F0000003009800030095000200930003009092
:101400000003008D0002008B0003008800020086AC
:1014100000020084000300810002007F0002007DC2
:101420000002007B000200790002007700010076D4
:101430000002007400020072000100710002006FDF
:101440000002006D0001006C0002006A00010069EA
:1014500000020067000100660001006500010064F1
:101460000002006200010061000100600001005FF5
:101470000002005D0001005C0001005B0001005AF9
:1014800000010059000100580001005700010056FA
:1014900000010055000100540001005300000053FA
:1014A0000001005200010051000100500001004FF6
:1014B0000001004E0000004E0001004D0001004CF4
:1014C0000001004B0000004B0001004A00010049F0
:1014D00000010048000000480001004700010046EC
:1014E00000000046000100450000004500010044E6
:1014F00000010043000000430001004200000042E0
:101500000001004100000041000100400001003FD7
:101510000000003F0001003E0000003E0001003DD1
:101520000000003D0001003C0000003C0000003CC9
:101530000001003B0000003B0001003A0000003ABF
:1015400000010039000000390001003800000038B7
:1015500000000038000100370000003700010036AD
:1015600000000036000000360001003500000035A4
:101570000000003500010034000000340000003499
:10158000000100330000003300000033000100328E
:101590000000003200000032000100310000003184
:1015A0000000003100010030000000300000003079
:1015B0000001002F0000002F0000002F0000002F6E
:1015C0000001002E0000002E0000002E0001002D62
:1015D0000000002D0000002D0000002D0001002C57
:1015E0000000002C0000002C0000002C0001002B4B
:1015F0000000002B0000002B0000002B0001002A3F
:101600000000002A0000002A0000002A0001002932
:101610000000002900000029000000290000002926
:101620000001002800000028000000280000002819
:10163000000000280001002700000027000000270C
:1016400000000027000000270001002600000026FF
:1016500000000026000000260000002600010025F2
:1016600000000025000000250000002500000025E6
:1016700000000025000100240000002400000024D8
:1016800000000024000000240001002300000023CB
:1016900000000023000000230000002300000023BE
:1016A00000000023000100220000002200000022B0
:1016B00000000022000000220000002200010021A2
:1016C0000000002100000021000000210000002196
:1016D0000000002100000021000100200000002087
:1016E000000000200000002000000020000000207A
:1016F00000000020000000200001001F0000001F6B
:101700000000001F0000001F0000001F0000001F5D
:101710000000001F0001001E0000001E0000001E4F
:101720000000001E0000004572723A204D415854DE
:10173000454D50204245440054656D70657261749A
:1017400075726520686561746564206265642073E4
:1017500077697463686564206F66662E204D415812
:1017600054454D5020747269676765726564202125
:1017700021004D494E20D09ED188D0B8D0B1D0BAEA
:10178000D0B020D182D0B5D180D0BCD0B8D181D159
:1017900082D0BED180003A2045787472756465723B
:1017A000207377697463686564206F66662E204DC8
:1017B000494E54454D50207472696767657265647F
:1017C0002021004D415820D09ED188D0B8D0B1D032
:1017D000BAD0B020D182D0B5D180D0BCD0B8D18120
:1017E000D182D0BED180003A20457874727564658C
:1017F00072207377697463686564206F66662E2053
:101800004D415854454D5020747269676765726543
:1018100064202100544845524D414C2052554E41C0
:10182000574159204500544845524D414C2052558E
:101830004E415741592042454400546865726D61DC
:101840006C2052756E617761792C207379737465A1
:101850006D2073746F7070656421204865617465D4
:10186000725F49443A2000504944204175746F74B6
:10187000756E652066696E697368656421205075B0
:101880007420746865206C617374204B702C204B3D
:101890006920616E64204B6420636F6E7374616EA7
:1018A00074732066726F6D2061626F766520696E59
:1018B000746F20436F6E66696775726174696F6ECD
:1018C0002E6800504944204175746F74756E652010
:1018D0006661696C6564212074696D656F7574005B
:1018E00020403A006F6B20543A006F6B20423A0060
:1018F000504944204175746F74756E652066616946
:101900006C6564212054656D7065726174757265D3
:1019100020746F6F206869676800204B643A20006C
:10192000204B693A2000204B703A200020436C6124
:10193000737369632050494420002054753A200095
:10194000204B753A2000206D61783A2000206D69A7
:101950006E3A200020643A200020626961733A20C8
:101960000070012C0190012701B0012201C0011D6E
:1019700001F00118011002130130020E016002098A
:101980000190020401C002FF000003FA004003F5C9
:10199000008003F000D003EB002004E6007004E1B7
:1019A00000E004DC004005D700C005D2004006CDB1
:1019B00000D006C8008007C3003008BE00F008B998
:1019C00000C009B400B00AAF00B00BAA00D00CA54B
:1019D00000000EA000500F9B00C010960050129106
:1019E0000000148C00C0158700B0178200B0197D6C
:1019F00000D01B7800001E730040206E009022690A
:101A000000F024640040275F0090295A00E02B5525
:101A100000102E500020304B0010324600E03341C1
:101A20000090353C001037370070383200A0392D57
:101A300000B03A2800A03B2300603C1E00103D1976
:101A400000903D1400103E0F00703E0A00C03E059D
:101A500000003F000047323800534420D0BAD0B0D5
:101A6000D180D182D0B020D0B8D0B7D0B2D0BBD046
:101A7000B5D187D0B5D0BDD0B000534420D0BAD0B6
:101A8000B0D180D182D0B020D183D181D182D0B0E9
:101A9000D0BDD0BED0B2D0BBD0B5D0BDD0B0002D5F
:101AA0002D3A2D2D002D2D2D0053440020200020F7
:101AB000590001200001200020D09FD0B0D181D159
:101AC00082D0B000202000202A0020D09BD0B0D0AF
:101AD000B7D0B5D1800020D0BFD180D0BED0B4D097
:101AE000BED0BBD0B6D0B5D0BDD0B8D18F20D0BF7E
:101AF000D0B5D187D0B0D182D0B82000202020D05E
:101B00009DD0B0D0B6D0BCD0B8D182D0B5204F4B8C
:101B100020D0B4D0BBD18F202020003C20D097D043
:101B2000B0D0BCD0B5D0BDD0B8D182D0B520D0BF58
:101B3000D180D183D182D0BED0BA20203E0020D027
:101B40009DD0B0D0B6D0BCD0B8D182D0B520D0B462
:101B5000D0BBD18F20D0BFD0B5D187D0B0D182D06B
:101B6000B820002020D097D0B0D0B3D180D183D07E
:101B7000B7D0B8D182D0B520D0BFD180D183D182A7
:101B8000D0BED0BA2120003CD09FD180D183D18259
:101B9000D0BED0BA20D0BDD0B520D0B7D0B0D0B351
:101BA000D180D183D0B6D0B5D0BD3E00332ED09DEC
:101BB000D0B0D0B6D0BCD0B8D182D0B520D0B4D0BF
:101BC000BBD18F20D0BFD0B5D187D0B0D182D0B813
:101BD00000322ED097D0B0D0B3D180D183D0B7D03F
:101BE000B8D182D0B520D0BFD180D183D182D0BE30
:101BF000D0BA202000312ED094D0BED0B6D0B4D0F0
:101C0000B8D182D0B5D181D18C20D0BDD0B0D0B3E5
:101C1000D180D0B5D0B2D0B0200020D0B2D0BAD0D0
:101C2000BBD18ED187D0B5D0BDD0B8D18F20D0BD9B
:101C3000D0B0D0B3D180D0B5D0B2D0B02120002068
:101C40002020D09DD0B0D0B6D0BCD0B8D182D0B5F5
:101C5000204F4B20D0B4D0BBD18F202020003C207F
:101C6000D0A0D0B0D181D188D0B8D180D0B5D0BDEE
:101C7000D0BDD0B0D18F20D09FD0B0D183D0B7D03D
:101C8000B03E0020D0B2D0BAD0BBD18ED187D0B573
:101C9000D0BDD0B8D18F20D0BDD0B0D0B3D180D0FE
:101CA000B5D0B2D0B0212000202020D09DD0B0D01F
:101CB000B6D0BCD0B8D182D0B5204F4B20D0B4D054
:101CC000BBD18F202020003C2020D09CD0BED0BD96
:101CD000D0B8D182D0BED18020D0BFD180D183D125
:101CE00082D0BAD0B020203E002020203C20D0BF9F
:101CF000D0BED0B4D0BED0B6D0B4D0B8D182D0B5DA
:101D000021203E202020002020203C20D09FD0BE3B
:101D1000D0B6D0B0D0BBD183D0B9D181D182D0B030
:101D2000203E2020200020202D2D2D2D2D2D2D2D4D
:101D30002D2D2D2D2D2D2D2D2020003C202020D08F
:101D400097D0B0D0BCD0B5D0BDD0B020D0BFD1805E
:101D5000D183D182D0BAD0B020203E00D0BFD0BB3A
:101D6000D0B0D181D182D0B8D0BA20D0B8D0B720ED
:101D7000D181D0BED0BFD0BBD0B0202E2E2E00D06F
:101D80009FD0BED182D18FD0BDD0B8D182D0B52066
:101D9000D0B2D18BD182D0B5D0BAD0B0D18ED189CA
:101DA000D0B8D0B920003CD09FD180D183D182D08F
:101DB000BED0BA20D0B7D0B0D0B3D180D183D0B606
:101DC000D0B0D0B5D182D181D18F3E003C3D202012
:101DD000D097D0B0D0BCD0B5D0BDD0B020D0BFD17E
:101DE00080D183D182D0BAD0B0203D3E00D09ED0E9
:101DF0009A20D0B4D0BBD18F20D0BDD0B0D187D065
:101E0000B0D0BBD0B020D0BFD0BED0B4D0B0D1877E
:101E1000D0B800D0B220D18DD0BAD181D182D180BA
:101E2000D183D0B4D0B5D18020D0B4D0BE20D1835E
:101E3000D0BFD0BED180D0B0002020D097D0B0D0BD
:101E4000B3D180D183D0B7D0B8D182D0B520D0BFA4
:101E5000D180D183D182D0BED0BA2020003C3D2099
:101E600020D097D0B0D0BCD0B5D0BDD0B020D0BF9E
:101E7000D180D183D182D0BAD0B0203D3E00202085
:101E8000D09ED09A20D0B4D0BBD18F20D0B7D0B0C4
:101E9000D0B2D0B5D180D188D0B5D0BDD0B8D18F97
:101EA000200020D0BFD180D183D182D0BED0BA2033
:101EB000D0B220D18DD0BAD181D182D180D183D07E
:101EC000B4D0B5D18020002020D097D0B0D0B3D1ED
:101ED00080D183D0B7D0B8D182D0B520D0BDD0BE0C
:101EE000D0B2D18BD0B9202020003C3D2020D0970B
:101EF000D0B0D0BCD0B5D0BDD0B020D0BFD180D173
:101F000083D182D0BAD0B0203D3E00D09FD0BED089
:101F1000B6D0B0D0BBD183D0B9D181D182D0B020DE
:101F2000D0BFD0BED0B4D0BED0B6D0B4D0B8D1829D
:101F3000D0B50001200020D182D0B5D0BCD0BFD018
:101F4000B5D180D0B0D182D183D180D0B03A200039
:101F500020D0BDD0B0D0B3D180D0B5D0B220D18DFB
:101F6000D0BAD181D182D180D183D0B4D0B5D18043
:101F7000D0B02020003C202020D097D0B0D0BCD0C2
:101F8000B5D0BDD0B020D0BFD180D183D182D0BA5E
:101F9000D0B020203E002020D09ED09A202D20D0EE
:101FA000B7D0B0D0B2D0B5D180D188D0B8D182D19D
:101FB0008C20202020003ED186D0B5D0BDD182D14A
:101FC00080D0B0D0BBD18CD0BDD18BD0BC3C20D088
:101FD000B2D0B8D0BDD182D0BED0BC0020D09ED16E
:101FE00082D180D0B5D0B3D183D0BBD0B8D180D18D
:101FF00083D0B9D182D0B520D181D182D0BED0BB1F
:1020000020002A20D09AD0B0D0BBD0B8D0B1D18097
:10201000D0BED0B2D0BAD0B020D181D182D0BED083
:10202000BBD0B0202A00D09ED09A202D20D181D0C4
:10203000BBD0B5D0B4D183D18ED189D0B0D18F20CF
:10204000D182D0BED187D0BAD0B000203C3D3D3D3A
:1020500020D0B2D0B8D0BDD182D0BED0BC20D181EA
:10206000D0BBD0B5D0B2D0B020200020D09ED1823D
:10207000D180D0B5D0B3D183D0BBD0B8D180D183FB
:10208000D0B9D182D0B520D181D182D0BED0BB20F1
:10209000002A20D09AD0B0D0BBD0B8D0B1D180D057
:1020A000BED0B2D0BAD0B020D181D182D0BED0BB08
:1020B000D0B0202A00D09ED09A202D20D181D0BB34
:1020C000D0B5D0B4D183D18ED189D0B0D18F20D129
:1020D00082D0BED187D0BAD0B00020D0B2D0B8D094
:1020E000BDD182D0BED0BC20D181D0BFD180D0B0F4
:1020F000D0B2D0B0203D3D3D3E200020D09ED182C8
:10210000D180D0B5D0B3D183D0BBD0B8D180D1836A
:10211000D0B9D182D0B520D181D182D0BED0BB2060
:10212000002A20D09AD0B0D0BBD0B8D0B1D180D0C6
:10213000BED0B2D0BAD0B020D181D182D0BED0BB77
:10214000D0B0202A00D09ED09A202D20D181D0BBA3
:10215000D0B5D0B4D183D18ED189D0B0D18F20D198
:1021600082D0BED187D0BAD0B0003ED186D0B5D013
:10217000BDD182D180D0B0D0BBD18CD0BDD18BD0DD
:10218000BC3C20D0B2D0B8D0BDD182D0BED0BC0033
:1021900020D09ED182D180D0B5D0B3D183D0BBD056
:1021A000B8D180D183D0B9D182D0B520D181D182AC
:1021B000D0BED0BB20002A20D09AD0B0D0BBD0B89F
:1021C000D0B1D180D0BED0B2D0BAD0B020D181D1E0
:1021D00082D0BED0BBD0B0202A0020202020D09EAC
:1021E000D09A202D20D09DD0B0D187D0B0D182D12F
:1021F0008C2020202020002020D181D0BED0BFD034
:10220000BBD0BE20D0BED18220D0BFD0BBD0B0D1F9
:1022100081D182D0B8D0BAD0B0200020D090D0BA2E
:10222000D0BAD183D180D0B0D182D0BDD0BE20D0A1
:10223000BED187D0B8D181D182D0B8D182D0B520DB
:10224000002A20D09AD0B0D0BBD0B8D0B1D180D0A5
:10225000BED0B2D0BAD0B020D181D182D0BED0BB56
:10226000D0B0202A00D09FD0BED0B6D0B0D0BBD145
:1022700083D0B9D181D182D0B020D0BFD0BED0B46C
:10228000D0BED0B6D0B4D0B8D182D0B50020D181E4
:10229000D182D0BED0BBD0B020D0B820D18DD0BAA2
:1022A000D181D182D180D183D0B4D0B5D180D0B00A
:1022B00020002020202020D098D0B4D0B5D182207A
:1022C000D0BDD0B0D0B3D180D0B5D0B220202020A6
:1022D000002A20D09AD0B0D0BBD0B8D0B1D180D015
:1022E000BED0B2D0BAD0B020D181D182D0BED0BBC6
:1022F000D0B0202A00D09FD0BED0B4D0B0D187D0EB
:10230000B0203120D18DD0BAD181D18200D09FD0E0
:10231000BED0B4D0B0D187D0B0203120D18DD0BACA
:10232000D181D18200D09ED0B1D0B4D183D0B2209F
:10233000D0BCD0BED0B4D0B5D0BBD0B800D09ED029
:10234000B1D0B4D183D0B220D0BCD0BED0B4D0B53F
:10235000D0BBD0B8003D20D0A1D182D0BED0BB2010
:102360007401003D20D0A1D182D0BED0BB20740129
:10237000000220D0ADD0BAD181D182D180D183D01A
:10238000B4D0B5D180207401000220D0ADD0BAD134
:1023900081D182D180D183D0B4D0B5D180207401D5
:1023A00000D0A1D0BAD0BED180D0BED181D182D14F
:1023B0008C00D0A1D0BAD0BED180D0BED181D18284
:1023C000D18C00D0A1D0BAD0BED180D0BED181D125
:1023D00082D0BDD0BED0B920D180D0B5D0B6D0B8D3
:1023E000D0BC00D09CD0B5D0BDD18E00D097D0B09D
:1023F000D0B3D180D183D0B7D0B8D182D18C20D006
:10240000BFD0BBD0B0D181D182D0B8D0BA00022029
:10241000D0ADD0BAD181D182D180D183D0B4D0B562
:10242000D180207401000220D0ADD0BAD181D182F8
:10243000D180D183D0B4D0B5D18020740100D09C9C
:10244000D0B5D0BDD18E00580059005A00457874DF
:10245000727564657200D0ADD0BAD181D182D1805D
:10246000D183D0B4D0B5D18000D094D0B2D0B8D080
:10247000B6D0B5D0BDD0B8D0B520D0BFD0BE20D05A
:10248000BED181D0B8205A00D094D0B2D0B8D0B646
:10249000D0B5D0BDD0B8D0B520D0BFD0BE20D0BE32
:1024A000D181D0B8205900D094D0B2D0B8D0B6D015
:1024B000B5D0BDD0B8D0B520D0BFD0BE20D0BED111
:1024C00081D0B8205800D094D0B2D0B8D0B6D0B512
:1024D000D0BDD0B8D0B520D0BFD0BE20D0BED18125
:1024E000D18FD0BC00D0A1D0B4D0B2D0B8D0BDD1A3
:1024F00083D182D18C20D0BDD0B020302E316D6DF3
:1025000000D0A1D0B4D0B2D0B8D0BDD183D182D1C7
:102510008C20D0BDD0B0202031206D6D00D0A1D056
:10252000B4D0B2D0B8D0BDD183D182D18C20D0BDAF
:10253000D0B0203130206D6D00D0A3D0BFD180D07D
:10254000B0D0B2D0BBD0B5D0BDD0B8D0B500D09748
:10255000D0B0D0BFD0BED0BCD0BDD0B8D182D18C8D
:1025600020D0BDD0BED0BBD18C00D094D0B2D0B8DA
:10257000D0B6D0B5D0BDD0B8D0B520D0BFD0BE2059
:10258000D0BED181D18FD0BC00D092D18BD0BAD067
:10259000BBD18ED187D0B8D182D18C20D0BDD0B064
:1025A000D0B3D180D0B5D0B20047323800D09FD060
:1025B000B0D180D0BAD0BED0B2D0BAD0B020D0BACC
:1025C000D0B0D180D0B5D182D0BAD0B8004D383497
:1025D00000D092D18BD0BAD0BB2E20D0B4D0B2D004
:1025E000B8D0B3D0B0D182D0B5D0BBD0B800D097DE
:1025F000D0B0D0B3D180D183D0B7D0B8D182D18C74
:1026000020D0BFD0BBD0B0D181D182D0B8D0BA0059
:10261000D09CD0B5D0BDD18E0047323800D09ED0EE
:10262000B1D0B4D183D0B220D0BCD0BED0B4D0B55C
:10263000D0BBD0B800D09ED0B1D0B4D183D0B2201E
:10264000D0BCD0BED0B4D0B5D0BBD0B8003D20D027
:10265000A1D182D0BED0BB207401003D20D0A1D139
:1026600082D0BED0BB207401000220D0ADD0BAD140
:1026700081D182D180D183D0B4D0B5D180207401F2
:10268000000220D0ADD0BAD181D182D180D183D007
:10269000B4D0B5D18020740100D09DD0B0D181D10B
:1026A00082D180D0BED0B8D182D18C20D0BFD18091
:1026B000D0B8D0BDD182D0B5D180004520204A65A8
:1026C000726B004520204A65726B005A20204A65D3
:1026D000726B005A20204A65726B005859204A6577
:1026E000726B005859204A65726B00D0A3D181D01B
:1026F000BAD0BED180D0B5D0BDD0B8D0B500D0A3AF
:10270000D181D0BAD0BED180D0B5D0BDD0B8D0B5EF
:1027100000D09DD0B0D181D182D180D0BED0B8D1EF
:1027200082D18C20D0BFD180D0B8D0BDD182D0B5DD
:10273000D18000D092D18BD0BAD0BB00D092D0BA89
:10274000D0BB00D092D18BD0BAD0BB00D092D0BA3F
:10275000D0BB00D09FD0B0D181D182D0B020465222
:1027600000D092D18BD0BAD0BB00D092D0BAD0BB1F
:1027700000D092D18BD0BAD0BB00D092D0BAD0BB0F
:1027800000D09FD0B0D181D182D0B0204449520036
:10279000D09FD180D0B8D181D182D0B0D0B2D0BAC0
:1027A000D0B020D09FD0B0D181D182D0B000D09213
:1027B000D18BD0BAD0BB00D092D0BAD0BB00D092CF
:1027C000D18BD0BAD0BB00D092D0BAD0BB00D0A2AF
:1027D000D0B5D181D18200D092D18BD0BAD0BB00FC
:1027E000D092D0BAD0BB00D092D18BD0BAD0BB009F
:1027F000D092D0BAD0BB00D09BD0B0D0B7D0B5D19A
:102800008000D09BD0B0D0B7D0B5D180D0BDD0B0F3
:10281000D18F20D0B3D0BED0BBD0BED0B2D0BAD032
:10282000B000D09BD0B0D0B7D0B5D180D0BDD0B0A3
:10283000D18F20D0B3D0BED0BBD0BED0B2D0BAD012
:10284000B000D09FD180D0B8D181D182D0B0D0B2E9
:10285000D0BAD0B020D09FD0B0D181D182D0B0003A
:10286000D094D0BED0BFD0BED0BBD0BDD0B5D0BD2F
:10287000D0B8D18F204D61676E756D00D0A1D0B1F9
:10288000D180D0BED18120D0BDD0B0D181D182D174
:1028900080D0BED0B5D0BA00D0A7D182D0B5D0BD3F
:1028A000D0B8D0B520D0BDD0B0D181D182D180D028
:1028B000BED0B5D0BA00D097D0B0D0BFD0B8D181FB
:1028C000D18C20D0BDD0B0D181D182D180D0BED02A
:1028D000B5D0BA00D094D0BED0BFD0BED0BBD0BD92
:1028E000D0B5D0BDD0B8D18F204D61676E756D0069
:1028F000D0A1D0BAD0BED180D0BED181D182D0BD3E
:10290000D0BED0B920D180D0B5D0B6D0B8D0BC0020
:10291000D09DD0B0D0B3D180D0B5D0B220D0B82027
:10292000D0BED0B1D0B4D183D0B200D09AD0B0D084
:10293000BBD0B8D0B1D180D0BED0B2D0BAD0B02048
:10294000D181D182D0BED0BBD0B000D09CD0B5D088
:10295000BDD18E004D383420582059205A204500D2
:102960004D3234004D323320257300052E2E004D9C
:10297000323100040420D0BED0B1D0BDD0BED0B220
:10298000D0B8D182D18C20040400D09CD0B5D0BD69
:10299000D18E00D09DD0B5D18220534420D0BAD062
:1029A000B0D180D182D18B00D09CD0B5D0BDD18E9A
:1029B00020534420D0BAD0B0D180D182D18B00D066
:1029C0009FD180D0B5D0BAD180D0B0D182D0B8D18B
:1029D00082D18C20D0BFD0B5D187D0B0D182D18C5C
:1029E00000D09FD180D0BED0B4D0BED0BBD0B6D0A6
:1029F000B8D182D18C20D0BFD0B5D187D0B0D18210
:102A0000D18C00D09FD0B0D183D0B7D0B020D0BF70
:102A1000D0B5D187D0B0D182D0B800D0A0D0B0D1BD
:102A200081D188D0B8D180D0B5D0BDD0BDD0B0D103
:102A30008F20D0BFD0B0D183D0B7D0B000D097D046
:102A4000B0D0BCD0B5D0BDD0B8D182D18C20D0BF51
:102A5000D0BBD0B0D181D182D0B8D0BA00D09DD077
:102A6000B0D181D182D180D0BED0B8D182D18C20DA
:102A7000D0BFD180D0B8D0BDD182D0B5D18000D068
:102A8000A3D0BFD180D0B0D0B2D0BBD0B5D0BDD054
:102A9000B8D0B500D09FD0BED0B4D181D182D18082
:102AA000D0BED0B9D0BAD0B020D0BFD0B5D187D0A9
:102AB000B0D182D0B800D092D18BD185D0BED0B465
:102AC00020D0B8D0B720D0BCD0B5D0BDD18E0001B9
:102AD00029022904290829102920294029802901AF
:102AE0002C022C0126022604260826102620264029
:102AF000268026402C802C01230223042308231047
:102B000023202340238023012002200420082010BA
:102B100020202040208020102C202C012F022F0468
:102B20002F082F102F202F402F802F7EFE7EFD7E1E
:102B3000FB7EF77EEF7EDF7EBF7E7F00010000EC34
:102B40002B1200020000A92B4300030000A52B0458
:102B5000010309048B2B1802030904732B160303CA
:102B60000904652B0C0C03310032003300340035AE
:102B7000000000160355005300420020005300657A
:102B8000007200690061006C0000001803540065C9
:102B90000065006E00730079006400750069006EC6
:102BA000006F000000040309040902430002010051
:102BB000C0320904000001020201000524001001D6
:102BC000052401000104240206052406000107056E
:102BD000820308004009040100020A000000070502
:102BE00003024000000705840240000012010002B9
:102BF00002000020C016830400010102030100014D
:102C0000C102018036018136EC296B82DE9A58C7F9
:102C100025D2F02911241FBECFEFD0E2DEBFCDBFF9
:102C200015E0A0E0B1E0E6E3FBEB01E00BBF02C082
:102C300007900D92AA31B107D9F723E1AAE1B5E0D7
:102C400001C01D92A735B207E1F716E1C9E0D6E150
:102C500004C02197FE010E9422D7C430D107C9F7D2
:102C60000E94EDCA0C948FDD0C940000FB010190D2
:102C70000020E9F73197AF01461B570BDC01ED91BE
:102C8000FC910280F381E02D0994CF93DF931F9292
:102C9000CDB7DEB76983DC01ED91FC910280F38151
:102CA000E02D41E050E0BE016F5F7F4F09950F902E
:102CB000DF91CF910895EF92FF920F931F93CF93DF
:102CC0008C017B01C42FF70161917F01F8018081A4
:102CD00091810E9481DDF80180819181019691832B
:102CE0008083C15081F7CF911F910F91FF90EF909A
:102CF0000895EF92FF920F931F93CF938C017B0166
:102D0000C42FF801808191810E9479DDF7018193C0
:102D10007F01F80180819181019691838083C15068
:102D200081F7CF911F910F91FF90EF9008950F932E
:102D30001F93CF93DF93CDB7DEB760970FB6F894AC
:102D4000DEBF0FBECDBF8091130390911403A091FD
:102D50001503B091160389879A87AB87BC8704E671
:102D600010E0188B0F8744E0BE01675F7F4FCE01F4
:102D70000F96A1DF40E16AE071E1CE010F969BDF83
:102D800040E16AE171E1CE010F9695DF40E16AEF23
:102D900070E1CE010F968FDF44E062EF70E1CE016B
:102DA0000F9689DF44E06EEE70E1CE010F9683DF6F
:102DB00044E066EF70E1CE010F967DDF44E06EEDFA
:102DC00070E1CE010F9677DF44E06AE271E1CE0157
:102DD0000F9671DF44E06AEE70E1CE010F966BDF73
:102DE00044E066EE70E1CE010F9665DF44E062EEEE
:102DF00070E1CE010F965FDF4CE06AE177E0CE0133
:102E00000F9659DF42E06AE772E1CE010F9653DF79
:102E100042E068E772E1CE010F964DDF42E066E7DF
:102E200072E1CE010F9647DF42E064E772E1CE0126
:102E30000F9641DF42E062E772E1CE010F963BDF81
:102E400042E060E772E1CE010F9635DF44E067E0D3
:102E500077E0CE010F962FDF44E068E671E0CE0107
:102E60000F9629DF44E064E671E0CE010F9623DF80
:102E700044E060E671E0CE010F961DDF80E290E055
:102E80009E878D8742E0BE01635F7F4FCE010F9624
:102E900012DF41E066E377E0CE010F960CDF44E0FD
:102EA0006BE171E0CE010F9606DF1D821E821F824C
:102EB000188644E0BE016B5F7F4FCE010F96FBDEAC
:102EC00044E0BE016B5F7F4FCE010F96F4DE44E01D
:102ED000BE016B5F7F4FCE010F96EDDE44E0BE0179
:102EE0006B5F7F4FCE010F96E6DE809117039091C6
:102EF0001803A0911903B0911A0389839A83AB83B5
:102F0000BC83188B0F8744E0BE016F5F7F4FCE01FB
:102F10000F96D1DEE9E7FCE064918F01662341F072
:102F20008BE493E1B2DE0F5F1F4FF8016491F6CF9F
:102F3000E1E7F3E064918F01662341F08BE493E1D4
:102F4000A4DE0F5F1F4FF8016491F6CF6AE08BE4B7
:102F500093E19BDE60960FB6F894DEBF0FBECDBF47
:102F6000DF91CF911F910F9108950F931F93CF93EE
:102F7000DF93C9E7DCE0FE0164918E01662341F036
:102F80008BE493E182DE0F5F1F4FF8016491F6CF6F
:102F9000E1E6F3E064918F01662341F08BE493E175
:102FA00074DE0F5F1F4FF8016491F6CF6AE08BE487
:102FB00093E16BDEFE01649109E71CE0662341F0BA
:102FC0008BE493E162DE0F5F1F4FF8016491F6CF4F
:102FD00040910A1150910B1160910C1170910D11DB
:102FE00089E593E00E94202240910E1150910F112B
:102FF000609110117091111186E593E00E942022DA
:10300000409112115091131160911411709115118A
:1030100083E593E00E9420224091161150911711F0
:10302000609118117091191180E593E00E9420229F
:1030300068EE74E08BE493E119DE6AE08BE493E1DF
:1030400024DEFE01649109E71CE0662341F08BE475
:1030500093E11BDE0F5F1F4FF8016491F6CFFE0175
:10306000649109E71CE0662341F08BE493E10DDEF7
:103070000F5F1F4FF8016491F6CFE6E3F3E0649130
:103080008F01662341F08BE493E1FFDD0F5F1F4F5B
:10309000F8016491F6CF6AE08BE493E1F6DDFE017E
:1030A000649109E71CE0662341F08BE493E1EDDDD8
:1030B0000F5F1F4FF8016491F6CF40911A115091A4
:1030C0001B1160911C1170911D118DE293E00E9403
:1030D000202240911E1150911F116091201170917A
:1030E00021118AE293E00E94202240912211509106
:1030F0002311609124117091251187E293E00E94C1
:103100002022409126115091271160912811709131
:10311000291184E293E00E94202268EE74E08BE49F
:1031200093E1A4DD6AE08BE493E1AFDDFE016491FD
:1031300009E71CE0662341F08BE493E1A6DD0F5F15
:103140001F4FF8016491F6CFE6E0F3E064918F0140
:10315000662341F08BE493E198DD0F5F1F4FF80188
:103160006491F6CF6AE08BE493E18FDDFE01649118
:1031700009E71CE0662341F08BE493E186DD0F5FF5
:103180001F4FF8016491F6CF4091FA105091FB1057
:103190006091FC107091FD108DEF92E00E94602212
:1031A0004091FE105091FF1060910011709101113B
:1031B0008AEF92E00E946022409102115091031127
:1031C000609104117091051187EF92E00E946022D6
:1031D00040910611509107116091081170910911E9
:1031E00084EF92E00E94602268EE74E08BE493E149
:1031F0003DDD6AE08BE493E148DDFE01649109E77F
:103200001CE0662341F08BE493E13FDD0F5F1F4F2D
:10321000F8016491F6CFEFEBF2E064918F01662341
:1032200041F08BE493E131DD0F5F1F4FF8016491B2
:10323000F6CF6AE08BE493E128DDFE01649109E7B3
:103240001CE0662341F08BE493E11FDD0F5F1F4F0D
:10325000F8016491F6CF4091F2105091F310609113
:10326000F4107091F51086EB92E00E9420224091BC
:10327000EE105091EF106091F0107091F11083EB0F
:1032800092E00E94202268EE74E08BE493E1EEDC91
:103290006AE08BE493E1F9DCFE01649109E71CE04C
:1032A000662341F08BE493E1F0DC0F5F1F4FF801E0
:1032B0006491F6CFE0E0F2E064918F01662341F083
:1032C0008BE493E1E2DC0F5F1F4FF8016491F6CFCE
:1032D0006AE08BE493E1D9DCFE01649109E71CE02C
:1032E000662341F08BE493E1D0DC0F5F1F4FF801C0
:1032F0006491F6CF4091F6105091F7106091F8105C
:103300007091F91087EF91E00E9420224091DE1029
:103310005091DF106091E0107091E11084EF91E026
:103320000E94202240912A1150912B1160912C1162
:1033300070912D1181EF91E00E9460224091EA107E
:103340005091EB106091EC107091ED108EEE91E0C9
:103350000E9420224091E6105091E7106091E81001
:103360007091E9108BEE91E00E9420224091E210D2
:103370005091E3106091E4107091E51088EE91E0B7
:103380000E94202268EE74E08BE493E16FDC6AE037
:103390008BE493E17ADCFE01649109E71CE066238B
:1033A00041F08BE493E171DC0F5F1F4FF8016491F2
:1033B000F6CFE6EDF1E064918F01662341F08BE4F6
:1033C00093E163DC0F5F1F4FF8016491F6CF6AE071
:1033D0008BE493E15ADCFE01649109E71CE066236B
:1033E00041F08BE493E151DC0F5F1F4FF8016491D2
:1033F000F6CF40911A0750911B0760911C077091FE
:103400001D078DEC91E00E94202240911E075091F3
:103410001F0760912007709121078AEC91E00E94BC
:103420002022409122075091230760912407709138
:10343000250787EC91E00E94202268EE74E08BE47F
:1034400093E114DC6AE08BE493E11FDCFE016491FC
:1034500009E71CE0662341F08BE493E116DC0F5F83
:103460001F4FF8016491F6CFE9EBF1E064918F0111
:10347000662341F08BE493E108DC0F5F1F4FF801F6
:103480006491F6CF6AE08BE493E1FFDBFE01649187
:10349000C9E7DCE0662339F08BE493E1F6DB2196A3
:1034A000FE016491F7CF40916801509169016091EC
:1034B0006A0170916B018FEA91E0C2D7609164015B
:1034C0007091650180916601909167010E9424903E
:1034D000AB01BC018CEA91E0B3D7609160017091BF
:1034E000610180916201909163010E943190AB0172
:1034F000BC0189EA91E0A4D768EE74E08BE493E123
:10350000B5DB6AE08BE493E1DF91CF911F910F91DE
:10351000BCCBAF92BF92CF92DF92EF92FF920F930C
:103520001F93CF93DF93CDB7DEB7E0970FB6F89434
:10353000DEBF0FBECDBF80E1E3EAF1E0DE01919690
:1035400001900D928A95E1F780E1E3EBF1E0DE0175
:10355000519601900D928A95E1F780E1E3ECF1E05C
:10356000DE01119601900D928A95E1F7DE019196A8
:103570006AE071E1AE014F5E5F4F2AE131E1CE01B9
:1035800001965C018AEF90E18E010F5C1F4FCD9098
:10359000DD90ED90FD90FB01C192D192E192F1920C
:1035A000BF01FA01C190D190E190F190AF01F90112
:1035B000C192D192E192F1929F01F501C190D19017
:1035C000E190F1905F01FC01C192D192E192F19200
:1035D000CF01A017B107D9F60E94A07880E090E053
:1035E000AAE7B4E48093F2109093F310A093F41040
:1035F000B093F51080E090E8ABE3B5E48093EE1073
:103600009093EF10A093F010B093F1101092F61079
:103610001092F7101092F8101092F91080E29EE4C8
:10362000A0E0B0E080932A1190932B11A0932C116D
:10363000B0932D111092DE101092DF101092E01056
:103640001092E11080E090E0A0E2B1E48093EA10F3
:103650009093EB10A093EC10B093ED108DEC9CECDC
:10366000ACECBEE38093E6109093E710A093E810D3
:10367000B093E91080E090E0A0EAB0E48093E2101B
:103680009093E310A093E410B093E51010922207FA
:1036900010922307109224071092250710921E07FC
:1036A00010921F07109220071092210710921A07FC
:1036B00010921B0710921C0710921D0786E990E0DC
:1036C00090937B1280937A1281E490E09093791228
:1036D00080937812109277121092761288EC90E014
:1036E000909375128093741289E690E09093731210
:1036F00080937212109271121092701280E090E01A
:10370000A0E4B1E48093680190936901A0936A01F9
:10371000B0936B016DEC7CEC8CE49FE30E941E90F7
:1037200060936401709365018093660190936701D3
:1037300060E070E082E392E40E942A90609360016E
:103740007093610180936201909363010E94C5832D
:1037500086E696E6A6EABFE380935C0190935D015E
:10376000A0935E01B0935F011092360780E090E075
:10377000A0E4B0E480931B0190931C01A0931D0171
:10378000B0931E010E94DA29E9E7FCE064918F0101
:10379000662341F08BE493E178DA0F5F1F4FF80165
:1037A0006491F6CFEDE6F1E064918F01662341F07C
:1037B0008BE493E16ADA0F5F1F4FF8016491F6CF53
:1037C0006AE08BE493E1E0960FB6F894DEBF0FBE9B
:1037D000CDBFDF91CF911F910F91FF90EF90DF90C0
:1037E000CF90BF90AF9051CA0F931F93CF93DF93A9
:1037F000CDB7DEB72C970FB6F894DEBF0FBECDBFA6
:1038000084E690E09C878B87809117039091180342
:10381000A0911903B0911A0389839A83AB83BC8367
:1038200044E0BE016B5F7F4FCE010B9662DA43E04E
:1038300050E0BE016B5F7F4FCE0101960E947EDAA1
:10384000892B09F0BEC040E16AE071E1CE010B9620
:1038500050DA40E16AE171E1CE010B964ADA40E1CB
:103860006AEF70E1CE010B9644DA0E94A07844E042
:1038700062EF70E1CE010B963CDA44E06EEE70E14F
:10388000CE010B9636DA44E066EF70E1CE010B967E
:1038900030DA44E06EED70E1CE010B962ADA44E0B6
:1038A0006AE271E1CE010B9624DA44E06AEE70E13F
:1038B000CE010B961EDA44E066EE70E1CE010B9667
:1038C00018DA44E062EE70E1CE010B9612DA4CE0B9
:1038D0006AE177E0CE010B960CDA42E06AE772E12A
:1038E000CE010B9606DA42E068E772E1CE010B9654
:1038F00000DA42E066E772E1CE010B96FAD942E0C7
:1039000064E772E1CE010B96F4D942E062E772E11E
:10391000CE010B96EED942E060E772E1CE010B9644
:10392000E8D944E067E077E0CE010B96E2D944E0C5
:1039300068E671E0CE010B96DCD944E064E671E004
:10394000CE010B96D6D944E060E671E0CE010B962D
:10395000D0D942E0BE01675F7F4FCE010B96C9D937
:1039600041E066E377E0CE010B96C3D944E06BE11A
:1039700071E0CE010B96BDD90E94DA290E94C58361
:10398000E9E7FCE064918F01662341F08BE493E169
:103990007CD90F5F1F4FF8016491F6CFEFE8F1E09B
:1039A00064918F01662341F08BE493E16ED90F5F40
:1039B0001F4FF8016491F6CF6AE08BE493E165D97B
:1039C00001C0A7DDD2DA2C960FB6F894DEBF0FBE89
:1039D000CDBFDF91CF911F910F910895FC0185819B
:1039E00090E0FC010E94E9CB24E0322F3150F1F746
:1039F000FC010E94E3CB2150F1F7FC010E94E9CBCE
:103A000080E991E00197F1F708958F929F92AF922C
:103A1000BF92CF92DF92EF92FF920F931F93CF93BB
:103A2000DF934C017C0126E0E20EF11CC0E0D0E007
:103A3000C42ED12C062F10E0CC15DD05B4F45701AF
:103A4000D7018D917D010E943ACBD501EC91F0E038
:103A5000C8010C2E02C0959587950A94E2F78170F3
:103A6000082E0E94E0CB2196E7CFC401DF91CF91D1
:103A70001F910F91FF90EF90DF90CF90BF90AF908C
:103A80009F908F90ABCF1F93CF93DF93DC01139662
:103A9000EC911397F0E0042E0E94E0CB1496EC9189
:103AA000EF3F19F0F0E00E94E9CBFC01268524FFEE
:103AB00002C048E00EC0162FEC0170E084E075955E
:103AC00067958A95E1F744E0CF019FDF44E0612FDD
:103AD000CE01DF91CF911F9198CF40E0D4CF61E02C
:103AE000FCDF80E49FE10197F1F70895CF93DF9326
:103AF000CDB7DEB728970FB6F894DEBF0FBECDBFA7
:103B00009C0188E0E3EDF1E0DE01119601900D9259
:103B10008A95E1F7F9018289481710F04FEF480FB5
:103B2000FE013196E40FF11DE40FF11D9081690F44
:103B30006068C90128960FB6F894DEBF0FBECDBFEE
:103B4000DF91CF91CACFFC016785262F246027879C
:103B50006C60C3CFEF92FF920F931F93CF93DF93CD
:103B60008C017A01677088E0689FB001112460645D
:103B7000C801B3DFE701A8E0EA0EF11C6991D801A2
:103B8000ED91FC910190F081E02DC8010995CE15D1
:103B9000DF05A1F7DF91CF911F910F91FF90EF907B
:103BA00008950F931F93CF93DF93EC01423018F0E9
:103BB0008E8588608E874A8B1B8A222329F04130AC
:103BC00019F48E8584608E8780E49DE00197F1F77B
:103BD000EB81F0E00E94E9CBED81F0E00E94E9CBBF
:103BE000EC81EF3F19F0F0E00E94E9CB6E8564FDB7
:103BF0001DC044E063E0CE0108DF00E516E4C80123
:103C00000197F1F744E063E0CE01FFDEC8010197C0
:103C1000F1F744E063E0CE01F8DE88E592E0019739
:103C2000F1F744E062E0CE01F0DE13C06062CE0145
:103C300054DF80E596E40197F1F76E856062CE016E
:103C40004CDF88E592E00197F1F76E856062CE0166
:103C500044DF6E856062CE0140DF84E08F87CE0155
:103C600072DFCE013CDF82E0888B66E0CE01DF911F
:103C7000CF911F910F9131CF6F927F928F92AF9220
:103C8000CF92EF920F931F93CF93DF93CDB7DEB711
:103C90003C01162F842F5D854E853F859889F30161
:103CA000838324830583E682C782A0868186528728
:103CB0004387348795870E943ACBF30184818F3FF5
:103CC00011F00E943ACBF30185810E943ACB112377
:103CD00019F0F301168603C080E1F301868720E026
:103CE00041E060E1C301DF91CF911F910F91EF900F
:103CF000CF90AF908F907F906F9053CF8F92AF9275
:103D0000CF92EF920F93DC0112961C921297EFE183
:103D1000F3E0ED93FC931F921F921F921F928C2C45
:103D2000AE2CC02EE22E042F2FEF462F61E0A4DF31
:103D30000F900F900F900F900F91EF90CF90AF904A
:103D40008F900895AF92BF92CF92DF92EF92FF9241
:103D50000F931F93CF93DF936C018C010A5F1F4F6A
:103D60005801E12CF12CC62FD0E0EC16FD064CF4E6
:103D7000F50181915F010E94B6CBFFEFEF1AFF0AB8
:103D8000F4CFF601258130E0F9010E94E9CB84E00F
:103D9000982F9150F1F7F9010E94E3CB8150F1F790
:103DA00040E050E080E0A1E0B0E04C175D07B4F4E3
:103DB000F80191918F01E92FF0E00E94DCCCE13015
:103DC00039F4BD01042E01C0660F0A94EAF702C05F
:103DD00060E070E0862B4F5F5F4FE7CFF9010E94F4
:103DE000E9CBDF91CF911F910F91FF90EF90DF9082
:103DF000CF90BF90AF9008951F93CF93DF93DC01D6
:103E00001396EC911397F0E0062E0E94E0CB1496E7
:103E1000EC91EF3F19F0F0E00E94E3CBFC01268526
:103E200024FF05C068E0DF91CF911F918BCFEC019B
:103E300064E088DF182F1295107F64E0CE0182DFE6
:103E4000812BDF91CF911F9108951F93CF93DF9323
:103E5000EC01162F8C89813069F460E0CE01CCDF53
:103E60008F7798EF980F9C3028F4885C682F6068F3
:103E7000CE0133DE17FF21C0103C18F0105D1D8B02
:103E800020C01F73ED89E11105C0113051F441E0EC
:103E900062EA15C0E13029F4113119F441E065EB13
:103EA0000EC080E4E89FF00111247097E10FF11D2E
:103EB000EF57FC4F649141E002C041E0612FCE0119
:103EC000E2DD81E090E0DF91CF911F9108952F9284
:103ED0003F924F925F926F927F928F929F92AF929A
:103EE000BF92CF92DF92EF92FF920F931F93CF93E7
:103EF000DF9300D000D000D0CDB7DEB75C01FC016D
:103F0000E65CF34F1491880F991F880F991F9E83C9
:103F10008D838A5D984F9A838983FC011082118278
:103F20001282138222E337E04EE257E06AE277E042
:103F300086E297E00E94EC77ED81FE81E75BF34F2C
:103F4000C590D590E590F490612F110F770B880BF9
:103F5000990B0E94B5D32B013C018D819E818D5020
:103F6000994F4C0120E030E040EC5FE3C701B6011F
:103F70000E94E8D5A30192010E94E8D5F401608374
:103F80007183828393838D819E818B5D9E4F9C8301
:103F90008B83FC0160817181828193816093050133
:103FA00070930601809307019093080120E030E0B0
:103FB00040E752E40E941AD336E0C32E37E0D32EF6
:103FC0007B018C012FEF36E04BEF56E067EF76E098
:103FD00083EF96E00E94386E0E946480E981FA8146
:103FE000108211821282138222E337E04EE257E000
:103FF0006AE277E086E297E00E94EC778D819E810D
:10400000835C934F1C01FC0185919591A591B4911E
:10401000BC01CD019058A30192010E94E8D5F401A2
:10402000608371838283938320E030E040E752E431
:10403000609105017091060180910701909108013E
:104040000E941AD37B018C012FEF36E04BEF56E034
:1040500067EF76E083EF96E00E94386E0E946480FE
:10406000F10165917591859194919B01AC010E943C
:104070003AD2A30192010E94E8D5F40160837183D2
:104080008283938320E030E040E05FE3EB81FC81BA
:1040900060817181828193810E94E8D560930501DE
:1040A00070930601809307019093080120E030E0AF
:1040B00040E752E40E941AD37B018C012FEF36E0D7
:1040C0004BEF56E067EF76E083EF96E00E94386EA4
:1040D0000E946480ED81FE81EB5AF34F259135916A
:1040E00045915491ED81FE81E65EF84FC080D1800C
:1040F000E280F380C701B6010E943AD22B013C0155
:10410000E981FA816083718382839383ED81FE81EB
:10411000E359F34F25913591459154910D811E81BD
:10412000025F184FC701B6010E943AD2F8016083BE
:10413000718382839383ED81FE81EF59F34F259143
:104140003591459154918D819E81855F9E4F9A83D3
:104150008983C701B6010E943AD2E981FA8160835E
:10416000718382839383F4014082518262827382DD
:104170001092050110920601109207011092080199
:104180000E949479F501E55FF84F81E080832696DF
:104190000FB6F894DEBF0FBECDBFDF91CF911F9158
:1041A0000F91FF90EF90DF90CF90BF90AF909F90D6
:1041B0008F907F906F905F904F903F902F900895D9
:1041C000AB01770F660B770B0C9437CA0C9444CA7B
:1041D000FC01238121110C942A4F0895AF92BF92C4
:1041E000CF92DF92EF92FF920F931F93CF93DF93C3
:1041F000CDB7DEB7E0970FB6F894DEBF0FBECDBFE8
:104200008091C1098E010F5D1F4F811105C0809102
:10421000C009882309F468C060E070E0CB010E9407
:1042200097788BEA9AEAA6E2B5E480931611909308
:104230001711A0931811B093191180E1EBEDF1E083
:10424000DE01519601900D928A95E1F780E1EBEE47
:10425000F1E0DE01119601900D928A95E1F7DE0101
:1042600051962AE131E1CE0101967C018AEF90E17D
:104270004D915D916D917D91F901419351936193C0
:1042800071939F01F70141915191619171917F016A
:10429000FC014193519361937193CF01A017B10732
:1042A00039F70E94A07880E090E0A8E4B3E480931E
:1042B000F2109093F310A093F410B093F51080E0F7
:1042C00090E0A0E4B0E48093EA109093EB10A09308
:1042D000EC10B093ED108093E6109093E710A0934C
:1042E000E810B093E9107DC060E070E08AE293E4EA
:1042F0000E94977880E1EBEFF1E0D80101900D92F8
:104300008A95E1F780E1EBE0F2E0DE015196019061
:104310000D928A95E1F780E1EBE1F2E0DE01119682
:1043200001900D928A95E1F74AE051E1DE01519644
:104330002AE131E1CE0101965C018AEF90E1BE01F4
:104340006F5C7F4FF801C190D190E190F1908F01A7
:10435000FA01C192D192E192F192AF01CD90DD903C
:10436000ED90FD90F901C192D192E192F1929F01FD
:10437000F501C190D190E190F1905F01FC01C192F3
:10438000D192E192F192CF0106171707D9F60E9458
:10439000A07880E090E0AAE7B4E48093F2109093D4
:1043A000F310A093F410B093F51080E090E0A0E239
:1043B000B1E48093EA109093EB10A093EC10B093CB
:1043C000ED108DEC9CECACECBEE38093E61090938A
:1043D000E710A093E810B093E91080E090E0A0EA25
:1043E000B0E48093E2109093E310A093E410B093B4
:1043F000E510E0960FB6F894DEBF0FBECDBFDF919B
:10440000CF911F910F91FF90EF90DF90CF90BF90D1
:10441000AF9008958091C109882319F01092C109C5
:10442000729ADCCE1092C0098091C109882331F0C4
:10443000439A6A9A6A9A72986A9A7298729ACECED7
:10444000CF92DF92EF92FF92CF93DF93EC016A015C
:104450007B01FE016491662331F08BE493E10E94BD
:1044600045162196F6CF22E030E0B701A6018BE495
:1044700093E1DF91CF91FF90EF90DF90CF90A6CEA8
:10448000CF92DF92EF92FF92CF93DF93EC016A011C
:104490007B01FE016491662331F08BE493E10E947D
:1044A00045162196F6CF22E030E0B701A6018BE455
:1044B00093E1DF91CF91FF90EF90DF90CF9086CE88
:1044C000CF92DF92EF92FF92CF93DF93EC016A01DC
:1044D0007B01FE016491662331F08BE493E10E943D
:1044E00045162196F6CF20E0B701A6018BE493E1B3
:1044F000DF91CF91FF90EF90DF90CF900C94CBC9DC
:10450000CF93DF9320914C0530914D052430310538
:104510000CF064C0BC0120914E0530914F0540E67F
:10452000429FC001439F900D11248A5A9A4F0E94C6
:1045300077DAE9E7FCE06491EF01662341F08BE470
:1045400093E10E9445162196FE016491F6CFEFE2B9
:10455000FCE06491EF01662341F08BE493E10E945B
:1045600045162196FE016491F6CF80914E059091FB
:104570004F0520E6289FB001299F700D11246A5A2B
:104580007A4F8BE493E10E943616EDE2FCE06491F1
:10459000EF01662341F08BE493E10E9445162196DA
:1045A000FE016491F6CF6AE08BE493E10E94451628
:1045B00080914E0590914F05019664E070E00E9455
:1045C000D1D690934F0580934E0580914C059091E4
:1045D0004D05019690934D0580934C05DF91CF9149
:1045E0000895CF93DF9320914C0530914D052430F1
:1045F00031050CF064C0BC0120914E0530914F058F
:1046000040E6429FC001439F900D11248A5A9A4F61
:104610000E94DED9E9E7FCE06491EF01662341F0F6
:104620008BE493E10E9445162196FE016491F6CF3A
:10463000E2E2FCE06491EF01662341F08BE493E158
:104640000E9445162196FE016491F6CF80914E0599
:1046500090914F0520E6289FB001299F700D1124ED
:104660006A5A7A4F8BE493E10E943616E0E2FCE04E
:104670006491EF01662341F08BE493E10E944516BB
:104680002196FE016491F6CF6AE08BE493E10E94EB
:10469000451680914E0590914F05019664E070E0BB
:1046A0000E94D1D690934F0580934E0580914C0582
:1046B00090914D05019690934D0580934C05DF91A7
:1046C000CF910895EF92FF920F931F93CF93DF93B3
:1046D0000E947D9440E950ED63E070E08BE493E14B
:1046E0000E94BDD1EAE1FCE06491EF01662341F054
:1046F0008BE493E10E9445162196FE016491F6CF6A
:104700006AE08BE493E10E944516C9E7DCE0FE0114
:1047100064918E01662349F08BE493E10E94451673
:104720000F5F1F4FF8016491F5CF14B710FF15C04C
:10473000E2E1FCE064917F01662351F08BE493E1B8
:104740000E944516FFEFEF1AFF0AF7016491F4CFBC
:104750006AE08BE493E10E94451611FF15C0E2E088
:10476000FCE064917F01662351F08BE493E10E94A9
:104770004516FFEFEF1AFF0AF7016491F4CF6AE0E4
:104780008BE493E10E94451612FF15C0E1EFFBE0B8
:1047900064917F01662351F08BE493E10E944516FA
:1047A000FFEFEF1AFF0AF7016491F4CF6AE08BE4A0
:1047B00093E10E94451613FF15C0E1EEFBE0649102
:1047C0007F01662351F08BE493E10E944516FFEFD1
:1047D000EF1AFF0AF7016491F4CF6AE08BE493E1EA
:1047E0000E94451615FF14C0E1EDFBE064918F01B6
:1047F000662349F08BE493E10E9445160F5F1F4F3B
:10480000F8016491F5CF6AE08BE493E10E944516CC
:1048100014BEEAECFBE064918F01662349F08BE45F
:1048200093E10E9445160F5F1F4FF8016491F5CF89
:10483000E4ECFBE064918F01662349F08BE493E1A3
:104840000E9445160F5F1F4FF8016491F5CF6AE093
:104850008BE493E10E944516FE01649109E71CE098
:10486000662349F08BE493E10E9445160F5F1F4FCA
:10487000F8016491F5CFE4EBFBE064918F016623CE
:1048800049F08BE493E10E9445160F5F1F4FF8013A
:104890006491F5CFEFE9FBE064918F01662349F065
:1048A0008BE493E10E9445160F5F1F4FF80164915E
:1048B000F5CFE3E9FBE064918F01662349F08BE4D7
:1048C00093E10E9445160F5F1F4FF8016491F5CFE9
:1048D000ECE7FBE064918F01662349F08BE493E100
:1048E0000E9445160F5F1F4FF8016491F5CF6AE0F3
:1048F0008BE493E10E944516E1E7FBE064918F01B0
:10490000662349F08BE493E10E9445160F5F1F4F29
:10491000F8016491F5CFE5E6FBE064918F01662331
:1049200049F08BE493E10E9445160F5F1F4FF80199
:104930006491F5CF6AE08BE493E10E944516FE0195
:104940006491C9E7DCE0662341F08BE493E10E94C7
:1049500045162196FE016491F6CFE6E5FBE06491F1
:10496000EF01662341F08BE493E10E944516219606
:10497000FE016491F6CF0E94AE53BC018BE493E13B
:104980001FDCEFE3FBE06491EF01662341F08BE471
:1049900093E10E9445162196FE016491F6CF60EDE9
:1049A00074E08BE493E10CDC6AE08BE493E10E9419
:1049B000451610925205109253051092540510920C
:1049C00055050E94F41B0E9445840E94976C0E942A
:1049D000F1800E941380859ADF91CF911F910F91F2
:1049E000FF90EF900895809146059091470560E013
:1049F00070E001960C9450D7809146059091470540
:104A00004AE050E060E070E001960C94A3D8682F73
:104A1000880F770B209150053091510540E6429F59
:104A2000C001439F900D11248A5A9A4F0E9463DA65
:104A30009C01909347058093460581E0232B09F460
:104A400080E008950FB6F89480914013909141133F
:104A5000A0914213B09143130FBE809342059093EF
:104A60004305A0934405B09345050895CF93DF9384
:104A70000FB6F8948091401390914113A091421386
:104A8000B09143130FBE8093420590934305A093CA
:104A90004405B0934505E0915005F0915105EE5A5B
:104AA000FA4F8081811115C0EEE8F4E06491EF01C6
:104AB000662341F08BE493E10E9445162196FE01A6
:104AC0006491F6CF6AE08BE493E1DF91CF910C948F
:104AD0004516DF91CF9108958F929F92AF92BF922A
:104AE000CF92DF92EF92FF920F931F93CF93DF93BA
:104AF0008CE4E82E84E0F82E06E217E0C3EFD6E05F
:104B000099E3C92E97E0D92EF70181917F017FDFCC
:104B10008823F1F068DF4B015C01F60160816111CF
:104B200002C06091D60670E080E090E00E94B5D3AC
:104B3000F80120813181428153810E94E8D5A5018D
:104B400094010E943AD2688379838A839B8309C047
:104B5000F80180819181A281B38188839983AA839E
:104B6000BB830C5F1F4F2496FFEFCF1ADF0A80E54F
:104B7000E81684E0F80641F686E449DF882391F0E0
:104B800032DF6B017C0120E030E0A9010E9416D5E4
:104B9000181644F4C0920501D0920601E092070174
:104BA000F0920801DF91CF911F910F91FF90EF904C
:104BB000DF90CF90BF90AF909F908F9008958CDF43
:104BC00089E425DF882351F00EDF6093E7067093B8
:104BD000E8068093E9069093EA0608C01092E7067B
:104BE0001092E8061092E9061092EA068AE40FDFB6
:104BF000882351F0F8DE6093EB067093EC06809307
:104C0000ED069093EE0608951092EB061092EC06D6
:104C10001092ED061092EE060895CF92DF92EF9279
:104C2000FF92CF93DF93EC01C0900B01D0900C0169
:104C3000E0900D01F0900E01A70196016881798145
:104C40008A819B810E9416D5181624F4C882D982C5
:104C5000EA82FB82C0900F01D0901001E090110118
:104C6000F0901201A70196016C817D818E819F8158
:104C70000E9416D5181624F4CC82DD82EE82FF82C3
:104C8000C0901301D0901401E0901501F09016012E
:104C9000A7019601688579858A859B850E9416D52E
:104CA000181624F4C886D986EA86FB86DF91CF9150
:104CB000FF90EF90DF90CF900895CF92DF92EF9228
:104CC000FF920F931F9383EF96E0A7DF0FB6F89440
:104CD0008091401390914113A0914213B0914313DE
:104CE0000FBE8093420590934305A0934405B09373
:104CF00045052091F3063091F4064091F506509158
:104D0000F6066091260770912707809128079091F9
:104D100029070E9413D3811121C02091F7063091F9
:104D2000F8064091F9065091FA0660912A077091B1
:104D30002B0780912C0790912D070E9413D381118E
:104D40000DC020E030E040E752E460910501709131
:104D5000060180910701909108011EC06091230116
:104D600070912401072E000C880B990B0E94B5D37B
:104D700020910501309106014091070150910801F1
:104D80000E94E8D520E030E040E752E40E941AD3C8
:104D900020E030E048EC52E40E941AD326E0C22E14
:104DA00027E0D22E7B018C012FEF36E04BEF56E04F
:104DB00067EF76E083EF96E00E94386EE3EFF6E06F
:104DC000A6E2B7E041915191619171914D935D934C
:104DD0006D937D9387E0E330F807A1F71F910F9162
:104DE000FF90EF90DF90CF900895AF92BF92CF9257
:104DF000DF92EF92FF920F931F93CF93DF93F82EE2
:104E00002091EB063091EC064091ED065091EE06B4
:104E10006091E7067091E8068091E9069091EA06B4
:104E20000E9423D5EB01182F092F60912301709167
:104E30002401072E000C880B990B0E94B5D32091FA
:104E400005013091060140910701509108010E942F
:104E5000E8D520E030E040E752E40E941AD320E099
:104E600030E048EC52E40E941AD3209106072F93B9
:104E7000FF920F931F93DF93CF935B016C0182E04E
:104E8000E82E01E020E047EE56E063EF76E086E2B0
:104E900097E00E948A65E3EFF6E0A6E2B7E00F90A4
:104EA0000F900F900F900F900F9041915191619141
:104EB00071914D935D936D937D9387E0E330F80797
:104EC000A1F70FB6F8948091401390914113A091EF
:104ED0004213B09143130FBE809342059093430554
:104EE000A0934405B0934505DF91CF911F910F9199
:104EF000FF90EF90DF90CF90BF90AF9008950FB6E6
:104F0000F8948091401390914113A0914213B09175
:104F100043130FBE409128055091290560912A0541
:104F200070912B05841B950BA60BB70B843C994005
:104F3000A105B10508F454C00FB6F8948091401350
:104F400090914113A0914213B09143130FBE8093EF
:104F5000280590932905A0932A05B0932B05679BFC
:104F600028C0669B26C0339B24C00FB6F89480915E
:104F7000401390914113A0914213B09143130FBE7F
:104F800040912C0550912D0560912E0570912F05B3
:104F9000841B950BA60BB70B80319742A105B10579
:104FA000E0F4452B462B472BC1F08F9A879A8F9AB6
:104FB00008950FB6F8948091401390914113A091F9
:104FC0004213B09143130FBE80932C0590932D058F
:104FD000A0932E05B0932F05C8CF8F98879A8F98EE
:104FE0000895CF92DF92EF92FF920F931F93CF938A
:104FF000DF930FB6F89440914013509141136091A4
:105000004213709143130FBE8091220590912305A6
:10501000A0912405B091250584179507A607B70729
:1050200008F09CC08C509E4FAF4FBF4F809322051D
:1050300090932305A0932405B09325050091F611C4
:105040001091F711D091F811C091F91120E030E0E2
:10505000A901B8018D2F9C2F0E9413D387FF04C094
:1050600000E010E0D0E0C0E06091FE117091FF110F
:10507000072E000C880B990B0E94B5D36B017C01A5
:105080009B01AC01B8018D2F9C2F0E9416D51816DC
:105090001CF08601DE2DCF2D6091FC117091FD1169
:1050A000072E000C880B990B0E94B5D36B017C0175
:1050B00098014D2F5C2F0E9413D387FD03C08601FA
:1050C000DE2DCF2DC090F011D090F111E090F211B3
:1050D000F090F31198014D2F5C2FB601C7010E948B
:1050E00013D387FD03C08601DE2DCF2D20E030E0F5
:1050F0004CE552E4B8018D2F9C2F0E9416D518164E
:10510000F4F48091260581111AC05B9A5A9881E0C7
:10511000809326051092270520E030E048E552E410
:10512000B8018D2F9C2F0E9413D387FF17C05B9867
:105130005A9A1092260581E0809327050FC020E03F
:1051400030E048E552E4B8018D2F9C2F0E9413D324
:1051500087FF04C080912705882349F3DF91CF9111
:105160001F910F91FF90EF90DF90CF900895F894EA
:105170000E94F584779A10920B07769A10920C078A
:10518000479A10920D07439A8091C1098111729A32
:10519000EFE7FCE06491EF01662341F08BE493E1DB
:1051A0000E9445162196FE016491F6CFEFE6F4E0E9
:1051B0006491EF01662341F08BE493E10E94451670
:1051C0002196FE016491F6CF6AE08BE493E10E94A0
:1051D000451683E594E00E941C947894C6E0D0E0E4
:1051E000219749F068EC70E080E090E00E940DCEDD
:1051F0000E949394F5CFF894FFCFCF93DF930E9452
:10520000F5848091340581113AC081E080933405A2
:105210008091DB069091DC06A091DD06B091DE0660
:105220008093D7069093D806A093D906B093DA0658
:10523000EFE7FCE06491EF01662341F08BE493E13A
:105240000E9445162196FE016491F6CFEDEDF3E044
:105250006491EF01662341F08BE493E10E944516CF
:105260002196FE016491F6CF6AE08BE493E10E94FF
:10527000451681EC93E0DF91CF910C940F94DF9170
:10528000CF910895809134050895EF92FF921F9376
:10529000CF93DF93EC01809106078093350584E579
:1052A000B6DB182F811102C010E048C09CDB0E94C1
:1052B00087D3609335056623B9F3E9E7FCE0649191
:1052C0007F01662351F08BE493E10E9445168FEF36
:1052D000E81AF80AF7016491F4CFCD36D105B1F0A0
:1052E0004CF4C836D10579F0C936D105C1F46AE36A
:1052F00073E011C0CA3DD10561F0CD3DD10579F40F
:105300006FE773E008C063E273E005C061E573E036
:1053100002C068E673E08BE493E10E943616409188
:10532000350550E060E070E020E08BE493E10E94FE
:10533000CBC96AE08BE493E10E944516812FDF918F
:10534000CF911F91FF90EF900895CF92DF92EF924F
:10535000FF92209136072223F1F020E030E040E078
:105360005FE30E94E8D56B017C0120E030E0A901F9
:105370000E9413D3882379F0A7019601C701B601D3
:105380000E94E8D52BED3FE049E450E40E94E8D5C7
:105390009B01AC0104C020E030E040E85FE360E046
:1053A00070E080E89FE30E941AD3FF90EF90DF90B7
:1053B000CF90089560911B0170911C0180911D0197
:1053C00090911E01C2DF60931701709318018093C2
:1053D000190190931A0108958DE397E00C94865873
:1053E000EF92FF920F931F93CF93DF9384E594E0A6
:1053F0009093FC088093FB088EEF98E00E94E820D1
:10540000C8EBD8E00CE817E084E5E82E84E0F82E3D
:10541000F982E8828E81882321F0CE0103960E94D2
:105420002A4F6E970C171D0799F7C4E5D4E0D09367
:105430008D07C0938C078FE897E00E94E820D093F7
:105440006D07C0936C078FE697E0DF91CF911F91B6
:105450000F91FF90EF900C94E820CF93DF938BE4B3
:1054600093E10E9424D2E1E9F4E06491EF01662324
:1054700041F08BE493E10E9445162196FE01649170
:10548000F6CF4091DB065091DC066091DD0670910D
:10549000DE064F5F5F4F6F4F7F4F8BE493E10E94BB
:1054A00037CA6AE08BE493E10E944516DF91CF9101
:1054B000DDCA2F923F924F925F926F927F928F92AE
:1054C0009F92AF92BF92CF92DF92EF92FF920F9393
:1054D0001F93CF93DF93CDB7DEB76E970FB6F894D7
:1054E000DEBF0FBECDBF10E644E0C42ED12C59EF75
:1054F000A52E59E0B52E01E08BE493E10E9455D032
:10550000181619063CF480914C0590914D050497AE
:105510000CF448C080913F07882309F46FC3809141
:10552000490590914A05892B09F068C380914C0583
:1055300090914D05892B11F41092210580E6A82E3B
:10554000BB24B39490E8492E9EEE592E96E3692E23
:10555000712C8E010F5F1F4F29E9222E29E0322E78
:105560004091B3095091B4096091B5097091B609A1
:105570008091AB099091AC09A091AD09B091AE09B1
:10558000481759076A077B0708F038C380914C0514
:1055900090914D0504970CF031C380912105811144
:1055A0002DC3F8C18BE493E10E948ED080934B050C
:1055B0002091490530914A058A3061F08D3051F0D3
:1055C0008A3321F490914805992321F02F35310534
:1055D0000CF452C12115310519F4109248050EC37F
:1055E00080914E0590914F05189F4001199F900C96
:1055F0001124A4014A5A5A4F7A01FA01E20FF31F0B
:10560000108220914805211132C110924805FC01F9
:10561000EE5AFA4F10826EE470E0CA010E9463DA1B
:10562000009709F46EC090934705809346058E1944
:105630009F09880D991D4AE050E060E070E0895AAA
:105640009A4F0E94A3D86093DF067093E006809380
:10565000E1069093E2064090DB065090DC066090F5
:10566000DD067090DE065FEF451A550A650A750A79
:1056700080904E0590904F05641575058605970539
:1056800009F419C1189DC001199D900D112465E1FF
:105690007BE08A5A9A4F0E9415DA892B09F00BC1D8
:1056A000EFE7FCE064918F01662349F08BE493E11E
:1056B0000E9445160F5F1F4FF8016491F5CFE2EE8F
:1056C000FAE064918F01662349F08BE493E10E9434
:1056D00045160F5F1F4FF8016491F5CF4091DB062F
:1056E0005091DC066091DD067091DE068BE493E15B
:1056F0000E9437CA6AE08BE493E10E944516ADDE52
:1057000037C06AE270E0C7010E9463DA892B09F4AE
:1057100044C0EFE7FCE064918F01662349F08BE41D
:1057200093E10E9445160F5F1F4FF8016491F5CF7A
:10573000EFE6FAE064918F01662349F08BE493E190
:105740000E9445160F5F1F4FF8016491F5CF4091FD
:10575000DB065091DC066091DD067091DE068BE47D
:1057600093E10E9437CA6AE08BE493E10E944516F8
:1057700010924A051092490541C28091DF0690912E
:10578000E006A091E106B091E2068093DB069093DB
:10579000DC06A093DD06B093DE0680914E05909165
:1057A0004F05189F7001199FF00C1124A7014A5A48
:1057B0005A4F4A0167E470E0CA010E9463DA009719
:1057C00091F19093470580934605881999098E0DAC
:1057D0009F1D60E070E0895A9A4F0E9450D70E9446
:1057E00082D364307105F8F4809134058823D9F0B0
:1057F000F501649139EFE32E39E0F32E662351F081
:105800008BE493E10E944516FFEFEF1AFF0AF701C0
:105810006491F4CF6AE08BE493E10E9445168DED2C
:1058200099E00E940F94E0904E05F0904F051E9D68
:10583000C0011F9D900D112466E973E08A5A9A4FAA
:105840000E946EDA892B09F492DCC7010196B60139
:105850000E94D1D690934F0580934E0580914C05C0
:1058600090914D05019690934D0580934C051092B3
:105870004A051092490540CE8B3311F40093480538
:1058800090914805911138CE60914E0570914F0569
:10589000A9014F5F5F4F50934A0540934905169FFA
:1058A000A001179F500D11244A5A5A4FFA01E20FD6
:1058B000F31F808321CE189D7001199DF00C1124D7
:1058C000C7018A5A9A4F4C016AE270E00E9463DA7B
:1058D0000097F9F4EFE7FCE064918F01662349F04B
:1058E0008BE493E10E9445160F5F1F4FF80164910E
:1058F000F5CFE9E9FAE064918F01662309F4EECE71
:105900008BE493E10E9445160F5F1F4FF8016491ED
:10591000F4CF20E0712CA401FA01E20FF11D3081D7
:105920003A3219F02F5F7326F7CF90934705809393
:105930004605881999098E0D9F1D60E070E0895A0F
:105940009A4F0E9450D70E9482D3272D30E026170D
:10595000370709F412CFEFE7FCE064918F0166236B
:1059600049F08BE493E10E9445160F5F1F4FF80149
:105970006491F5CFE3ECFAE064918F01662309F4BA
:10598000ADCE8BE493E10E9445160F5F1F4FF801E7
:105990006491F4CF8091060990910709A0910809BC
:1059A000B09109098093B3099093B409A093B50904
:1059B000B093B6098EEF98E00E947E4DAC01982F0F
:1059C00040934B058A30B9F09D30A9F0933229F409
:1059D00080914805882379F002C09A33C9F3209159
:1059E000490530914A052F3531052CF44F3FFFEF23
:1059F0005F0709F0E5C04091B3095091B409609187
:105A0000B5097091B6098091AB099091AC09A0914C
:105A1000AD09B091AE09481759076A077B0708F42A
:105A200094C0EAECF9E064917F01662351F08BE4C5
:105A300093E10E944516FFEFEF1AFF0AF701649108
:105A4000F4CF6AE08BE493E10E9445160FB6F89418
:105A5000C0904013D0904113E0904213F090431354
:105A60000FBEC0923605D0923705E0923805F0920D
:105A7000390580913A0590913B05A0913C05B09184
:105A80003D05C81AD90AEA0AFB0AC701B60120E691
:105A90003AEE40E050E00E94E4D6CA01B9012CE39E
:105AA00030E040E050E00E94E4D6962E872EC701F9
:105AB000B601A30192010E94E4D6D22EC32E8F928A
:105AC0009F923F932F9346EB59E05F934F931F9321
:105AD0000F930E949BDAE9E7FCE064910FB6F8941B
