:100000000C9432190C945C190C945C190C945C19C6
:100010000C945C190C945C190C945C190C945C198C
:100020000C945C190C945C190C948AE60C9407E708
:100030000C945C190C945C190C945C190C945C196C
:100040000C945C190C94C3820C945C190C945C198C
:100050000C945C190C945C190C9466990C94E9E569
:100060000C945C190C945C190C945C190C945C193C
:100070000C945C190C945C190C945C190C945C192C
:100080000C945C190C945C190C945C190C945C191C
:100090000C9477E00C945C19D199DE99FA99079A3F
:1000A000219A2E9A489A4B9A4D9A509A589A78E3E8
:1000B000A4E3C6E3C6E3C6E3C6E3C6E3C6E3C6E31A
:1000C000C6E3C6E3C6E3C6E3C6E3BCE3B4E3ACE31E
:1000D000C6E3C6E3C6E3C6E3C6E3C6E3C6E39EE300
:1000E00084E38CE396E3084AD73B3BCE016E84BCA5
:1000F000BFFDC12F3D6C74319ABD56833DDA3D0082
:10010000C77F11BED9E4BB4C3E916BAAAABE0000CA
:1001100000803F05A84CCDB2D44EB93836A9020CA8
:1001200050B9918688083CA6AAAA2ABE0000008081
:100130003F004E414E494E495459494E46CDCCCCD4
:100140003D0AD7233C17B7D13877CC2B329595E6AB
:10015000241FB14F0A000020410000C84200401C8B
:100160004620BCBE4CCA1B0E5AAEC59D7448617277
:1001700064636F6465642044656661756C742053C4
:10018000657474696E6773204C6F616465640053B5
:10019000746F7265642073657474696E677320721E
:1001A000657472696576656400204400204900200A
:1001B00020204D3330312050005049442073657465
:1001C00074696E67733A00205A0020590020204D50
:1001D000323036205800486F6D65206F6666736553
:1001E0007420286D6D293A00204500205A002058BF
:1001F0000020420020540020204D32303520530092
:10020000416476616E636564207661726961626CD7
:1002100065733A20533D4D696E2066656564726171
:10022000746520286D6D2F73292C20543D4D696E07
:100230002074726176656C206665656472617465B0
:1002400020286D6D2F73292C20423D6D696E696DDC
:10025000756D207365676D656E742074696D6520BA
:10026000286D73292C20583D6D6178696D756D205E
:100270005859206A65726B20286D6D2F73292C20C8
:10028000205A3D6D6178696D756D205A206A6572DE
:100290006B20286D6D2F73292C2020453D6D6178D2
:1002A000696D756D2045206A65726B20286D6D2F14
:1002B00073290020540020204D3230342053004157
:1002C0006363656C65726174696F6E3A20533D615A
:1002D0006363656C65726174696F6E2C20543D7246
:1002E00065747261637420616363656C65726174C7
:1002F000696F6E00204500205A0020590020204DD3
:100300003230312058004D6178696D756D20416340
:1003100063656C65726174696F6E20286D6D2F73F3
:1003200032293A00204500205A0020590020204D53
:100330003230332058004D6178696D756D206665E7
:100340006564726174657320286D6D2F73293A009E
:1003500020205300535720457874727564657220CD
:10036000312054696D653A002020530053572045D1
:100370007874727564657220302054696D653A0036
:1003800020204D323138205431205A0020204D3267
:10039000313820543120590020204D32313820543A
:1003A000312058004F66667365747320666F722043
:1003B000457874727564657220323A0020450020D9
:1003C0005A0020590020204D3932205800537465BE
:1003D00070732070657220756E69743A005365748D
:1003E00074696E67732053746F7265640041A04234
:1003F000A1E045A3A4A5A64BA74D484FA850435440
:10040000A9AA58E1ABACE2ADAE62AFB0B161B2B394
:10041000B4E365B6B7B8B9BABBBCBD6FBE7063BF55
:1004200079E478E5C0C1E6C2C3C4C5C6C7457272E7
:100430003A2053572054696D656F75742020202031
:100440002000D09ED181D182D0B0D0BDD0BED0B25C
:10045000D0BBD0B5D0BD2E20234D393939005072D4
:10046000696E7465722073746F7070656420647552
:100470006520746F206572726F72732E20466978E2
:1004800020746865206572726F7220616E642075D9
:100490007365204D39393920746F2072657374612A
:1004A00072742E202854656D706572617475726562
:1004B0002069732072657365742E205365742069FA
:1004C00074206166746572207265737461727469F8
:1004D0006E672900D09ED181D182D0B0D0BDD0BE70
:1004E000D0B2D0BBD0B5D0BD2E20234D313132009B
:1004F0005072696E7465722068616C7465642E2038
:100500006B696C6C28292063616C6C656421006FD9
:100510006B00526573656E643A20002200556E6B65
:100520006E6F776E20636F6D6D616E643A2022008E
:1005300050617374612045787472756465722044EB
:10054000697265637420454E41424C45440A00502F
:1005500061737461204578747275646572204469B2
:10056000726563742044495341424C45440A00502B
:1005700061737461204578747275646572204652A7
:1005800020454E41424C45440A005061737461203D
:10059000457874727564657220465220444953410F
:1005A000424C45440A004D61676E756D204164649C
:1005B0006F6E73207374617475733A0A00506173BF
:1005C000746120457874727564657220446972653F
:1005D000637420454E41424C45440A005061737497
:1005E0006120457874727564657220446972656330
:1005F000742044495341424C45440A00506173748D
:100600006120457874727564657220465220454EAB
:1006100041424C45440A005061737461204578742E
:1006200072756465722046522044495341424C45DC
:10063000440A002D3D20D0B3D0BED182D0BED0B26E
:1006400020D0BA20D0BFD0B5D187D0B0D182D0B819
:10065000203D2D00D09FD0B5D187D0B0D182D18C94
:1006600020D18120534420D0BAD0B0D180D182D1C2
:100670008B202020005A204F6666736574203A2034
:10068000007A5F6D61783A20007A5F6D696E3A207A
:10069000005A204F6666736574005A204F66667371
:1006A0006574206F6B00486F74656E64206F6666BA
:1006B000736574733A007A5F6D696E3A2000795FF2
:1006C0006D61783A2000785F6D61783A20002045AE
:1006D0003A00205A3A0020593A0020436F756E7450
:1006E00020583A200020453A00205A3A0020593A32
:1006F00000583A0020004D61676E756D205061739F
:10070000746120457874727564657220454E41426B
:100710004C4544004649524D574152455F5645525B
:1007200053494F4E3A4D61676E756D2D50524F2DA6
:100730004230332D683163204649524D574152456E
:100740005F4E414D453A4D61726C696E2056313BAA
:1007500020537072696E7465722F6772626C206DBF
:10076000617368757020666F722067656E3620460B
:1007700049524D574152455F55524C3A6874747016
:10078000733A2F2F6769746875622E636F6D2F4DF2
:1007900061676E756D33442050524F544F434F4C38
:1007A0005F56455253494F4E3A312E30204D41430A
:1007B00048494E455F545950453A4D61676E756DD5
:1007C0002D33442D67656E2E322D4D61676E756D2C
:1007D0002D50524F2D4230332D68316320455854EF
:1007E00052554445525F434F554E543A3220555569
:1007F00049443A65653465363963342D64313131A5
:100800002D346334352D623939322D3761363765F1
:10081000313038633664380A004D61676E756D2D6E
:1008200033442D67656E2E3220D092D18BD0BAD052
:10083000BB2E002020202A20D0A1D182D0BED0BB48
:1008400020D0BDD0B0D0B3D180D0B5D182202A2065
:10085000200020423A0020453A00543A00D09DD072
:10086000B0D0B3D180D0B5D0B220D181D182D0BEAA
:10087000D0BBD0B0202E2E2E20202020002A20D029
:10088000ADD0BAD181D182D180D183D0B4D0B5D10D
:100890008020D0BDD0B0D0B3D180D0B5D182202AB5
:1008A0000020573A0020453A00543A00D09DD0B07D
:1008B000D0B3D180D0B5D0B220D18DD0BAD181D132
:1008C00082D180D183D0B4D0B5D180D0B0202E2EAB
:1008D000002042403A0020403A00202F003A0020F9
:1008E0005400202F0020423A00202F006F6B20542C
:1008F0003A002569206D696E2C2025692073656397
:1009000000456E642066696C65206C6973740042F2
:100910006567696E2066696C65206C69737400D0C8
:100920009DD0B5D18220D0B4D0B2D0B8D0B6D0B599
:10093000D0BDD0B8D18F2E002D3D20D0B3D0BED1A8
:1009400082D0BED0B220D0BA20D0BFD0B5D187D00F
:10095000B0D182D0B8203D2D00D09FD180D0BED064
:10096000B4D0BED0BBD0B6D0B5D0BDD0B8D0B520F5
:10097000D0BFD0B5D187D0B0D182D0B800D09ED072
:100980009A20D0B4D0BBD18F20D0BFD180D0BED0E0
:10099000B4D0BED0BBD0B6D0B5D0BDD0B8D18F000A
:1009A000D09FD0B0D183D0B7D0B0202823473429EE
:1009B00000D09FD0B5D187D0B0D182D18C2025690D
:1009C000D1872E202569D0BCD0B8D0BD2E00256996
:1009D00020686F757273202569206D696E75746566
:1009E0007300446F6E65207072696E74696E672063
:1009F00066696C6500D09ED181D182D0B0D0BDD067
:100A0000BED0B2D0BBD0B5D0BD2E20234D393939A0
:100A1000005072696E7465722073746F70706564D3
:100A20002064756520746F206572726F72732E205A
:100A300046697820746865206572726F7220616EF5
:100A40006420757365204D39393920746F207265C3
:100A500073746172742E202854656D7065726174B0
:100A60007572652069732072657365742E205365F5
:100A70007420697420616674657220726573746194
:100A80007274696E6729004E6F204C696E65204E46
:100A9000756D626572207769746820636865636B41
:100AA00073756D2C204C617374204C696E653A200F
:100AB000004E6F20436865636B73756D20776974B2
:100AC00068206C696E65206E756D6265722C204CB5
:100AD000617374204C696E653A2000636865636BCE
:100AE00073756D206D69736D617463682C204C6142
:100AF0007374204C696E653A20004C696E65204E17
:100B0000756D626572206973206E6F74204C61731D
:100B100074204C696E65204E756D6265722B312CA8
:100B2000204C617374204C696E653A20004D313160
:100B300030004D363030004D363030205300446F99
:100B40006E6520736176696E672066696C652E003C
:100B50006F6B004D3239002020506C616E6E6572F3
:100B600042756666657242797465733A2000204664
:100B7000726565204D656D6F72793A20004D617226
:100B8000202037203230323000436F6D70696C6541
:100B9000643A200028497277696E20636F2E2C20FA
:100BA0004D61676E756D2033442900207C204175AE
:100BB00074686F723A20004D617220203720323005
:100BC00032302031363A31333A313200204C6173C1
:100BD0007420557064617465643A2000312E302EA3
:100BE00030004D61726C696E0020536F66747761DE
:100BF0007265205265736574002057617463686480
:100C00006F67205265736574002042726F776E20A3
:100C10006F75742052657365740020457874657231
:100C20006E616C20526573657400506F7765725504
:100C300070007374617274002200656E717565696D
:100C40006E672022002200656E717565696E6720EF
:100C500022000101FF0000A0400000A040000000B1
:100C6000400000704300002A43000034430000703D
:100C70004300002A43000000000000704300002AE7
:100C800043000034430000000000000000000000AA
:100C9000006563686F3A004572726F723A007C3C7F
:100CA0003E5E2B3D3F2F5B5D3B2C2A225C004D3886
:100CB0003420582059205A20450043616E6E6F74CD
:100CC00020656E746572207375626469723A2000E3
:100CD0004D3234004D3233202573006175746F2519
:100CE000692E67006572726F722077726974696E1F
:100CF0006720746F2066696C65004E6F74205344E2
:100D0000207072696E74696E67002F005344207002
:100D100072696E74696E67206279746520002E00B6
:100D200044656C6574696F6E206661696C65642CDE
:100D30002046696C653A200046696C652064656CE4
:100D4000657465643A002E006F70656E2066616997
:100D50006C65642C2046696C653A20005772697492
:100D6000696E6720746F2066696C653A20002E00FA
:100D70006F70656E206661696C65642C2046696CD5
:100D8000653A20002E006F70656E206661696C65A3
:100D9000642C2046696C653A200046696C652073B6
:100DA000656C6563746564002053697A653A200058
:100DB00046696C65206F70656E65643A20002E0090
:100DC0006F70656E206661696C65642C2046696C85
:100DD000653A20004E6F77206672657368206669F9
:100DE0006C653A20004E6F7720646F696E672066ED
:100DF000696C653A20002220706F730022207061B8
:100E000072656E743A2200535542524F5554494E02
:100E1000452043414C4C207461726765743A22004E
:100E2000747279696E6720746F2063616C6C2073D3
:100E300075622D67636F64652066696C65732077E2
:100E400069746820746F6F206D616E79206C6576AF
:100E5000656C732E204D4158206C6576656C206959
:100E6000733A0053442063617264206F6B006F70AB
:100E7000656E526F6F74206661696C656400766F91
:100E80006C756D652E696E6974206661696C656448
:100E900000534420696E6974206661696C002063A8
:100EA0006F6C6420657874727573696F6E207072F0
:100EB0006576656E7465640028002920453A00282F
:100EC0000029205A3A0028002920593A00280020F9
:100ED000583A00537465707065722063757272655C
:100EE0006E742076616C756573205B25287261775E
:100EF000295D3A00656E6473746F7073206869745D
:100F00003A205A00205A3A00656E6473746F707309
:100F1000206869743A20590020593A00656E64735C
:100F2000746F7073206869743A20580020583A0032
:100F3000656E6473746F7073206869743A2000245E
:100F4000F4D43050C38E20C2A24017828B7011128D
:100F50007A910D816CD90AA861E108C758660761CA
:100F60005143061E4B5D05C145A7041A41110409F2
:100F70003D9803713931034036DB0265339102D469
:100F8000305402802E1D02632CEE01752AC501B07B
:100F900028A001102781018F2564012B244B01E03B
:100FA000223401AC211F018D200D01801FFC008423
:100FB0001EED00971DDF00B81CD200E61BC6002006
:100FC0001BBC00641AB200B219A8000A19A0006A7A
:100FD000189900D117910040178B00B51684003185
:100FE000167E00B31579003A157300C7146F0058C8
:100FF000146A00EE1366008813630025135E00C7B1
:10100000125B006C12570015125400C11151007090
:10101000114F0021114B00D61049008D104700469A
:1010200010440002104200C00F4000800F3E0042FA
:101030000F3C00060F3B00CB0E3800930E37005CD0
:101040000E3500270E3400F30D3200C10D31009033
:101050000D3000600D2E00320D2D00050D2C00D935
:101060000C2B00AE0C2900850C29005C0C270035E8
:101070000C27000E0C2600E80B2400C40B2400A053
:101080000B23007D0B23005A0B2100390B21001884
:101090000B2000F80A1F00D90A1E00BB0A1E009D83
:1010A0000A1D00800A1D00630A1C00470A1B002C51
:1010B0000A1B00110A1A00F7091A00DD091900C4F9
:1010C000091900AB091900920917007B0918006380
:1010D0000917004C09160036091600200916000AE7
:1010E000091500F5081500E0081400CC081400B834
:1010F000081400A4081400900813007D0812006B67
:101100000813005808120046081200340811002382
:101110000811001208110001081100F0071000E08A
:10112000071000D0071000C0071000B0070F00A183
:1011300007100091070E0083070F0074070F00656A
:10114000070E0057070E0049070E003B070D002E43
:10115000070E0020070D0013070D0006070D00F90C
:10116000060C00ED060D00E0060C00D4060C00C8CD
:10117000060C00BC060C00B0060C00A4060B00997F
:10118000060C008D060B0082060B0077060B006C28
:10119000060B0061060A0057060B004C060A0042C7
:1011A000060A0038060A002E060A0024060A001A5B
:1011B000060A001006090007060A00FD050900F4EA
:1011C000050900EB050900E2050900D9050900D071
:1011D000050900C7050900BE050900B5050800ADF1
:1011E000050800A50509009C050800940508008C69
:1011F000050800840508007C050800740508006CDB
:10120000050700650508005D050700560508004E46
:1012100005070047050700400508003805070031AD
:101220000507002A050700230507001C0506001610
:101230000507000F0507000805060002050700FB6B
:10124000040600F5040700EE040600E8040600E2C8
:10125000040700DB040600D5040600CF040600C91D
:10126000040600C3040600BD040600B7040600B16E
:10127000040500AC040600A6040600A00405009BBB
:1012800004060095040500900406008A0405008504
:10129000040500800406007A04050075040500704A
:1012A0000405006B04050066040500610405005C8C
:1012B00004050057040500520405004D04050048CC
:1012C000040500430405003E0404003A040500350B
:1012D000040500300404002C040500270404002346
:1012E0000405001E0404001A04040016040500117D
:1012F0000404000D040400090405000404040000B3
:10130000040400FC030400F8030400F4030400F0E8
:10131000030400EC030400E8030400E4030400E019
:10132000030400DC030400D8030400D4030400D049
:10133000030400CC030400C8030300C50303002416
:10134000F404D9201BC40C5C0E9804C4095F026528
:10135000077101F405F900FB04B30048048700C1DC
:101360000369005803550003034500BE023A008498
:1013700002310053022A002902250004022000E461
:10138000011C00C8011900AF011700980114008466
:10139000011300710110006101100051010E0043A2
:1013A000010D0036010B002B010B0020010B001575
:1013B0000109000C01090003010800FB000800F30B
:1013C000000800EB000700E4000600DE000600D87D
:1013D000000600D2000600CC000500C7000500C2D0
:1013E000000500BD000400B9000400B5000400B110
:1013F000000400AD000400A9000400A5000300A241
:101400000003009F0004009B000300980003009568
:1014100000020093000300900003008D0002008B87
:10142000000300880002008600020084000300819F
:101430000002007F0002007D0002007B00020079B4
:1014400000020077000100760002007400020072C2
:10145000000100710002006F0002006D0001006CCD
:101460000002006A000100690002006700010066D6
:1014700000010065000100640002006200010061DB
:10148000000100600001005F0002005D0001005CDF
:101490000001005B0001005A0001005900010058E2
:1014A00000010057000100560001005500010054E2
:1014B00000010053000000530001005200010051E0
:1014C000000100500001004F0001004E0000004EDE
:1014D0000001004D0001004C0001004B0000004BDA
:1014E0000001004A000100490001004800000048D6
:1014F00000010047000100460000004600010045D1
:1015000000000045000100440001004300000043CA
:1015100000010042000000420001004100000041C3
:10152000000100400001003F0000003F0001003EBC
:101530000000003E0001003D0000003D0001003CB5
:101540000000003C0000003C0001003B0000003BAC
:101550000001003A0000003A0001003900000039A3
:10156000000100380000003800000038000100379A
:101570000000003700010036000000360000003691
:101580000001003500000035000000350001003486
:10159000000000340000003400010033000000337C
:1015A0000000003300010032000000320000003271
:1015B0000001003100000031000000310001003066
:1015C00000000030000000300001002F0000002F5C
:1015D0000000002F0000002F0001002E0000002E50
:1015E0000000002E0001002D0000002D0000002D45
:1015F0000000002D0001002C0000002C0000002C39
:101600000000002C0001002B0000002B0000002B2C
:101610000000002B0001002A0000002A0000002A20
:101620000000002A00010029000000290000002914
:101630000000002900000029000100280000002807
:1016400000000028000000280000002800010027FA
:1016500000000027000000270000002700000027EE
:1016600000010026000000260000002600000026E1
:1016700000000026000100250000002500000025D4
:1016800000000025000000250000002500010024C6
:1016900000000024000000240000002400000024BA
:1016A00000010023000000230000002300000023AD
:1016B000000000230000002300000023000100229E
:1016C0000000002200000022000000220000002292
:1016D0000000002200010021000000210000002184
:1016E0000000002100000021000000210000002176
:1016F0000001002000000020000000200000002069
:101700000000002000000020000000200000002059
:101710000001001F0000001F0000001F0000001F4C
:101720000000001F0000001F0000001F0001001E3D
:101730000000001E0000001E0000001E000000450A
:1017400072723A204D415854454D50204245440054
:1017500054656D7065726174757265206865617439
:1017600065642062656420737769746368656420CA
:101770006F66662E204D415854454D502074726955
:10178000676765726564202121004D494E20D09E17
:10179000D188D0B8D0B1D0BAD0B020D182D0B5D114
:1017A00080D0BCD0B8D181D182D0BED180003A20C7
:1017B00045787472756465722073776974636865BF
:1017C00064206F66662E204D494E54454D5020745E
:1017D00072696767657265642021004D415820D0A9
:1017E0009ED188D0B8D0B1D0BAD0B020D182D0B5F7
:1017F000D180D0BCD0B8D181D182D0BED180003AC6
:1018000020457874727564657220737769746368B3
:101810006564206F66662E204D415854454D50201A
:101820007472696767657265642021005448455287
:101830004D414C2052554E41574159204500544886
:1018400045524D414C2052554E4157415920424539
:101850004400546865726D616C2052756E617761E9
:10186000792C2073797374656D2073746F70706553
:101870006421204865617465725F49443A200050D4
:101880004944204175746F74756E652066696E6990
:1018900073686564212050757420746865206C61DC
:1018A0007374204B702C204B6920616E64204B6454
:1018B00020636F6E7374616E74732066726F6D2037
:1018C00061626F766520696E746F20436F6E666922
:1018D0006775726174696F6E2E68005049442041CB
:1018E00075746F74756E65206661696C656421201E
:1018F00074696D656F75740020403A006F6B2054F9
:101900003A006F6B20423A00504944204175746F91
:1019100074756E65206661696C6564212054656D1F
:10192000706572617475726520746F6F2068696785
:101930006800204B643A2000204B693A2000204B7D
:10194000703A200020436C617373696320504944EE
:1019500020002054753A2000204B753A2000206D5D
:1019600061783A2000206D696E3A200020643A20A8
:101970000020626961733A200070012C01900127F8
:1019800001B0012201C0011D01F001180110021374
:101990000130020E016002090190020401C002FF41
:1019A000000003FA004003F5008003F000D003EBD1
:1019B000002004E6007004E100E004DC004005D7EC
:1019C00000C005D2004006CD00D006C8008007C385
:1019D000003008BE00F008B900C009B400B00AAF7A
:1019E00000B00BAA00D00CA500000EA000500F9B69
:1019F00000C01096005012910000148C00C0158792
:101A000000B0178200B0197D00D01B7800001E7353
:101A10000040206E0090226900F024640040275F9F
:101A20000090295A00E02B5500102E500020304B1A
:101A30000010324600E033410090353C001037374B
:101A40000070383200A0392D00B03A2800A03B23A6
:101A500000603C1E00103D1900903D1400103E0F28
:101A600000703E0A00C03E0500003F0000473238CB
:101A7000004732380047323800534420D0BAD0B043
:101A8000D180D182D0B020D0B8D0B7D0B2D0BBD026
:101A9000B5D187D0B5D0BDD0B000534420D0BAD096
:101AA000B0D180D182D0B020D183D181D182D0B0C9
:101AB000D0BDD0BED0B2D0BBD0B5D0BDD0B000204C
:101AC000202020202020002054494D455221002074
:101AD0006D6300D092D180D0B5D0BCD18F3A2000B8
:101AE00020202020202020202020202020202020F6
:101AF000202020200020436E743A2000D092D18014
:101B00003A200020202020202020202020202020DB
:101B100020202020202020002D2D3A2D2D002D2D9D
:101B20002D0053440020200001200001200001204E
:101B30000020D09FD0B0D181D182D0B000D09ED033
:101B40009A202D20D187D182D0BED0B1D18B20D088
:101B5000B7D0B0D0B2D0B5D180D188D0B8D182D1F1
:101B60008C0020D0BFD180D183D182D0BED0BA200A
:101B7000D0B220D18DD0BAD181D182D180D183D0C1
:101B8000B4D0B5D18020002020D097D0B0D0B3D130
:101B900080D183D0B7D0B8D182D0B520D0BDD0BE4F
:101BA000D0B2D18BD0B9202020003C202020D0976B
:101BB000D0B0D0BCD0B5D0BDD0B020D0BFD180D1B6
:101BC00083D182D0BAD0B020203E00D09ED09A20BF
:101BD000D0B4D0BBD18F20D0BDD0B0D187D0B0D0C1
:101BE000BBD0B020D0BFD0BED0B4D0B0D187D0B899
:101BF0000020202020D0B4D0BBD18F20D0B7D0B0CF
:101C0000D0B3D180D183D0B7D0BAD0B82020202093
:101C10000020D09FD0BED0B4D0B3D0BED182D0BE31
:101C2000D0B2D18CD182D0B520D0BFD180D183D1D8
:101C300082D0BED0BA20003C202020D097D0B0D097
:101C4000BCD0B5D0BDD0B020D0BFD180D183D1829F
:101C5000D0BAD0B020203E0020D09DD0B0D0B6D099
:101C6000BCD0B8D182D0B520D0B4D0BBD18F20D0D9
:101C7000BFD0B5D187D0B0D182D0B820002020D03D
:101C800097D0B0D0B3D180D183D0B7D0B8D182D0E3
:101C9000B520D0BFD180D183D182D0BED0BA21208F
:101CA000003CD09FD180D183D182D0BED0BA20D089
:101CB000BDD0B520D0B7D0B0D0B3D180D183D0B60D
:101CC000D0B5D0BD3E00332ED09DD0B0D0B6D0BC64
:101CD000D0B8D182D0B520D0B4D0BBD18F20D0BF66
:101CE000D0B5D187D0B0D182D0B800322ED097D025
:101CF000B0D0B3D180D183D0B7D0B8D182D0B52005
:101D0000D0BFD180D183D182D0BED0BA20200031C3
:101D10002ED094D0BED0B6D0B4D0B8D182D0B5D168
:101D200081D18C20D0BDD0B0D0B3D180D0B5D0B2CD
:101D3000D0B0200020D0B2D0BAD0BBD18ED187D0C5
:101D4000B5D0BDD0B8D18F20D0BDD0B0D0B3D18068
:101D5000D0B5D0B2D0B0212000202020D09DD0B06E
:101D6000D0B6D0BCD0B8D182D0B5204F4B20D0B4A3
:101D7000D0BBD18F202020003C20D0A0D0B0D1817A
:101D8000D188D0B8D180D0B5D0BDD0BDD0B0D18FA2
:101D900020D09FD0B0D183D0B7D0B03E0020D0B2F9
:101DA000D0BAD0BBD18ED187D0B5D0BDD0B8D18F6D
:101DB00020D0BDD0B0D0B3D180D0B5D0B2D0B0217A
:101DC0002000202020D09DD0B0D0B6D0BCD0B8D13B
:101DD00082D0B5204F4B20D0B4D0BBD18F20202053
:101DE000003C2020D09CD0BED0BDD0B8D182D0BE87
:101DF000D18020D0BFD180D183D182D0BAD0B020C1
:101E0000203E002020203C20D0BFD0BED0B4D0BE89
:101E1000D0B6D0B4D0B8D182D0B521203E20202079
:101E2000002020203C20D09FD0BED0B6D0B0D0BB68
:101E3000D183D0B9D181D182D0B0203E20202000E2
:101E400020202D2D2D2D2D2D2D2D2D2D2D2D2D2DDC
:101E50002D2D2020003C202020D097D0B0D0BCD009
:101E6000B5D0BDD0B020D0BFD180D183D182D0BA7F
:101E7000D0B020203E00D093D0BED182D0BED0B210
:101E8000D0BE202E2E2E2028D0BDD0B0D0B6D0BCB3
:101E9000D0B8D182D0B529002020322DD0B3D0BE09
:101EA00020D18DD0BAD181D182D180D183D0B4D08C
:101EB000B5D180D0B020202000D09ED182D180D05A
:101EC000B5D0B3D183D0BBD0B8D180D183D0B9D174
:101ED00082D0B520D0B2D18BD181D0BED182D18376
:101EE00000202020D092D180D0B0D189D0B0D18F25
:101EF00020D180D183D187D0BAD183205E6F2020BA
:101F000000D094D0B0D0BBD0B5D0B5202E2E2E208E
:101F100028D0BDD0B0D0B6D0BCD0B8D182D0B529F1
:101F2000002020312DD0B3D0BE20D18DD0BAD181A8
:101F3000D182D180D183D0B4D0B5D180D0B020208F
:101F40002000D09ED182D180D0B5D0B3D183D0BB78
:101F5000D0B8D180D183D0B9D182D0B520D0B2D180
:101F60008BD181D0BED182D18300202020D092D1CC
:101F700080D0B0D189D0B0D18F20D180D183D1870A
:101F8000D0BAD183205E6F202000D09FD0BED0B6C3
:101F9000D0B0D0BBD183D0B9D181D182D0B020D044
:101FA000BFD0BED0B4D0BED0B6D0B4D0B8D182D01D
:101FB000B500203D20D0B2D18BD181D0BED182D00E
:101FC000B020D181D0BED0BFD0B5D0BB203D202025
:101FD000003C20D09AD0B0D0BBD0B8D0B1D180D006
:101FE000BED0B2D0BAD0B020D181D0BED0BFD0B593
:101FF000D0BB203E00D093D0BED182D0BED0B2D0D4
:10200000BE202E2E2028D0BDD0B0D0B6D0BCD0B8A7
:10201000D182D0B52900D0A1D0BCD0B5D189D0B55E
:10202000D0BDD0B8D0B520D0BFD0BE20593A00D155
:1020300081D0BED0B2D0BCD0B5D181D182D0B8D100
:1020400082D0B520D18120D0BCD0B5D182D0BAD039
:10205000BED0B920002020D092D180D0B0D189D07C
:10206000B0D18F20D180D183D187D0BAD183203C09
:102070005E3E202000D094D0B0D0BBD0B5D0B520EB
:102080002E2E2E2028D0BDD0B0D0B6D0BCD0B8D106
:1020900082D0B52900D0A1D0BCD0B5D189D0B5D0DF
:1020A000BDD0B8D0B520D0BFD0BE20583A00D18125
:1020B000D0BED0B2D0BCD0B5D181D182D0B8D1827F
:1020C000D0B520D18120D0BCD0B5D182D0BAD0BE7D
:1020D000D0B920002020D092D180D0B0D189D0B00A
:1020E000D18F20D180D183D187D0BAD183203C2D0C
:1020F0003E202000D094D0B0D0BBD0B5D0B5202E9B
:102100002E2E2028D0BDD0B0D0B6D0BCD0B8D18231
:10211000D0B529002020D18120D0BFD0B5D180D02A
:10212000B2D18BD0BC20D181D0BED0BFD0BBD0BE6D
:10213000D0BC2020002020D0A1D0BED0B2D0BCD0B6
:10214000B5D181D182D0B8D182D0B520D0BCD0B5A4
:10215000D182D0BAD183202000D09FD0BED0B6D0BB
:10216000B0D0BBD183D0B9D181D182D0B020D0BF83
:10217000D0BED0B4D0BED0B6D0B4D0B8D182D0B555
:1021800000203D20D180D0B0D181D181D182D0BE7C
:10219000D18FD0BDD0B8D0B5205859203D20003CBB
:1021A00020D09AD0B0D0BBD0B8D0B1D180D0BED0E2
:1021B000B2D0BAD0B020D181D0BED0BFD0B5D0BBC4
:1021C000203E00D0BFD0BBD0B0D181D182D0B8D01A
:1021D000BA20D0B8D0B720D181D0BED0BFD0BBD02C
:1021E000B0202E2E2E00D09FD0BED182D18FD0BD58
:1021F000D0B8D182D0B520D0B2D18BD182D0B5D0D9
:10220000BAD0B0D18ED189D0B8D0B920003CD09FFF
:10221000D180D183D182D0BED0BA20D0B7D0B0D0B7
:10222000B3D180D183D0B6D0B0D0B5D182D181D155
:102230008F3E003C3D2020D097D0B0D0BCD0B5D050
:10224000BDD0B020D0BFD180D183D182D0BAD0B0A0
:10225000203D3E00D09ED09A20D0B4D0BBD18F205C
:10226000D0BDD0B0D187D0B0D0BBD0B020D0BFD0FF
:10227000BED0B4D0B0D187D0B800D0B220D18DD0EC
:10228000BAD181D182D180D183D0B4D0B5D18020D0
:10229000D0B4D0BE20D183D0BFD0BED180D0B000CA
:1022A0002020D097D0B0D0B3D180D183D0B7D0B8D0
:1022B000D182D0B520D0BFD180D183D182D0BED041
:1022C000BA2020003C3D2020D097D0B0D0BCD0B563
:1022D000D0BDD0B020D0BFD180D183D182D0BAD0F0
:1022E000B0203D3E002020D09ED09A20D0B4D0BB5C
:1022F000D18F20D0B7D0B0D0B2D0B5D180D188D0D6
:10230000B5D0BDD0B8D18F200020D0BFD180D1832F
:10231000D182D0BED0BA20D0B220D18DD0BAD18156
:10232000D182D180D183D0B4D0B5D18020002020FB
:10233000D097D0B0D0B3D180D183D0B7D0B8D1822C
:10234000D0B520D0BDD0BED0B2D18BD0B920202006
:10235000003C3D2020D097D0B0D0BCD0B5D0BDD06F
:10236000B020D0BFD180D183D182D0BAD0B0203DAF
:102370003E00D09FD0BED0B6D0B0D0BBD183D0B9B4
:10238000D181D182D0B020D0BFD0BED0B4D0BED009
:10239000B6D0B4D0B8D182D0B50001200020D1820F
:1023A000D0B5D0BCD0BFD0B5D180D0B0D182D18390
:1023B000D180D0B03A200020D0BDD0B0D0B3D180F1
:1023C000D0B5D0B220D18DD0BAD181D182D180D137
:1023D00083D0B4D0B5D180D0B0202000203E0032D0
:1023E0000031003C20D097D0B0D0BCD0B5D0BDD00B
:1023F000B020D0BFD180D183D182D0BAD0B020005C
:102400002020D09ED09A202D20D0B7D0B0D0B2D0EE
:10241000B5D180D188D0B8D182D18C2020202000A5
:102420003ED186D0B5D0BDD182D180D0B0D0BBD185
:102430008CD0BDD18BD0BC3C20D0B2D0B8D0BDD1D7
:1024400082D0BED0BC0020D09ED182D180D0B5D069
:10245000B3D183D0BBD0B8D180D183D0B9D182D011
:10246000B520D181D182D0BED0BB20002A20D09A05
:10247000D0B0D0BBD0B8D0B1D180D0BED0B2D0BA5D
:10248000D0B020D181D182D0BED0BBD0B0202A0024
:10249000D09ED09A202D20D181D0BBD0B5D0B4D140
:1024A00083D18ED189D0B0D18F20D182D0BED187B7
:1024B000D0BAD0B000203C3D3D3D20D0B2D0B8D005
:1024C000BDD182D0BED0BC20D181D0BBD0B5D0B2DE
:1024D000D0B020200020D09ED182D180D0B5D0B302
:1024E000D183D0BBD0B8D180D183D0B9D182D0B57F
:1024F00020D181D182D0BED0BB20002A20D09AD05A
:10250000B0D0BBD0B8D0B1D180D0BED0B2D0BAD0CC
:10251000B020D181D182D0BED0BBD0B0202A00D093
:102520009ED09A202D20D181D0BBD0B5D0B4D183FC
:10253000D18ED189D0B0D18F20D182D0BED187D0D9
:10254000BAD0B00020D0B2D0B8D0BDD182D0BED0E9
:10255000BC20D181D0BFD180D0B0D0B2D0B0203D8E
:102560003D3D3E200020D09ED182D180D0B5D0B359
:10257000D183D0BBD0B8D180D183D0B9D182D0B5EE
:1025800020D181D182D0BED0BB20002A20D09AD0C9
:10259000B0D0BBD0B8D0B1D180D0BED0B2D0BAD03C
:1025A000B020D181D182D0BED0BBD0B0202A00D003
:1025B0009ED09A202D20D181D0BBD0B5D0B4D1836C
:1025C000D18ED189D0B0D18F20D182D0BED187D049
:1025D000BAD0B0003ED186D0B5D0BDD182D180D0A6
:1025E000B0D0BBD18CD0BDD18BD0BC3C20D0B2D030
:1025F000B8D0BDD182D0BED0BC0020D09ED182D177
:1026000080D0B5D0B3D183D0BBD0B8D180D183D066
:10261000B9D182D0B520D181D182D0BED0BB20002B
:102620002A20D09AD0B0D0BBD0B8D0B1D180D0BE03
:10263000D0B2D0BAD0B020D181D182D0BED0BBD060
:10264000B0202A0020202020D09ED09A202D20D0FB
:102650009DD0B0D187D0B0D182D18C202020202035
:10266000002020D181D0BED0BFD0BBD0BE20D0BEF4
:10267000D18220D0BFD0BBD0B0D181D182D0B8D050
:10268000BAD0B0200020D090D0BAD0BAD183D180B7
:10269000D0B0D182D0BDD0BE20D0BED187D0B8D1ED
:1026A00081D182D0B8D182D0B520002A20D09AD052
:1026B000B0D0BBD0B8D0B1D180D0BED0B2D0BAD01B
:1026C000B020D181D182D0BED0BBD0B0202A00D0E2
:1026D0009FD0BED0B6D0B0D0BBD183D0B9D181D13C
:1026E00082D0B020D0BFD0BED0B4D0BED0B6D0B48F
:1026F000D0B8D182D0B50020D181D182D0BED0BB9C
:10270000D0B020D0B820D18DD0BAD181D182D180A3
:10271000D183D0B4D0B5D180D0B0200020202020EB
:1027200020D098D0B4D0B5D18220D0BDD0B0D0B315
:10273000D180D0B5D0B220202020002A20D09AD03D
:10274000B0D0BBD0B8D0B1D180D0BED0B2D0BAD08A
:10275000B020D181D182D0BED0BBD0B0202A00D051
:102760009FD0BED0B4D0B0D187D0B0203220D18D90
:10277000D0BAD181D18200D09FD0BED0B4D0B0D158
:1027800087D0B0203220D18DD0BAD181D18200D073
:102790009FD0BED0B4D0B0D187D0B0203120D18D61
:1027A000D0BAD181D18200D09FD0BED0B4D0B0D128
:1027B00087D0B0203120D18DD0BAD181D18200D044
:1027C0009ED0B1D0B4D183D0B220D0BCD0BED0B4D2
:1027D000D0B5D0BBD0B800D09ED0B1D0B4D183D0CA
:1027E000B220D0BCD0BED0B4D0B5D0BBD0B8003DA4
:1027F00020D0A1D182D0BED0BB207401003D20D01A
:10280000A1D182D0BED0BB207401000220D0ADD0B7
:10281000BAD181D182D180D183D0B4D0B5D1802D2D
:1028200032207401000220D0ADD0BAD181D182D142
:1028300080D183D0B4D0B5D1802D32207401000274
:1028400020D0ADD0BAD181D182D180D183D0B4D0C3
:10285000B5D180207401000220D0ADD0BAD181D191
:1028600082D180D183D0B4D0B5D18020740100D082
:10287000A1D0BAD0BED180D0BED181D182D18C00BE
:10288000D0A1D0BAD0BED180D0BED181D182D18CDE
:1028900000D0A1D0BAD0BED180D0BED181D182D05B
:1028A000BDD0BED0B920D180D0B5D0B6D0B8D0BCC4
:1028B00000D09CD0B5D0BDD18E00D097D0B0D0B3D1
:1028C000D180D183D0B7D0B8D182D18C20D0BFD025
:1028D000BBD0B0D181D182D0B8D0BA000220D0AD67
:1028E000D0BAD181D182D180D183D0B4D0B5D180BA
:1028F000207401000220D0ADD0BAD181D182D18024
:10290000D183D0B4D0B5D18020740100D0ADD0BA7D
:10291000D181D182D180D183D0B4D0B5D18000D043
:10292000ADD0BAD181D182D180D183D0B4D0B5D14C
:102930008000D09CD0B5D0BDD18E00580059005A2F
:1029400000457874727564657200D0ADD0BAD181DB
:10295000D182D180D183D0B4D0B5D18000D094D0F1
:10296000B2D0B8D0B6D0B5D0BDD0B8D0B520D0BFD9
:10297000D0BE20D0BED181D0B8205A00D094D0B2E1
:10298000D0B8D0B6D0B5D0BDD0B8D0B520D0BFD09B
:10299000BE20D0BED181D0B8205900D094D0B2D0C2
:1029A000B8D0B6D0B5D0BDD0B8D0B520D0BFD0BE8D
:1029B00020D0BED181D0B8205800D094D0B2D0B8A9
:1029C000D0B6D0B5D0BDD0B8D0B520D0BFD0BE2005
:1029D000D0BED181D18FD0BC00D0A1D0B4D0B2D0E4
:1029E000B8D0BDD183D182D18C20D0BDD0B0203021
:1029F0002E316D6D00D0A1D0B4D0B2D0B8D0BDD141
:102A000083D182D18C20D0BDD0B0202031206D6DFB
:102A100000D0A1D0B4D0B2D0B8D0BDD183D182D1B2
:102A20008C20D0BDD0B0203130206D6D00D0A3D02F
:102A3000BFD180D0B0D0B2D0BBD0B5D0BDD0B8D08F
:102A4000B500D097D0B0D0BFD0BED0BCD0BDD0B82C
:102A5000D182D18C20D0BDD0BED0BBD18C00D0943F
:102A6000D0B2D0B8D0B6D0B5D0BDD0B8D0B520D0C7
:102A7000BFD0BE20D0BED181D18FD0BC00D092D1EA
:102A80008BD0BAD0BBD18ED187D0B8D182D18C2097
:102A9000D0BDD0B0D0B3D180D0B5D0B2004732389D
:102AA00000D09FD0B0D180D0BAD0BED0B2D0BAD0F2
:102AB000B020D0BAD0B0D180D0B5D182D0BAD0B801
:102AC000004D383400D092D18BD0BAD0BB2E20D05C
:102AD000B4D0B2D0B8D0B3D0B0D182D0B5D0BBD002
:102AE000B800D097D0B0D0B3D180D183D0B7D0B810
:102AF000D182D18C20D0BFD0BBD0B0D181D182D0F7
:102B0000B8D0BA00543000D09FD0B5D180D0B5D065
:102B1000BAD0BBD18ED187D0B8D182D18C20D1810F
:102B2000D0BED0BFD0BBD0BE00543100D09FD0B5F6
:102B3000D180D0B5D0BAD0BBD18ED187D0B8D18218
:102B4000D18C20D181D0BED0BFD0BBD0BE00D09C14
:102B5000D0B5D0BDD18E0047323800D09ED0B1D094
:102B6000B4D183D0B220D0BCD0BED0B4D0B5D0BB0D
:102B7000D0B800D09ED0B1D0B4D183D0B220D0BCD8
:102B8000D0BED0B4D0B5D0BBD0B8003D20D0A1D1FC
:102B900082D0BED0BB207401003D20D0A1D182D014
:102BA000BED0BB207401000220D0ADD0BAD181D1FB
:102BB00082D180D183D0B4D0B5D1802D32207401A0
:102BC000000220D0ADD0BAD181D182D180D183D0C2
:102BD000B4D0B5D1802D32207401000220D0ADD008
:102BE000BAD181D182D180D183D0B4D0B5D1802067
:102BF0007401000220D0ADD0BAD181D182D180D170
:102C000083D0B4D0B5D18020740100D09DD0B0D194
:102C100081D182D180D0BED0B8D182D18C20D0BF1A
:102C2000D180D0B8D0BDD182D0B5D1800045202090
:102C30004A65726B004520204A65726B005A20205D
:102C40004A65726B005A20204A65726B0058592001
:102C50004A65726B005859204A65726B00D0A3D147
:102C600081D0BAD0BED180D0B5D0BDD0B8D0B5005B
:102C7000D0A3D181D0BAD0BED180D0B5D0BDD0B88C
:102C8000D0B500D09DD0B0D181D182D180D0BED07E
:102C9000B8D182D18C20D0BFD180D0B8D0BDD18264
:102CA000D0B5D18000D097D0B0D0BFD0B8D181D12D
:102CB0008C20D0BDD0B0D181D182D180D0BED0B552
:102CC000D0BA00D0A1D0B5D180D0B2D0B8D181D007
:102CD000BDD0BED0B520D0BFD0BED0BBD0BED0B648
:102CE0002E00D097D0B0D0B4D0B5D180D0B6D0BA65
:102CF000D0B020D0BBD0B5D0B2D18BD0B900D09756
:102D0000D0B0D0B4D0B5D180D0B6D0BAD0B020D069
:102D1000BBD0B5D0B2D18BD0B900D097D0B0D0B4A1
:102D2000D0B5D180D0B6D0BAD0B020D0BFD180D06D
:102D3000B0D0B22E00D097D0B0D0B4D0B5D180D022
:102D4000B6D0BAD0B020D0BFD180D0B0D0B22E0093
:102D5000D0A1D0BCD0B5D189D0B5D0BDD0B8D0B578
:102D6000205A00D0A1D0BCD0B5D189D0B5D0BDD02B
:102D7000B8D0B5205A00D0A1D0BCD0B5D189D0B53B
:102D8000D0BDD0B8D0B5205900D0A1D0BCD0B5D1DD
:102D900089D0B5D0BDD0B8D0B5205900D0A1D0BC15
:102DA000D0B5D189D0B5D0BDD0B8D0B520D0A50090
:102DB000D0A1D0BCD0B5D189D0B5D0BDD0B8D0B518
:102DC00020D0A500D09AD0B0D0BBD0B8D0B1D1809F
:102DD000D0BED0B2D0BAD0B020D0BFD0BE205A0022
:102DE000D09AD0B0D0BBD0B8D0B1D180D0BED0B204
:102DF000D0BAD0B020D181D0BED0BFD0B5D0BB002A
:102E0000D09DD0B0D181D182D180D0BED0B8D18276
:102E1000D18C20D0BFD180D0B8D0BDD182D0B5D197
:102E20008000D092D18BD0BAD0BB00D092D0BAD093
:102E3000BB00D092D18BD0BAD0BB00D092D0BAD048
:102E4000BB00D09FD0B0D181D182D0B020465200FB
:102E5000D092D18BD0BAD0BB00D092D0BAD0BB0028
:102E6000D092D18BD0BAD0BB00D092D0BAD0BB0018
:102E7000D09FD0B0D181D182D0B02044495200D06F
:102E80009FD180D0B8D181D182D0B0D0B2D0BAD0C9
:102E9000B020D09FD0B0D181D182D0B000D09FD10E
:102EA00080D0B8D181D182D0B0D0B2D0BAD0B02049
:102EB000D09FD0B0D181D182D0B000D094D0BED03C
:102EC000BFD0BED0BBD0BDD0B5D0BDD0B8D18F2083
:102ED0004D61676E756D00D0A1D0B1D180D0BED1EB
:102EE0008120D0BDD0B0D181D182D180D0BED0B52B
:102EF000D0BA00D0A7D182D0B5D0BDD0B8D0B5203F
:102F0000D0BDD0B0D181D182D180D0BED0B5D0BA21
:102F100000D097D0B0D0BFD0B8D181D18C20D0BD57
:102F2000D0B0D181D182D180D0BED0B5D0BA00D0BE
:102F300094D0BED0BFD0BED0BBD0BDD0B5D0BDD058
:102F4000B8D18F204D61676E756D00D0ADD0BAD10C
:102F500081D182D180D183D0B4D0B5D180205357D4
:102F600000D0A1D0BAD0BED180D0BED181D182D084
:102F7000BDD0BED0B920D180D0B5D0B6D0B8D0BCED
:102F800000D09DD0B0D0B3D180D0B5D0B220D0B8D1
:102F900020D0BED0B1D0B4D183D0B200D09AD0B0BE
:102FA000D0BBD0B8D0B1D180D0BED0B2D0BAD0B022
:102FB00020D181D182D0BED0BBD0B000D09CD0B5C2
:102FC000D0BDD18E004D383420582059205A20458C
:102FD000004D3234004D323320257300052E2E0073
:102FE0004D323100040420D0BED0B1D0BDD0BED00F
:102FF000B2D0B8D182D18C20040400D09CD0B5D0FE
:10300000BDD18E00D09DD0B5D18220534420D0BAFE
:10301000D0B0D180D182D18B00D09CD0B5D0BDD1E1
:103020008E20534420D0BAD0B0D180D182D18B0031
:10303000D09FD180D0B5D0BAD180D0B0D182D0B815
:10304000D182D18C20D0BFD0B5D187D0B0D182D1A0
:103050008C00D09FD180D0BED0B4D0BED0BBD0B673
:10306000D0B8D182D18C20D0BFD0B5D187D0B0D14B
:1030700082D18C00D09FD0B0D183D0B7D0B020D037
:10308000BFD0B5D187D0B0D182D0B800D097D0B062
:10309000D0BCD0B5D0BDD0B8D182D18C20D0BFD0DB
:1030A000BBD0B0D181D182D0B8D0BA00D09DD0B041
:1030B000D181D182D180D0BED0B8D182D18C20D064
:1030C000BFD180D0B8D0BDD182D0B5D18000D0A33F
:1030D000D0BFD180D0B0D0B2D0BBD0B5D0BDD0B8E9
:1030E000D0B500D09FD0BED0B4D181D182D180D014
:1030F000BED0B9D0BAD0B020D0BFD0B5D187D0B073
:10310000D182D0B800D092D18BD185D0BED0B4209E
:10311000D0B8D0B720D0BCD0B5D0BDD18E00012959
:103120000229042908291029202940298029012C55
:10313000022C0126022604260826102620264026D8
:103140008026402C802C01230223042308231023F3
:103150002023402380230120022004200820102067
:10316000202040208020102C202C012F022F042F03
:10317000082F102F202F402F802F7EFE7EFD7EFBFC
:103180007EF77EEF7EDF7EBF7E7F000100003B3258
:103190001200020000F8314300030000F431040182
:1031A000030904DA311802030904C23116030309C2
:1031B00004B4310C0C03310032003300340035000C
:1031C0000000160355005300420020005300650024
:1031D0007200690061006C00000018035400650073
:1031E00065006E00730079006400750069006E0070
:1031F0006F0000000403090409024300020100C03B
:10320000320904000001020201000524001001053A
:10321000240100010424020605240600010705829A
:103220000308004009040100020A0000000705032A
:103230000240000007058402400000120100020263
:10324000000020C01683040001010203010001C137
:103250000201803601813600982E778B39AC74DFFD
:1032600041EA9C2E11241FBECFEFD0E2DEBFCDBFBE
:1032700015E0A0E0B1E0EEE6FBEE01E00BBF02C01E
:1032800007900D92AC30B107D9F723E1ACE0B5E07F
:1032900001C01D92A839B207E1F719E1C1E3D9E1F4
:1032A00004C02197FE010E943EEFCC32D107C9F73E
:1032B0000E9409E30C94ABF50C940000FB01019013
:1032C0000020E9F73197AF01461B570BDC01ED9168
:1032D000FC910280F381E02D0994CF93DF931F923C
:1032E000CDB7DEB76983DC01ED91FC910280F381FB
:1032F000E02D41E050E0BE016F5F7F4F09950F90D8
:10330000DF91CF910895EF92FF920F931F93CF9388
:103310008C017B01C42FF70161917F01F80180814D
:1033200091810E949DF5F8018081918101969183A0
:103330008083C15081F7CF911F910F91FF90EF9043
:103340000895EF92FF920F931F93CF938C017B010F
:10335000C42FF801808191810E9495F5F701819336
:103360007F01F80180819181019691838083C15012
:1033700081F7CF911F910F91FF90EF9008950F93D8
:103380001F93CF93DF93CDB7DEB72C970FB6F8948A
:10339000DEBF0FBECDBF8091F5029091F602A091E5
:1033A000F702B091F8028D839E83AF83B88704E65D
:1033B00010E01C870B8744E0BE016B5F7F4FCE019E
:1033C0000B96A1DF40E166E171E1CE010B969BDF38
:1033D00040E166E271E1CE010B9695DF40E166E0E7
:1033E00071E1CE010B968FDF44E06EEF70E1CE010C
:1033F0000B9689DF44E06AEF70E1CE010B9683DF24
:1034000044E062E071E1CE010B967DDF44E06AEEBC
:1034100070E1CE010B9677DF44E066E371E1CE0107
:103420000B9671DF44E066EF70E1CE010B966BDF27
:1034300044E062EF70E1CE010B9665DF44E06EEE92
:1034400070E1CE010B965FDF4CE068E277E0CE01E1
:103450000B9659DF42E06BEB72E1CE010B9653DF26
:1034600042E069EB72E1CE010B964DDF42E067EB83
:1034700072E1CE010B9647DF42E065EB72E1CE01CF
:103480000B9641DF42E063EB72E1CE010B963BDF2E
:1034900042E061EB72E1CE010B9635DF44E065E17D
:1034A00077E0CE010B962FDF44E06AE971E0CE01B0
:1034B0000B9629DF44E066E971E0CE010B9623DF2D
:1034C00044E062E971E0CE010B961DDF80E290E0FE
:1034D0009A87898742E0BE01675F7F4FCE010B96D6
:1034E00012DF41E064E477E0CE010B960CDF44E0AC
:1034F00063E471E0CE010B9606DF44E067E471E01F
:10350000CE010B9600DF44E06BE171E0CE010B963B
:10351000FADE44E063E271E0CE010B96F4DE44E0B3
:103520006BE271E0CE010B96EEDE44E06EE071E0FE
:10353000CE010B96E8DE44E06AE071E0CE010B9626
:10354000E2DE8091F9029091FA02A091FB02B09123
:10355000FC0289839A83AB83BC831C870B8744E07E
:10356000BE016F5F7F4FCE010B96CDDEE1E9FCE03F
:1035700064918F01662341F08CE893E1AEDE0F5F2A
:103580001F4FF8016491F6CFEDEDF3E064918F01E8
:10359000662341F08CE893E1A0DE0F5F1F4FF80136
:1035A0006491F6CF6AE08CE893E197DE2C960FB633
:1035B000F894DEBF0FBECDBFDF91CF911F910F9169
:1035C00008950F931F93CF93DF93C1E9DCE0FE01D1
:1035D00064918E01662341F08CE893E17EDE0F5FFB
:1035E0001F4FF8016491F6CFEDECF3E064918F0189
:1035F000662341F08CE893E170DE0F5F1F4FF80106
:103600006491F6CF6AE08CE893E167DEFE01649195
:1036100001E91CE0662341F08CE893E15EDE0F5F78
:103620001F4FF8016491F6CF409116115091171178
:10363000609118117091191185EC93E00E94362663
:1036400040911A1150911B1160911C1170911D1124
:1036500082EC93E00E94362640911E1150911F117A
:1036600060912011709121118FEB93E00E9436261A
:1036700040912211509123116091241170912511D4
:103680008CEB93E00E9436266AED74E08CE893E1BF
:1036900015DE6AE08CE893E120DEFE01649101E929
:1036A0001CE0662341F08CE893E117DE0F5F1F4FAB
:1036B000F8016491F6CFE4EAF3E064918F016623A8
:1036C00041F08CE893E109DE0F5F1F4FF801649130
:1036D000F6CF6AE08CE893E100DE40911B01509147
:1036E0001C0160911D0170911E0188E993E00E9408
:1036F000362640912301509124016091250170915B
:1037000026018CE893E00E94362640912B015091CF
:103710002C0160912D0170912E0180E893E00E94B0
:1037200036266AED74E08CE893E1C8DD6AE08CE847
:1037300093E1D3DDECE6F3E064918F01662341F081
:103740008CE893E1CADD0F5F1F4FF8016491F6CF5B
:103750006AE08CE893E1C1DD40910E0150910F01C8
:10376000609110017091110188E693E00E94762625
:10377000E4E5F3E064918F01662341F08CE893E186
:10378000ACDD0F5F1F4FF8016491F6CF6AE08CE863
:1037900093E1A3DD40910A0150910B0160910C016E
:1037A00070910D0180E593E00E947626FE01649100
:1037B00001E91CE0662341F08CE893E18EDD0F5FA8
:1037C0001F4FF8016491F6CFE6E3F3E064918F01B7
:1037D000662341F08CE893E180DD0F5F1F4FF80115
:1037E0006491F6CF6AE08CE893E177DDFE016491A5
:1037F00001E91CE0662341F08CE893E16EDD0F5F88
:103800001F4FF8016491F6CF409126115091271176
:1038100060912811709129118DE293E00E94362663
:1038200040912A1150912B1160912C1170912D1102
:103830008AE293E00E94362640912E1150912F117A
:10384000609130117091311187E293E00E94362629
:1038500040913211509133116091341170913511B2
:1038600084E293E00E9436266AED74E08CE893E1EE
:1038700025DD6AE08CE893E130DDFE01649101E929
:103880001CE0662341F08CE893E127DD0F5F1F4FBA
:10389000F8016491F6CFE6E0F3E064918F016623CE
:1038A00041F08CE893E119DD0F5F1F4FF80164913F
:1038B000F6CF6AE08CE893E110DDFE01649101E946
:1038C0001CE0662341F08CE893E107DD0F5F1F4F9A
:1038D000F8016491F6CF4091061150910711609163
:1038E0000811709109118DEF92E00E9476264091A7
:1038F0000A1150910B1160910C1170910D118AEF0A
:1039000092E00E94762640910E1150910F11609125
:1039100010117091111187EF92E00E94762640916C
:10392000121150911311609114117091151184EFBF
:1039300092E00E9476266AED74E08CE893E1BEDCAA
:103940006AE08CE893E1C9DCFE01649101E91CE0C6
:10395000662341F08CE893E1C0DC0F5F1F4FF80154
:103960006491F6CFEFEBF2E064918F01662341F0B2
:103970008CE893E1B2DC0F5F1F4FF8016491F6CF42
:103980006AE08CE893E1A9DCFE01649101E91CE0A6
:10399000662341F08CE893E1A0DC0F5F1F4FF80134
:1039A0006491F6CF4091FE105091FF10609100118C
:1039B0007091011186EB92E00E9436264091FA1038
:1039C0005091FB106091FC107091FD1083EB92E020
:1039D0000E9436266AED74E08CE893E16FDC6AE0C1
:1039E0008CE893E17ADCFE01649101E91CE0662336
:1039F00041F08CE893E171DC0F5F1F4FF801649197
:103A0000F6CFE0E0F2E064918F01662341F08CE8AC
:103A100093E163DC0F5F1F4FF8016491F6CF6AE01A
:103A20008CE893E15ADCFE01649101E91CE0662315
:103A300041F08CE893E151DC0F5F1F4FF801649176
:103A4000F6CF4091021150910311609104117091D1
:103A5000051187EF91E00E9436264091EA105091BF
:103A6000EB106091EC107091ED1084EF91E00E94EA
:103A7000362640913611509137116091381170916E
:103A8000391181EF91E00E9476264091F610509115
:103A9000F7106091F8107091F9108EEE91E00E948D
:103AA00036264091F2105091F3106091F41070910D
:103AB000F5108BEE91E00E9436264091EE10509169
:103AC000EF106091F0107091F11088EE91E00E947B
:103AD00036266AED74E08CE893E1F0DB6AE08CE86E
:103AE00093E1FBDBFE01649101E91CE0662341F0F8
:103AF0008CE893E1F2DB0F5F1F4FF8016491F6CF82
:103B0000E6EDF1E064918F01662341F08CE893E1EA
:103B1000E4DB0F5F1F4FF8016491F6CF6AE08CE899
:103B200093E1DBDBFE01649101E91CE0662341F0D7
:103B30008CE893E1D2DB0F5F1F4FF8016491F6CF61
:103B4000409128075091290760912A0770912B070F
:103B50008DEC91E00E94362640912C0750912D0764
:103B600060912E0770912F078AEC91E00E94362613
:103B700040913007509131076091320770913307BF
:103B800087EC91E00E9436266AED74E08CE893E1C0
:103B900095DB6AE08CE893E1A0DBFE01649101E92A
:103BA0001CE0662341F08CE893E197DB0F5F1F4F29
:103BB000F8016491F6CFE9EBF1E064918F0166239F
:103BC00041F08CE893E189DB0F5F1F4FF8016491AE
:103BD000F6CF6AE08CE893E180DBFE016491C1E9F5
:103BE000DCE0662339F08CE893E177DB2196FE0177
:103BF0006491F7CF40919A0150919B0160919C0193
:103C000070919D018FEA91E00E94362660919601A5
:103C10007091970180919801909199010E94059B64
:103C2000AB01BC018CEA91E00E94362660919201C2
:103C30007091930180919401909195010E94129B43
:103C4000AB01BC0189EA91E00E9436266AED74E07E
:103C50008CE893E133DB6AE08CE893E1DF91CF916C
:103C60001F910F913ACBAF92BF92CF92DF92EF921A
:103C7000FF920F931F93CF93DF93CDB7DEB7E097FB
:103C80000FB6F894DEBF0FBECDBF80E1E5EDF1E0E9
:103C9000DE01919601900D928A95E1F780E1E5EEC3
:103CA000F1E0DE01519601900D928A95E1F780E1F5
:103CB000E5EFF1E0DE01119601900D928A95E1F7B2
:103CC000DE01919666E171E1AE014F5E5F4F26E243
:103CD00031E1CE0101965C0186E091E18E010F5C3D
:103CE0001F4FCD90DD90ED90FD90FB01C192D192E0
:103CF000E192F192BF01FA01C190D190E190F1906F
:103D0000AF01F901C192D192E192F1929F01F501C7
:103D1000C190D190E190F1905F01FC01C192D192EC
:103D2000E192F192CF01A017B107D9F60E94BF81AD
:103D300080E090E0AAE7B4E48093FE109093FF1037
:103D4000A0930011B093011180E090E8ABE3B5E4DB
:103D50008093FA109093FB10A093FC10B093FD1089
:103D60001092021110920311109204111092051179
:103D700080E29EE4A0E0B0E080933611909337118A
:103D8000A0933811B09339111092EA101092EB10F1
:103D90001092EC101092ED1080E090E0A0E1B1E400
:103DA0008093F6109093F710A093F810B093F91049
:103DB0008DEC9CECACECBEE38093F2109093F3108E
:103DC000A093F410B093F51080E090E0A0EAB0E486
:103DD0008093EE109093EF10A093F010B093F11039
:103DE0001092300710923107109232071092330769
:103DF00010922C0710922D0710922E0710922F0769
:103E0000109228071092290710922A0710922B0768
:103E100086E990E09093BC128093BB1281E490E01D
:103E20009093BA128093B9121092B8121092B712EE
:103E300088EC90E09093B6128093B51289E690E0FA
:103E40009093B4128093B3121092B2121092B112E6
:103E500080E090E0A0EBB1E480939A0190939B0105
:103E6000A0939C01B0939D0160E070E080E090E43D
:103E70000E94FF9A60939601709397018093980136
:103E80009093990160E070E086E792E40E940B9BBA
:103E900060939201709393018093940190939501A4
:103EA0000E94598D86E696E6A6EABFE380938E01CE
:103EB00090938F01A0939001B093910110924407C9
:103EC00080E090E0A0E4B0E480934301909344014B
:103ED000A0934501B0934601809347019093480118
:103EE000A0934901B0934A010E94772EE1E9FCE0DA
:103EF00064918F01662341F08CE893E1EED90F5F66
:103F00001F4FF8016491F6CFEDE6F1E064918F0167
:103F1000662341F08CE893E1E0D90F5F1F4FF80171
:103F20006491F6CF6AE08CE893E1E0960FB6F894DE
:103F3000DEBF0FBECDBFDF91CF911F910F91FF90DC
:103F4000EF90DF90CF90BF90AF90C7C90F931F93B2
:103F5000CF93DF93CDB7DEB72C970FB6F894DEBFC3
:103F60000FBECDBF84E690E09C878B878091F902DD
:103F70009091FA02A091FB02B091FC0289839A838E
:103F8000AB83BC8344E0BE016B5F7F4FCE010B96D9
:103F9000D8D943E050E0BE016B5F7F4FCE01019660
:103FA0000E949AF2892B09F022C140E166E171E199
:103FB000CE010B96C6D940E166E271E1CE010B96C7
:103FC000C0D940E166E071E1CE010B96BAD90E94FA
:103FD000BF8144E06EEF70E1CE010B96B2D944E0B0
:103FE0006AEF70E1CE010B96ACD944E062E071E17A
:103FF000CE010B96A6D944E06AEE70E1CE010B9695
:10400000A0D944E066E371E1CE010B969AD944E071
:1040100066EF70E1CE010B9694D944E062EF70E157
:10402000CE010B968ED944E06EEE70E1CE010B9678
:1040300088D94CE068E277E0CE010B9682D942E065
:104040006BEB72E1CE010B967CD942E069EB72E139
:10405000CE010B9676D942E067EB72E1CE010B966A
:1040600070D942E065EB72E1CE010B966AD942E06D
:1040700063EB72E1CE010B9664D942E061EB72E131
:10408000CE010B965ED944E065E177E0CE010B9658
:1040900058D944E06AE971E0CE010B9652D944E068
:1040A00066E971E0CE010B964CD944E062E971E01B
:1040B000CE010B9646D942E0BE01675F7F4FCE012D
:1040C0000B963FD941E064E477E0CE010B9639D9F5
:1040D00044E063E471E0CE010B9633D944E067E439
:1040E00071E0CE010B962DD944E06BE171E0CE0179
:1040F0000B9627D960911B0170911C0180911D01C5
:1041000090911E010E949EEB685D7F4F62327105A7
:1041100088F180E090E0A0E1B1EC80931B019093E6
:104120001C01A0931D01B0931E0110922301109257
:104130002401109225011092260110922B01109259
:104140002C0110922D0110922E0181E290E0A0E04E
:10415000B0E080930E0190930F01A0931001B093F3
:10416000110180930A0190930B01A0930C01B0936D
:104170000D0118C044E063E271E0CE010B96E1D876
:1041800044E06BE271E0CE010B96DBD844E06EE0D8
:1041900071E0CE010B96D5D844E06AE071E0CE0123
:1041A0000B96CFD80E94772E0E94598DE1E9FCE052
:1041B00064918F01662341F08CE893E18ED80F5F04
:1041C0001F4FF8016491F6CFEFE8F1E064918F01A1
:1041D000662341F08CE893E180D80F5F1F4FF80110
:1041E0006491F6CF6AE08CE893E177D801C03BDDBB
:1041F000E8D92C960FB6F894DEBF0FBECDBFDF9185
:10420000CF911F910F910895FC01858190E0FC01F1
:104210000E9405E424E0322F3150F1F7FC010E94A6
:10422000FFE32150F1F7FC010E9405E480E991E0F1
:104230000197F1F708958F929F92AF92BF92CF921C
:10424000DF92EF92FF920F931F93CF93DF934C0176
:104250007C0126E0E20EF11CC0E0D0E0C42ED12C9F
:10426000062F10E0CC15DD05B4F45701D7018D9170
:104270007D010E9456E3D501EC91F0E0C8010C2EBF
:1042800002C0959587950A94E2F78170082E0E94E6
:10429000FCE32196E7CFC401DF91CF911F910F91ED
:1042A000FF90EF90DF90CF90BF90AF909F908F9056
:1042B000ABCF1F93CF93DF93DC011396EC91139751
:1042C000F0E0042E0E94FCE31496EC91EF3F19F00D
:1042D000F0E00E9405E4FC01268524FF02C048E0CE
:1042E0000EC0162FEC0170E084E0759567958A95F5
:1042F000E1F744E0CF019FDF44E0612FCE01DF9181
:10430000CF911F9198CF40E0D4CF61E0FCDF80E4F3
:104310009FE10197F1F70895CF93DF93CDB7DEB713
:1043200028970FB6F894DEBF0FBECDBF9C0188E082
:10433000E5E0F2E0DE01119601900D928A95E1F739
:10434000F9018289481710F04FEF480FFE013196AE
:10435000E40FF11DE40FF11D9081690F6068C90140
:1043600028960FB6F894DEBF0FBECDBFDF91CF9178
:10437000CACFFC016785262F246027876C60C3CFD6
:10438000EF92FF920F931F93CF93DF938C017A01EB
:10439000677088E0689FB00111246064C801B3DFD2
:1043A000E701A8E0EA0EF11C6991D801ED91FC91BA
:1043B0000190F081E02DC8010995CE15DF05A1F728
:1043C000DF91CF911F910F91FF90EF9008950F9380
:1043D0001F93CF93DF93EC01423018F08E858860F5
:1043E0008E874A8B1B8A222329F0413019F48E854F
:1043F00084608E8780E49DE00197F1F7EB81F0E027
:104400000E9405E4ED81F0E00E9405E4EC81EF3FBD
:1044100019F0F0E00E9405E46E8564FD1DC044E0E3
:1044200063E0CE0108DF00E516E4C8010197F1F76B
:1044300044E063E0CE01FFDEC8010197F1F744E0FC
:1044400063E0CE01F8DE88E592E00197F1F744E001
:1044500062E0CE01F0DE13C06062CE0154DF80E581
:1044600096E40197F1F76E856062CE014CDF88E536
:1044700092E00197F1F76E856062CE0144DF6E85B0
:104480006062CE0140DF84E08F87CE0172DFCE0113
:104490003CDF82E0888B66E0CE01DF91CF911F91F7
:1044A0000F9131CF6F927F928F92AF92CF92EF9216
:1044B0000F931F93CF93DF93CDB7DEB73C01162F39
:1044C000842F5D854E853F859889F30183832483FE
:1044D0000583E682C782A086818652874387348718
:1044E00095870E9456E3F30184818F3F11F00E946B
:1044F00056E3F30185810E9456E3112319F0F3017D
:10450000168603C080E1F301868720E041E060E188
:10451000C301DF91CF911F910F91EF90CF90AF909A
:104520008F907F906F9053CF8F92AF92CF92EF92F8
:104530000F93DC0112961C921297E1E0F3E0ED93E9
:10454000FC931F921F921F921F928C2CAE2CC02E98
:10455000E22E042F2FEF462F61E0A4DF0F900F9083
:104560000F900F900F91EF90CF90AF908F90089594
:10457000AF92BF92CF92DF92EF92FF920F931F9371
:10458000CF93DF936C018C010A5F1F4F5801E12C20
:10459000F12CC62FD0E0EC16FD064CF4F50181910C
:1045A0005F010E94D2E3FFEFEF1AFF0AF4CFF6019A
:1045B000258130E0F9010E9405E484E0982F9150B4
:1045C000F1F7F9010E94FFE38150F1F740E050E07C
:1045D00080E0A1E0B0E04C175D07B4F4F8019191E0
:1045E0008F01E92FF0E00E94F8E4E13039F4BD01D9
:1045F000042E01C0660F0A94EAF702C060E070E082
:10460000862B4F5F5F4FE7CFF9010E9405E4DF91F2
:10461000CF911F910F91FF90EF90DF90CF90BF90BF
:10462000AF9008951F93CF93DF93DC011396EC9125
:104630001397F0E0062E0E94FCE31496EC91EF3FF6
:1046400019F0F0E00E94FFE3FC01268524FF05C07D
:1046500068E0DF91CF911F918BCFEC0164E088DFA0
:10466000182F1295107F64E0CE0182DF812BDF913D
:10467000CF911F9108951F93CF93DF93EC01162FD5
:104680008C89813069F460E0CE01CCDF8F7798EFC0
:10469000980F9C3028F4885C682F6068CE0133DE68
:1046A00017FF21C0103C18F0105D1D8B20C01F7338
:1046B000ED89E11105C0113051F441E062EA15C005
:1046C000E13029F4113119F441E065EB0EC080E4CA
:1046D000E89FF00111247097E10FF11DE351FC4FA9
:1046E000649141E002C041E0612FCE01E2DD81E052
:1046F00090E0DF91CF911F9108952F923F924F92BA
:104700005F926F927F928F929F92AF92BF92CF9261
:10471000DF92EF92FF920F931F93CF93DF9300D01E
:1047200000D000D0CDB7DEB75C01FC01EE5AF34FEC
:104730001491880F991F880F991F9E838D838C5C1D
:10474000984F9A838983FC0110821182128213820E
:1047500020E437E04CE357E068E377E084E397E058
:104760000E940B81ED81FE81EF59F34FC590D590EA
:10477000E590F490612F110F770B880B990B0E9435
:10478000D1EB2B013C018D819E818751994F4C01CA
:1047900020E030E040EC5FE3C701B6010E9404EE88
:1047A000A30192010E9404EEF4016083718382836D
:1047B00093838D819E818D5A9E4F9C838B83FC01B8
:1047C00060817181828193816093050170930601FC
:1047D000809307019093080120E030E040E752E425
:1047E0000E9436EB34E1C32E37E0D32E7B018C01DF
:1047F00025EF36E041EF56E06DEE76E089EE96E08B
:104800000E9432770E946F89E981FA8110821182B9
:104810001282138220E437E04CE357E068E377E04C
:1048200084E397E00E940B818D819E818B5A934F88
:104830001C01FC0185919591A591B491BC01CD011C
:104840009058A30192010E9404EEF40160837183E9
:104850008283938320E030E040E752E460910501D9
:104860007091060180910701909108010E9436EB3A
:104870007B018C0125EF36E041EF56E06DEE76E0EE
:1048800089EE96E00E9432770E946F89F10165916E
:104890007591859194919B01AC010E9456EAA30108
:1048A00092010E9404EEF4016083718382839383FA
:1048B00020E030E040E05FE3EB81FC8160817181CA
:1048C000828193810E9404EE60930501709306013A
:1048D000809307019093080120E030E040E752E424
:1048E0000E9436EB7B018C0125EF36E041EF56E06C
:1048F0006DEE76E089EE96E00E9432770E946F8935
:10490000ED81FE81E359F34F259135914591549105
:10491000ED81FE81E85DF84FC080D180E280F380B8
:10492000C701B6010E9456EA2B013C01E981FA81D8
:104930006083718382839383ED81FE81EB57F34F14
:1049400025913591459154910D811E81045E184F3A
:10495000C701B6010E9456EAF80160837183828321
:104960009383ED81FE81E758F34F25913591459171
:1049700054918D819E81815D9E4F9A838983C70169
:10498000B6010E9456EAE981FA81608371838283CD
:104990009383F401408251826282738210920501F6
:1049A0001092060110920701109208010E94B38232
:1049B000F501E75EF84F81E0808326960FB6F89404
:1049C000DEBF0FBECDBFDF91CF911F910F91FF9042
:1049D000EF90DF90CF90BF90AF909F908F907F909F
:1049E0006F905F904F903F902F900895AB01770F9D
:1049F000660B770B0C9453E20C9460E2FC0123816C
:104A000021110C9426580895AF92BF92CF92DF9255
:104A1000EF92FF920F931F93CF93DF93CDB7DEB743
:104A2000E0970FB6F894DEBF0FBECDBF8091CD09E1
:104A30008E010F5D1F4F811105C08091CC09882325
:104A400009F468C060E070E0CB010E94B6818BEA97
:104A50009AEAA6E2B5E48093221190932311A093E1
:104A60002411B093251180E1EDE0F2E0DE015196D2
:104A700001900D928A95E1F780E1EDE1F2E0DE012F
:104A8000119601900D928A95E1F7DE01519626E28A
:104A900031E1CE0101967C0186E091E14D915D917D
:104AA0006D917D91F90141935193619371939F01B0
:104AB000F70141915191619171917F01FC01419305
:104AC000519361937193CF01A017B10739F70E94F9
:104AD000BF8180E090E0A8E4B3E48093FE1090935F
:104AE000FF10A0930011B093011180E090E0A0E4CA
:104AF000B0E48093F6109093F710A093F810B09361
:104B0000F9108093F2109093F310A093F410B093E7
:104B1000F5107DC060E070E08AE293E40E94B68107
:104B200080E1EDE2F2E0D80101900D928A95E1F783
:104B300080E1EDE3F2E0DE01519601900D928A955D
:104B4000E1F780E1EDE4F2E0DE01119601900D92D3
:104B50008A95E1F746E151E1DE01519626E231E125
:104B6000CE0101965C0186E091E1BE016F5C7F4F52
:104B7000F801C190D190E190F1908F01FA01C192BA
:104B8000D192E192F192AF01CD90DD90ED90FD9048
:104B9000F901C192D192E192F1929F01F501C19088
:104BA000D190E190F1905F01FC01C192D192E1922C
:104BB000F192CF0106171707D9F60E94BF8180E056
:104BC00090E0AAE7B4E48093FE109093FF10A093C6
:104BD0000011B093011180E090E0A0E1B1E4809376
:104BE000F6109093F710A093F810B093F9108DEC95
:104BF0009CECACECBEE38093F2109093F310A09386
:104C0000F410B093F51080E090E0A0EAB0E4809357
:104C1000EE109093EF10A093F010B093F110E09687
:104C20000FB6F894DEBF0FBECDBFDF91CF911F91BD
:104C30000F91FF90EF90DF90CF90BF90AF900895CD
:104C40008091CD09882319F01092CD09729ADCCE9B
:104C50001092CC098091CD09882331F0439A6A9A49
:104C60006A9A72986A9A7298729ACECECF92DF92AE
:104C7000EF92FF92CF93DF93EC016A017B01FE017B
:104C80006491662331F08CE893E10E946D192196BE
:104C9000F6CF22E030E0B701A6018CE893E1DF9186
:104CA000CF91FF90EF90DF90CF90A6CECF92DF9282
:104CB000EF92FF92CF93DF93EC016A017B01FE013B
:104CC0006491662331F08CE893E10E946D1921967E
:104CD000F6CF22E030E0B701A6018CE893E1DF9146
:104CE000CF91FF90EF90DF90CF9086CECF92DF9262
:104CF000EF92FF92CF93DF93EC016A017B01FE01FB
:104D00006491662331F08CE893E10E946D1921963D
:104D1000F6CF20E0B701A6018CE893E1DF91CF91B7
:104D2000FF90EF90DF90CF900C94E7E1CF93DF936B
:104D30002091420530914305243031050CF064C0C8
:104D4000BC01209144053091450540E6429FC001D9
:104D5000439F900D1124845B9A4F0E9493F2E1E9E6
:104D6000FCE06491EF01662341F08CE893E10E943E
:104D70006D192196FE016491F6CFE7E4FCE06491A1
:104D8000EF01662341F08CE893E10E946D192196B2
:104D9000FE016491F6CF809144059091450520E68F
:104DA000289FB001299F700D1124645B7A4F8CE815
:104DB00093E10E945E19E5E4FCE06491EF01662353
:104DC00041F08CE893E10E946D192196FE016491F7
:104DD000F6CF6AE08CE893E10E946D19809144055A
:104DE00090914505019664E070E00E94EDEE90938D
:104DF00045058093440580914205909143050196B5
:104E00009093430580934205DF91CF910895CF930E
:104E1000DF932091420530914305243031050CF099
:104E200064C0BC01209144053091450540E6429F95
:104E3000C001439F900D1124845B9A4F0E94FAF1A8
:104E4000E1E9FCE06491EF01662341F08CE893E135
:104E50000E946D192196FE016491F6CFEAE3FCE011
:104E60006491EF01662341F08CE893E10E946D1993
:104E70002196FE016491F6CF8091440590914505FD
:104E800020E6289FB001299F700D1124645B7A4FA2
:104E90008CE893E10E945E19E8E3FCE06491EF0185
:104EA000662341F08CE893E10E946D192196FE0182
:104EB0006491F6CF6AE08CE893E10E946D198091CD
:104EC000440590914505019664E070E00E94EDEE86
:104ED0009093450580934405809142059091430548
:104EE00001969093430580934205DF91CF910895F9
:104EF000EF92FF920F931F93CF93DF930E94D49E64
:104F00006D9A7598849A8C988698259840E950ED0A
:104F100063E070E08CE893E10E94D9E9E2E3FCE011
:104F20006491EF01662341F08CE893E10E946D19D2
:104F30002196FE016491F6CF6AE08CE893E10E942D
:104F40006D19C1E9DCE0FE0164918E01662349F030
:104F50008CE893E10E946D190F5F1F4FF801649177
:104F6000F5CF14B710FF15C0EAE2FCE064917F01B1
:104F7000662351F08CE893E10E946D19FFEFEF1A60
:104F8000FF0AF7016491F4CF6AE08CE893E10E9494
:104F90006D1911FF15C0EAE1FCE064917F01662301
:104FA00051F08CE893E10E946D19FFEFEF1AFF0AB0
:104FB000F7016491F4CF6AE08CE893E10E946D19E7
:104FC00012FF15C0E9E0FCE064917F01662351F017
:104FD0008CE893E10E946D19FFEFEF1AFF0AF701C9
:104FE0006491F4CF6AE08CE893E10E946D1913FF9D
:104FF00015C0E9EFFBE064917F01662351F08CE876
:1050000093E10E946D19FFEFEF1AFF0AF701649117
:10501000F4CF6AE08CE893E10E946D1915FF14C08B
:10502000E9EEFBE064918F01662349F08CE893E19F
:105030000E946D190F5F1F4FF8016491F5CF6AE070
:105040008CE893E10E946D1914BEE2EEFBE06491DE
:105050008F01662349F08CE893E10E946D190F5F80
:105060001F4FF8016491F5CFECEDFBE064918F01E7
:10507000662349F08CE893E10E946D190F5F1F4F82
:10508000F8016491F5CF6AE08CE893E10E946D1914
:10509000FE01649101E91CE0662349F08CE893E18C
:1050A0000E946D190F5F1F4FF8016491F5CFECEC72
:1050B000FBE064918F01662349F08CE893E10E9444
:1050C0006D190F5F1F4FF8016491F5CFE7EBFBE01F
:1050D00064918F01662349F08CE893E10E946D1979
:1050E0000F5F1F4FF8016491F5CFEBEAFBE064918D
:1050F0008F01662349F08CE893E10E946D190F5FE0
:105100001F4FF8016491F5CFE4E9FBE064918F0152
:10511000662349F08CE893E10E946D190F5F1F4FE1
:10512000F8016491F5CF6AE08CE893E10E946D1973
:10513000E9E8FBE064918F01662349F08CE893E194
:105140000E946D190F5F1F4FF8016491F5CFEDE7D5
:10515000FBE064918F01662349F08CE893E10E94A3
:105160006D190F5F1F4FF8016491F5CF6AE08CE86D
:1051700093E10E946D19FE016491C1E9DCE06623B0
:1051800041F08CE893E10E946D192196FE01649133
:10519000F6CFEEE6FBE06491EF01662341F08CE888
:1051A00093E10E946D192196FE016491F6CF0E9451
:1051B000AA5CBC018CE893E119DCE7E5FBE06491B3
:1051C000EF01662341F08CE893E10E946D1921966E
:1051D000FE016491F6CF60ED74E08CE893E106DCAB
:1051E0006AE08CE893E10E946D19109248051092D4
:1051F000490510924A0510924B050E94A61F0E9475
:10520000DB8D0E9491750E94FD890E941889859A04
:105210007E9903C01092140705C01D9903C081E058
:1052200080931407DF91CF911F910F91FF90EF9022
:10523000089580913C0590913D0560E070E00196F5
:105240000C946CEF80913C0590913D054AE050E054
:1052500060E070E001960C94BFF0682F880F770B28
:10526000209146053091470540E6429FC001439F8B
:10527000900D1124845B9A4F0E947FF29C019093C1
:105280003D0580933C0581E0232B09F480E00895DF
:105290000FB6F8948091811390918213A09183139B
:1052A000B09184130FBE8093380590933905A09375
:1052B0003A05B0933B050895CF93DF930FB6F8946A
:1052C0008091811390918213A0918313B0918413E4
:1052D0000FBE8093380590933905A0933A05B0939B
:1052E0003B05E0914605F0914705E85BFA4F808168
:1052F000811115C0EFE0F5E06491EF01662341F004
:105300008CE893E10E946D192196FE016491F6CF1D
:105310006AE08CE893E1DF91CF910C946D19DF91F5
:10532000CF9108958F929F92AF92BF92CF92DF92CA
:10533000EF92FF920F931F93CF93DF9388E3E82EB2
:1053400084E0F82E04E317E0C9EED6E097E4C92E16
:1053500097E0D92EF70181917F017FDF8823F1F05B
:1053600068DF4B015C01F6016081611102C0609150
:10537000CC0670E080E090E00E94D1EBF801208143
:105380003181428153810E9404EEA50194010E9463
:1053900056EA688379838A839B8309C0F8018081F8
:1053A0009181A281B38188839983AA83BB830C5F97
:1053B0001F4F2496FFEFCF1ADF0A8CE3E81684E034
:1053C000F80641F686E449DF882391F032DF6B016D
:1053D0007C0120E030E0A9010E9432ED181644F46F
:1053E000C0920501D0920601E0920701F0920801F7
:1053F000DF91CF911F910F91FF90EF90DF90CF90B1
:10540000BF90AF909F908F9008958CDF89E425DF47
:10541000882351F00EDF6093DD067093DE068093E3
:10542000DF069093E00608C01092DD061092DE06BB
:105430001092DF061092E0068AE40FDF882351F015
:10544000F8DE6093E1067093E2068093E3069093A2
:10545000E40608951092E1061092E2061092E30627
:105460001092E4060895CF92DF92EF92FF92CF93CD
:10547000DF93EC01C0901C07D0901D07E0901E0741
:10548000F0901F07A7019601688179818A819B812D
:105490000E942FEB87FF04C0C882D982EA82FB8278
:1054A000C0902007D0902107E0902207F0902307BA
:1054B000A70196016C817D818E819F810E942FEBD7
:1054C00087FF04C0CC82DD82EE82FF8220E030E0E4
:1054D000A90160912407709125078091260790917A
:1054E00027070E9456EA6B017C019B01AC0168858D
:1054F00079858A859B850E942FEB87FF04C0C8862B
:10550000D986EA86FB86C0902F01D0903001E090CA
:105510003101F0903201A7019601688179818A8179
:105520009B810E9432ED181624F4C882D982EA8247
:10553000FB82C0903301D0903401E0903501F090AF
:105540003601A70196016C817D818E819F810E9429
:1055500032ED181624F4CC82DD82EE82FF82C090F8
:105560003701D0903801E0903901F0903A01A7015D
:105570009601688579858A859B850E9432ED18168B
:1055800024F4C886D986EA86FB86DF91CF91FF9006
:10559000EF90DF90CF900895CF92DF92EF92FF923D
:1055A0000F931F9389EE96E05EDF0FB6F89480911B
:1055B000811390918213A0918313B09184130FBE35
:1055C0008093380590933905A0933A05B0933B0535
:1055D0002091E9063091EA064091EB065091EC06E5
:1055E00060913407709135078091360790913707A5
:1055F0000E942FEB811121C02091ED063091EE0623
:105600004091EF065091F00660913807709139078C
:1056100080913A0790913B070E942FEB81110DC0BA
:1056200020E030E040E752E460910501709106010E
:1056300080910701909108011EC060915101709105
:105640005201072E000C880B990B0E94D1EB209180
:1056500005013091060140910701509108010E9417
:1056600004EE20E030E040E752E40E9436EB20E018
:1056700030E048EC52E40E9436EB24E1C22E27E0F1
:10568000D22E7B018C0125EF36E041EF56E06DEE26
:1056900076E089EE96E00E943277E9EEF6E0A4E348
:1056A000B7E041915191619171914D935D936D93EB
:1056B0007D9386E0E93FF807A1F71F910F91FF90D6
:1056C000EF90DF90CF900895AF92BF92CF92DF928C
:1056D000EF92FF920F931F93CF93DF93F82E2091B9
:1056E000E1063091E2064091E3065091E4066091B4
:1056F000DD067091DE068091DF069091E0060E9443
:105700003FEDEB01182F092F60915101709152016B
:10571000072E000C880B990B0E94D1EB20910501FC
:105720003091060140910701509108010E9404EE5A
:1057300020E030E040E752E40E9436EB20E030E029
:1057400048EC52E40E9436EB209114072F93FF920D
:105750000F931F93DF93CF935B016C0182E0E82EE0
:1057600001E020E04DED56E069EE76E084E397E05D
:105770000E94846EE9EEF6E0A4E3B7E00F900F908C
:105780000F900F900F900F904191519161917191F5
:105790004D935D936D937D9386E0E93FF807A1F704
:1057A0000FB6F8948091811390918213A091831386
:1057B000B09184130FBE8093380590933905A09360
:1057C0003A05B0933B05DF91CF911F910F91FF9068
:1057D000EF90DF90CF90BF90AF9008950FB6F89400
:1057E0008091811390918213A0918313B0918413BF
:1057F0000FBE40911E0550911F05609120057091CC
:105800002105841B950BA60BB70B843C9940A10581
:10581000B10508F457C00FB6F894809181139091A8
:105820008213A0918313B09184130FBE80931E0541
:1058300090931F05A0932005B0932105679B27C077
:10584000669B25C0339B23C0339B21C00FB6F894C1
:105850008091811390918213A0918313B09184134E
:105860000FBE40912205509123056091240570914F
:105870002505841B950BA60BB70B80319742A1051C
:10588000B105C8F4452B462B472BA9F018C00FB61D
:10589000F8948091811390918213A0918313B09119
:1058A00084130FBE8093220590932305A0932405B3
:1058B000B0932505CBCF8F98879A8F9808958F9AAC
:1058C000879A8F9A0895CF92DF92EF92FF920F936B
:1058D0001F93CF93DF930FB6F894409181135091AB
:1058E000821360918313709184130FBE8091180509
:1058F00090911905A0911A05B0911B058417950781
:10590000A607B70708F0C6C08C509E4FAF4FBF4FD9
:105910008093180590931905A0931A05B0931B0561
:105920000091271210912812D0912912C0912A12A9
:1059300020E030E0A901B8018D2F9C2F0E942FEBB1
:1059400087FF04C000E010E0D0E0C0E060913512B5
:1059500070913612072E000C880B990B0E94D1EB28
:105960006B017C019B01AC01B8018D2F9C2F0E9423
:1059700032ED18161CF08601DE2DCF2DC0902B12B3
:10598000D0902C12E0902D12F0902E1298014D2FF5
:105990005C2FB601C7010E942FEB87FD03C0860173
:1059A000DE2DCF2D6091371270913812072E000C2A
:1059B000880B990B0E94D1EB6B017C0198014D2F54
:1059C0005C2F0E942FEB87FD03C08601DE2DCF2DBB
:1059D0006091331270913412072E000C880B990BD2
:1059E0000E94D1EB6B017C0198014D2F5C2F0E942E
:1059F0002FEB87FD03C08601DE2DCF2DC090211235
:105A0000D0902212E0902312F090241298014D2F92
:105A10005C2FB601C7010E942FEB87FD03C08601F2
:105A2000DE2DCF2D20E030E04CE552E4B8018D2F83
:105A30009C2F0E9432ED1816F4F480911C05811100
:105A40001AC05B9A5A9881E080931C0510921D053C
:105A500020E030E048E552E4B8018D2F9C2F0E94F1
:105A60002FEB87FF17C05B985A9A10921C0581E0B4
:105A700080931D050FC020E030E048E552E4B801F6
:105A80008D2F9C2F0E942FEB87FF04C080911D0556
:105A9000882349F3DF91CF911F910F91FF90EF90F1
:105AA000DF90CF900895F8940E94E98E779A109233
:105AB0001907769A10921A07479A10921B07439A71
:105AC000439A8091CD098111729AE7E9FCE06491D3
:105AD000EF01662341F08CE893E10E946D19219655
