:100000000C9417160C9441160C9441160C9441163E
:100010000C9441160C9441160C9441160C94411604
:100020000C9441160C9441160C94F8D70C9475D886
:100030000C9441160C9441160C9441160C944116E4
:100040000C9441160C94347D0C9441160C9441167A
:100050000C9441160C9441160C94ED930C9457D7C4
:100060000C9441160C9441160C9441160C944116B4
:100070000C9441160C9441160C9441160C944116A4
:100080000C9441160C9441160C9441160C94411694
:100090000C94E5D10C9441165894659481948E94F7
:1000A000A894B594CF94D294D494D794DF94E6D402
:1000B00012D534D534D534D534D534D534D534D51A
:1000C00034D534D534D534D534D52AD522D51AD51E
:1000D00034D534D534D534D534D534D534D50CD500
:1000E000F2D4FAD404D5084AD73B3BCE016E84BC87
:1000F000BFFDC12F3D6C74319ABD56833DDA3D0082
:10010000C77F11BED9E4BB4C3E916BAAAABE0000CA
:1001100000803F05A84CCDB2D44EB93836A9020CA8
:1001200050B9918688083CA6AAAA2ABE0000008081
:100130003F004E414E494E495459494E46CDCCCCD4
:100140003D0AD7233C17B7D13877CC2B329595E6AB
:10015000241FB14F0A000020410000C84200401C8B
:100160004620BCBE4CCA1B0E5AAEC59D7448617277
:1001700064636F6465642044656661756C742053C4
:10018000657474696E6773204C6F616465640053B5
:10019000746F7265642073657474696E677320721E
:1001A000657472696576656400204400204900200A
:1001B00020204D3330312050005049442073657465
:1001C00074696E67733A00205A0020590020204D50
:1001D000323036205800486F6D65206F6666736553
:1001E0007420286D6D293A00204500205A002058BF
:1001F0000020420020540020204D32303520530092
:10020000416476616E636564207661726961626CD7
:1002100065733A20533D4D696E2066656564726171
:10022000746520286D6D2F73292C20543D4D696E07
:100230002074726176656C206665656472617465B0
:1002400020286D6D2F73292C20423D6D696E696DDC
:10025000756D207365676D656E742074696D6520BA
:10026000286D73292C20583D6D6178696D756D205E
:100270005859206A65726B20286D6D2F73292C20C8
:10028000205A3D6D6178696D756D205A206A6572DE
:100290006B20286D6D2F73292C2020453D6D6178D2
:1002A000696D756D2045206A65726B20286D6D2F14
:1002B00073290020540020204D3230342053004157
:1002C0006363656C65726174696F6E3A20533D615A
:1002D0006363656C65726174696F6E2C20543D7246
:1002E00065747261637420616363656C65726174C7
:1002F000696F6E00204500205A0020590020204DD3
:100300003230312058004D6178696D756D20416340
:1003100063656C65726174696F6E20286D6D2F73F3
:1003200032293A00204500205A0020590020204D53
:100330003230332058004D6178696D756D206665E7
:100340006564726174657320286D6D2F73293A009E
:1003500020204D32313820543120590020204D3298
:1003600031382054312058004F666673657473200D
:10037000666F7220457874727564657220323A0037
:10038000204500205A0020590020204D39322058A5
:100390000053746570732070657220756E69743ACD
:1003A0000053657474696E67732053746F7265646B
:1003B0000041A042A1E045A3A4A5A64BA74D484FEC
:1003C000A8504354A9AA58E1ABACE2ADAE62AFB0BD
:1003D000B161B2B3B4E365B6B7B8B9BABBBCBD6F6F
:1003E000BE7063BF79E478E5C0C1E6C2C3C4C5C6C8
:1003F000C7D09ED181D182D0B0D0BDD0BED0B2D036
:10040000BBD0B5D0BD2E20234D393939005072698B
:100410006E7465722073746F7070656420647565A6
:1004200020746F206572726F72732E204669782077
:10043000746865206572726F7220616E64207573D6
:1004400065204D39393920746F207265737461727B
:10045000742E202854656D70657261747572652004
:1004600069732072657365742E20536574206974F6
:100470002061667465722072657374617274696E4E
:10048000672900D09ED181D182D0B0D0BDD0BED05E
:10049000B2D0BBD0B5D0BD2E20234D31313200506B
:1004A00072696E7465722068616C7465642E206B6D
:1004B000696C6C28292063616C6C656421006F6B2A
:1004C00000526573656E643A20002200556E6B6EB3
:1004D0006F776E20636F6D6D616E643A2022004C01
:1004E0006173657220454E41424C45440A004C619F
:1004F0007365722044495341424C45440A0050619F
:1005000073746120457874727564657220446972F1
:1005100065637420454E41424C45440A0050617366
:1005200074612045787472756465722044697265DF
:1005300063742044495341424C45440A005061735E
:100540007461204578747275646572204652204546
:100550004E41424C45440A00506173746120457815
:100560007472756465722046522044495341424C6E
:1005700045440A004D61676E756D204164646F6E7D
:1005800073207374617475733A0A004C61736572F9
:10059000204F4E0A004C61736572204F46460A0098
:1005A000496E6974204C6173657220466972737478
:1005B000210A004C6173657220454E41424C45440E
:1005C0000A004C617365722044495341424C4544D2
:1005D0000A005061737461204578747275646572A5
:1005E0002044697265637420454E41424C45440A7B
:1005F000005061737461204578747275646572206F
:100600004469726563742044495341424C45440A2D
:10061000005061737461204578747275646572204E
:10062000465220454E41424C45440A005061737485
:100630006120457874727564657220465220444981
:100640005341424C45440A002D3D20D0B3D0BED189
:1006500082D0BED0B220D0BA20D0BFD0B5D187D002
:10066000B0D182D0B8203D2D00D09FD0B5D187D059
:10067000B0D182D18C20D18120534420D0BAD0B0C7
:10068000D180D182D18B202020005A204F66667302
:100690006574203A20007A5F6D61783A20007A5FB5
:1006A0006D696E3A20005A204F6666736574005A71
:1006B000204F6666736574206F6B00486F74656EBB
:1006C00064206F6666736574733A007A5F6D696E55
:1006D0003A2000795F6D61783A2000785F6D61782B
:1006E0003A200020453A00205A3A0020593A00208A
:1006F000436F756E7420583A200020453A00205A06
:100700003A0020593A00583A0020004D61676E7552
:100710006D205061737461204578747275646572E0
:1007200020454E41424C4544004649524D574152A6
:10073000455F56455253494F4E3A4D61676E756D50
:100740002D50524F2D4230332D70726F2D68316213
:10075000204649524D574152455F4E414D453A4D15
:1007600061726C696E2056313B20537072696E74F1
:1007700065722F6772626C206D6173687570206698
:100780006F722067656E36204649524D574152457B
:100790005F55524C3A68747470733A2F2F676974BE
:1007A0006875622E636F6D2F4D61676E756D334492
:1007B0002050524F544F434F4C5F56455253494F70
:1007C0004E3A312E30204D414348494E455F5459F1
:1007D00050453A4D61676E756D2D33442D67656EDA
:1007E0002E322D4D61676E756D2D50524F2D42305A
:1007F000332D70726F2D6831622045585452554424
:1008000045525F434F554E543A3220555549443A6C
:1008100065653465363963342D643131312D346387
:1008200034352D623939322D3761363765313038FC
:10083000633664380A004D61676E756D2D33442D43
:1008400067656E2E3220D092D18BD0BAD0BB2E00ED
:100850002020202A20D0A1D182D0BED0BB20D0BD64
:10086000D0B0D0B3D180D0B5D182202A20200020B2
:10087000423A0020453A00543A00D09DD0B0D0B35F
:10088000D180D0B5D0B220D181D182D0BED0BBD062
:10089000B0202E2E2E20202020002A20D0ADD0BA2D
:1008A000D181D182D180D183D0B4D0B5D18020D0B4
:1008B000BDD0B0D0B3D180D0B5D182202A0020578E
:1008C0003A0020453A00543A00D09DD0B0D0B3D180
:1008D00080D0B5D0B220D18DD0BAD181D182D18093
:1008E000D183D0B4D0B5D180D0B0202E2E002042FC
:1008F000403A0020403A00202F003A0020540020C7
:100900002F0020423A00202F006F6B20543A002520
:1009100069206D696E2C2025692073656300456E22
:10092000642066696C65206C697374004265676950
:100930006E2066696C65206C69737400D09DD0B5BB
:10094000D18220D0B4D0B2D0B8D0B6D0B5D0BDD03E
:10095000B8D18F2E00496E6974204C617365722086
:100960004669727374210A002D3D20D0B3D0BED1E8
:1009700082D0BED0B220D0BA20D0BFD0B5D187D0DF
:10098000B0D182D0B8203D2D00D09FD180D0BED034
:10099000B4D0BED0BBD0B6D0B5D0BDD0B8D0B520C5
:1009A000D0BFD0B5D187D0B0D182D0B800D09ED042
:1009B0009A20D0B4D0BBD18F20D0BFD180D0BED0B0
:1009C000B4D0BED0BBD0B6D0B5D0BDD0B8D18F00DA
:1009D000D09FD0B0D183D0B7D0B0202823473429BE
:1009E00000D09FD0B5D187D0B0D182D18C202569DD
:1009F000D1872E202569D0BCD0B8D0BD2E00256966
:100A000020686F757273202569206D696E75746535
:100A10007300446F6E65207072696E74696E672032
:100A200066696C6500D09ED181D182D0B0D0BDD036
:100A3000BED0B2D0BBD0B5D0BD2E20234D39393970
:100A4000005072696E7465722073746F70706564A3
:100A50002064756520746F206572726F72732E202A
:100A600046697820746865206572726F7220616EC5
:100A70006420757365204D39393920746F20726593
:100A800073746172742E202854656D706572617480
:100A90007572652069732072657365742E205365C5
:100AA0007420697420616674657220726573746164
:100AB0007274696E6729004E6F204C696E65204E16
:100AC000756D626572207769746820636865636B11
:100AD00073756D2C204C617374204C696E653A20DF
:100AE000004E6F20436865636B73756D2077697482
:100AF00068206C696E65206E756D6265722C204C85
:100B0000617374204C696E653A2000636865636B9D
:100B100073756D206D69736D617463682C204C6111
:100B20007374204C696E653A20004C696E65204EE6
:100B3000756D626572206973206E6F74204C6173ED
:100B400074204C696E65204E756D6265722B312C78
:100B5000204C617374204C696E653A20004D313130
:100B600030004D363030004D363030205300446F69
:100B70006E6520736176696E672066696C652E000C
:100B80006F6B004D3239002020506C616E6E6572C3
:100B900042756666657242797465733A2000204634
:100BA000726565204D656D6F72793A20004A616EFD
:100BB000203330203230323000436F6D70696C6505
:100BC000643A200028497277696E20636F2E2C20CA
:100BD0004D61676E756D2033442900207C2041757E
:100BE00074686F723A20004A616E203330203230D0
:100BF00032302031343A32393A313700204C617387
:100C00007420557064617465643A2000312E302E72
:100C100030004D61726C696E0020536F66747761AD
:100C2000726520526573657400205761746368644F
:100C30006F67205265736574002042726F776E2073
:100C40006F75742052657365740020457874657201
:100C50006E616C20526573657400506F77657255D4
:100C600070007374617274002200656E717565693D
:100C70006E672022002200656E717565696E6720BF
:100C800022000101FF0000A0400000A04000000081
:100C90004000005C43000034430000344300005C2B
:100CA00043000034430000000000005C43000034B7
:100CB000430000344300000000000000000000007A
:100CC000006563686F3A004572726F723A007C3C4F
:100CD0003E5E2B3D3F2F5B5D3B2C2A225C004D3856
:100CE0003420582059205A20450043616E6E6F749D
:100CF00020656E746572207375626469723A2000B3
:100D00004D3234004D3233202573006175746F25E8
:100D1000692E67006572726F722077726974696EEE
:100D20006720746F2066696C65004E6F74205344B1
:100D3000207072696E74696E67002F0053442070D2
:100D400072696E74696E67206279746520002E0086
:100D500044656C6574696F6E206661696C65642CAE
:100D60002046696C653A200046696C652064656CB4
:100D7000657465643A002E006F70656E2066616967
:100D80006C65642C2046696C653A20005772697462
:100D9000696E6720746F2066696C653A20002E00CA
:100DA0006F70656E206661696C65642C2046696CA5
:100DB000653A20002E006F70656E206661696C6573
:100DC000642C2046696C653A200046696C65207386
:100DD000656C6563746564002053697A653A200028
:100DE00046696C65206F70656E65643A20002E0060
:100DF0006F70656E206661696C65642C2046696C55
:100E0000653A20004E6F77206672657368206669C8
:100E10006C653A20004E6F7720646F696E672066BC
:100E2000696C653A20002220706F73002220706187
:100E300072656E743A2200535542524F5554494ED2
:100E4000452043414C4C207461726765743A22001E
:100E5000747279696E6720746F2063616C6C2073A3
:100E600075622D67636F64652066696C65732077B2
:100E700069746820746F6F206D616E79206C65767F
:100E8000656C732E204D4158206C6576656C206929
:100E9000733A0053442063617264206F6B006F707B
:100EA000656E526F6F74206661696C656400766F61
:100EB0006C756D652E696E6974206661696C656418
:100EC00000534420696E6974206661696C00206378
:100ED0006F6C6420657874727573696F6E207072C0
:100EE0006576656E7465640028002920453A0028FF
:100EF0000029205A3A0028002920593A00280020C9
:100F0000583A00537465707065722063757272652B
:100F10006E742076616C756573205B25287261772D
:100F2000295D3A00656E6473746F7073206869742C
:100F30003A205A00205A3A00656E6473746F7073D9
:100F4000206869743A20590020593A00656E64732C
:100F5000746F7073206869743A20580020583A0002
:100F6000656E6473746F7073206869743A2000242E
:100F7000F4D43050C38E20C2A24017828B7011125D
:100F80007A910D816CD90AA861E108C7586607619A
:100F90005143061E4B5D05C145A7041A41110409C2
:100FA0003D9803713931034036DB0265339102D439
:100FB000305402802E1D02632CEE01752AC501B04B
:100FC00028A001102781018F2564012B244B01E00B
:100FD000223401AC211F018D200D01801FFC0084F3
:100FE0001EED00971DDF00B81CD200E61BC60020D6
:100FF0001BBC00641AB200B219A8000A19A0006A4A
:10100000189900D117910040178B00B51684003154
:10101000167E00B31579003A157300C7146F005897
:10102000146A00EE1366008813630025135E00C780
:10103000125B006C12570015125400C11151007060
:10104000114F0021114B00D61049008D104700466A
:1010500010440002104200C00F4000800F3E0042CA
:101060000F3C00060F3B00CB0E3800930E37005CA0
:101070000E3500270E3400F30D3200C10D31009003
:101080000D3000600D2E00320D2D00050D2C00D905
:101090000C2B00AE0C2900850C29005C0C270035B8
:1010A0000C27000E0C2600E80B2400C40B2400A023
:1010B0000B23007D0B23005A0B2100390B21001854
:1010C0000B2000F80A1F00D90A1E00BB0A1E009D53
:1010D0000A1D00800A1D00630A1C00470A1B002C21
:1010E0000A1B00110A1A00F7091A00DD091900C4C9
:1010F000091900AB091900920917007B0918006350
:101100000917004C09160036091600200916000AB6
:10111000091500F5081500E0081400CC081400B803
:10112000081400A4081400900813007D0812006B36
:101130000813005808120046081200340811002352
:101140000811001208110001081100F0071000E05A
:10115000071000D0071000C0071000B0070F00A153
:1011600007100091070E0083070F0074070F00653A
:10117000070E0057070E0049070E003B070D002E13
:10118000070E0020070D0013070D0006070D00F9DC
:10119000060C00ED060D00E0060C00D4060C00C89D
:1011A000060C00BC060C00B0060C00A4060B00994F
:1011B000060C008D060B0082060B0077060B006CF8
:1011C000060B0061060A0057060B004C060A004297
:1011D000060A0038060A002E060A0024060A001A2B
:1011E000060A001006090007060A00FD050900F4BA
:1011F000050900EB050900E2050900D9050900D041
:10120000050900C7050900BE050900B5050800ADC0
:10121000050800A50509009C050800940508008C38
:10122000050800840508007C050800740508006CAA
:10123000050700650508005D050700560508004E16
:10124000050700470507004005080038050700317D
:101250000507002A050700230507001C05060016E0
:101260000507000F0507000805060002050700FB3B
:10127000040600F5040700EE040600E8040600E298
:10128000040700DB040600D5040600CF040600C9ED
:10129000040600C3040600BD040600B7040600B13E
:1012A000040500AC040600A6040600A00405009B8B
:1012B00004060095040500900406008A04050085D4
:1012C000040500800406007A04050075040500701A
:1012D0000405006B04050066040500610405005C5C
:1012E00004050057040500520405004D040500489C
:1012F000040500430405003E0404003A04050035DB
:10130000040500300404002C040500270404002315
:101310000405001E0404001A04040016040500114C
:101320000404000D04040009040500040404000082
:10133000040400FC030400F8030400F4030400F0B8
:10134000030400EC030400E8030400E4030400E0E9
:10135000030400DC030400D8030400D4030400D019
:10136000030400CC030400C8030300C503030024E6
:10137000F404D9201BC40C5C0E9804C4095F0265F8
:10138000077101F405F900FB04B30048048700C1AC
:101390000369005803550003034500BE023A008468
:1013A00002310053022A002902250004022000E431
:1013B000011C00C8011900AF011700980114008436
:1013C000011300710110006101100051010E004372
:1013D000010D0036010B002B010B0020010B001545
:1013E0000109000C01090003010800FB000800F3DB
:1013F000000800EB000700E4000600DE000600D84D
:10140000000600D2000600CC000500C7000500C29F
:10141000000500BD000400B9000400B5000400B1DF
:10142000000400AD000400A9000400A5000300A210
:101430000003009F0004009B000300980003009538
:1014400000020093000300900003008D0002008B57
:10145000000300880002008600020084000300816F
:101460000002007F0002007D0002007B0002007984
:101470000002007700010076000200740002007292
:10148000000100710002006F0002006D0001006C9D
:101490000002006A000100690002006700010066A6
:1014A00000010065000100640002006200010061AB
:1014B000000100600001005F0002005D0001005CAF
:1014C0000001005B0001005A0001005900010058B2
:1014D00000010057000100560001005500010054B2
:1014E00000010053000000530001005200010051B0
:1014F000000100500001004F0001004E0000004EAE
:101500000001004D0001004C0001004B0000004BA9
:101510000001004A000100490001004800000048A5
:1015200000010047000100460000004600010045A0
:10153000000000450001004400010043000000439A
:101540000001004200000042000100410000004193
:10155000000100400001003F0000003F0001003E8C
:101560000000003E0001003D0000003D0001003C85
:101570000000003C0000003C0001003B0000003B7C
:101580000001003A0000003A000100390000003973
:10159000000100380000003800000038000100376A
:1015A0000000003700010036000000360000003661
:1015B0000001003500000035000000350001003456
:1015C000000000340000003400010033000000334C
:1015D0000000003300010032000000320000003241
:1015E0000001003100000031000000310001003036
:1015F00000000030000000300001002F0000002F2C
:101600000000002F0000002F0001002E0000002E1F
:101610000000002E0001002D0000002D0000002D14
:101620000000002D0001002C0000002C0000002C08
:101630000000002C0001002B0000002B0000002BFC
:101640000000002B0001002A0000002A0000002AF0
:101650000000002A000100290000002900000029E4
:1016600000000029000000290001002800000028D7
:1016700000000028000000280000002800010027CA
:1016800000000027000000270000002700000027BE
:1016900000010026000000260000002600000026B1
:1016A00000000026000100250000002500000025A4
:1016B0000000002500000025000000250001002496
:1016C000000000240000002400000024000000248A
:1016D000000100230000002300000023000000237D
:1016E000000000230000002300000023000100226E
:1016F0000000002200000022000000220000002262
:101700000000002200010021000000210000002153
:101710000000002100000021000000210000002145
:101720000001002000000020000000200000002038
:101730000000002000000020000000200000002029
:101740000001001F0000001F0000001F0000001F1C
:101750000000001F0000001F0000001F0001001E0D
:101760000000001E0000001E0000001E00000045DA
:1017700072723A204D415854454D50204245440024
:1017800054656D7065726174757265206865617409
:10179000656420626564207377697463686564209A
:1017A0006F66662E204D415854454D502074726925
:1017B000676765726564202121004D494E20D09EE7
:1017C000D188D0B8D0B1D0BAD0B020D182D0B5D1E4
:1017D00080D0BCD0B8D181D182D0BED180003A2097
:1017E000457874727564657220737769746368658F
:1017F00064206F66662E204D494E54454D5020742E
:1018000072696767657265642021004D415820D078
:101810009ED188D0B8D0B1D0BAD0B020D182D0B5C6
:10182000D180D0BCD0B8D181D182D0BED180003A95
:101830002045787472756465722073776974636883
:101840006564206F66662E204D415854454D5020EA
:101850007472696767657265642021005448455257
:101860004D414C2052554E41574159204500544856
:1018700045524D414C2052554E4157415920424509
:101880004400546865726D616C2052756E617761B9
:10189000792C2073797374656D2073746F70706523
:1018A0006421204865617465725F49443A200050A4
:1018B0004944204175746F74756E652066696E6960
:1018C00073686564212050757420746865206C61AC
:1018D0007374204B702C204B6920616E64204B6424
:1018E00020636F6E7374616E74732066726F6D2007
:1018F00061626F766520696E746F20436F6E6669F2
:101900006775726174696F6E2E680050494420419A
:1019100075746F74756E65206661696C65642120ED
:1019200074696D656F75740020403A006F6B2054C8
:101930003A006F6B20423A00504944204175746F61
:1019400074756E65206661696C6564212054656DEF
:10195000706572617475726520746F6F2068696755
:101960006800204B643A2000204B693A2000204B4D
:10197000703A200020436C617373696320504944BE
:1019800020002054753A2000204B753A2000206D2D
:1019900061783A2000206D696E3A200020643A2078
:1019A0000020626961733A200070012C01900127C8
:1019B00001B0012201C0011D01F001180110021344
:1019C0000130020E016002090190020401C002FF11
:1019D000000003FA004003F5008003F000D003EBA1
:1019E000002004E6007004E100E004DC004005D7BC
:1019F00000C005D2004006CD00D006C8008007C355
:101A0000003008BE00F008B900C009B400B00AAF49
:101A100000B00BAA00D00CA500000EA000500F9B38
:101A200000C01096005012910000148C00C0158761
:101A300000B0178200B0197D00D01B7800001E7323
:101A40000040206E0090226900F024640040275F6F
:101A50000090295A00E02B5500102E500020304BEA
:101A60000010324600E033410090353C001037371B
:101A70000070383200A0392D00B03A2800A03B2376
:101A800000603C1E00103D1900903D1400103E0FF8
:101A900000703E0A00C03E0500003F00004732389B
:101AA0000047323800534420D0BAD0B0D180D18220
:101AB000D0B020D0B8D0B7D0B2D0BBD0B5D187D0BD
:101AC000B5D0BDD0B000534420D0BAD0B0D180D171
:101AD00082D0B020D183D181D182D0B0D0BDD0BE50
:101AE000D0B2D0BBD0B5D0BDD0B0002D2D3A2D2D69
:101AF000002D2D2D00534400202000012000012046
:101B00000001200020D09FD0B0D181D182D0B00080
:101B1000202000202A0020D09BD0B0D0B7D0B5D153
:101B2000800020D0BFD180D0BED0B4D0BED0BBD03A
:101B3000B6D0B5D0BDD0B8D18F20D0BFD0B5D18769
:101B4000D0B0D182D0B82000202020D09DD0B0D0FD
:101B5000B6D0BCD0B8D182D0B5204F4B20D0B4D0B5
:101B6000BBD18F202020003C20D097D0B0D0BCD05B
:101B7000B5D0BDD0B8D182D0B520D0BFD180D1836F
:101B8000D182D0BED0BA20203E0020D09DD0B0D08F
:101B9000B6D0BCD0B8D182D0B520D0B4D0BBD18F14
:101BA00020D0BFD0B5D187D0B0D182D0B82000200E
:101BB00020D097D0B0D0B3D180D183D0B7D0B8D116
:101BC00082D0B520D0BFD180D183D182D0BED0BA4F
:101BD0002120003CD09FD180D183D182D0BED0BA09
:101BE00020D0BDD0B520D0B7D0B0D0B3D180D18374
:101BF000D0B6D0B5D0BD3E00332ED09DD0B0D0B63B
:101C0000D0BCD0B8D182D0B520D0B4D0BBD18F2039
:101C1000D0BFD0B5D187D0B0D182D0B800322ED0CD
:101C200097D0B0D0B3D180D183D0B7D0B8D182D043
:101C3000B520D0BFD180D183D182D0BED0BA2020F0
:101C400000312ED094D0BED0B6D0B4D0B8D182D08E
:101C5000B5D181D18C20D0BDD0B0D0B3D180D0B59A
:101C6000D0B2D0B0200020D0B2D0BAD0BBD18ED16B
:101C700087D0B5D0BDD0B8D18F20D0BDD0B0D0B333
:101C8000D180D0B5D0B2D0B0212000202020D09D6E
:101C9000D0B0D0B6D0BCD0B8D182D0B5204F4B2078
:101CA000D0B4D0BBD18F202020003C20D0A0D0B019
:101CB000D181D188D0B8D180D0B5D0BDD0BDD0B081
:101CC000D18F20D09FD0B0D183D0B7D0B03E0020EC
:101CD000D0B2D0BAD0BBD18ED187D0B5D0BDD0B81C
:101CE000D18F20D0BDD0B0D0B3D180D0B5D0B2D0BC
:101CF000B0212000202020D09DD0B0D0B6D0BCD0C4
:101D0000B8D182D0B5204F4B20D0B4D0BBD18F20DA
:101D10002020003C2020D09CD0BED0BDD0B8D182A5
:101D2000D0BED18020D0BFD180D183D182D0BAD0D3
:101D3000B020203E002020203C20D0BFD0BED0B418
:101D4000D0BED0B6D0B4D0B8D182D0B521203E20FC
:101D50002020002020203C20D09FD0BED0B6D0B084
:101D6000D0BBD183D0B9D181D182D0B0203E202048
:101D7000200020202D2D2D2D2D2D2D2D2D2D2D2DE7
:101D80002D2D2D2D2020003C202020D097D0B0D00C
:101D9000BCD0B5D0BDD0B020D0BFD180D183D1824E
:101DA000D0BAD0B020203E00D093D0BED182D0BED9
:101DB000D0B2D0BE202E2E2028D0BDD0B0D0B6D0EC
:101DC000BCD0B8D182D0B52900D0A1D0BCD0B5D17B
:101DD00089D0B5D0BDD0B8D0B520D0BFD0BE2059A5
:101DE0003A00D181D0BED0B2D0BCD0B5D181D182A1
:101DF000D0B8D182D0B520D18120D0BCD0B5D1828D
:101E0000D0BAD0BED0B920002020D092D180D0B09E
:101E1000D189D0B0D18F20D180D183D187D0BAD110
:101E200083203C5E3E202000D094D0B0D0BBD0B503
:101E3000D0B5202E2E2E2028D0BDD0B0D0B6D0BC0C
:101E4000D0B8D182D0B52900D0A1D0BCD0B5D1892D
:101E5000D0B5D0BDD0B8D0B520D0BFD0BE20583A74
:101E600000D181D0BED0B2D0BCD0B5D181D182D08A
:101E7000B8D182D0B520D18120D0BCD0B5D182D00C
:101E8000BAD0BED0B920002020D092D180D0B0D11D
:101E900089D0B0D18F20D180D183D187D0BAD183DE
:101EA000203C2D3E202000D094D0B0D0BBD0B5D067
:101EB000B5202E2E2E2028D0BDD0B0D0B6D0BCD08C
:101EC000B8D182D0B529002020D18120D0BFD0B593
:101ED000D180D0B2D18BD0BC20D181D0BED0BFD0E8
:101EE000BBD0BED0BC2020002020D0A1D0BED0B21C
:101EF000D0BCD0B5D181D182D0B8D182D0B520D0DC
:101F0000BCD0B5D182D0BAD183202000D09FD0BE22
:101F1000D0B6D0B0D0BBD183D0B9D181D182D0B02E
:101F200020D0BFD0BED0B4D0BED0B6D0B4D0B8D1FF
:101F300082D0B500203D20D180D0B0D181D181D1D7
:101F400082D0BED18FD0BDD0B8D0B5205859203D59
:101F500020003C20D09AD0B0D0BBD0B8D0B1D18036
:101F6000D0BED0B2D0BAD0B020D181D0BED0BFD0F8
:101F7000B5D0BB203E00D0BFD0BBD0B0D181D18284
:101F8000D0B8D0BA20D0B8D0B720D181D0BED0BF81
:101F9000D0BBD0B0202E2E2E00D09FD0BED182D16B
:101FA0008FD0BDD0B8D182D0B520D0B2D18BD18264
:101FB000D0B5D0BAD0B0D18ED189D0B8D0B92000A8
:101FC0003CD09FD180D183D182D0BED0BA20D0B7AF
:101FD000D0B0D0B3D180D183D0B6D0B0D0B5D1827B
:101FE000D181D18F3E003C3D2020D097D0B0D0BCD5
:101FF000D0B5D0BDD0B020D0BFD180D183D182D0D8
:10200000BAD0B0203D3E00D09ED09A20D0B4D0BBF4
:10201000D18F20D0BDD0B0D187D0B0D0BBD0B02030
:10202000D0BFD0BED0B4D0B0D187D0B800D0B2200D
:10203000D18DD0BAD181D182D180D183D0B4D0B565
:10204000D18020D0B4D0BE20D183D0BFD0BED1802B
:10205000D0B0002020D097D0B0D0B3D180D183D0E1
:10206000B7D0B8D182D0B520D0BFD180D183D182B2
:10207000D0BED0BA2020003C3D2020D097D0B0D098
:10208000BCD0B5D0BDD0B020D0BFD180D183D1825B
:10209000D0BAD0B0203D3E002020D09ED09A20D093
:1020A000B4D0BBD18F20D0B7D0B0D0B2D0B5D18012
:1020B000D188D0B5D0BDD0B8D18F200020D0BFD12D
:1020C00080D183D182D0BED0BA20D0B220D18DD0E1
:1020D000BAD181D182D180D183D0B4D0B5D1802082
:1020E000002020D097D0B0D0B3D180D183D0B7D04A
:1020F000B8D182D0B520D0BDD0BED0B2D18BD0B9AE
:10210000202020003C3D2020D097D0B0D0BCD0B5BE
:10211000D0BDD0B020D0BFD180D183D182D0BAD0B1
:10212000B0203D3E00D09FD0BED0B6D0B0D0BBD105
:1021300083D0B9D181D182D0B020D0BFD0BED0B4AD
:10214000D0BED0B6D0B4D0B8D182D0B50001200076
:1021500020D182D0B5D0BCD0BFD0B5D180D0B0D145
:1021600082D183D180D0B03A200020D0BDD0B0D071
:10217000B3D180D0B5D0B220D18DD0BAD181D182A7
:10218000D180D183D0B4D0B5D180D0B02020002070
:102190003E00320031003C20D097D0B0D0BCD0B54A
:1021A000D0BDD0B020D0BFD180D183D182D0BAD021
:1021B000B02000D09FD0BED0B4D0B0D187D0B02056
:1021C0003220D18DD0BAD181D18200D09FD0BED063
:1021D000B4D0B0D187D0B0203220D18DD0BAD18147
:1021E000D18200D09FD0BED0B4D0B0D187D0B020A3
:1021F0003120D18DD0BAD181D18200D09FD0BED034
:10220000B4D0B0D187D0B0203120D18DD0BAD18117
:10221000D18200D09ED0B1D0B4D183D0B220D0BC76
:10222000D0BED0B4D0B5D0BBD0B800D09ED0B1D045
:10223000B4D183D0B220D0BCD0BED0B4D0B5D0BB46
:10224000D0B8003D20D0A1D182D0BED0BB20740137
:10225000003D20D0A1D182D0BED0BB2074010002AD
:1022600020D0ADD0BAD181D182D180D183D0B4D0A9
:10227000B5D1802D32207401000220D0ADD0BAD16A
:1022800081D182D180D183D0B4D0B5D1802D3220FC
:102290007401000220D0ADD0BAD181D182D180D1D9
:1022A00083D0B4D0B5D180207401000220D0ADD04D
:1022B000BAD181D182D180D183D0B4D0B5D18020A0
:1022C000740100D0A1D0BAD0BED180D0BED181D10E
:1022D00082D18C00D0A1D0BAD0BED180D0BED18165
:1022E000D182D18C00D0A1D0BAD0BED180D0BED105
:1022F00081D182D0BDD0BED0B920D180D0B5D0B6EA
:10230000D0B8D0BC00D09CD0B5D0BDD18E00D09775
:10231000D0B0D0B3D180D183D0B7D0B8D182D18C56
:1023200020D0BFD0BBD0B0D181D182D0B8D0BA003C
:102330000220D0ADD0BAD181D182D180D183D0B4A6
:10234000D0B5D180207401000220D0ADD0BAD181A7
:10235000D182D180D183D0B4D0B5D1802074010096
:10236000D0ADD0BAD181D182D180D183D0B4D0B513
:10237000D18000D0ADD0BAD181D182D180D183D0EB
:10238000B4D0B5D18000D09CD0B5D0BDD18E00588E
:102390000059005A00457874727564657200D0ADBA
:1023A000D0BAD181D182D180D183D0B4D0B5D180FF
:1023B00000D094D0B2D0B8D0B6D0B5D0BDD0B8D0BF
:1023C000B520D0BFD0BE20D0BED181D0B8205A0019
:1023D000D094D0B2D0B8D0B6D0B5D0BDD0B8D0B5EA
:1023E00020D0BFD0BE20D0BED181D0B8205900D0DF
:1023F00094D0B2D0B8D0B6D0B5D0BDD0B8D0B5207A
:10240000D0BFD0BE20D0BED181D0B8205800D0944B
:10241000D0B2D0B8D0B6D0B5D0BDD0B8D0B520D01D
:10242000BFD0BE20D0BED181D18FD0BC00D0A1D032
:10243000B4D0B2D0B8D0BDD183D182D18C20D0BDA0
:10244000D0B020302E316D6D00D0A1D0B4D0B2D03C
:10245000B8D0BDD183D182D18C20D0BDD0B02020C6
:1024600031206D6D00D0A1D0B4D0B2D0B8D0BDD1E4
:1024700083D182D18C20D0BDD0B0203130206D6D81
:1024800000D0A3D0BFD180D0B0D0B2D0BBD0B5D017
:10249000BDD0B8D0B500D097D0B0D0BFD0BED0BCE2
:1024A000D0BDD0B8D182D18C20D0BDD0BED0BBD1D0
:1024B0008C00D094D0B2D0B8D0B6D0B5D0BDD0B802
:1024C000D0B520D0BFD0BE20D0BED181D18FD0BC5E
:1024D00000D092D18BD0BAD0BBD18ED187D0B8D119
:1024E00082D18C20D0BDD0B0D0B3D180D0B5D0B205
:1024F0000047323800D09FD0B0D180D0BAD0BED003
:10250000B2D0BAD0B020D0BAD0B0D180D0B5D182BC
:10251000D0BAD0B8004D383400D092D18BD0BAD0D8
:10252000BB2E20D0B4D0B2D0B8D0B3D0B0D182D0EE
:10253000B5D0BBD0B800D097D0B0D0B3D180D183C4
:10254000D0B7D0B8D182D18C20D0BFD0BBD0B0D141
:1025500081D182D0B8D0BA00D09CD0B5D0BDD18EB8
:1025600000D09ED0B1D0B4D183D0B220D0BCD0BEE8
:10257000D0B4D0B5D0BBD0B800D09ED0B1D0B4D1FB
:1025800083D0B220D0BCD0BED0B4D0B5D0BBD0B8F0
:10259000003D20D0A1D182D0BED0BB207401003D2F
:1025A00020D0A1D182D0BED0BB207401000220D0A7
:1025B000ADD0BAD181D182D180D183D0B4D0B5D1C0
:1025C000802D32207401000220D0ADD0BAD181D14B
:1025D00082D180D183D0B4D0B5D1802D3220740186
:1025E000000220D0ADD0BAD181D182D180D183D0A8
:1025F000B4D0B5D180207401000220D0ADD0BAD1C2
:1026000081D182D180D183D0B4D0B5D18020740162
:1026100000D09DD0B0D181D182D180D0BED0B8D1F0
:1026200082D18C20D0BFD180D0B8D0BDD182D0B5DE
:10263000D18000D097D0B0D0BFD0B8D181D18C207C
:10264000D0BDD0B0D181D182D180D0BED0B5D0BAEA
:1026500000D0A1D0BCD0B5D189D0B5D0BDD0B8D034
:10266000B5205900D0A1D0BCD0B5D189D0B5D0BD4E
:10267000D0B8D0B5205900D0A1D0BCD0B5D189D028
:10268000B5D0BDD0B8D0B520D0A500D0A1D0BCD099
:10269000B5D189D0B5D0BDD0B8D0B520D0A500D0A7
:1026A0009AD0B0D0BBD0B8D0B1D180D0BED0B2D04B
:1026B000BAD0B020D181D0BED0BFD0B5D0BB00D071
:1026C0009DD0B0D181D182D180D0BED0B8D182D1BD
:1026D0008C20D0BFD180D0B8D0BDD182D0B5D18030
:1026E000004520204A65726B004520204A65726BC8
:1026F000005A20204A65726B005A20204A65726B8E
:10270000005859204A65726B005859204A65726B0F
:1027100000D0A3D181D0BAD0BED180D0B5D0BDD0A9
:10272000B8D0B500D0A3D181D0BAD0BED180D0B5B9
:10273000D0BDD0B8D0B500D09DD0B0D181D182D19C
:1027400080D0BED0B8D182D18C20D0BFD180D0B8BB
:10275000D0BDD182D0B5D18000D092D18BD0BAD0AB
:10276000BB00D092D0BAD0BB00D092D18BD0BAD01F
:10277000BB00D092D0BAD0BB00D09FD0B0D181D115
:1027800082D0B020465200D092D18BD0BAD0BB00BC
:10279000D092D0BAD0BB00D092D18BD0BAD0BB00EF
:1027A000D092D0BAD0BB00D09FD0B0D181D182D04E
:1027B000B02044495200D09FD180D0B8D181D1827D
:1027C000D0B0D0B2D0BAD0B020D09FD0B0D181D1CB
:1027D00082D0B000D092D18BD0BAD0BB00D092D0F2
:1027E000BAD0BB00D092D18BD0BAD0BB00D092D09F
:1027F000BAD0BB00D0A2D0B5D181D18200D092D1C5
:102800008BD0BAD0BB00D092D0BAD0BB00D092D17E
:102810008BD0BAD0BB00D092D0BAD0BB00D09BD066
:10282000B0D0B7D0B5D18000D09BD0B0D0B7D0B5A4
:10283000D180D0BDD0B0D18F20D0B3D0BED0BBD04E
:10284000BED0B2D0BAD0B000D09BD0B0D0B7D0B547
:10285000D180D0BDD0B0D18F20D0B3D0BED0BBD02E
:10286000BED0B2D0BAD0B000D09FD180D0B8D18184
:10287000D182D0B0D0B2D0BAD0B020D09FD0B0D119
:1028800081D182D0B000D094D0BED0BFD0BED0BB5A
:10289000D0BDD0B5D0BDD0B8D18F204D61676E7599
:1028A0006D00D0A1D0B1D180D0BED18120D0BDD01B
:1028B000B0D181D182D180D0BED0B5D0BA00D0A75E
:1028C000D182D0B5D0BDD0B8D0B520D0BDD0B0D198
:1028D00081D182D180D0BED0B5D0BA00D097D0B04F
:1028E000D0BFD0B8D181D18C20D0BDD0B0D181D1D2
:1028F00082D180D0BED0B5D0BA00D094D0BED0BFE7
:10290000D0BED0BBD0BDD0B5D0BDD0B8D18F204DBA
:1029100061676E756D00D0A1D0BAD0BED180D0BE37
:10292000D181D182D0BDD0BED0B920D180D0B5D098
:10293000B6D0B8D0BC00D0ADD0BAD181D182D180D0
:10294000D183D0B4D0B5D18000D09DD0B0D0B3D198
:1029500080D0B5D0B220D0B820D0BED0B1D0B4D1C4
:1029600083D0B200D09CD0B5D0BDD18E004D3834CC
:1029700020582059205A2045004D3234004D323322
:1029800020257300052E2E004D323100040420D086
:10299000BED0B1D0BDD0BED0B2D0B8D182D18C2003
:1029A000040400D09CD0B5D0BDD18E00D09DD0B550
:1029B000D18220534420D0BAD0B0D180D182D18BE3
:1029C00000D09CD0B5D0BDD18E20534420D0BAD0F9
:1029D000B0D180D182D18B00D09FD180D0B5D0BA78
:1029E000D180D0B0D182D0B8D182D18C20D0BFD00C
:1029F000B5D187D0B0D182D18C00D09FD180D0BE4C
:102A0000D0B4D0BED0BBD0B6D0B8D182D18C20D07B
:102A1000BFD0B5D187D0B0D182D18C00D09FD0B0FB
:102A2000D183D0B7D0B020D0BFD0B5D187D0B0D16E
:102A300082D0B800D0A0D0B0D181D188D0B8D18018
:102A4000D0B5D0BDD0BDD0B0D18F20D0BFD0B0D107
:102A500083D0B7D0B000D097D0B0D0BCD0B5D0BD67
:102A6000D0B8D182D18C20D0BFD0BBD0B0D181D151
:102A700082D0B8D0BA00D09DD0B0D181D182D180DF
:102A8000D0BED0B8D182D18C20D0BFD180D0B8D028
:102A9000BDD182D0B5D18000D0A3D0BFD180D0B07D
:102AA000D0B2D0BBD0B5D0BDD0B8D0B500D09FD0BB
:102AB000BED0B4D181D182D180D0BED0B9D0BAD06D
:102AC000B020D0BFD0B5D187D0B0D182D0B800D09F
:102AD00092D18BD185D0BED0B420D0B8D0B720D081
:102AE000BCD0B5D0BDD18E00012902290429082906
:102AF0001029202940298029012C022C0126022698
:102B0000042608261026202640268026402C802CCD
:102B1000012302230423082310232023402380239E
:102B200001200220042008201020202040208020A6
:102B3000102C202C012F022F042F082F102F202FB4
:102B4000402F802F7EFE7EFD7EFB7EF77EEF7EDFB8
:102B50007EBF7E7F00010000052C1200020000C233
:102B60002B4300030000BE2B0401030904A42B180F
:102B7000020309048C2B16030309047E2B0C0C039F
:102B800031003200330034003500000016035500D8
:102B9000530042002000530065007200690061008C
:102BA0006C00000018035400650065006E0073009F
:102BB00079006400750069006E006F000000040376
:102BC000090409024300020100C0320904000001A7
:102BD0000202010005240010010524010001042463
:102BE00002060524060001070582030800400904C7
:102BF0000100020A0000000705030240000007056B
:102C000084024000001201000202000020C016836E
:102C1000040001010203010001C1020180360181AB
:102C20003600702B1E8623A4E2D0AFDB742B112458
:102C30001FBECFEFD0E2DEBFCDBF15E0A0E0B1E018
:102C4000EAE4FEEC01E00BBF02C007900D92A03554
:102C5000B107D9F723E1A0E5B5E001C01D92A43B7F
:102C6000B207E1F716E1C6E1D6E104C02197FE0103
:102C70000E94ACE0C131D107C9F70E9477D40C940F
:102C800019E70C940000FB0101900020E9F731974F
:102C9000AF01461B570BDC01ED91FC910280F381E3
:102CA000E02D0994CF93DF931F92CDB7DEB76983F0
:102CB000DC01ED91FC910280F381E02D41E050E0D8
:102CC000BE016F5F7F4F09950F90DF91CF910895FF
:102CD000EF92FF920F931F93CF938C017B01C42F30
:102CE000F70161917F01F801808191810E940BE7DA
:102CF000F80180819181019691838083C15081F791
:102D0000CF911F910F91FF90EF900895EF92FF9256
:102D10000F931F93CF938C017B01C42FF801808107
:102D200091810E9403E7F70181937F01F80180817F
:102D30009181019691838083C15081F7CF911F913A
:102D40000F91FF90EF9008950F931F93CF93DF9310
:102D5000CDB7DEB760970FB6F894DEBF0FBECDBF1C
:102D60008091390390913A03A0913B03B0913C03C9
:102D700089879A87AB87BC8704E610E0188B0F879A
:102D800044E0BE01675F7F4FCE010F96A1DF40E1B7
:102D900060E471E1CE010F969BDF40E160E571E1F7
:102DA000CE010F9695DF40E160E371E1CE010F9611
:102DB0008FDF44E068E271E1CE010F9689DF44E0E5
:102DC00064E271E1CE010F9683DF44E06CE271E1D1
:102DD000CE010F967DDF44E064E171E1CE010F96F4
:102DE00077DF44E060E671E1CE010F9671DF44E0E9
:102DF00060E271E1CE010F966BDF44E06CE171E1BE
:102E0000CE010F9665DF44E068E171E1CE010F96D7
:102E10005FDF4CE060E577E0CE010F9659DF42E0DE
:102E200067ED72E1CE010F9653DF42E065ED72E18E
:102E3000CE010F964DDF42E063ED72E1CE010F96B9
:102E400047DF42E061ED72E1CE010F9641DF42E0E3
:102E50006FEC72E1CE010F963BDF42E06DEC72E168
:102E6000CE010F9635DF44E06DE377E0CE010F969B
:102E70002FDF44E06EE871E0CE010F9629DF44E0D9
:102E80006AE871E0CE010F9623DF44E066E871E066
:102E9000CE010F961DDF80E290E09E878D8742E095
:102EA000BE01635F7F4FCE010F9612DF41E06CE6FB
:102EB00077E0CE010F960CDF44E067E371E0CE01CE
:102EC0000F9606DF44E06BE371E0CE010F9600DF62
:102ED00044E06FE071E0CE010F96FADE44E067E176
:102EE00071E0CE010F96F4DE1D821E821F821886CD
:102EF00044E0BE016B5F7F4FCE010F96E9DE44E0F8
:102F0000BE016B5F7F4FCE010F96E2DE80913D03E5
:102F100090913E03A0913F03B091400389839A832F
:102F2000AB83BC83188B0F8744E0BE016F5F7F4F7C
:102F3000CE010F96CDDEE1ECFCE064918F016623BB
:102F400041F088EA93E1AEDE0F5F1F4FF801649114
:102F5000F6CFE1EAF3E064918F01662341F088EA5D
:102F600093E1A0DE0F5F1F4FF8016491F6CF6AE096
:102F700088EA93E197DE60960FB6F894DEBF0FBE45
:102F8000CDBFDF91CF911F910F9108950F931F93A4
:102F9000CF93DF93C1ECDCE0FE0164918E016623E8
:102FA00041F088EA93E17EDE0F5F1F4FF8016491E4
:102FB000F6CFE1E9F3E064918F01662341F088EAFE
:102FC00093E170DE0F5F1F4FF8016491F6CF6AE066
:102FD00088EA93E167DEFE01649101EC1CE0662360
:102FE00041F088EA93E15EDE0F5F1F4FF8016491C4
:102FF000F6CF409140115091411160914211709172
:10300000431189E893E00E946D2240914411509150
:103010004511609146117091471186E893E00E9436
:103020006D22409148115091491160914A1170915F
:103030004B1183E893E00E946D2240914C11509116
:103040004D1160914E1170914F1180E893E00E94F4
:103050006D226EE175E088EA93E115DE6AE088EAA8
:1030600093E120DEFE01649101EC1CE0662341F057
:1030700088EA93E117DE0F5F1F4FF8016491F6CFE6
:10308000E8E6F3E064918F01662341F088EA93E17A
:1030900009DE0F5F1F4FF8016491F6CF6AE088EAFE
:1030A00093E100DE40910F015091100160911101F8
:1030B000709112018CE593E00E946D2240911701FE
:1030C000509118016091190170911A0180E593E007
:1030D0000E946D22FE01649101EC1CE0662341F028
:1030E00088EA93E1DFDD0F5F1F4FF8016491F6CFAF
:1030F000E6E3F3E064918F01662341F088EA93E10F
:10310000D1DD0F5F1F4FF8016491F6CF6AE088EAC6
:1031100093E1C8DDFE01649101EC1CE0662341F0FF
:1031200088EA93E1BFDD0F5F1F4FF8016491F6CF8E
:103130004091501150915111609152117091531161
:103140008DE293E00E946D224091541150915511EF
:1031500060915611709157118AE293E00E946D229E
:10316000409158115091591160915A1170915B1111
:1031700087E293E00E946D2240915C1150915D11B5
:1031800060915E1170915F1184E293E00E946D2264
:103190006EE175E088EA93E176DD6AE088EA93E122
:1031A00081DDFE01649101EC1CE0662341F088EAB8
:1031B00093E178DD0F5F1F4FF8016491F6CFE6E0F1
:1031C000F3E064918F01662341F088EA93E16ADDC0
:1031D0000F5F1F4FF8016491F6CF6AE088EA93E130
:1031E00061DDFE01649101EC1CE0662341F088EA98
:1031F00093E158DD0F5F1F4FF8016491F6CF4091C6
:1032000030115091311160913211709133118DEF65
:1032100092E00E94AD22409134115091351160919D
:103220003611709137118AEF92E00E94AD224091E1
:1032300038115091391160913A1170913B1187EF1B
:1032400092E00E94AD2240913C1150913D1160915D
:103250003E1170913F1184EF92E00E94AD226EE129
:1032600075E088EA93E10FDD6AE088EA93E11ADD10
:10327000FE01649101EC1CE0662341F088EA93E1D1
:1032800011DD0F5F1F4FF8016491F6CFEFEBF2E015
:1032900064918F01662341F088EA93E103DD0F5FBB
:1032A0001F4FF8016491F6CF6AE088EA93E1FADCF7
:1032B000FE01649101EC1CE0662341F088EA93E191
:1032C000F1DC0F5F1F4FF8016491F6CF4091281198
:1032D0005091291160912A1170912B1186EB92E087
:1032E0000E946D2240912411509125116091261168
:1032F0007091271183EB92E00E946D226EE175E0E0
:1033000088EA93E1C0DC6AE088EA93E1CBDCFE0165
:10331000649101EC1CE0662341F088EA93E1C2DC91
:103320000F5F1F4FF8016491F6CFE0E0F2E0649187
:103330008F01662341F088EA93E1B4DC0F5F1F4FF1
:10334000F8016491F6CF6AE088EA93E1ABDCFE0114
:10335000649101EC1CE0662341F088EA93E1A2DC71
:103360000F5F1F4FF8016491F6CF40912C115091DF
:103370002D1160912E1170912F1187EF91E00E9415
:103380006D22409114115091151160911611709198
:10339000171184EF91E00E946D22409160115091CD
:1033A0006111609162117091631181EF91E00E944F
:1033B000AD22409120115091211160912211709104
:1033C00023118EEE91E00E946D2240911C115091CC
:1033D0001D1160911E1170911F118BEE91E00E94E2
:1033E0006D22409118115091191160911A1170912C
:1033F0001B1188EE91E00E946D226EE175E088EA73
:1034000093E141DC6AE088EA93E14CDCFE016491DF
:1034100001EC1CE0662341F088EA93E143DC0F5F96
:103420001F4FF8016491F6CFE6EDF1E064918F0152
:10343000662341F088EA93E135DC0F5F1F4FF80106
:103440006491F6CF6AE088EA93E12CDCFE01649196
:1034500001EC1CE0662341F088EA93E123DC0F5F76
:103460001F4FF8016491F6CF4091500750915107DA
:1034700060915207709153078DEC91E00E946D228C
:103480004091540750915507609156077091570726
:103490008AEC91E00E946D224091580750915907A3
:1034A00060915A0770915B0787EC91E00E946D2252
:1034B0006EE175E088EA93E1E6DB6AE088EA93E191
:1034C000F1DBFE01649101EC1CE0662341F088EA27
:1034D00093E1E8DB0F5F1F4FF8016491F6CFE9EB52
:1034E000F1E064918F01662341F088EA93E1DADB31
:1034F0000F5F1F4FF8016491F6CF6AE088EA93E10D
:10350000D1DBFE016491C1ECDCE0662339F088EA8E
:1035100093E1C8DB2196FE016491F7CF40918E01C3
:1035200050918F0160919001709191018FEA91E02B
:10353000D4D760918A0170918B0180918C01909118
:103540008D010E947C95AB01BC018CEA91E0C5D74E
:103550006091860170918701809188019091890125
:103560000E948995AB01BC0189EA91E0B6D76EE172
:1035700075E088EA93E187DB6AE088EA93E1DF910E
:10358000CF911F910F918ECBAF92BF92CF92DF92CE
:10359000EF92FF920F931F93CF93DF93CDB7DEB7D8
:1035A000E0970FB6F894DEBF0FBECDBF80E1E9EC27
:1035B000F1E0DE01919601900D928A95E1F780E1AC
:1035C000E9EDF1E0DE01519601900D928A95E1F767
:1035D00080E1E9EEF1E0DE01119601900D928A950D
:1035E000E1F7DE01919660E471E1AE014F5E5F4F5D
:1035F00020E531E1CE0101965C0180E391E18E018D
:103600000F5C1F4FCD90DD90ED90FD90FB01C192BE
:10361000D192E192F192BF01FA01C190D190E19073
:10362000F190AF01F901C192D192E192F1929F0123
:10363000F501C190D190E190F1905F01FC01C19240
:10364000D192E192F192CF01A017B107D9F60E9471
:10365000307C80E090E0AAE7B4E480932811909356
:103660002911A0932A11B0932B1180E090E8ABE3CD
:10367000B5E48093241190932511A0932611B09363
:10368000271110922C1110922D1110922E111092C0
:103690002F1180E29EE4A0E0B0E08093601190934F
:1036A0006111A0936211B0936311109214111092E2
:1036B0001511109216111092171180E090E0A0EAF7
:1036C000B0E48093201190932111A0932211B09324
:1036D00023114DEC5CEC6CEC7EE340931C11509399
:1036E0001D1160931E1170931F11809318119093F8
:1036F0001911A0931A11B0931B1110925807109230
:10370000590710925A0710925B07109254071092B3
:1037100055071092560710925707109250071092B3
:103720005107109252071092530786E990E0909348
:10373000D8128093D71281E490E09093D6128093B0
:10374000D5121092D4121092D31288EC90E090937C
:10375000D2128093D11289E690E09093D012809398
:10376000CF121092CE121092CD1280E090E0A0E421
:10377000B1E480938E0190938F01A0939001B09358
:1037800091016DEC7CEC8CE49FE30E947695609354
:103790008A0170938B0180938C0190938D0160E07E
:1037A00070E082E392E40E948295609386017093B8
:1037B000870180938801909389010E94E18786E6C2
:1037C00096E6A6EABFE38093820190938301A093DB
:1037D0008401B093850110926C0780E090E0A0E432
:1037E000B0E48093370190933801A0933901B093EE
:1037F0003A0180933B0190933C01A0933D01B0932B
:103800003E010E94552AE1ECFCE064918F016623A1
:1038100041F088EA93E146DA0F5F1F4FF8016491A7
:10382000F6CFEDE6F1E064918F01662341F088EA7E
:1038300093E138DA0F5F1F4FF8016491F6CF6AE029
:1038400088EA93E1E0960FB6F894DEBF0FBECDBFD5
:10385000DF91CF911F910F91FF90EF90DF90CF906C
:10386000BF90AF901FCA0F931F93CF93DF93CDB735
:10387000DEB72C970FB6F894DEBF0FBECDBF84E63F
:1038800090E09C878B8780913D0390913E03A091AF
:103890003F03B091400389839A83AB83BC8344E0A8
:1038A000BE016B5F7F4FCE010B9630DA43E050E0F4
:1038B000BE016B5F7F4FCE0101960E9408E4892B09
:1038C00009F0D0C040E160E471E1CE010B961EDA50
:1038D00040E160E571E1CE010B9618DA40E160E36A
:1038E00071E1CE010B9612DA0E94307C44E068E26E
:1038F00071E1CE010B960ADA44E064E271E1CE0197
:103900000B9604DA44E06CE271E1CE010B96FED92D
:1039100044E064E171E1CE010B96F8D944E060E641
:1039200071E1CE010B96F2D944E060E271E1CE0183
:103930000B96ECD944E06CE171E1CE010B96E6D92F
:1039400044E068E171E1CE010B96E0D94CE060E51E
:1039500077E0CE010B96DAD942E067ED72E1CE0155
:103960000B96D4D942E065ED72E1CE010B96CED92B
:1039700042E063ED72E1CE010B96C8D942E061ED01
:1039800072E1CE010B96C2D942E06FEC72E1CE013A
:103990000B96BCD942E06DEC72E1CE010B96B6D924
:1039A00044E06DE377E0CE010B96B0D944E06EE8D9
:1039B00071E0CE010B96AAD944E06AE871E0CE012D
:1039C0000B96A4D944E066E871E0CE010B969ED92F
:1039D00042E0BE01675F7F4FCE010B9697D941E071
:1039E0006CE677E0CE010B9691D944E067E371E095
:1039F000CE010B968BD944E06BE371E0CE010B96C0
:103A000085D944E06FE071E0CE010B967FD944E0A8
:103A100067E171E0CE010B9679D90E94552A0E9488
:103A2000E187E1ECFCE064918F01662341F088EAD4
:103A300093E138D90F5F1F4FF8016491F6CFEFE89B
:103A4000F1E064918F01662341F088EA93E12AD97D
:103A50000F5F1F4FF8016491F6CF6AE088EA93E1A7
:103A600021D901C091DD92DA2C960FB6F894DEBF11
:103A70000FBECDBFDF91CF911F910F910895FC0133
:103A8000858190E0FC010E9473D524E0322F3150F3
:103A9000F1F7FC010E946DD52150F1F7FC010E9465
:103AA00073D580E991E00197F1F708958F929F9285
:103AB000AF92BF92CF92DF92EF92FF920F931F933C
:103AC000CF93DF934C017C0126E0E20EF11CC0E0B5
:103AD000D0E0C42ED12C062F10E0CC15DD05B4F4B7
:103AE0005701D7018D917D010E94C4D4D501EC917D
:103AF000F0E0C8010C2E02C0959587950A94E2F774
:103B00008170082E0E946AD52196E7CFC401DF910B
:103B1000CF911F910F91FF90EF90DF90CF90BF90CA
:103B2000AF909F908F90ABCF1F93CF93DF93DC012B
:103B30001396EC911397F0E0042E0E946AD5149628
:103B4000EC91EF3F19F0F0E00E9473D5FC0126855F
:103B500024FF02C048E00EC0162FEC0170E084E0A4
:103B6000759567958A95E1F744E0CF019FDF44E0C2
:103B7000612FCE01DF91CF911F9198CF40E0D4CF3C
:103B800061E0FCDF80E49FE10197F1F70895CF93B6
:103B9000DF93CDB7DEB728970FB6F894DEBF0FBE20
:103BA000CDBF9C0188E0E9EFF1E0DE0111960190C4
:103BB0000D928A95E1F7F9018289481710F04FEFCD
:103BC000480FFE013196E40FF11DE40FF11D9081C5
:103BD000690F6068C90128960FB6F894DEBF0FBE62
:103BE000CDBFDF91CF91CACFFC016785262F24601E
:103BF00027876C60C3CFEF92FF920F931F93CF93F1
:103C0000DF938C017A01677088E0689FB00111240E
:103C10006064C801B3DFE701A8E0EA0EF11C699116
:103C2000D801ED91FC910190F081E02DC80109953A
:103C3000CE15DF05A1F7DF91CF911F910F91FF9076
:103C4000EF9008950F931F93CF93DF93EC014230D1
:103C500018F08E8588608E874A8B1B8A222329F074
:103C6000413019F48E8584608E8780E49DE0019751
:103C7000F1F7EB81F0E00E9473D5ED81F0E00E9456
:103C800073D5EC81EF3F19F0F0E00E9473D56E859B
:103C900064FD1DC044E063E0CE0108DF00E516E4EA
:103CA000C8010197F1F744E063E0CE01FFDEC801EF
:103CB0000197F1F744E063E0CE01F8DE88E592E099
:103CC0000197F1F744E062E0CE01F0DE13C06062DC
:103CD000CE0154DF80E596E40197F1F76E856062CE
:103CE000CE014CDF88E592E00197F1F76E856062C6
:103CF000CE0144DF6E856062CE0140DF84E08F87B5
:103D0000CE0172DFCE013CDF82E0888B66E0CE011F
:103D1000DF91CF911F910F9131CF6F927F928F9250
:103D2000AF92CF92EF920F931F93CF93DF93CDB7C4
:103D3000DEB73C01162F842F5D854E853F8598891F
:103D4000F301838324830583E682C782A08681866C
:103D500052874387348795870E94C4D4F3018481B6
:103D60008F3F11F00E94C4D4F30185810E94C4D416
:103D7000112319F0F301168603C080E1F301868751
:103D800020E041E060E1C301DF91CF911F910F91ED
:103D9000EF90CF90AF908F907F906F9053CF8F9296
:103DA000AF92CF92EF920F93DC0112961C92129772
:103DB000E5E4F3E0ED93FC931F921F921F921F9294
:103DC0008C2CAE2CC02EE22E042F2FEF462F61E05C
:103DD000A4DF0F900F900F900F900F91EF90CF9066
:103DE000AF908F900895AF92BF92CF92DF92EF92F3
:103DF000FF920F931F93CF93DF936C018C010A5FA7
:103E00001F4F5801E12CF12CC62FD0E0EC16FD0617
:103E10004CF4F50181915F010E9440D5FFEFEF1A4C
:103E2000FF0AF4CFF601258130E0F9010E9473D535
:103E300084E0982F9150F1F7F9010E946DD58150DF
:103E4000F1F740E050E080E0A1E0B0E04C175D0702
:103E5000B4F4F80191918F01E92FF0E00E9466D649
:103E6000E13039F4BD01042E01C0660F0A94EAF76F
:103E700002C060E070E0862B4F5F5F4FE7CFF90133
:103E80000E9473D5DF91CF911F910F91FF90EF901A
:103E9000DF90CF90BF90AF9008951F93CF93DF93A3
:103EA000DC011396EC911397F0E0062E0E946AD580
:103EB0001496EC91EF3F19F0F0E00E946DD5FC01F3
:103EC000268524FF05C068E0DF91CF911F918BCF3D
:103ED000EC0164E088DF182F1295107F64E0CE01BA
:103EE00082DF812BDF91CF911F9108951F93CF9394
:103EF000DF93EC01162F8C89813069F460E0CE01EC
:103F0000CCDF8F7798EF980F9C3028F4885C682F6F
:103F10006068CE0133DE17FF21C0103C18F0105D41
:103F20001D8B20C01F73ED89E11105C0113051F4C4
:103F300041E062EA15C0E13029F4113119F441E0A1
:103F400065EB0EC080E4E89FF00111247097E10F4B
:103F5000F11DEF54FC4F649141E002C041E0612F3C
:103F6000CE01E2DD81E090E0DF91CF911F910895D5
:103F70002F923F924F925F926F927F928F929F9279
:103F8000AF92BF92CF92DF92EF92FF920F931F9367
:103F9000CF93DF9300D000D000D0CDB7DEB75C0167
:103FA000FC01EE57F34F1491880F991F880F991F4A
:103FB0009E838D83845A984F9A838983FC01108253
:103FC00011821282138228E637E044E657E060E669
:103FD00077E08CE597E00E947C7BED81FE81EF56D7
:103FE000F34FC590D590E590F490612F110F770BAA
:103FF000880B990B0E943FDD2B013C018D819E8136
:10400000875D984F4C0120E030E040EC5FE3C70152
:10401000B6010E9472DFA30192010E9472DFF401D7
:1040200060837183828393838D819E81895B9E4FA0
:104030009C838B83FC016081718182819381609379
:10404000050170930601809307019093080120E019
:1040500030E040E752E40E94A4DC3CE3C32E37E0AA
:10406000D32E7B018C0125E337E041E357E06DE27D
:1040700077E089E297E00E94A3710E941684E981AB
:10408000FA81108211821282138228E637E044E618
:1040900057E060E677E08CE597E00E947C7B8D81BD
:1040A0009E818B57934F1C01FC0185919591A591A1
:1040B000B491BC01CD019058A30192010E9472DF1E
:1040C000F401608371838283938320E030E040E7D2
:1040D00052E4609105017091060180910701909171
:1040E00008010E94A4DC7B018C0125E337E041E359
:1040F00057E06DE277E089E297E00E94A3710E94A9
:104100001684F10165917591859194919B01AC01A3
:104110000E94C4DBA30192010E9472DFF40160835C
:1041200071838283938320E030E040E05FE3EB81A2
:10413000FC8160817181828193810E9472DF609332
:10414000050170930601809307019093080120E018
:1041500030E040E752E40E94A4DC7B018C0125E3BF
:1041600037E041E357E06DE277E089E297E00E94B3
:10417000A3710E941684ED81FE81E356F34F2591D1
:10418000359145915491ED81FE81E05BF84FC080FF
:10419000D180E280F380C701B6010E94C4DB2B010D
:1041A0003C01E981FA816083718382839383ED818D
:1041B000FE81EB54F34F25913591459154910D813A
:1041C0001E810C5B184FC701B6010E94C4DBF801C9
:1041D0006083718382839383ED81FE81E755F34F82
:1041E00025913591459154918D819E818D5D9E4F94
:1041F0009A838983C701B6010E94C4DBE981FA81F1
:104200006083718382839383F4014082518262824E
:10421000738210920501109206011092070110920C
:1042200008010E94247DF501EF5BF84F81E0808357
:1042300026960FB6F894DEBF0FBECDBFDF91CF91AB
:104240001F910F91FF90EF90DF90CF90BF90AF90B4
:104250009F908F907F906F905F904F903F902F90A6
:104260000895AB01770F660B770B0C94C1D30C94B8
:10427000CED3FC01238121110C9495520895AF9265
:10428000BF92CF92DF92EF92FF920F931F93CF9343
:10429000DF93CDB7DEB7E0970FB6F894DEBF0FBE61
:1042A000CDBF8091F7098E010F5D1F4F811105C0B1
:1042B0008091F609882309F468C060E070E0CB01C2
:1042C0000E94277C8BEA9AEAA6E2B5E480934C111F
:1042D00090934D11A0934E11B0934F1180E1E1E006
:1042E000F2E0DE01519601900D928A95E1F780E1AE
:1042F000E1E1F2E0DE01119601900D928A95E1F77D
:10430000DE01519620E531E1CE0101967C0180E38A
:1043100091E14D915D916D917D91F90141935193A1
:10432000619371939F01F701419151916191719155
:104330007F01FC014193519361937193CF01A017C9
:10434000B10739F70E94307C80E090E0A8E4B3E444
:104350008093281190932911A0932A11B0932B11C7
:1043600080E090E0A0E4B0E48093201190932111CC
:10437000A0932211B093231180931C1190931D11CF
:10438000A0931E11B0931F1179C060E070E08AE223
:1043900093E40E94277C80E1E1E2F2E0D801019001
:1043A0000D928A95E1F780E1E1E3F2E0DE015196BA
:1043B00001900D928A95E1F780E1E1E4F2E0DE01FF
:1043C000119601900D928A95E1F740E451E1DE01EA
:1043D000519620E531E1CE0101965C0180E391E147
:1043E000BE016F5C7F4FF801C190D190E190F190D8
:1043F0008F01FA01C192D192E192F192AF01CD9079
:10440000DD90ED90FD90F901C192D192E192F1928F
:104410009F01F501C190D190E190F1905F01FC0105
:10442000C192D192E192F192CF0106171707D9F606
:104430000E94307C80E090E0AAE7B4E480932811E9
:1044400090932911A0932A11B0932B1180E090E052
:10445000A0EAB0E48093201190932111A09322113F
:10446000B09323114DEC5CEC6CEC7EE340931C119B
:1044700050931D1160931E1170931F11809318119A
:1044800090931911A0931A11B0931B11E0960FB6D7
:10449000F894DEBF0FBECDBFDF91CF911F910F917A
:1044A000FF90EF90DF90CF90BF90AF9008958091F4
:1044B000F709882319F01092F709729AE0CE10924A
:1044C000F6098091F709882331F0439A6A9A6A9A2B
:1044D00072986A9A7298729AD2CECF92DF92EF92C5
:1044E000FF92CF93DF93EC016A017B01FE0164919F
:1044F000662331F088EA93E10E9452162196F6CFA6
:1045000022E030E0B701A60188EA93E1DF91CF9184
:10451000FF90EF90DF90CF90AACECF92DF92EF92F4
:10452000FF92CF93DF93EC016A017B01FE0164915E
:10453000662331F088EA93E10E9452162196F6CF65
:1045400022E030E0B701A60188EA93E1DF91CF9144
:10455000FF90EF90DF90CF908ACECF92DF92EF92D4
:10456000FF92CF93DF93EC016A017B01FE0164911E
:10457000662331F088EA93E10E9452162196F6CF25
:1045800020E0B701A60188EA93E1DF91CF91FF9087
:10459000EF90DF90CF900C9455D3CF93DF93209181
:1045A000820530918305243031050CF064C0BC01D4
:1045B000209184053091850540E6429FC001439FCC
:1045C000900D112484579A4F0E9401E4E1ECFCE025
:1045D0006491EF01662341F088EA93E10E9452164C
:1045E0002196FE016491F6CFE7E7FCE06491EF01CC
:1045F000662341F088EA93E10E9452162196FE015B
:104600006491F6CF809184059091850520E6289FDE
:10461000B001299F700D112464577A4F88EA93E105
:104620000E944316E5E7FCE06491EF01662341F048
:1046300088EA93E10E9452162196FE016491F6CF1A
:104640006AE088EA93E10E94521680918405909175
:104650008505019664E070E00E945BE0909385051B
:1046600080938405809182059091830501969093B3
:10467000830580938205DF91CF910895CF93DF93D7
:104680002091820530918305243031050CF064C0FF
:10469000BC01209184053091850540E6429FC00110
:1046A000439F900D112484579A4F0E9468E3E1ECD8
:1046B000FCE06491EF01662341F088EA93E10E94F7
:1046C00052162196FE016491F6CFEAE6FCE0649171
:1046D000EF01662341F088EA93E10E945216219689
:1046E000FE016491F6CF809184059091850520E6C6
:1046F000289FB001299F700D112464577A4F88EAD2
:1047000093E10E944316E8E6FCE06491EF01662322
:1047100041F088EA93E10E9452162196FE016491CD
:10472000F6CF6AE088EA93E10E94521680918405F0
:1047300090918505019664E070E00E945BE09093A3
:10474000850580938405809182059091830501966B
:104750009093830580938205DF91CF910895EF9226
:10476000FF920F931F93CF93DF930E94D39940E959
:1047700050ED63E070E088EA93E10E9447DBE2E6F7
:10478000FCE06491EF01662341F088EA93E10E9426
:1047900052162196FE016491F6CF6AE088EA93E111
:1047A0000E945216C1ECDCE0FE0164918E0166238A
:1047B00049F088EA93E10E9452160F5F1F4FF801FB
:1047C0006491F5CF14B710FF15C0EAE5FCE06491E1
:1047D0007F01662351F088EA93E10E945216FFEFB1
:1047E000EF1AFF0AF7016491F4CF6AE088EA93E1D7
:1047F0000E94521611FF15C0EAE4FCE064917F01AB
:10480000662351F088EA93E10E945216FFEFEF1AF7
:10481000FF0AF7016491F4CF6AE088EA93E10E940D
:10482000521612FF15C0E9E3FCE064917F01662394
:1048300051F088EA93E10E945216FFEFEF1AFF0A47
:10484000F7016491F4CF6AE088EA93E10E9452167E
:1048500013FF15C0E9E2FCE064917F01662351F08B
:1048600088EA93E10E945216FFEFEF1AFF0AF70160
:104870006491F4CF6AE088EA93E10E94521615FF32
:1048800014C0E9E1FCE064918F01662349F088EAF5
:1048900093E10E9452160F5F1F4FF8016491F5CF0C
:1048A0006AE088EA93E10E94521614BEE2E1FCE05D
:1048B00064918F01662349F088EA93E10E945216C1
:1048C0000F5F1F4FF8016491F5CFECE0FCE06491BD
:1048D0008F01662349F088EA93E10E9452160F5F28
:1048E0001F4FF8016491F5CF6AE088EA93E10E94D6
:1048F0005216FE01649101EC1CE0662349F088EA3F
:1049000093E10E9452160F5F1F4FF8016491F5CF9B
:10491000ECEFFBE064918F01662349F088EA93E1B4
:104920000E9452160F5F1F4FF8016491F5CFE7EE1A
:10493000FBE064918F01662349F088EA93E10E94CD
:1049400052160F5F1F4FF8016491F5CFEBEDFBE0BE
:1049500064918F01662349F088EA93E10E94521620
:104960000F5F1F4FF8016491F5CFE4ECFBE0649119
:104970008F01662349F088EA93E10E9452160F5F87
:104980001F4FF8016491F5CF6AE088EA93E10E9435
:104990005216E9EBFBE064918F01662349F088EA47
:1049A00093E10E9452160F5F1F4FF8016491F5CFFB
:1049B000EDEAFBE064918F01662349F088EA93E118
:1049C0000E9452160F5F1F4FF8016491F5CF6AE005
:1049D00088EA93E10E945216FE016491C1ECDCE08A
:1049E000662341F088EA93E10E9452162196FE0167
:1049F0006491F6CFEEE9FBE06491EF01662341F0AC
:104A000088EA93E10E9452162196FE016491F6CF46
:104A10000E941957BC0188EA93E123DCE7E8FBE038
:104A20006491EF01662341F088EA93E10E945216F7
:104A30002196FE016491F6CF60ED74E088EA93E17F
:104A400010DC6AE088EA93E10E9452161092880511
:104A50001092890510928A0510928B050E94331CD2
:104A60000E9463880E9402700E94A4840E94BF83F7
:104A7000859ADF91CF911F910F91FF90EF9008954C
:104A800080917C0590917D0560E070E001960C942A
:104A9000DAE080917C0590917D054AE050E060E08D
:104AA00070E001960C942DE2682F880F770B20910F
:104AB00086053091870540E6429FC001439F900DD7
:104AC000112484579A4F0E94EDE39C0190937D0539
:104AD00080937C0581E0232B09F480E008950FB6D4
:104AE000F89480919D1390919E13A0919F13B09183
:104AF000A0130FBE8093780590937905A0937A0553
:104B0000B0937B050895CF93DF930FB6F89480910F
:104B10009D1390919E13A0919F13B091A0130FBE6F
:104B20008093780590937905A0937A05B0937B05DF
:104B3000E0918605F0918705E857FA4F8081811151
:104B400015C0EEEBF4E06491EF01662341F088EAD2
:104B500093E10E9452162196FE016491F6CF6AE01D
:104B600088EA93E1DF91CF910C945216DF91CF91B7
:104B700008958F929F92AF92BF92CF92DF92EF9261
:104B8000FF920F931F93CF93DF938CE7E82E84E07F
:104B9000F82E0CE517E0C9E2D7E09FE6C92E97E0B2
:104BA000D92EF70181917F017FDF8823F1F068DF43
:104BB0004B015C01F6016081611102C060910C073C
:104BC00070E080E090E00E943FDDF80120813181BB
:104BD000428153810E9472DFA50194010E94C4DBCF
:104BE000688379838A839B8309C0F80180819181DE
:104BF000A281B38188839983AA83BB830C5F1F4FF3
:104C00002496FFEFCF1ADF0A80E8E81684E0F80662
:104C100041F686E449DF882391F032DF6B017C01A5
:104C200020E030E0A9010E94A0DE181644F4C092F2
:104C30000501D0920601E0920701F0920801DF9190
:104C4000CF911F910F91FF90EF90DF90CF90BF9089
:104C5000AF909F908F9008958CDF89E425DF8823A3
:104C600051F00EDF60931D0770931E0780931F079E
:104C70009093200708C010921D0710921E071092F3
:104C80001F07109220078AE40FDF882351F0F8DE17
:104C90006093210770932207809323079093240742
:104CA0000895109221071092220710922307109264
:104CB00024070895CF92DF92EF92FF92CF93DF9374
:104CC000EC01C0902301D0902401E0902501F090E8
:104CD0002601A7019601688179818A819B810E94C2
:104CE000A0DE181624F4C882D982EA82FB82C09022
:104CF0002701D0902801E0902901F0902A01A70116
:104D000096016C817D818E819F810E94A0DE1816A4
:104D100024F4CC82DD82EE82FF82C0902B01D09001
:104D20002C01E0902D01F0902E01A70196016885DD
:104D300079858A859B850E94A0DE181624F4C88692
:104D4000D986EA86FB86DF91CF91FF90EF90DF90C6
:104D5000CF900895CF92DF92EF92FF920F931F931F
:104D600089E297E0A7DF0FB6F89480919D139091A8
:104D70009E13A0919F13B091A0130FBE809378054E
:104D800090937905A0937A05B0937B05209129072C
:104D900030912A0740912B0750912C0760915C07B6
:104DA00070915D0780915E0790915F070E949DDC86
:104DB000811121C020912D0730912E0740912F079E
:104DC0005091300760916007709161078091620790
:104DD000909163070E949DDC81110DC020E030E0BE
:104DE00040E752E46091050170910601809107014E
:104DF000909108011EC06091450170914601072EF7
:104E0000000C880B990B0E943FDD20910501309129
:104E1000060140910701509108010E9472DF20E0D5
:104E200030E040E752E40E94A4DC20E030E048ECAF
:104E300052E40E94A4DC2CE3C22E27E0D22E7B0198
:104E40008C0125E337E041E357E06DE277E089E24A
:104E500097E00E94A371E9E2F7E0ACE5B7E0419189
:104E60005191619171914D935D936D937D9387E025
:104E7000E933F807A1F71F910F91FF90EF90DF90B2
:104E8000CF900895AF92BF92CF92DF92EF92FF92B0
:104E90000F931F93CF93DF93F82E2091210730912A
:104EA0002207409123075091240760911D077091BC
:104EB0001E0780911F07909120070E94ADDEEB0135
:104EC000182F092F6091450170914601072E000CA3
:104ED000880B990B0E943FDD20910501309106015E
:104EE00040910701509108010E9472DF20E030E0FC
:104EF00040E752E40E94A4DC20E030E048EC52E4B9
:104F00000E94A4DC20913C072F93FF920F931F93E4
:104F1000DF93CF935B016C0182E0E82E01E020E09B
:104F20004DE157E069E277E08CE597E00E94F56893
:104F3000E9E2F7E0ACE5B7E00F900F900F900F902B
:104F40000F900F9041915191619171914D935D93AB
:104F50006D937D9387E0E933F807A1F70FB6F894D6
:104F600080919D1390919E13A0919F13B091A013D7
:104F70000FBE8093780590937905A0937A05B0933E
:104F80007B05DF91CF911F910F91FF90EF90DF9004
:104F9000CF90BF90AF9008950FB6F89480919D1375
:104FA00090919E13A0919F13B091A0130FBE4091BA
:104FB0005E0550915F056091600570916105841BED
:104FC000950BA60BB70B843C9940A105B10508F4DD
:104FD00057C00FB6F89480919D1390919E13A091A5
:104FE0009F13B091A0130FBE80935E0590935F0551
:104FF000A0936005B0936105679B27C0669B25C0A1
:105000007C9B23C0339B21C00FB6F89480919D13E5
:1050100090919E13A0919F13B091A0130FBE409149
:105020006205509163056091640570916505841B6C
:10503000950BA60BB70B80319742A105B105C8F4BB
:10504000452B462B472BA9F018C00FB6F89480913A
:105050009D1390919E13A0919F13B091A0130FBE2A
:105060008093620590936305A0936405B0936505F2
:10507000CBCF8F98879A8F9808958F9A879A8F9A17
:105080000895CF92DF92EF92FF920F931F93CF93E9
:10509000DF930FB6F89440919D1350919E13609149
:1050A0009F137091A0130FBE8091580590915905E0
:1050B000A0915A05B0915B0584179507A607B7071D
:1050C00008F0C6C08C509E4FAF4FBF4F809358051D
:1050D00090935905A0935A05B0935B0500914B122C
:1050E00010914C12D0914D12C0914E1220E030E040
:1050F000A901B8018D2F9C2F0E949DDC87FF04C061
:1051000000E010E0D0E0C0E06091591270915A12B6
:10511000072E000C880B990B0E943FDD6B017C0170
:105120009B01AC01B8018D2F9C2F0E94A0DE1816A8
:105130001CF08601DE2DCF2DC0904F12D090501262
:10514000E0905112F090521298014D2F5C2FB60151
:10515000C7010E949DDC87FD03C08601DE2DCF2D97
:1051600060915B1270915C12072E000C880B990BFA
:105170000E943FDD6B017C0198014D2F5C2F0E9446
:105180009DDC87FD03C08601DE2DCF2D6091571277
:1051900070915812072E000C880B990B0E943FDD6E
:1051A0006B017C0198014D2F5C2F0E949DDC87FDD7
:1051B00003C08601DE2DCF2DC0904512D09046123F
:1051C000E0904712F090481298014D2F5C2FB601E5
:1051D000C7010E949DDC87FD03C08601DE2DCF2D17
:1051E00020E030E04CE552E4B8018D2F9C2F0E9466
:1051F000A0DE1816F4F480915C0581111AC05B9A48
:105200005A9881E080935C0510925D0520E030E0C3
:1052100048E552E4B8018D2F9C2F0E949DDC87FF4A
:1052200017C05B985A9A10925C0581E080935D05E7
:105230000FC020E030E048E552E4B8018D2F9C2FEC
:105240000E949DDC87FF04C080915D05882349F39F
:10525000DF91CF911F910F91FF90EF90DF90CF9052
:105260000895F8940E947189779A10924107769A6E
:1052700010924207479A10924307439A8C9A809162
:10528000F7098111729AE7ECFCE06491EF01662363
:1052900041F088EA93E10E9452162196FE01649142
:1052A000F6CFEFE9F4E06491EF01662341F088EA7C
:1052B00093E10E9452162196FE016491F6CF6AE0B6
:1052C00088EA93E10E94521683E894E00E94729962
:1052D0007894C6E0D0E0219749F068EC70E080E077
:1052E00090E00E9497D70E94E999F5CFF894FFCFFC
:1052F000CF93DF930E94718980916A0581113AC032
:1053000081E080936A058091110790911207A09126
:105310001307B091140780930D0790930E07A09385
:105320000F07B0931007E7ECFCE06491EF016623F0
:1053300041F088EA93E10E9452162196FE016491A1
:10534000F6CFEDE0F4E06491EF01662341F088EAE6
:1053500093E10E9452162196FE016491F6CF6AE015
:1053600088EA93E10E94521681EF93E0DF91CF919A
:105370000C946599DF91CF91089580916A05089505
:10538000EF92FF921F93CF93DF93EC0180913C0744
:1053900080936B0584E588DB182F811102C010E033
:1053A00048C06EDB0E9411DD60936B056230B8F37C
:1053B000E1ECFCE064917F01662351F088EA93E11F
:1053C0000E9452168FEFE81AF80AF7016491F4CFA1
:1053D000CD36D105B1F04CF4C836D10579F0C936D7
:1053E000D105C1F460E673E011C0CA3DD10561F09A
:1053F000CD3DD10579F465EA73E008C069E473E056
:1054000005C067E773E002C06EE873E088EA93E1E5
:105410000E94431640916B0550E060E070E020E090
:1054200088EA93E10E9455D36AE088EA93E10E94FA
:105430005216812FDF91CF911F91FF90EF90089529
:10544000CF92DF92EF92FF9220916C072223F1F02E
:1054500020E030E040E05FE30E9472DF6B017C01FE
:1054600020E030E0A9010E949DDC882379F0A701AB
:105470009601C701B6010E9472DF2BED3FE049E4BF
:1054800050E40E9472DF9B01AC0104C020E030E0D8
:1054900040E85FE360E070E080E89FE30E94A4DC06
:1054A000FF90EF90DF90CF9008950F931F93CF93CD
:1054B000DF9307E311E0F8016081718182819381BC
:1054C000BFDFCFE2D1E0688379838A839B83F801D1
:1054D0006481758186819781B3DF6C837D838E8340
:1054E0009F83DF91CF911F910F9108954F925F920B
:1054F0006F927F92AF92BF92CF92DF92EF92FF9224
:105500000F931F93CF93DF9300D000D0CDB7DEB7BA
:1055100020913C0730E02817390709F4CEC05C0120
:1055200020E030E040E450E460915811709159114E
:1055300080915A1190915B110E94A4DC2B013C01D7
:105540002AE037ED43EA5FE36091640770916507F5
:1055500080916607909167070E94C4DB69837A8314
:105560008B839C838CE3C82E87E0D82E8301720145
:1055700028E637E0AE014F5F5F4F60E677E08CE5ED
:1055800097E00E94A3710E94168400913C0710E0EE
:10559000F801EE0FFF1FEE0FFF1FE55FFE4F2081AA
:1055A00031814281538160915C0770915D078091E8
:1055B0005E0790915F070E94C3DBF501EE0FFF1FAE
:1055C000EE0FFF1FE55FFE4F208131814281538145
:1055D0000E94C4DB60935C0770935D0780935E0755
:1055E00090935F07F801EE0FFF1FEE0FFF1FED5EB8
:1055F000FE4F20813181428153816091600770911B
:10560000610780916207909163070E94C3DBF501F7
:10561000EE0FFF1FEE0FFF1FED5EFE4F2081318169
:10562000428153810E94C4DB6093600770936107DD
:105630008093620790936307000F111F000F111FE3
:10564000F801E55EFE4F20813181428153816091F6
:1056500064077091650780916607909167070E94C3
:10566000C4DBF501EE0FFF1FEE0FFF1FE55EFE4FDF
:1056700020813181428153810E94C3DB60936407A2
:105680007093650780936607909367072AE037ED6C
:1056900043EA5FE30E94C4DB69837A838B839C8344
:1056A00028E637E0AE014F5F5F4F60E677E08CE5BC
:1056B00097E00E947C7BA0923C070F900F900F9088
:1056C0000F90DF91CF911F910F91FF90EF90DF909E
:1056D000CF90BF90AF907F906F905F904F90089564
:1056E00083E797E00C94F15BEF92FF920F931F9387
:1056F000CF93DF9384E894E090933209809331094B
:1057000084E399E00E943921CEEED8E002EC17E064
:1057100084E8E82E84E0F82EF982E8828E818823DE
:1057200021F0CE0103960E9495526E970C171D072B
:1057300099F7C4E8D4E0D093C307C093C20785ECBF
:1057400097E00E943921D093A307C093A20785EA6E
:1057500097E0DF91CF911F910F91FF90EF900C9404
:105760003921CF93DF9388EA93E10E94AEDBE1EC2D
:10577000F4E06491EF01662341F088EA93E10E942E
:1057800052162196FE016491F6CF40911107509177
:10579000120760911307709114074F5F5F4F6F4FAF
:1057A0007F4F88EA93E10E94C1D36AE088EA93E1DF
:1057B0000E945216DF91CF91A6C92F923F924F922D
:1057C0005F926F927F928F929F92AF92BF92CF9291
:1057D000DF92EF92FF920F931F93CF93DF93CDB79A
:1057E000DEB76E970FB6F894DEBF0FBECDBF10E6E2
:1057F00044E0C42ED12C51E4A52E5AE0B52E01E090
:1058000088EA93E10E94DFD9181619063CF48091CA
:1058100082059091830504970CF448C08091750728
:10582000882309F46FC380917F0590918005892BAF
:1058300009F068C38091820590918305892B11F44A
:105840001092570580E6A82EBB24B39490E8492E09
:105850009EEE592E96E3692E712C8E010F5F1F4F1D
:1058600021EE222E29E0322E4091E9095091EA09D9
:105870006091EB097091EC098091E1099091E20946
:10588000A091E309B091E409481759076A077B071B
:1058900008F038C3809182059091830504970CF03D
:1058A00031C38091570581112DC3F8C188EA93E176
:1058B0000E9418DA8093810520917F053091800540
:1058C0008A3061F08D3051F08A3321F490917E0559
:1058D000992321F02F3531050CF452C121153105E2
:1058E00019F410927E050EC3809184059091850570
:1058F000189F4001199F900C1124A40144575A4F3E
:105900007A01FA01E20FF31F108220917E05211126
:1059100032C110927E05FC01E857FA4F10826EE406
:1059200070E0CA010E94EDE3009709F46EC0909305
:105930007D0580937C058E199F09880D991D4AE08D
:1059400050E060E070E083579A4F0E942DE2609330
:1059500015077093160780931707909318074090C8
:1059600011075090120760901307709014075FEFB3
:10597000451A550A650A750A809084059090850538
:10598000641575058605970509F419C1189DC001B0
:10599000199D900D11246DE57BE084579A4F0E946C
:1059A0009FE3892B09F00BC1E7ECFCE064918F01C8
:1059B000662349F088EA93E10E9452160F5F1F4F59
:1059C000F8016491F5CFEAE2FBE064918F01662370
:1059D00049F088EA93E10E9452160F5F1F4FF801C9
:1059E0006491F5CF40911107509112076091130710
:1059F0007091140788EA93E10E94C1D36AE088EAB3
:105A000093E10E945216ADDE37C06AE270E0C70132
:105A10000E94EDE3892B09F444C0E7ECFCE06491BB
:105A20008F01662349F088EA93E10E9452160F5FC6
:105A30001F4FF8016491F5CFE7EBFAE064918F0115
:105A4000662349F088EA93E10E9452160F5F1F4FC8
:105A5000F8016491F5CF40911107509112076091C0
:105A600013077091140788EA93E10E94C1D36AE09A
:105A700088EA93E10E9452161092800510927F05E9
:105A800041C28091150790911607A0911707B09118
:105A900018078093110790931207A0931307B093F0
:105AA00014078091840590918505189F7001199FB6
:105AB000F00C1124A70144575A4F4A0167E470E0E3
:105AC000CA010E94EDE3009791F190937D058093C8
:105AD0007C05881999098E0D9F1D60E070E0835741
