:100000000C94CE150C94F8150C94F8150C94F81566
:100010000C94F8150C94F8150C94F8150C94F8152C
:100020000C94F8150C94F8150C9464D20C94E1D24D
:100030000C94F8150C94F8150C94F8150C94F8150C
:100040000C94F8150C94407E0C94F8150C94F8154B
:100050000C94F8150C94F8150C94F1940C94C3D1ED
:100060000C94F8150C94F8150C94F8150C94F815DC
:100070000C94F8150C94F8150C94F8150C94F815CC
:100080000C94F8150C94F8150C94F8150C94F815BC
:100090000C94BBCD0C94F8155C956995859592955B
:1000A000AC95B995D395D695D895DB95E39552CF78
:1000B0007ECFA0CFA0CFA0CFA0CFA0CFA0CFA0CFEA
:1000C000A0CFA0CFA0CFA0CFA0CF96CF8ECF86CFEE
:1000D000A0CFA0CFA0CFA0CFA0CFA0CFA0CF78CFD0
:1000E0005ECF66CF70CF084AD73B3BCE016E84BC53
:1000F000BFFDC12F3D6C74319ABD56833DDA3D0082
:10010000C77F11BED9E4BB4C3E916BAAAABE0000CA
:1001100000803F05A84CCDB2D44EB93836A9020CA8
:1001200050B9918688083CA6AAAA2ABE0000008081
:100130003F0048617264636F646564204465666172
:10014000756C742053657474696E6773204C6F61AD
:100150006465640053746F726564207365747469B8
:100160006E677320726574726965766564002044F9
:10017000002049002020204D3330312050005049CC
:10018000442073657474696E67733A00205A0020C6
:10019000590020204D323036205800486F6D6520C0
:1001A0006F666673657420286D6D293A00204500DE
:1001B000205A0020580020420020540020204D32B8
:1001C0003035205300416476616E6365642076614A
:1001D000726961626C65733A20533D4D696E2066A9
:1001E0006565647261746520286D6D2F73292C20FC
:1001F000543D4D696E2074726176656C206665654C
:10020000647261746520286D6D2F73292C20423D26
:100210006D696E696D756D207365676D656E7420AF
:1002200074696D6520286D73292C20583D6D6178A7
:10023000696D756D205859206A65726B20286D6D47
:100240002F73292C20205A3D6D6178696D756D20C2
:100250005A206A65726B20286D6D2F73292C20201F
:10026000453D6D6178696D756D2045206A65726BDD
:1002700020286D6D2F73290020540020204D32302E
:1002800034205300416363656C65726174696F6EFD
:100290003A20533D616363656C65726174696F6E8A
:1002A0002C20543D726574726163742061636365D0
:1002B0006C65726174696F6E00204500205A0020E1
:1002C000590020204D3230312058004D6178696D41
:1002D000756D20416363656C65726174696F6E2032
:1002E000286D6D2F7332293A00204500205A0020D6
:1002F000590020204D3230332058004D6178696D0F
:10030000756D2066656564726174657320286D6D16
:100310002F73293A0020204D323138205431205992
:100320000020204D3231382054312058004F66666D
:100330007365747320666F72204578747275646596
:100340007220323A00204500205A00205900202017
:100350004D393220580053746570732070657220D7
:10036000756E69743A0053657474696E67732053CF
:10037000746F7265640041A042A1E045A3A4A5A6E4
:100380004BA74D484FA8504354A9AA58E1ABACE243
:10039000ADAE62AFB0B161B2B3B4E365B6B7B8B9F0
:1003A000BABBBCBD6FBE7063BF79E478E5C0C1E67F
:1003B000C2C3C4C5C6C7D09ED181D182D0B0D0BD82
:1003C000D0BED0B2D0BBD0B5D0BD2E20234D393950
:1003D00039005072696E7465722073746F70706545
:1003E000642064756520746F206572726F72732E5D
:1003F0002046697820746865206572726F7220618A
:100400006E6420757365204D39393920746F207200
:100410006573746172742E202854656D7065726105
:10042000747572652069732072657365742E20532C
:1004300065742069742061667465722072657374D6
:10044000617274696E672900D09ED181D182D0B06B
:10045000D0BDD0BED0B2D0BBD0B5D0BD2E20234DA4
:10046000313132005072696E7465722068616C744B
:1004700065642E206B696C6C28292063616C6C6547
:100480006421006F6B00526573656E643A20002230
:1004900000556E6B6E6F776E20636F6D6D616E646D
:1004A0003A2022004C6173657220454E41424C4512
:1004B000440A004C617365722044495341424C45E3
:1004C000440A0050617374612045787472756465E4
:1004D000722044697265637420454E41424C454424
:1004E0000A00506173746120457874727564657296
:1004F000204469726563742044495341424C454429
:100500000A00506173746120457874727564657275
:1005100020465220454E41424C45440A00506173EA
:100520007461204578747275646572204652204467
:10053000495341424C45440A004D61676E756D2038
:100540004164646F6E73207374617475733A0A004A
:100550004C61736572204F4E0A004C6173657220C6
:100560004F46460A00496E6974204C6173657220DB
:100570004669727374210A004C6173657220454E9E
:1005800041424C45440A004C617365722044495312
:1005900041424C45440A00506173746120457874AF
:1005A00072756465722044697265637420454E41BA
:1005B000424C45440A00506173746120457874725E
:1005C00075646572204469726563742044495341BF
:1005D000424C45440A00506173746120457874723E
:1005E0007564657220465220454E41424C45440A8E
:1005F000005061737461204578747275646572206F
:1006000046522044495341424C45440A002D3D2066
:10061000D0B3D0BED182D0BED0B220D0BA20D0BF0D
:10062000D0B5D187D0B0D182D0B8203D2D00D09F99
:10063000D0B5D187D0B0D182D18C20D18120534484
:1006400020D0BAD0B0D180D182D18B202020005AC6
:10065000204F6666736574203A20007A5F6D61787A
:100660003A20007A5F6D696E3A20005A204F666624
:10067000736574005A204F6666736574206F6B0053
:10068000486F74656E64206F6666736574733A00B4
:100690007A5F6D696E3A2000795F6D61783A20006B
:1006A000785F6D61783A200020453A00205A3A0080
:1006B00020593A0020436F756E7420583A2000206C
:1006C000453A00205A3A0020593A00583A00200092
:1006D0004D61676E756D205061737461204578744B
:1006E000727564657220454E41424C45440046494E
:1006F000524D574152455F56455253494F4E3A4D20
:1007000061676E756D2D50524F2D4230332D54362A
:1007100062204649524D574152455F4E414D453A40
:100720004D61726C696E2056313B20537072696E58
:100730007465722F6772626C206D617368757020CA
:10074000666F722067656E36204649524D5741529A
:10075000455F55524C3A68747470733A2F2F67692D
:10076000746875622E636F6D2F4D61676E756D33A2
:10077000442050524F544F434F4C5F5645525349BB
:100780004F4E3A312E30204D414348494E455F543B
:100790005950453A4D61676E756D2D33442D67652F
:1007A0006E2E322D4D61676E756D2D50524F2D425C
:1007B00030332D5436622045585452554445525FCB
:1007C000434F554E543A3220555549443A656534A5
:1007D00065363963342D643131312D346334352D30
:1007E000623939322D3761363765313038633664D6
:1007F000380A004D61676E756D2D33442D67656E47
:100800002E3220D092D18BD0BAD0BB2E0020202007
:100810002A20D0A1D182D0BED0BB20D0BDD0B0D0B4
:10082000B3D180D0B5D182202A20200020423A00C6
:1008300020453A00543A00D09DD0B0D0B3D180D0FA
:10084000B5D0B220D181D182D0BED0BBD0B0202EC5
:100850002E2E20202020002A20D0ADD0BAD181D148
:1008600082D180D183D0B4D0B5D18020D0BDD0B0DA
:10087000D0B3D180D0B5D182202A0020573A0020B1
:10088000453A00543A00D09DD0B0D0B3D180D0B515
:10089000D0B220D18DD0BAD181D182D180D183D0B4
:1008A000B4D0B5D180D0B0202E2E002042403A00E6
:1008B00020403A00202F003A00205400202F002032
:1008C000423A00202F006F6B20543A002569206DBA
:1008D000696E2C2025692073656300456E6420666F
:1008E000696C65206C69737400426567696E206687
:1008F000696C65206C69737400D09DD0B5D182207D
:10090000D0B4D0B2D0B8D0B6D0B5D0BDD0B8D18FD9
:100910002E00496E6974204C6173657220466972BD
:100920007374210A002D3D20D0B3D0BED182D0BE39
:10093000D0B220D0BA20D0BFD0B5D187D0B0D1822C
:10094000D0B8203D2D00D09FD180D0BED0B4D0BE35
:10095000D0BBD0B6D0B5D0BDD0B8D0B520D0BFD0E8
:10096000B5D187D0B0D182D0B800D09ED09A20D057
:10097000B4D0BBD18F20D0BFD180D0BED0B4D0BE38
:10098000D0BBD0B6D0B5D0BDD0B8D18F00D09FD01D
:10099000B0D183D0B7D0B020282347342900D09FCE
:1009A000D0B5D187D0B0D182D18C202569D1872E06
:1009B000202569D0BCD0B8D0BD2E00256920686F35
:1009C000757273202569206D696E757465730044B6
:1009D0006F6E65207072696E74696E672066696CEF
:1009E0006500D09ED181D182D0B0D0BDD0BED0B272
:1009F000D0BBD0B5D0BD2E20234D3939390050722F
:100A0000696E7465722073746F70706564206475AC
:100A10006520746F206572726F72732E204669783C
:100A200020746865206572726F7220616E64207533
:100A30007365204D39393920746F20726573746184
:100A400072742E202854656D7065726174757265BC
:100A50002069732072657365742E20536574206954
:100A60007420616674657220726573746172746952
:100A70006E6729004E6F204C696E65204E756D6261
:100A80006572207769746820636865636B73756D40
:100A90002C204C617374204C696E653A20004E6FB7
:100AA00020436865636B73756D2077697468206C8B
:100AB000696E65206E756D6265722C204C61737471
:100AC000204C696E653A2000636865636B73756DD1
:100AD000206D69736D617463682C204C61737420A0
:100AE0004C696E653A20004C696E65204E756D62EA
:100AF0006572206973206E6F74204C617374204C92
:100B0000696E65204E756D6265722B312C204C61CB
:100B10007374204C696E653A20004D313130004DC0
:100B2000363030004D363030205300446F6E652033
:100B3000736176696E672066696C652E006F6B0065
:100B40004D3239002020506C616E6E6572427566C0
:100B500066657242797465733A2000204672656555
:100B6000204D656D6F72793A20004A616E203331F5
:100B7000203230313900436F6D70696C65643A2002
:100B80000028497277696E20636F2E2C204D6167B3
:100B90006E756D2033442900207C20417574686F88
:100BA000723A20004A616E203331203230313920D0
:100BB00031373A34303A313700204C617374205564
:100BC0007064617465643A2000312E302E30004D1F
:100BD00061726C696E0020536F6674776172652074
:100BE000526573657400205761746368646F672091
:100BF0005265736574002042726F776E206F757452
:100C0000205265736574002045787465726E616C5E
:100C100020526573657400506F776572557000736C
:100C200074617274002200656E717565696E67206B
:100C300022002200656E717565696E6720220001D1
:100C400001FF0000A0400000A040000000400000A4
:100C50005C43000034430000344300005C43000068
:100C600034430000000000005C43000034430000F7
:100C70003443000000000000000000000000656335
:100C8000686F3A004572726F723A007C3C3E5E2B90
:100C90003D3F2F5B5D3B2C2A225C004D38342058B1
:100CA0002059205A20450043616E6E6F7420656E96
:100CB000746572207375626469723A20004D323433
:100CC000004D3233202573006175746F25692E67DE
:100CD000006572726F722077726974696E67207432
:100CE0006F2066696C65004E6F74205344207072EB
:100CF000696E74696E67002F005344207072696ECC
:100D000074696E67206279746520002E0044656CFA
:100D10006574696F6E206661696C65642C20466934
:100D20006C653A200046696C652064656C65746585
:100D3000643A002E006F70656E206661696C6564B0
:100D40002C2046696C653A200057726974696E6799
:100D500020746F2066696C653A20002E006F706504
:100D60006E206661696C65642C2046696C653A206A
:100D7000002E006F70656E206661696C65642C20C2
:100D800046696C653A200046696C652073656C6540
:100D900063746564002053697A653A200046696C83
:100DA00065206F70656E65643A20002E006F706577
:100DB0006E206661696C65642C2046696C653A201A
:100DC000004E6F772066726573682066696C653ABD
:100DD00020004E6F7720646F696E672066696C65CE
:100DE0003A20002220706F73002220706172656EBD
:100DF000743A2200535542524F5554494E452043B0
:100E0000414C4C207461726765743A2200747279A7
:100E1000696E6720746F2063616C6C207375622D3E
:100E200067636F64652066696C65732077697468B1
:100E300020746F6F206D616E79206C6576656C73C0
:100E40002E204D4158206C6576656C2069733A0000
:100E500053442063617264206F6B006F70656E5243
:100E60006F6F74206661696C656400766F6C756D78
:100E7000652E696E6974206661696C65640053440F
:100E800020696E6974206661696C0020636F6C6410
:100E900020657874727573696F6E207072657665FF
:100EA0006E7465640028002920453A002800292036
:100EB0005A3A0028002920593A00280020583A00C0
:100EC000537465707065722063757272656E7420FC
:100ED00076616C756573205B2528726177295D3AB0
:100EE00000656E6473746F7073206869743A205A79
:100EF00000205A3A00656E6473746F7073206869DD
:100F0000743A20590020593A00656E6473746F700A
:100F100073206869743A20580020583A00656E645E
:100F200073746F7073206869743A200024F4D430AD
:100F300050C38E20C2A24017828B7011127A910D7D
:100F4000816CD90AA861E108C75866076151430658
:100F50001E4B5D05C145A7041A411104093D9803C4
:100F6000713931034036DB0265339102D4305402CB
:100F7000802E1D02632CEE01752AC501B028A00148
:100F8000102781018F2564012B244B01E0223401BD
:100F9000AC211F018D200D01801FFC00841EED007F
:100FA000971DDF00B81CD200E61BC600201BBC004A
:100FB000641AB200B219A8000A19A0006A189900B0
:100FC000D117910040178B00B516840031167E00B2
:100FD000B31579003A157300C7146F0058146A00EE
:100FE000EE1366008813630025135E00C7125B00D2
:100FF0006C12570015125400C111510070114F00AE
:1010000021114B00D61049008D10470046104400B6
:1010100002104200C00F4000800F3E00420F3C0013
:10102000060F3B00CB0E3800930E37005C0E3500E8
:10103000270E3400F30D3200C10D3100900D300049
:10104000600D2E00320D2D00050D2C00D90C2B004B
:10105000AE0C2900850C29005C0C2700350C2700FC
:101060000E0C2600E80B2400C40B2400A00B230068
:101070007D0B23005A0B2100390B2100180B200097
:10108000F80A1F00D90A1E00BB0A1E009D0A1D0097
:10109000800A1D00630A1C00470A1B002C0A1B0063
:1010A000110A1A00F7091A00DD091900C40919000C
:1010B000AB091900920917007B0918006309170092
:1010C0004C09160036091600200916000A091500F9
:1010D000F5081500E0081400CC081400B808140046
:1010E000A4081400900813007D0812006B08130078
:1010F0005808120046081200340811002308110095
:101100001208110001081100F0071000E00710009C
:10111000D0071000C0071000B0070F00A107100093
:1011200091070E0083070F0074070F0065070E007C
:1011300057070E0049070E003B070D002E070E0053
:1011400020070D0013070D0006070D00F9060C001F
:10115000ED060D00E0060C00D4060C00C8060C00DD
:10116000BC060C00B0060C00A4060B0099060C008F
:101170008D060B0082060B0077060B006C060B0039
:1011800061060A0057060B004C060A0042060A00D8
:1011900038060A002E060A0024060A001A060A006B
:1011A0001006090007060A00FD050900F4050900FC
:1011B000EB050900E2050900D9050900D005090081
:1011C000C7050900BE050900B5050800AD05080002
:1011D000A50509009C050800940508008C05080079
:1011E000840508007C050800740508006C050700EC
:1011F000650508005D050700560508004E05070057
:1012000047050700400508003805070031050700BD
:101210002A050700230507001C0506001605070020
:101220000F0507000805060002050700FB0406007D
:10123000F5040700EE040600E8040600E2040700D7
:10124000DB040600D5040600CF040600C90406002E
:10125000C3040600BD040600B7040600B10405007F
:10126000AC040600A6040600A00405009B040600CA
:1012700095040500900406008A0405008504050015
:10128000800406007A04050075040500700405005A
:101290006B04050066040500610405005C0405009C
:1012A00057040500520405004D04050048040500DC
:1012B000430405003E0404003A040500350405001B
:1012C000300404002C040500270404002304050056
:1012D0001E0404001A04040016040500110404008E
:1012E0000D040400090405000404040000040400C3
:1012F000FC030400F8030400F4030400F0030400FA
:10130000EC030400E8030400E4030400E003040029
:10131000DC030400D8030400D4030400D003040059
:10132000CC030400C8030300C503030024F404D95C
:10133000201BC40C5C0E9804C4095F026507710190
:10134000F405F900FB04B30048048700C1036900F9
:101350005803550003034500BE023A0084023100E1
:1013600053022A002902250004022000E4011C0087
:10137000C8011900AF01170098011400840113007F
:10138000710110006101100051010E0043010D00B8
:1013900036010B002B010B0020010B001501090089
:1013A0000C01090003010800FB000800F30008001D
:1013B000EB000700E4000600DE000600D80006008F
:1013C000D2000600CC000500C7000500C2000500E1
:1013D000BD000400B9000400B5000400B100040021
:1013E000AD000400A9000400A5000300A200030052
:1013F0009F0004009B00030098000300950002007A
:1014000093000300900003008D0002008B00030096
:1014100088000200860002008400030081000200B0
:101420007F0002007D0002007B00020079000200C4
:1014300077000100760002007400020072000100D3
:10144000710002006F0002006D0001006C000200DC
:101450006A000100690002006700010066000100E7
:1014600065000100640002006200010061000100EB
:10147000600001005F0002005D0001005C000100EF
:101480005B0001005A0001005900010058000100F2
:1014900057000100560001005500010054000100F2
:1014A00053000000530001005200010051000100F0
:1014B000500001004F0001004E0000004E000100EE
:1014C0004D0001004C0001004B0000004B000100EA
:1014D0004A000100490001004800000048000100E6
:1014E00047000100460000004600010045000000E2
:1014F00045000100440001004300000043000100DA
:1015000042000000420001004100000041000100D3
:10151000400001003F0000003F0001003E000000CD
:101520003E0001003D0000003D0001003C000000C5
:101530003C0000003C0001003B0000003B000100BB
:101540003A0000003A0001003900000039000100B3
:1015500038000000380000003800010037000000AB
:1015600037000100360000003600000036000100A0
:101570003500000035000000350001003400000097
:10158000340000003400010033000000330000008C
:101590003300010032000000320000003200010080
:1015A0003100000031000000310001003000000077
:1015B00030000000300001002F0000002F0000006C
:1015C0002F0000002F0001002E0000002E00000060
:1015D0002E0001002D0000002D0000002D00000055
:1015E0002D0001002C0000002C0000002C00000049
:1015F0002C0001002B0000002B0000002B0000003D
:101600002B0001002A0000002A0000002A00000030
:101610002A00010029000000290000002900000024
:101620002900000029000100280000002800000017
:10163000280000002800000028000100270000000A
:1016400027000000270000002700000027000100FD
:1016500026000000260000002600000026000000F2
:1016600026000100250000002500000025000000E4
:1016700025000000250000002500010024000000D6
:1016800024000000240000002400000024000100C9
:1016900023000000230000002300000023000000BE
:1016A00023000000230000002300010022000000AE
:1016B00022000000220000002200000022000000A2
:1016C0002200010021000000210000002100000094
:1016D0002100000021000000210000002100010085
:1016E000200000002000000020000000200000007A
:1016F0002000000020000000200000002000010069
:101700001F0000001F0000001F0000001F0000005D
:101710001F0000001F0000001F0001001E0000004D
:101720001E0000001E0000001E0000004572723AFC
:10173000204D415854454D50204245440054656D5C
:101740007065726174757265206865617465642086
:10175000626564207377697463686564206F666688
:101760002E204D415854454D50207472696767656D
:10177000726564202121004D494E20D09ED188D031
:10178000B8D0B1D0BAD0B020D182D0B5D180D0BC41
:10179000D0B8D181D182D0BED180003A20457874B2
:1017A0007275646572207377697463686564206F0D
:1017B00066662E204D494E54454D5020747269671F
:1017C00067657265642021004D415820D09ED18804
:1017D000D0B8D0B1D0BAD0B020D182D0B5D180D0DD
:1017E000BCD0B8D181D182D0BED180003A2045781A
:1017F00074727564657220737769746368656420B8
:101800006F66662E204D415854454D5020747269C4
:10181000676765726564202100544845524D414C0C
:101820002052554E41574159204500544845524D8C
:10183000414C2052554E4157415920424544005495
:101840006865726D616C2052756E617761792C20CC
:1018500073797374656D2073746F70706564212083
:101860004865617465725F49443A200050494420DC
:101870004175746F74756E652066696E697368650D
:1018800064212050757420746865206C6173742025
:101890004B702C204B6920616E64204B6420636F79
:1018A0006E7374616E74732066726F6D2061626F07
:1018B000766520696E746F20436F6E666967757216
:1018C0006174696F6E2E6800504944204175746FD1
:1018D00074756E65206661696C6564212074696D3C
:1018E000656F75740020403A006F6B20543A006FAA
:1018F0006B20423A00504944204175746F74756EF4
:1019000065206661696C6564212054656D7065723F
:10191000617475726520746F6F2068696768002054
:101920004B643A2000204B693A2000204B703A204B
:101930000020436C61737369632050494420002088
:1019400054753A2000204B753A2000206D61783A9A
:101950002000206D696E3A200020643A2000206249
:101960006961733A200070012C0190012701B001D8
:101970002201C0011D01F001180110021301300203
:101980000E016002090190020401C002FF00000381
:10199000FA004003F5008003F000D003EB002004C0
:1019A000E6007004E100E004DC004005D700C0055B
:1019B000D2004006CD00D006C8008007C300300822
:1019C000BE00F008B900C009B400B00AAF00B00B07
:1019D000AA00D00CA500000EA000500F9B00C01064
:1019E00096005012910000148C00C0158700B017AB
:1019F0008200B0197D00D01B7800001E73004020CB
:101A00006E0090226900F024640040275F00902956
:101A10005A00E02B5500102E500020304B001032A1
:101A20004600E033410090353C00103737007038F5
:101A30003200A0392D00B03A2800A03B2300603CC2
:101A40001E00103D1900903D1400103E0F00703E26
:101A50000A00C03E0500003F0000473238005344F2
:101A600020D0BAD0B0D180D182D0B020D0B8D0B7F9
:101A7000D0B2D0BBD0B5D187D0B5D0BDD0B0005397
:101A80004420D0BAD0B0D180D182D0B020D183D17F
:101A900081D182D0B0D0BDD0BED0B2D0BBD0B5D075
:101AA000BDD0B0004D33303020533639382050325D
:101AB0003030004D333030205336353920503230FD
:101AC00030002D2D3A2D2D002D2D2D0053440020BA
:101AD000200001200001200001200020D09FD0B074
:101AE000D181D182D0B000202000202A0020D09BBC
:101AF000D0B0D0B7D0B5D1800020D0BFD180D0BE7B
:101B0000D0B4D0BED0BBD0B6D0B5D0BDD0B8D18FB8
:101B100020D0BFD0B5D187D0B0D182D0B82000209E
:101B20002020D09DD0B0D0B6D0BCD0B8D182D0B516
:101B3000204F4B20D0B4D0BBD18F202020003C20A0
:101B4000D097D0B0D0BCD0B5D0BDD0B8D182D0B5B0
:101B500020D0BFD180D183D182D0BED0BA20203E48
:101B60000020D09DD0B0D0B6D0BCD0B8D182D0B5F6
:101B700020D0B4D0BBD18F20D0BFD0B5D187D0B0CA
:101B8000D182D0B820002020D097D0B0D0B3D1805F
:101B9000D183D0B7D0B8D182D0B520D0BFD180D139
:101BA00083D182D0BED0BA2120003CD09FD180D139
:101BB00083D182D0BED0BA20D0BDD0B520D0B7D08E
:101BC000B0D0B3D180D183D0B6D0B5D0BD3E003334
:101BD0002ED09DD0B0D0B6D0BCD0B8D182D0B52058
:101BE000D0B4D0BBD18F20D0BFD0B5D187D0B0D1A9
:101BF00082D0B800322ED097D0B0D0B3D180D1836C
:101C0000D0B7D0B8D182D0B520D0BFD180D183D1C8
:101C100082D0BED0BA202000312ED094D0BED0B613
:101C2000D0B4D0B8D182D0B5D181D18C20D0BDD0A4
:101C3000B0D0B3D180D0B5D0B2D0B0200020D0B2D7
:101C4000D0BAD0BBD18ED187D0B5D0BDD0B8D18FCE
:101C500020D0BDD0B0D0B3D180D0B5D0B2D0B021DB
:101C60002000202020D09DD0B0D0B6D0BCD0B8D19C
:101C700082D0B5204F4B20D0B4D0BBD18F202020B4
:101C8000003C20D0A0D0B0D181D188D0B8D180D0B4
:101C9000B5D0BDD0BDD0B0D18F20D09FD0B0D18332
:101CA000D0B7D0B03E0020D0B2D0BAD0BBD18ED108
:101CB00087D0B5D0BDD0B8D18F20D0BDD0B0D0B3F3
:101CC000D180D0B5D0B2D0B0212000202020D09D2E
:101CD000D0B0D0B6D0BCD0B8D182D0B5204F4B2038
:101CE000D0B4D0BBD18F202020003C2020D09CD06D
:101CF000BED0BDD0B8D182D0BED18020D0BFD180DF
:101D0000D183D182D0BAD0B020203E002020203C08
:101D100020D0BFD0BED0B4D0BED0B6D0B4D0B8D111
:101D200082D0B521203E202020002020203C20D041
:101D30009FD0BED0B6D0B0D0BBD183D0B9D181D1E5
:101D400082D0B0203E2020200020202D2D2D2D2DB2
:101D50002D2D2D2D2D2D2D2D2D2D2D2020003C20F8
:101D60002020D097D0B0D0BCD0B5D0BDD0B020D03E
:101D7000BFD180D183D182D0BAD0B020203E00D054
:101D800093D0BED182D0BED0B2D0BE202E2E20287D
:101D9000D0BDD0B0D0B6D0BCD0B8D182D0B529009B
:101DA000D0A1D0BCD0B5D189D0B5D0BDD0B8D0B538
:101DB00020D0BFD0BE20593A00D181D0BED0B2D001
:101DC000BCD0B5D181D182D0B8D182D0B520D1815B
:101DD00020D0BCD0B5D182D0BAD0BED0B92000209E
:101DE00020D092D180D0B0D189D0B0D18F20D180F5
:101DF000D183D187D0BAD183203C5E3E202000D051
:101E000094D0B0D0BBD0B5D0B5202E2E2E2028D067
:101E1000BDD0B0D0B6D0BCD0B8D182D0B52900D01A
:101E2000A1D0BCD0B5D189D0B5D0BDD0B8D0B52067
:101E3000D0BFD0BE20583A00D181D0BED0B2D0BCE5
:101E4000D0B5D181D182D0B8D182D0B520D1812076
:101E5000D0BCD0B5D182D0BAD0BED0B9200020201D
:101E6000D092D180D0B0D189D0B0D18F20D180D1C3
:101E700083D187D0BAD183203C2D3E202000D0943E
:101E8000D0B0D0BBD0B5D0B5202E2E2E2028D0BDBE
:101E9000D0B0D0B6D0BCD0B8D182D0B529002020E7
:101EA000D18120D0BFD0B5D180D0B2D18BD0BC20D1
:101EB000D181D0BED0BFD0BBD0BED0BC20200020AE
:101EC00020D0A1D0BED0B2D0BCD0B5D181D182D0EB
:101ED000B8D182D0B520D0BCD0B5D182D0BAD18310
:101EE000202000D09FD0BED0B6D0B0D0BBD183D000
:101EF000B9D181D182D0B020D0BFD0BED0B4D0BEB5
:101F0000D0B6D0B4D0B8D182D0B500203D20D18099
:101F1000D0B0D181D181D182D0BED18FD0BDD0B847
:101F2000D0B5205859203D20003C20D09AD0B0D0C8
:101F3000BBD0B8D0B1D180D0BED0B2D0BAD0B02052
:101F4000D181D0BED0BFD0B5D0BB203E00D0BFD055
:101F5000BBD0B0D181D182D0B8D0BA20D0B8D0B760
:101F600020D181D0BED0BFD0BBD0B0202E2E2E002D
:101F7000D09FD0BED182D18FD0BDD0B8D182D0B5C4
:101F800020D0B2D18BD182D0B5D0BAD0B0D18ED141
:101F900089D0B8D0B920003CD09FD180D183D182E4
:101FA000D0BED0BA20D0B7D0B0D0B3D180D183D0FA
:101FB000B6D0B0D0B5D182D181D18F3E003C3D208A
:101FC00020D097D0B0D0BCD0B5D0BDD0B020D0BF3D
:101FD000D180D183D182D0BAD0B0203D3E00D09EF6
:101FE000D09A20D0B4D0BBD18F20D0BDD0B0D18773
:101FF000D0B0D0BBD0B020D0BFD0BED0B4D0B0D144
:1020000087D0B800D0B220D18DD0BAD181D182D1C1
:1020100080D183D0B4D0B5D18020D0B4D0BE20D16F
:1020200083D0BFD0BED180D0B0002020D097D0B018
:10203000D0B3D180D183D0B7D0B8D182D0B520D0A1
:10204000BFD180D183D182D0BED0BA2020003C3D08
:102050002020D097D0B0D0BCD0B5D0BDD0B020D04B
:10206000BFD180D183D182D0BAD0B0203D3E0020F4
:1020700020D09ED09A20D0B4D0BBD18F20D0B7D062
:10208000B0D0B2D0B5D180D188D0B5D0BDD0B8D184
:102090008F200020D0BFD180D183D182D0BED0BAD2
:1020A00020D0B220D18DD0BAD181D182D180D1833C
:1020B000D0B4D0B5D18020002020D097D0B0D0B3FC
:1020C000D180D183D0B7D0B8D182D0B520D0BDD007
:1020D000BED0B2D18BD0B9202020003C3D2020D0F2
:1020E00097D0B0D0BCD0B5D0BDD0B020D0BFD180BB
:1020F000D183D182D0BAD0B0203D3E00D09FD0BE97
:10210000D0B6D0B0D0BBD183D0B9D181D182D0B03C
:1021100020D0BFD0BED0B4D0BED0B6D0B4D0B8D10D
:1021200082D0B50001200020D182D0B5D0BCD0BF74
:10213000D0B5D180D0B0D182D183D180D0B03A2077
:102140000020D0BDD0B0D0B3D180D0B5D0B220D196
:102150008DD0BAD181D182D180D183D0B4D0B5D144
:1021600080D0B0202000203E00320031003C20D042
:1021700097D0B0D0BCD0B5D0BDD0B020D0BFD1802A
:10218000D183D182D0BAD0B02000D09FD0BED0B4FD
:10219000D0B0D187D0B0203220D18DD0BAD181D16A
:1021A0008200D09FD0BED0B4D0B0D187D0B0203282
:1021B00020D18DD0BAD181D18200D09FD0BED0B4F1
:1021C000D0B0D187D0B0203120D18DD0BAD181D13B
:1021D0008200D09FD0BED0B4D0B0D187D0B0203153
:1021E00020D18DD0BAD181D18200D09ED0B1D0B4CF
:1021F000D183D0B220D0BCD0BED0B4D0B5D0BBD06B
:10220000B800D09ED0B1D0B4D183D0B220D0BCD051
:10221000BED0B4D0B5D0BBD0B8003D20D0A1D182C3
:10222000D0BED0BB207401003D20D0A1D182D0BE51
:10223000D0BB207401000220D0ADD0BAD181D182B0
:10224000D180D183D0B4D0B5D1802D32207401009B
:102250000220D0ADD0BAD181D182D180D183D0B487
:10226000D0B5D1802D32207401000220D0ADD0BA7B
:10227000D181D182D180D183D0B4D0B5D180207426
:1022800001000220D0ADD0BAD181D182D180D183DA
:10229000D0B4D0B5D18020740100D0A1D0BAD0BEC6
:1022A000D180D0BED181D182D18C00D0A1D0BAD082
:1022B000BED180D0BED181D182D18C00D0A1D0BA84
:1022C000D0BED180D0BED181D182D0BDD0BED0B958
:1022D00020D180D0B5D0B6D0B8D0BC00D09CD0B57D
:1022E000D0BDD18E00580059005A004578747275DF
:1022F00064657200D0ADD0BAD181D182D180D18352
:10230000D0B4D0B5D18000D094D0B2D0B8D0B6D0AF
:10231000B5D0BDD0B8D0B520D0BFD0BE20D0BED1B2
:1023200081D0B8205A00D094D0B2D0B8D0B6D0B5B1
:10233000D0BDD0B8D0B520D0BFD0BE20D0BED181C6
:10234000D0B8205900D094D0B2D0B8D0B6D0B5D043
:10235000BDD0B8D0B520D0BFD0BE20D0BED181D0A6
:10236000B8205800D094D0B2D0B8D0B6D0B5D0BD37
:10237000D0B8D0B520D0BFD0BE20D0BED181D18FB3
:10238000D0BC00D0A1D0B4D0B2D0B8D0BDD183D110
:1023900082D18C20D0BDD0B020302E316D6D00D0D8
:1023A000A1D0B4D0B2D0B8D0BDD183D182D18C204D
:1023B000D0BDD0B0202031206D6D00D0A1D0B4D0E0
:1023C000B2D0B8D0BDD183D182D18C20D0BDD0B015
:1023D000203130206D6D00D0A3D0BFD180D0B0D0DF
:1023E000B2D0BBD0B5D0BDD0B8D0B500D097D0B0AA
:1023F000D0BFD0BED0BCD0BDD0B8D182D18C20D07F
:10240000BDD0BED0BBD18C00D094D0B2D0B8D0B6A5
:10241000D0B5D0BDD0B8D0B520D0BFD0BE20D0BEB2
:10242000D181D18FD0BC00D092D18BD0BAD0BBD1CA
:102430008ED187D0B8D182D18C20D0BDD0B0D0B3CE
:10244000D180D0B5D0B20047323800D09FD0B0D1C3
:1024500080D0BAD0BED0B2D0BAD0B020D0BAD0B02E
:10246000D180D0B5D182D0BAD0B8004D383400D0A8
:1024700092D18BD0BAD0BB2E20D0B4D0B2D0B8D0AD
:10248000B3D0B0D182D0B5D0BBD0B800D09CD0B53D
:10249000D0BDD18E00D09ED0B1D0B4D183D0B220E7
:1024A000D0BCD0BED0B4D0B5D0BBD0B800D09ED0B8
:1024B000B1D0B4D183D0B220D0BCD0BED0B4D0B5CE
:1024C000D0BBD0B8003D20D0A1D182D0BED0BB209F
:1024D0007401003D20D0A1D182D0BED0BB207401B8
:1024E000000220D0ADD0BAD181D182D180D183D0A9
:1024F000B4D0B5D1802D32207401000220D0ADD0EF
:10250000BAD181D182D180D183D0B4D0B5D1802D40
:1025100032207401000220D0ADD0BAD181D182D155
:1025200080D183D0B4D0B5D180207401000220D0F6
:10253000ADD0BAD181D182D180D183D0B4D0B5D140
:102540008020740100D09DD0B0D181D182D180D0C3
:10255000BED0B8D182D18C20D0BFD180D0B8D0BD70
:10256000D182D0B5D18000D097D0B0D0BFD0B8D173
:1025700081D18C20D0BDD0B0D181D182D180D0BECC
:10258000D0B5D0BA00D0A1D0BCD0B5D189D0B5D00B
:10259000BDD0B8D0B5205900D0A1D0BCD0B5D1891C
:1025A000D0B5D0BDD0B8D0B5205900D0A1D0BCD0C6
:1025B000B5D189D0B5D0BDD0B8D0B520D0A500D088
:1025C000A1D0BCD0B5D189D0B5D0BDD0B8D0B520C0
:1025D000D0A500D09AD0B0D0BBD0B8D0B1D180D0E7
:1025E000BED0B2D0BAD0B020D181D0BED0BFD0B58D
:1025F000D0BB00D09DD0B0D181D182D180D0BED00F
:10260000B8D182D18C20D0BFD180D0B8D0BDD182FA
:10261000D0B5D180004520204A65726B004520204E
:102620004A65726B005A20204A65726B005A20205E
:102630004A65726B005859204A65726B00585920E0
:102640004A65726B00D0A3D181D0BAD0BED180D000
:10265000B5D0BDD0B8D0B500D0A3D181D0BAD0BE4E
:10266000D180D0B5D0BDD0B8D0B500D09DD0B0D13C
:1026700081D182D180D0BED0B8D182D18C20D0BFC0
:10268000D180D0B8D0BDD182D0B5D18000D092D188
:102690008BD0BAD0BB00D092D0BAD0BB00D092D1F0
:1026A0008BD0BAD0BB00D092D0BAD0BB00D09FD0D4
:1026B000B0D181D182D0B020465200D092D18BD0FF
:1026C000BAD0BB00D092D0BAD0BB00D092D18BD0C0
:1026D000BAD0BB00D092D0BAD0BB00D09FD0B0D17E
:1026E00081D182D0B02044495200D09FD180D0B84F
:1026F000D181D182D0B0D0B2D0BAD0B020D09FD0CA
:10270000B0D181D182D0B000D092D18BD0BAD0BB21
:1027100000D092D0BAD0BB00D092D18BD0BAD0BB6F
:1027200000D092D0BAD0BB00D0A2D0B5D181D18296
:1027300000D092D18BD0BAD0BB00D092D0BAD0BB4F
:1027400000D092D18BD0BAD0BB00D092D0BAD0BB3F
:1027500000D09BD0B0D0B7D0B5D18000D09BD0B046
:10276000D0B7D0B5D180D0BDD0B0D18F20D0B3D02C
:10277000BED0BBD0BED0B2D0BAD0B000D09BD0B00B
:10278000D0B7D0B5D180D0BDD0B0D18F20D0B3D00C
:10279000BED0BBD0BED0B2D0BAD0B000D09FD18016
:1027A000D0B8D181D182D0B0D0B2D0BAD0B020D000
:1027B0009FD0B0D181D182D0B000D094D0BED0BF54
:1027C000D0BED0BBD0BDD0B5D0BDD0B8D18F204DFC
:1027D00061676E756D00D0A1D0B1D180D0BED181BE
:1027E00020D0BDD0B0D181D182D180D0BED0B5D0E3
:1027F000BA00D0A7D182D0B5D0BDD0B8D0B520D046
:10280000BDD0B0D181D182D180D0BED0B5D0BA00F8
:10281000D097D0B0D0BFD0B8D181D18C20D0BDD08E
:10282000B0D181D182D180D0BED0B5D0BA00D09401
:10283000D0BED0BFD0BED0BBD0BDD0B5D0BDD0B83B
:10284000D18F204D61676E756D00D0A1D0BAD0BE1A
:10285000D180D0BED181D182D0BDD0BED0B920D15F
:1028600080D0B5D0B6D0B8D0BC00D0ADD0BAD18170
:10287000D182D180D183D0B4D0B5D18000D09DD0C9
:10288000B0D0B3D180D0B5D0B220D0B820D0BED097
:10289000B1D0B4D183D0B200D09CD0B5D0BDD18E50
:1028A000004D383420582059205A2045004D3234EC
:1028B000004D323320257300052E2E004D3231009D
:1028C000040420D0BED0B1D0BDD0BED0B2D0B8D1DB
:1028D00082D18C20040400D09CD0B5D0BDD18E0014
:1028E000D09DD0B5D18220534420D0BAD0B0D18071
:1028F000D182D18B00D09CD0B5D0BDD18E20534495
:1029000020D0BAD0B0D180D182D18B00D09FD180DD
:10291000D0B5D0BAD180D0B0D182D0B8D182D18C4C
:1029200020D0BFD0B5D187D0B0D182D18C00D09F7C
:10293000D180D0BED0B4D0BED0BBD0B6D0B8D182BA
:10294000D18C20D0BFD0B5D187D0B0D182D18C006E
:10295000D09FD0B0D183D0B7D0B020D0BFD0B5D128
:1029600087D0B0D182D0B800D0A0D0B0D181D188EA
:10297000D0B8D180D0B5D0BDD0BDD0B0D18F20D00F
:10298000BFD0B0D183D0B7D0B000D097D0B0D0BC3A
:10299000D0B5D0BDD0B8D182D18C20D0BFD0BBD0E3
:1029A000B0D181D182D0B8D0BA00D09DD0B0D18181
:1029B000D182D180D0BED0B8D182D18C20D0BFD12D
:1029C00080D0B8D0BDD182D0B5D18000D0A3D0BF47
:1029D000D180D0B0D0B2D0BBD0B5D0BDD0B8D0B5FA
:1029E00000D09FD0BED0B4D181D182D180D0BED012
:1029F000B9D0BAD0B020D0BFD0B5D187D0B0D182B5
:102A0000D0B800D092D18BD185D0BED0B420D0B870
:102A1000D0B720D0BCD0B5D0BDD18E0001290229BD
:102A2000042908291029202940298029012C022C59
:102A30000126022604260826102620264026802667
:102A4000402C802C0123022304230823102320235D
:102A50004023802301200220042008201020202071
:102A600040208020102C202C012F022F042F082F13
:102A7000102F202F402F802F7EFE7EFD7EFB7EF7C5
:102A80007EEF7EDF7EBF7E7F00010000392B1200CB
:102A9000020000F62A4300030000F22A04010309A1
:102AA00004D82A1802030904C02A1603030904B231
:102AB0002A0C0C03310032003300340035000000D2
:102AC00016035500530042002000530065007200B9
:102AD000690061006C000000180354006500650087
:102AE0006E00730079006400750069006E006F006D
:102AF00000000403090409024300020100C0320976
:102B00000400000102020100052400100105240157
:102B100000010424020605240600010705820308BB
:102B2000004009040100020A0000000705030240FA
:102B300000000705840240000012010002020000AC
:102B400020C01683040001010203010001C102013B
:102B500080360181364E414E494E495459494E46C0
:102B6000CDCCCC3D0AD7233C17B7D13877CC2B320C
:102B70009595E6241FB14F0A000020410000C8428D
:102B800000401C4620BCBE4CCA1B0E5AAEC59D74EC
:102B9000732B2D872DA3D9CC67D7772B11241FBE7C
:102BA000CFEFD0E2DEBFCDBF15E0A0E0B1E0E6EBB5
:102BB000F5EC01E00BBF02C007900D92A834B107FD
:102BC000D9F723E1A8E4B5E001C01D92AA3DB20700
:102BD000E1F715E1CDECD5E104C02197FE010E949B
:102BE00064DCC83CD107C9F70E9497D50C94CFE2AA
:102BF0000C940000FB0101900020E9F73197AF0130
:102C0000461B570BDC01ED91FC910280F381E02D16
:102C10000994CF93DF931F92CDB7DEB76983DC01B0
:102C2000ED91FC910280F381E02D41E050E0BE0186
:102C30006F5F7F4F09950F90DF91CF910895EF92CD
:102C4000FF921F93CF93DF937C01C62FD72F142FB2
:102C5000160F6991F701808191810E94C1E2F7010D
:102C6000808191810196918380831C13F2CFDF9143
:102C7000CF911F91FF90EF900895EF92FF921F93D5
:102C8000CF93DF937C01C62FD72F142F160FF70198
:102C9000808191810E94B9E28993F70180819181BD
:102CA0000196918380831C13F2CFDF91CF911F9106
:102CB000FF90EF9008950F931F93CF93DF93CDB7BD
:102CC000DEB72C970FB6F894DEBF0FBECDBF80E302
:102CD00090E3A0E3B0E08D839E83AF83B88704E6E2
:102CE00010E01C870B8744E0BE016B5F7F4FCE0175
:102CF0000B96A5DF40E162E471E1CE010B969FDF08
:102D000040E162E571E1CE010B9699DF40E162E3BB
:102D100071E1CE010B9693DF44E06AE271E1CE01EE
:102D20000B968DDF44E066E271E1CE010B9687DF02
:102D300044E06EE271E1CE010B9681DF44E066E192
:102D400071E1CE010B967BDF44E062E671E1CE01DA
:102D50000B9675DF44E062E271E1CE010B966FDF06
:102D600044E06EE171E1CE010B9669DF44E06AE177
:102D700071E1CE010B9663DF4CE062E577E0CE01B6
:102D80000B965DDF42E061E073E1CE010B9657DF09
:102D900042E06FEF72E1CE010B9651DF42E06DEF42
:102DA00072E1CE010B964BDF42E06BEF72E1CE0198
:102DB0000B9645DF42E069EF72E1CE010B963FDFF3
:102DC00042E067EF72E1CE010B9639DF44E06FE33A
:102DD00077E0CE010B9633DF44E062E971E0CE018B
:102DE0000B962DDF44E06EE871E0CE010B9627DFF5
:102DF00044E06AE871E0CE010B9621DF80E290E0CA
:102E00009A87898742E0BE01675F7F4FCE010B96AC
:102E100016DF41E06EE677E0CE010B9610DF44E06E
:102E20006BE371E0CE010B960ADF44E06FE371E0E3
:102E3000CE010B9604DF44E063E171E0CE010B9616
:102E4000FEDE44E06BE171E0CE010B96F8DE86E534
:102E500091E3A5E3B0E089839A83AB83BC831C87AD
:102E60000B8744E0BE016F5F7F4FCE010B96E7DE1C
:102E7000EEE7FCE064918F01662341F08EEC93E174
:102E8000C8DE0F5F1F4FF8016491F6CFE6E6F3E06E
:102E900064918F01662341F08EEC93E1BADE0F5FFF
:102EA0001F4FF8016491F6CF6AE08EEC93E1B1DE3A
:102EB0002C960FB6F894DEBF0FBECDBFDF91CF9139
:102EC0001F910F9108950F931F93CF93DF93CEE738
:102ED000DCE0FE0164918E01662341F08EEC93E10B
:102EE00098DE0F5F1F4FF8016491F6CFE6E5F3E03F
:102EF00064918F01662341F08EEC93E18ADE0F5FCF
:102F00001F4FF8016491F6CF6AE08EEC93E181DE09
:102F1000FE0164910EE71CE0662341F08EEC93E124
:102F200078DE0F5F1F4FF8016491F6CF4091421198
:102F30005091431160914411709145118EE493E0DA
:102F40000E94102240914611509147116091481102
:102F5000709149118BE493E00E94102240914A1134
:102F600050914B1160914C1170914D1188E493E098
:102F70000E94102240914E1150914F1160915011BA
:102F80007091511185E493E00E94102266E175E092
:102F90008EEC93E12FDE6AE08EEC93E13ADEFE01E7
:102FA00064910EE71CE0662341F08EEC93E131DE84
:102FB0000F5F1F4FF8016491F6CFEDE2F3E06491EB
:102FC0008F01662341F08EEC93E123DE0F5F1F4FEC
:102FD000F8016491F6CF6AE08EEC93E11ADE40913D
:102FE000130150911401609115017091160181E255
:102FF00093E00E94102240911B0150911C016091AE
:103000001D0170911E0185E193E00E941022FE01D6
:1030100064910EE71CE0662341F08EEC93E1F9DD4C
:103020000F5F1F4FF8016491F6CFEBEFF2E0649170
:103030008F01662341F08EEC93E1EBDD0F5F1F4FB4
:10304000F8016491F6CF6AE08EEC93E1E2DDFE01D7
:1030500064910EE71CE0662341F08EEC93E1D9DD2C
:103060000F5F1F4FF8016491F6CF409152115091BC
:103070005311609154117091551182EF92E00E94AA
:103080001022409156115091571160915811709132
:1030900059118FEE92E00E94102240915A115091E6
:1030A0005B1160915C1170915D118CEE92E00E9459
:1030B000102240915E1150915F11609160117091EA
:1030C000611189EE92E00E94102266E175E08EECBB
:1030D00093E190DD6AE08EEC93E19BDDFE0164916B
:1030E0000EE71CE0662341F08EEC93E192DD0F5F6A
:1030F0001F4FF8016491F6CFEBECF2E064918F0181
:10310000662341F08EEC93E184DD0F5F1F4FF801E1
:103110006491F6CF6AE08EEC93E17BDDFE01649171
:103120000EE71CE0662341F08EEC93E172DD0F5F49
:103130001F4FF8016491F6CF409132115091331135
:10314000609134117091351182EC92E00E9450220E
:1031500040913611509137116091381170913911A9
:103160008FEB92E00E94502240913A1150913B1116
:1031700060913C1170913D118CEB92E00E945022C5
:1031800040913E1150913F11609140117091411159
:1031900089EB92E00E94502266E175E08EEC93E1AB
:1031A00029DD6AE08EEC93E134DDFE0164910EE7E7
:1031B0001CE0662341F08EEC93E12BDD0F5F1F4F87
:1031C000F8016491F6CFE4E8F2E064918F016623A0
:1031D00041F08EEC93E11DDD0F5F1F4FF80164910C
:1031E000F6CF6AE08EEC93E114DDFE0164910EE708
:1031F0001CE0662341F08EEC93E10BDD0F5F1F4F67
:10320000F8016491F6CF40912A1150912B116091F1
:103210002C1170912D118BE792E00E9410224091A9
:10322000261150912711609128117091291188E77A
:1032300092E00E94102266E175E08EEC93E1DADC08
:103240006AE08EEC93E1E5DCFE0164910EE71CE0A0
:10325000662341F08EEC93E1DCDC0F5F1F4FF80139
:103260006491F6CFE5ECF1E064918F01662341F0C3
:103270008EEC93E1CEDC0F5F1F4FF8016491F6CF27
:103280006AE08EEC93E1C5DCFE0164910EE71CE080
:10329000662341F08EEC93E1BCDC0F5F1F4FF80119
:1032A0006491F6CF40912E1150912F116091301101
:1032B000709131118CEB91E00E9410224091161117
:1032C00050911711609118117091191189EB91E0CB
:1032D0000E9410224091621150916311609164111B
:1032E0007091651186EB91E00E945022409122116D
:1032F00050912311609124117091251183EB91E07D
:103300000E94102240911E1150911F1160912011B6
:103310007091211180EB91E00E94102240911A11CE
:1033200050911B1160911C1170911D118DEA91E05B
:103330000E94102266E175E08EEC93E15BDC6AE0AE
:103340008EEC93E166DCFE0164910EE71CE06623DF
:1033500041F08EEC93E15DDC0F5F1F4FF80164914B
:10336000F6CFEBE9F1E064918F01662341F08EEC3A
:1033700093E14FDC0F5F1F4FF8016491F6CF6AE0D5
:103380008EEC93E146DCFE0164910EE71CE06623BF
:1033900041F08EEC93E13DDC0F5F1F4FF80164912B
:1033A000F6CF4091520750915307609154077091A6
:1033B000550782E991E00E941022409156075091F2
:1033C000570760915807709159078FE891E00E9464
:1033D000102240915A0750915B0760915C077091F1
:1033E0005D078CE891E00E94102266E175E08EECAA
:1033F00093E100DC6AE08EEC93E10BDCFE0164916A
:103400000EE71CE0662341F08EEC93E102DC0F5FD7
:103410001F4FF8016491F6CFEEE7F1E064918F0160
:10342000662341F08EEC93E1F4DB0F5F1F4FF80150
:103430006491F6CF6AE08EEC93E1EBDBFE016491E0
:10344000CEE7DCE0662339F08EEC93E1E2DB2196F7
:10345000FE016491F7CF40919201509193016091E8
:1034600094017091950184E791E0DAD760918E0123
:1034700070918F0180919001909191010E948896A6
:10348000AB01BC0181E791E0CBD760918A017091DB
:103490008B0180918C0190918D010E949496AB01DB
:1034A000BC018EE691E0BCD766E175E08EEC93E15D
:1034B000A1DB6AE08EEC93E1DF91CF911F910F9138
:1034C000A8CBAF92BF92CF92DF92EF92FF920F9371
:1034D0001F93CF93DF93CDB7DEB7E0970FB6F89485
:1034E000DEBF0FBECDBF80E1E9ECF1E0DE019196D9
:1034F00001900D928A95E1F780E1E9EDF1E0DE01BE
:10350000519601900D928A95E1F780E1E9EEF1E0A4
:10351000DE01119601900D928A95E1F7DE019196F8
:1035200062E471E1AE014F5E5F4F22E531E1CE0111
:1035300001965C0182E391E18E010F5C1F4FCD90FB
:10354000DD90ED90FD90FB01C192D192E192F1925C
:10355000BF01FA01C190D190E190F190AF01F90162
:10356000C192D192E192F1929F01F501C190D19067
:10357000E190F1905F01FC01C192D192E192F19250
:10358000CF01A017B107D9F60E942D7D80E090E011
:10359000AAE7B4E480932A1190932B11A0932C11E5
:1035A000B0932D1180E090E8ABE3B5E48093261151
:1035B00090932711A0932811B093291110922E11E6
:1035C00010922F11109230111092311180E29EE46E
:1035D000A0E0B0E08093621190936311A093641116
:1035E000B0936511109216111092171110921811C4
:1035F0001092191180E090E0A0EAB0E480932211CB
:1036000090932311A0932411B09325114DEC5CEC01
:103610006CEC7EE340931E1150931F1160932011B8
:103620007093211180931A1190931B11A0931C1178
:10363000B0931D1110925A0710925B0710925C070D
:1036400010925D0710925607109257071092580774
:103650001092590710925207109253071092540774
:103660001092550786E990E090930213809301131E
:1036700081E490E0909300138093FF121092FE1269
:103680001092FD1288EC90E09093FC128093FB1254
:1036900089E690E09093FA128093F9121092F81252
:1036A0001092F71280E090E0A0E4B1E480939201E0
:1036B00090939301A0939401B09395016DEC7CECF1
:1036C0008CE49FE30E94829660938E0170938F0139
:1036D000809390019093910160E070E082E392E426
:1036E0000E948E9660938A0170938B0180938C0167
:1036F00090938D010E94FB8886E696E6A6EABFE3DA
:103700008093860190938701A0938801B0938901EB
:1037100010926E0780E090E0A0E4B0E480933B015B
:1037200090933C01A0933D01B0933E0180933F01F3
:1037300090934001A0934101B09342010E944C2A12
:10374000EEE7FCE064918F01662341F08EEC93E19B
:1037500060DA0F5F1F4FF8016491F6CFE2E3F1E00A
:1037600064918F01662341F08EEC93E152DA0F5F92
:103770001F4FF8016491F6CF6AE08EEC93E1E0967A
:103780000FB6F894DEBF0FBECDBFDF91CF911F9172
:103790000F91FF90EF90DF90CF90BF90AF9039CA1C
:1037A0000F931F93CF93DF93CDB7DEB72C970FB650
:1037B000F894DEBF0FBECDBF84E690E09C878B8778
:1037C00086E591E3A5E3B0E089839A83AB83BC836C
:1037D00044E0BE016B5F7F4FCE010B964EDA43E0B3
:1037E00050E0BE016B5F7F4FCE0101960E94D0DF9B
:1037F000892B09F0D0C040E162E471E1CE010B9663
:103800003CDA40E162E571E1CE010B9636DA40E147
:1038100062E371E1CE010B9630DA0E942D7D44E027
:103820006AE271E1CE010B9628DA44E066E271E1CA
:10383000CE010B9622DA44E06EE271E1CE010B96E6
:103840001CDA44E066E171E1CE010B9616DA44E041
:1038500062E671E1CE010B9610DA44E062E271E1BA
:10386000CE010B960ADA44E06EE171E1CE010B96CF
:1038700004DA44E06AE171E1CE010B96FED94CE036
:1038800062E577E0CE010B96F8D942E061E073E1A2
:10389000CE010B96F2D942E06FEF72E1CE010B96AA
:1038A000ECD942E06DEF72E1CE010B96E6D942E031
:1038B0006BEF72E1CE010B96E0D942E069EF72E165
:1038C000CE010B96DAD942E067EF72E1CE010B969A
:1038D000D4D944E06FE377E0CE010B96CED944E033
:1038E00062E971E0CE010B96C8D944E06EE871E060
:1038F000CE010B96C2D944E06AE871E0CE010B9686
:10390000BCD942E0BE01675F7F4FCE010B96B5D9AF
:1039100041E06EE677E0CE010B96AFD944E06BE371
:1039200071E0CE010B96A9D944E06FE371E0CE01BE
:103930000B96A3D944E063E171E0CE010B969DD9CB
:1039400044E06BE171E0CE010B9697D90E944C2ABE
:103950000E94FB88EEE7FCE064918F01662341F052
:103960008EEC93E156D90F5F1F4FF8016491F6CFAB
:10397000E4E5F1E064918F01662341F08EEC93E180
:1039800048D90F5F1F4FF8016491F6CF6AE08EECC3
:1039900093E13FD901C095DD96DA2C960FB6F894E5
:1039A000DEBF0FBECDBFDF91CF911F910F91089564
:1039B000FC01858190E0FC010E94DFCF24E0322FE2
:1039C0003150F1F7FC010E94D9CF2150F1F7FC01F1
:1039D0000E94DFCF80E991E00197F1F708958F927F
:1039E0009F92AF92BF92CF92DF92EF92FF920F938E
:1039F0001F93CF93DF935C017C0126E0E20EF11C64
:103A0000C0E0D0E0042F10E0C62ED12CC017D107A3
:103A1000B4F44701D7018D917D010E9430CFD401CC
:103A2000EC91F0E0C6010C2E02C0959587950A94A2
:103A3000E2F78170082E0E94D6CF2196E7CFC5010C
:103A4000DF91CF911F910F91FF90EF90DF90CF907A
:103A5000BF90AF909F908F90ABCF1F93CF93DF938A
:103A6000DC011396EC911397F0E0042E0E94D6CF60
:103A70001496EC91EF3F19F0F0E00E94DFCFFC01CB
:103A8000268524FF02C048E00EC0162FEC0170E02E
:103A900084E0759567958A95E1F744E0CF019FDF53
:103AA00044E0612FCE01DF91CF911F9198CF40E08C
:103AB000D4CF61E0FCDF80E49FE10197F1F7089546
:103AC000CF93DF93CDB7DEB728970FB6F894DEBF5C
:103AD0000FBECDBF9C0188E0E9EFF1E0DE01119659
:103AE00001900D928A95E1F7F9018289481710F04B
:103AF0004FEF480FFE013196E40FF11DE40FF11D69
:103B00009081690F6068C90128960FB6F894DEBFEE
:103B10000FBECDBFDF91CF91CACFFC016785262FA5
:103B2000246027876C60C3CFCF92DF92EF92FF9221
:103B30000F931F93CF93DF9300D0CDB7DEB78C01E7
:103B4000677088E0689FB00111246064C8014983F0
:103B50005A83ADDF4981C42E5A81D52E7601A8E063
:103B6000EA0EF11CF60161916F01D801ED91FC9113
:103B70000190F081E02DC8010995CE14DF0491F782
:103B80000F900F90DF91CF911F910F91FF90EF90C9
:103B9000DF90CF9008950F931F93CF93DF93EC01A5
:103BA000423018F08E8588608E874A8B1B8A2223CC
:103BB00029F0413019F48E8584608E8780E49DE081
:103BC0000197F1F7EB81F0E00E94DFCFED81F0E0AB
:103BD0000E94DFCFEC81EF3F19F0F0E00E94DFCFD1
:103BE0006E8564FD1DC044E063E0CE01F8DE00E5B3
:103BF00016E4C8010197F1F744E063E0CE01EFDE7F
:103C0000C8010197F1F744E063E0CE01E8DE88E502
:103C100092E00197F1F744E062E0CE01E0DE13C0EC
:103C20006062CE0144DF80E596E40197F1F76E858E
:103C30006062CE013CDF88E592E00197F1F76E8586
:103C40006062CE0134DF6E856062CE0130DF84E0D9
:103C50008F87CE0162DFCE012CDF82E0888B66E0A9
:103C6000CE01DF91CF911F910F9121CF6F927F9263
:103C70008F92AF92CF92EF920F931F93CF93DF93D8
:103C8000CDB7DEB73C01162F842F5D854E853F856D
:103C90009889F301838324830583E682C782A08603
:103CA000818652874387348795870E9430CFF301FE
:103CB00084818F3F11F00E9430CFF30185810E94F3
:103CC00030CF112319F0F301168603C080E1F30110
:103CD000868720E041E060E1C301DF91CF911F9131
:103CE0000F91EF90CF90AF908F907F906F9053CFC8
:103CF0008F92AF92CF92EF920F93DC0112961C92AB
:103D00001297EDE3F3E0ED93FC931F921F921F9245
:103D10001F928C2CAE2CC02EE22E042F2FEF462F9C
:103D200061E0A4DF0F900F900F900F900F91EF9034
:103D3000CF90AF908F900895AF92BF92CF92DF92C5
:103D4000EF92FF920F931F93CF93DF936C018C013F
:103D50000A5F1F4F5801E12CF12CC62FD0E0EC1662
:103D6000FD064CF4F50181915F010E94ACCFFFEF9D
:103D7000EF1AFF0AF4CFF601258130E0F9010E9425
:103D8000DFCF84E0982F9150F1F7F9010E94D9CF4D
:103D90008150F1F740E050E080E0A1E0B0E04C1746
:103DA0005D07B4F4F80191918F01E92FF0E00E94D2
:103DB000D2D0E13039F4BD01042E01C0660F0A945F
:103DC000EAF702C060E070E0862B4F5F5F4FE7CFFD
:103DD000F9010E94DFCFDF91CF911F910F91FF90EA
:103DE000EF90DF90CF90BF90AF9008951F93CF9347
:103DF000DF93DC011396EC911397F0E0062E0E94FE
:103E0000D6CF1496EC91EF3F19F0F0E00E94D9CF95
:103E1000FC01268524FF05C068E0DF91CF911F914A
:103E20008BCFEC0164E088DF182F1295107F64E0DF
:103E3000CE0182DF812BDF91CF911F9108950F93E7
:103E40001F93CF938C01C62FDC0154968C91813047
:103E500069F460E0C801CADF8F7798EF980F9C3053
:103E600028F4885C682F6068C80121DEC7FF24C081
:103E7000C03C20F0C05DF801C58B22C0CF73D801D3
:103E80005596EC91E11105C0C13051F441E062EA70
:103E900015C0E13029F4C13119F441E065EB0EC0E1
:103EA000B0E4EB9FF00111247097EC0FF11DEA587C
:103EB000FC4F649141E002C041E06C2FC801CDDDB0
:103EC00081E090E0CF911F910F910895FC016591E1
:103ED00075918591949108952F923F924F925F92A0
:103EE0006F927F928F929F92AF92BF92CF92DF920A
:103EF000EF92FF920F931F93CF93DF9300D000D0E8
:103F000000D0CDB7DEB71C01FC01E15CF34FB490EB
:103F10009C01220F331F220F331F3E832D83225A11
:103F2000384F4901F90110821182128213822AE668
:103F300037E046E657E062E677E08EE597E00E94DC
:103F4000797C8D819E81825B934FC0DF6B017C0108
:103F50006B2DBB0C770B880B990B0E94F7D82B01AC
:103F60003C012D813E81255D384F590120E030E034
:103F700040EC5FE3C701B6010E942ADBA301920176
:103F80000E942ADBF50160837183828393832D81F4
:103F90003E81255B3E4F3C832B83F901608171811B
:103FA000828193816093090170930A0180930B01D0
:103FB00090930C0120E030E040E752E40E945CD88E
:103FC0002EE3C22E27E0D22E7B018C0127E337E0BF
:103FD00043E357E06FE277E08BE297E00E944272A2
:103FE0000E942585F40110821182128213822AE632
:103FF00037E046E657E062E677E08EE597E00E941C
:10400000797C2D813E812E5B334F3A832983C90110
:104010005DDF9058A30192010E942ADBF5016083C5
:1040200071838283938320E030E040E752E4609123
:10403000090170910A0180910B0190910C010E947D
:104040005CD87B018C0127E337E043E357E06FE264
:1040500077E08BE297E00E9442720E942585898179
:104060009A8134DF9B01AC010E947CD7A3019201AD
:104070000E942ADBF501608371838283938320E0B1
:1040800030E040E05FE3EB81FC81608171818281FF
:1040900093810E942ADB6093090170930A01809347
:1040A0000B0190930C0120E030E040E752E40E94C5
:1040B0005CD87B018C0127E337E043E357E06FE2F4
:1040C00077E08BE297E00E9442720E9425858D8105
:1040D0009E81865A934FFADE0D811E810E5A184F2B
:1040E000F80120813181428153810E947CD7F40103
:1040F00060837183828393838D819E818E58934FD9
:10410000E5DE2D813E812A5B384F7901F80120815F
:104110003181428153810E947CD7F7016083718392
:10412000828393838D819E818A59934FCFDE2D8127
:104130003E81295D3E4F7901F80120813181428124
:1041400053810E947CD7F7016083718382839383BC
:10415000F40180819181A281B381F50180839183F3
:10416000A283B3831092090110920A0110920B01ED
:1041700010920C010E94307EF101ED5BF84F81E05E
:10418000808326960FB6F894DEBF0FBECDBFDF91B9
:10419000CF911F910F91FF90EF90DF90CF90BF9044
:1041A000AF909F908F907F906F905F904F903F90D7
:1041B0002F900895AB01770F660B770B0C94E8D422
:1041C0000C94F5D4AF92BF92CF92DF92EF92FF9210
:1041D0000F931F93CF93DF93CDB7DEB7E0970FB662
:1041E000F894DEBF0FBECDBF8091F9098E010F5D3F
:1041F0001F4F811105C08091F809882309F468C018
:1042000060E070E0CB010E94247D8BEA9AEAA6E28E
:10421000B5E480934E1190934F11A0935011B09339
:10422000511180E1E1E0F2E0DE01519601900D9242
:104230008A95E1F780E1E1E1F2E0DE01119601907B
:104240000D928A95E1F7DE01519622E531E1CE012A
:1042500001967C0182E391E14D915D916D917D919B
:10426000F90141935193619371939F01F70141913A
:104270005191619171917F01FC014193519361933F
:104280007193CF01A017B10739F70E942D7D80E00F
:1042900090E0A8E4B3E480932A1190932B11A093AB
:1042A0002C11B0932D1180E090E0A0E4B0E4809355
:1042B000221190932311A0932411B0932511809380
:1042C0001E1190931F11A0932011B093211179C05A
:1042D00060E070E08AE293E40E94247D80E1E1E204
:1042E000F2E0D80101900D928A95E1F780E1E1E3D7
:1042F000F2E0DE01519601900D928A95E1F780E19E
:10430000E1E4F2E0DE01119601900D928A95E1F769
:1043100042E451E1DE01519622E531E1CE01019600
:104320005C0182E391E1BE016F5C7F4FF801C190B7
:10433000D190E190F1908F01FA01C192D192E19276
:10434000F192AF01CD90DD90ED90FD90F901C19219
:10435000D192E192F1929F01F501C190D190E1904B
:10436000F1905F01FC01C192D192E192F192CF01F3
:1043700006171707D9F60E942D7D80E090E0AAE786
:10438000B4E480932A1190932B11A0932C11B09335
:104390002D1180E090E0A0EAB0E480932211909388
:1043A0002311A0932411B09325114DEC5CEC6CEC1F
:1043B0007EE340931E1150931F1160932011709360
:1043C000211180931A1190931B11A0931C11B0938B
:1043D0001D11E0960FB6F894DEBF0FBECDBFDF9182
:1043E000CF911F910F91FF90EF90DF90CF90BF90F2
:1043F000AF9008958091F909882319F01092F90976
:10440000729AE0CE1092F8098091F909882331F070
:10441000439A6A9A6A9A72986A9A7298729AD2CEF3
:10442000CF92DF92EF92FF92CF93DF93EC016A017C
:104430007B01FE016491662331F08EEC93E10E94D2
:1044400009162196F6CF22E030E0B701A6018EECE6
:1044500093E1DF91CF91FF90EF90DF90CF90B0CEBE
:10446000CF92DF92EF92FF92CF93DF93EC016A013C
:104470007B01FE016491662331F08EEC93E10E9492
:1044800009162196F6CF22E030E0B701A6018EECA6
:1044900093E1DF91CF91FF90EF90DF90CF9090CE9E
:1044A000CF92DF92EF92FF92CF93DF93EC016A01FC
:1044B0007B01FE016491662331F08EEC93E10E9452
:1044C00009162196F6CF20E0B701A6018EEC93E104
:1044D000DF91CF91FF90EF90DF90CF900C948CD430
:1044E000CF93DF93209180053091810524303105F1
:1044F0000CF064C0BC01209182053091830540E638
:10450000429FC001439F900D112486579A4F0E94ED
:10451000C9DFEEE7FCE06491EF01662341F08EEC29
:1045200093E10E9409162196FE016491F6CFE4E31F
:10453000FCE06491EF01662341F08EEC93E10E9470
:1045400009162196FE016491F6CF80918205909123
:10455000830520E6289FB001299F700D112466571E
:104560007A4F8EEC93E10E94FA15E2E3FCE064914D
:10457000EF01662341F08EEC93E10E94091621962B
:10458000FE016491F6CF6AE08EEC93E10E94091679
:104590008091820590918305019664E070E00E940D
:1045A00013DC909383058093820580918005909120
:1045B000810501969093810580938005DF91CF91CD
:1045C0000895CF93DF9320918005309181052430A9
:1045D00031050CF064C0BC01209182053091830547
:1045E00040E6429FC001439F900D112486579A4F89
:1045F0000E9430DFEEE7FCE06491EF01662341F0BA
:104600008EEC93E10E9409162196FE016491F6CF8B
:10461000E7E2FCE06491EF01662341F08EEC93E168
:104620000E9409162196FE016491F6CF80918205C1
:104630009091830520E6289FB001299F700D1124D9
:1046400066577A4F8EEC93E10E94FA15E5E2FCE0A2
:104650006491EF01662341F08EEC93E10E9409160C
:104660002196FE016491F6CF6AE08EEC93E10E9400
:1046700009168091820590918305019664E070E0AF
:104680000E9413DC909383058093820580918005BE
:104690009091810501969093810580938005DF912B
:1046A000CF910895EF92FF920F931F93CF93DF93D3
:1046B0000E94389B40E950ED63E070E08EEC93E19E
:1046C0000E9400D7EFE1FCE06491EF01662341F026
:1046D0008EEC93E10E9409162196FE016491F6CFBB
:1046E0006AE08EEC93E10E940916CEE7DCE0FE0161
:1046F00064918E01662349F08EEC93E10E940916C5
:104700000F5F1F4FF8016491F5CF14B710FF15C06C
:10471000E7E1FCE064917F01662351F08EEC93E1C8
:104720000E940916FFEFEF1AFF0AF7016491F4CF18
:104730006AE08EEC93E10E94091611FF15C0E7E0D4
:10474000FCE064917F01662351F08EEC93E10E94BE
:104750000916FFEFEF1AFF0AF7016491F4CF6AE040
:104760008EEC93E10E94091612FF15C0E6EFFBE004
:1047700064917F01662351F08EEC93E10E9409164B
:10478000FFEFEF1AFF0AF7016491F4CF6AE08EECB5
:1047900093E10E94091613FF15C0E6EEFBE0649159
:1047A0007F01662351F08EEC93E10E940916FFEF22
:1047B000EF1AFF0AF7016491F4CF6AE08EEC93E1FF
:1047C0000E94091615FF14C0E6EDFBE064918F010D
:1047D000662349F08EEC93E10E9409160F5F1F4F8C
:1047E000F8016491F5CF6AE08EEC93E10E9409161E
:1047F00014BEEFECFBE064918F01662349F08EEC70
:1048000093E10E9409160F5F1F4FF8016491F5CFE5
:10481000E9ECFBE064918F01662349F08EEC93E1B3
:104820000E9409160F5F1F4FF8016491F5CF6AE0EF
:104830008EEC93E10E940916FE0164910EE71CE0E4
:10484000662349F08EEC93E10E9409160F5F1F4F1B
:10485000F8016491F5CFE9EBFBE064918F016623E9
:1048600049F08EEC93E10E9409160F5F1F4FF8018B
:104870006491F5CFE4EAFBE064918F01662349F08F
:104880008EEC93E10E9409160F5F1F4FF8016491AF
:10489000F5CFE8E9FBE064918F01662349F08EECE7
:1048A00093E10E9409160F5F1F4FF8016491F5CF45
:1048B000E1E8FBE064918F01662349F08EEC93E11F
:1048C0000E9409160F5F1F4FF8016491F5CF6AE04F
:1048D0008EEC93E10E940916E6E7FBE064918F01FC
:1048E000662349F08EEC93E10E9409160F5F1F4F7B
:1048F000F8016491F5CFEAE6FBE064918F0166234D
:1049000049F08EEC93E10E9409160F5F1F4FF801EA
:104910006491F5CF6AE08EEC93E10E940916FE01E6
:104920006491CEE7DCE0662341F08EEC93E10E94D7
:1049300009162196FE016491F6CFEBE5FBE0649148
:10494000EF01662341F08EEC93E10E940916219657
:10495000FE016491F6CF0E949957BC018EEC93E161
:1049600029DCE4E4FBE06491EF01662341F08EEC86
:1049700093E10E9409162196FE016491F6CF60ED45
:1049800074E08EEC93E116DC6AE08EEC93E10E9419
:1049900009161092860510928705109288051092CC
:1049A00089050E94D01B0E947D890E94A2700E94EE
:1049B000B3850E94CE84859ADF91CF911F910F918C
:1049C000FF90EF90089580917A0590917B0560E0CB
:1049D00070E001960C9492DC80917A0590917B05B1
:1049E0004AE050E060E070E001960C94F8DD682F3A
:1049F000880F770B209184053091850540E6429F12
:104A0000C001439F900D112486579A4F0E94B5DF35
:104A10009C0190937B0580937A0581E0232B09F418
:104A200080E008950FB6F8948091C3139091C41359
:104A3000A091C513B091C6130FBE809376059093D5
:104A40007705A0937805B09379050895CF93DF9308
:104A50000FB6F8948091C3139091C413A091C5131D
:104A6000B091C6130FBE8093760590937705A093FF
:104A70007805B0937905E0918405F0918505EA57B2
:104A8000FA4F8081811115C0E3E8F4E06491EF01F1
:104A9000662341F08EEC93E10E9409162196FE01F7
:104AA0006491F6CF6AE08EEC93E1DF91CF910C94A4
:104AB0000916DF91CF9108957F928F929F92AF92C6
:104AC000BF92CF92DF92EF92FF920F931F93CF93FB
:104AD000DF938EE5E82E87E0F82E0BE217E091E7F2
:104AE000C92E97E0D92EC4E7D4E07C2E84E0780E5E
:104AF00089917DDF882309F166DF4B015C01F601B6
:104B00006081611102C060910A0770E080E090E06E
:104B10000E94F7D8F70120813181428153810E94A0
:104B20002ADB9B01AC01C501B4010E947CD7F801CE
:104B300060837183828393830AC0F70180819181AE
:104B4000A281B381F80180839183A283B383F4E0CF
:104B5000EF0EF11C0C5F1F4F8FEFC81AD80A7C12A2
:104B6000C7CF86E444DF8823D1F02DDF6B017C01C1
:104B700060931B0770931C0780931D0790931E077B
:104B800020E030E0A9010E9458DA181644F4C092DF
:104B90000901D0920A01E0920B01F0920C01DF9121
:104BA000CF911F910F91FF90EF90DF90CF90BF902A
:104BB000AF909F908F907F9008957EDF89E417DFFC
:104BC000882351F000DF60931F07709320078093C4
:104BD00021079093220708C010921F071092200708
:104BE00010922107109222078AE401DF882351F0F6
:104BF000EADE609323077093240780932507909340
:104C00002607089510922307109224071092250773
:104C1000109226070895CF92DF92EF92FF92CF93E2
:104C2000DF93EC01C0902701D0902801E09029018A
:104C3000F0902A01A7019601688179818A819B8180
:104C40000E9458DA181624F4C882D982EA82FB82BC
:104C5000C0902B01D0902C01E0902D01F0902E01FE
:104C6000A70196016C817D818E819F810E9458DA17
:104C7000181624F4CC82DD82EE82FF82C0902F01D0
:104C8000D0903001E0903101F0903201A7019601FF
:104C9000688579858A859B850E9458DA181624F4E0
:104CA000C886D986EA86FB86DF91CF91FF90EF9088
:104CB000DF90CF900895CF92DF92EF92FF920F9303
:104CC0001F938BE297E0A7DF0FB6F8948091C31390
:104CD0009091C413A091C513B091C6130FBE8093D9
:104CE000760590937705A0937805B0937905209188
:104CF0002B0730912C0740912D0750912E07609182
:104D00005E0770915F0780916007909161070E9434
:104D100055D8811121C020912F0730913007409143
:104D2000310750913207609162077091630780915B
:104D30006407909165070E9455D881110DC020E04D
:104D400030E040E752E46091090170910A018091DE
:104D50000B0190910C011EC06091490170914A01B4
:104D6000072E000C880B990B0E94F7D8209109019F
:104D700030910A0140910B0150910C010E942ADBF5
:104D800020E030E040E752E40E945CD820E030E0D0
:104D900048EC52E40E945CD82EE3C22E27E0D22ECB
:104DA0007B018C0127E337E043E357E06FE277E0D4
:104DB0008BE297E00E94427280912B0790912C0722
:104DC000A0912D07B0912E0780935E0790935F0707
:104DD000A0936007B093610780912F0790913007EF
:104DE000A0913107B09132078093620790936307D7
:104DF000A0936407B09365078091330790913407BF
:104E0000A0913507B09136078093660790936707A6
:104E1000A0936807B093690780913707909138078E
:104E2000A0913907B0913A0780936A0790936B0776
:104E3000A0936C07B0936D071F910F91FF90EF90B7
:104E4000DF90CF900895AF92BF92CF92DF92EF9212
:104E5000FF920F931F93CF93DF93F82EEFE1F7E0CC
:104E6000248135814681578160817181828193815E
:104E70000E9465DAEB01182F092F609149017091AA
:104E80004A01072E000C880B990B0E94F7D820913D
:104E9000090130910A0140910B0150910C010E94CF
:104EA0002ADB20E030E040E752E40E945CD820E0BA
:104EB00030E048EC52E40E945CD85B016C018091C8
:104EC0003E078F93FF920F931F93DF93CF9382E060
:104ED000E82E01E020E04FE157E06BE277E08EE55D
:104EE00097E00E947969EEE5F7E0ABE2B7E04D911B
:104EF0005D916D917C91139740835183628373839D
:104F000014964D915D916D917C91179744835583D3
:104F10006683778318964D915D916D917C911B9777
:104F200040875187628773871C968D919D910D9064
:104F3000BC91A02D84879587A687B7870FB6F89474
:104F40008091C3139091C413A091C513B091C6135F
:104F50000FBE8093760590937705A0937805B09364
:104F600079050F900F900F900F900F900F90DF9199
:104F7000CF911F910F91FF90EF90DF90CF90BF9056
:104F8000AF9008950FB6F8948091C3139091C41315
:104F9000A091C513B091C6130FBE40915C0550910E
:104FA0005D0560915E0570915F05841B950BA60BF6
:104FB000B70B843C9940A105B10508F457C00FB662
:104FC000F8948091C3139091C413A091C513B0912C
:104FD000C6130FBE80935C0590935D05A0935E059C
:104FE000B0935F05679B27C0669B25C07C9B23C051
:104FF000339B21C00FB6F8948091C3139091C413D2
:10500000A091C513B091C6130FBE40916005509199
:1050100061056091620570916305841B950BA60B79
:10502000B70B80319742A105B105C8F4452B462B3B
:10503000472BA9F018C00FB6F8948091C313909134
:10504000C413A091C513B091C6130FBE8093600521
:1050500090936105A0936205B0936305CBCF8F98C1
:10506000879A8F9808958F9A879A8F9A0895CF92EA
:10507000DF92EF92FF920F931F93CF93DF930FB6C0
:10508000F8944091C3135091C4136091C51370916B
:10509000C6130FBE8091560590915705A0915805F3
:1050A000B091590584179507A607B70708F0C7C040
:1050B0008C509E4FAF4FBF4F80935605909357052E
:1050C000A0935805B093590500917512109176126E
:1050D000D0917712C091781220E030E0A901B80198
:1050E0008D2F9C2F0E9455D887FF04C000E010E050
:1050F000D0E0C0E06091831270918412072E000C02
:10510000880B990B0E94F7D86B017C019B01AC01C5
:10511000B8018D2F9C2F0E9458DA18161CF08601BA
:10512000DE2DCF2DC0907912D0907A12E0907B12B4
:10513000F0907C129601A701B8018D2F9C2F0E9440
:1051400058DA18161CF08601DE2DCF2D60918512DD
:1051500070918612072E000C880B990B0E94F7D8CD
:105160006B017C019B01AC01B8018D2F9C2F0E942B
:1051700058DA18161CF08601DE2DCF2D60918112B1
:1051800070918212072E000C880B990B0E94F7D8A1
:105190006B017C019B01AC01B8018D2F9C2F0E94FB
:1051A00058DA18161CF46801ED2EFC2E00916F12CF
:1051B00010917012D0917112C091721298014D2FFE
:1051C0005C2FB601C7010E9458DA18161CF068015E
:1051D000ED2EFC2E20E030E04CE552E4B601C70194
:1051E0000E9458DA1816ECF480915A05811119C002
:1051F0005B9A5A9881E080935A0510925B0520E0F3
:1052000030E048E552E4B601C7010E9455D887FF57
:1052100016C05B985A9A10925A0581E080935B05FC
:105220000EC020E030E048E552E4B601C7010E941C
:1052300055D887FF04C080915B05882351F3DF9127
:10524000CF911F910F91FF90EF90DF90CF90089535
:10525000F8940E94968A779A10924307769A109251
:105260004407479A10924507439A8C9A8091F9090E
:105270008111729AE4E8FCE06491EF01662341F049
:105280008EEC93E10E9409162196FE016491F6CFFF
:10529000E4E6F4E06491EF01662341F08EEC93E1E3
:1052A0000E9409162196FE016491F6CF6AE08EEC09
:1052B00093E10E94091688E494E00E94D79A7894BA
:1052C000C6E0D0E0219749F068EC70E080E090E023
:1052D0000E9403D20E944E9BF5CFF894FFCFCF934C
:1052E000DF930E94968A8091680581113AC081E01F
:1052F0008093680580910F0790911007A091110786
:10530000B091120780930B0790930C07A0930D07A1
:10531000B0930E07E4E8FCE06491EF01662341F0EE
:105320008EEC93E10E9409162196FE016491F6CF5E
:10533000E2EDF3E06491EF01662341F08EEC93E13E
:105340000E9409162196FE016491F6CF6AE08EEC68
:1053500093E10E94091686EB93E0DF91CF910C94C4
:10536000CA9ADF91CF910895809168050895EF92D0
:10537000FF921F93CF93DF93EC0180913E078093C0
:10538000690584E534DB182F811102C010E048C0A4
:105390001ADB0E94C9D8609369056230B8F3EEE762
:1053A000FCE064917F01662351F08EEC93E10E9452
:1053B00009168FEFE81AF80AF7016491F4CFCD3699
:1053C000D105B1F04CF4C836D10579F0C936D10514
:1053D000C1F468E573E011C0CA3DD10561F0CD3D6F
:1053E000D10579F46DE973E008C061E473E005C0AC
:1053F0006FE673E002C066E873E08EEC93E10E9412
:10540000FA154091690550E060E070E020E08EEC14
:1054100093E10E948CD46AE08EEC93E10E9409161D
:10542000812FDF91CF911F91FF90EF900895CF9240
:10543000DF92EF92FF9220916E072223F1F020E09D
:1054400030E040E05FE30E942ADB6B017C0120E05A
:1054500030E0A9010E9455D8882379F0A701960170
:10546000C701B6010E942ADB2BED3FE049E450E47E
:105470000E942ADB9B01AC0104C020E030E040E840
:105480005FE360E070E080E89FE30E945CD8FF90FB
:10549000EF90DF90CF9008950F931F93CF93DF93FA
:1054A0000BE311E0F8016081718182819381BFDF9C
:1054B000C3E3D1E0688379838A839B83F8016481A5
:1054C000758186819781B3DF6C837D838E839F8313
:1054D000DF91CF911F910F9108954F925F926F923C
:1054E0007F92AF92BF92CF92DF92EF92FF920F9393
:1054F0001F93CF93DF9300D000D0CDB7DEB75C0110
:1055000080913E0790E08A159B0509F4CDC020E00C
:1055100030E040E450E460915A1170915B11809149
:105520005C1190915D110E945CD82B013C012AE036
:1055300037ED43EA5FE360916607709167078091FA
:105540006807909169070E947CD769837A838B836F
:105550009C838EE3C82E87E0D82E830172012AE651
:1055600037E0AE014F5F5F4F62E677E08EE597E090
:105570000E9442720E94258500913E0710E0F801CA
:10558000EE0FFF1FEE0FFF1FE15FFE4F2081318105
:105590004281538160915E0770915F07809160073F
:1055A000909161070E947BD7F501EE0FFF1FEE0F70
:1055B000FF1FE15FFE4F20813181428153810E94B4
:1055C0007CD760935E0770935F078093600790932A
:1055D0006107F801EE0FFF1FEE0FFF1FE95EFE4FA0
:1055E000208131814281538160916207709163070C
:1055F00080916407909165070E947BD7F501EE0FBB
:10560000FF1FEE0FFF1FE95EFE4F208131814281B7
:1056100053810E947CD760936207709363078093E5
:10562000640790936507000F111F000F111FF80109
:10563000E15EFE4F20813181428153816091660796
:105640007091670780916807909169070E947CD7E5
:10565000F501EE0FFF1FEE0FFF1FE15EFE4F2081F1
:105660003181428153810E947BD76093660770939A
:10567000670780936807909369072AE037ED43EA4C
:105680005FE30E947CD769837A838B839C832AE6BD
:1056900037E0AE014F5F5F4F62E677E08EE597E05F
:1056A0000E94797CA0923E070F900F900F900F9070
:1056B000DF91CF911F910F91FF90EF90DF90CF90EE
:1056C000BF90AF907F906F905F904F9008952CE7C0
:1056D00034E0FC01318320832681222319F00396D4
:1056E0000C941153089585E797E00C94635C0F9335
:1056F0001F93CF93DF9383E399E0E9DF82EE97E096
:10570000892B51F484EC97E0E2DF84EA97E0DF91A3
:10571000CF911F910F91DBCFC0E0D0E00CE714E0F8
:10572000CE018B58984FFC01E558FE4F1183008342
:1057300036968081882329F0CE018D50974F0E94A4
:1057400011536E97C43D8EEFD80751F7DBCFCF933F
:10575000DF938EEC93E10E9466D7E6E8F4E0649173
:10576000EF01662341F08EEC93E10E940916219629
:10577000FE016491F6CF40910F07509110076091A0
:105780001107709112074F5F5F4F6F4F7F4F8EEC85
:1057900093E10E94E8D46AE08EEC93E10E9409163E
:1057A000DF91CF9153C92F923F924F925F926F92A8
:1057B0007F928F929F92AF92BF92CF92DF92EF92A1
:1057C000FF920F931F93CF93DF93CDB7DEB76E9702
:1057D0000FB6F894DEBF0FBECDBF40E6D42E04E076
:1057E00010E05EEFE52E59E0F52ECC24C3948EEC4C
:1057F00093E10E949DD5181619063CF4809180050E
:105800009091810504970CF446C080917707882316
:1058100009F47CC380917D0590917E05892B09F068
:1058200075C38091800590918105892B11F41092A8
:10583000550580E6E82EFF24F3949CE3892E912CF5
:10584000A12CB12C8E010F5F1F4F2EE9222E29E0D3
:10585000322E4091EB095091EC096091ED09709165
:10586000EE098091E3099091E409A091E509B091D6
:10587000E609481759076A077B0708F047C3809174
:1058800080059091810504970CF040C380915505E7
:1058900081113CC3FFC18EEC93E10E94D6D5809369
:1058A0007F0520917D0530917E058A3061F08D3035
:1058B00051F08A3321F490917C05992321F02F3502
:1058C00031050CF454C12115310519F410927C05F1
:1058D0001DC38091820590918305D89E5001D99E69
:1058E000B00C11242A0D3B1DF901E657FA4F108226
:1058F00020917C05211136C110927C05FC01EA57EC
:10590000FA4F1082C50186579A4F4C016EE470E041
:105910000E94B5DF009709F470C090937B058093D7
:105920007A05881999098A0D9B1D4AE050E060E0CC
:1059300070E085579A4F0E94F8DD609313077093CB
:105940001407809315079093160780900F07909087
:105950001007A0901107B090120724013501AFEF96
:105960004A1A5A0A6A0A7A0AA0908205B0908305F8
:10597000641575058605970509F418C1DA9CC00100
:10598000DB9C900D11246AE17BE086579A4F0E94C0
:1059900067DF892B09F00AC1E4E8FCE064918F011C
:1059A000662349F08EEC93E10E9409160F5F1F4FAA
:1059B000F8016491F5CFE7EEFAE064918F01662378
:1059C00049F08EEC93E10E9409160F5F1F4FF8011A
:1059D0006491F5CF40910F07509110076091110726
:1059E000709112078EEC93E10E94E8D46AE08EEC8D
:1059F00093E10E940916ABDE37C06AE270E0C40191
:105A00000E94B5DF892B09F444C0E4E8FCE064910E
:105A10008F01662349F08EEC93E10E9409160F5F17
:105A20001F4FF8016491F5CFE4E7FAE064918F012C
:105A3000662349F08EEC93E10E9409160F5F1F4F19
:105A4000F8016491F5CF40910F07509110076091D4
:105A50001107709112078EEC93E10E94E8D46AE07E
:105A60008EEC93E10E94091610927E0510927D053E
:105A70004DC28091130790911407A0911507B09122
:105A8000160780930F0790931007A0931107B09308
:105A900012078091820590918305D89E5001D99E6E
:105AA000B00C1124C50186579A4F4C0167E470E091
:105AB0000E94B5DF009791F190937B0580937A0562
:105AC000881999098A0D9B1D60E070E085579A4FEF
:105AD0000E9492DC0E94C4D864307105F8F4809171
