:100000000C94B6130C94E5130C94E5130C94E513BF
:100010000C94E5130C94E5130C94E5130C94E51380
:100020000C94E5130C94E5130C9448CF0C94C7CFB3
:100030000C94E5130C94E5130C94E5130C94E51360
:100040000C94E5130C94367B0C94E5130C94E51397
:100050000C94E5130C94E5130C94B0900C94AACE78
:100060000C94E5130C94E5130C94E5130C94E51330
:100070000C94E5130C94E5130C94E5130C94E51320
:100080000C94E5130C94E5130C94E5130C94E51310
:100090000C9491CA0C94E513084AD73B3BCE016EF1
:1000A00084BCBFFDC12F3D6C74319ABD56833DDACF
:1000B0003D00C77F11BED9E4BB4C3E916BAAAABEDE
:1000C000000000803F05A84CCDB2D44EB93836A907
:1000D000020C50B9918688083CA6AAAA2ABE000044
:1000E00000803F534420696E6974206661696C002A
:1000F000766F6C756D652E696E6974206661696CCA
:100100006564006F70656E526F6F74206661696C14
:1001100065640053442063617264206F6B007472E5
:1001200079696E6720746F2063616C6C20737562EF
:100130002D67636F64652066696C657320776974E9
:100140006820746F6F206D616E79206C6576656CC8
:10015000732E204D4158206C6576656C2069733A8A
:1001600000535542524F5554494E452043414C4C43
:10017000207461726765743A220022207061726592
:100180006E743A22002220706F73004E6F772064E5
:100190006F696E672066696C653A20004E6F772044
:1001A00066726573682066696C653A20006F7065D9
:1001B0006E206661696C65642C2046696C653A2026
:1001C000002E0046696C65206F70656E65643A208C
:1001D000002053697A653A200046696C6520736592
:1001E0006C6563746564006F70656E206661696C30
:1001F00065642C2046696C653A20002E006F70659E
:100200006E206661696C65642C2046696C653A20D5
:10021000002E0057726974696E6720746F206669DA
:100220006C653A20006F70656E206661696C65646C
:100230002C2046696C653A20002E0046696C6520CA
:1002400064656C657465643A0044656C6574696FD7
:100250006E206661696C65642C2046696C653A2085
:10026000002E005344207072696E74696E672062BC
:1002700079746520002F004E6F74205344207072F3
:10028000696E74696E67006572726F722077726949
:1002900074696E6720746F2066696C65006175749F
:1002A0006F25692E67004D3233202573004D32349F
:1002B0000043616E6E6F7420656E74657220737595
:1002C000626469723A20004D383420582059205A0F
:1002D00020450053657474696E67732053746F72A0
:1002E00065640053746570732070657220756E6963
:1002F000743A0020204D3932205800205900205AED
:10030000002045004D6178696D756D2066656564F6
:10031000726174657320286D6D2F73293A00202057
:100320004D323033205800205900205A002045001B
:100330004D6178696D756D20416363656C657261AF
:1003400074696F6E20286D6D2F7332293A0020205A
:100350004D323031205800205900205A00204500ED
:10036000416363656C65726174696F6E3A20533DD9
:10037000616363656C65726174696F6E2C20543DB6
:100380007265747261637420616363656C65726128
:1003900074696F6E0020204D323034205300205499
:1003A00000416476616E63656420766172696162A2
:1003B0006C65733A20533D4D696E206665656472C5
:1003C00061746520286D6D2F73292C20543D4D6973
:1003D0006E2074726176656C206665656472617406
:1003E0006520286D6D2F73292C20423D6D696E6943
:1003F0006D756D207365676D656E742074696D65CC
:1004000020286D73292C20583D6D6178696D756DBC
:10041000205859206A65726B20286D6D2F73292C26
:1004200020205A3D6D6178696D756D205A206A658E
:10043000726B20286D6D2F73292C2020453D6D6136
:1004400078696D756D2045206A65726B20286D6D29
:100450002F73290020204D323035205300205400C6
:10046000204200205800205A00204500486F6D654A
:10047000206F666673657420286D6D293A00202010
:100480004D323036205800205900205A005049443F
:100490002073657474696E67733A002020204D33B1
:1004A000303120500020490020440053746F7265A1
:1004B000642073657474696E677320726574726901
:1004C000657665640048617264636F6465642044A6
:1004D000656661756C742053657474696E6773200A
:1004E0004C6F616465640041A042A1E045A3A4A5EE
:1004F000A64BA74D484FA8504354A9AA58E1ABAC0E
:10050000E2ADAE62AFB0B161B2B3B4E365B6B7B855
:10051000B9BABBBCBD6FBE7063BF79E478E5C0C13A
:10052000E6C2C3C4C5C6C76563686F3A0045727248
:100530006F723A00656E717565696E6720220022E0
:1005400000656E717565696E672022002200737404
:1005500061727400506F7765725570002045787431
:1005600065726E616C205265736574002042726F13
:10057000776E206F75742052657365740020576123
:10058000746368646F672052657365740020536FED
:10059000667477617265205265736574004D61728F
:1005A0006C696E00312E302E3000204C6173742047
:1005B000557064617465643A20004A756E2031316B
:1005C00020323031362031383A35343A3437002051
:1005D0007C20417574686F723A20002849727769EF
:1005E0006E20636F2E2C204D61676E756D20334435
:1005F0002900436F6D70696C65643A20004A756E1E
:100600002031312032303136002046726565204D70
:10061000656D6F72793A20002020506C616E6E65B6
:100620007242756666657242797465733A20004D50
:100630003239006F6B00446F6E6520736176696EAE
:10064000672066696C652E004D363030004D3630BF
:10065000302053004D363030004D313130004C6980
:100660006E65204E756D626572206973206E6F74C1
:10067000204C617374204C696E65204E756D626507
:10068000722B312C204C617374204C696E653A20BA
:1006900000636865636B73756D206D69736D61745C
:1006A00063682C204C617374204C696E653A20009D
:1006B0004E6F20436865636B73756D20776974684E
:1006C000206C696E65206E756D6265722C204C61C0
:1006D0007374204C696E653A20004E6F204C696E31
:1006E00065204E756D626572207769746820636855
:1006F00065636B73756D2C204C617374204C696E4F
:10070000653A20005072696E7465722073746F7060
:100710007065642064756520746F206572726F72F5
:10072000732E2046697820746865206572726F7236
:1007300020616E6420757365204D39393920746FDE
:1007400020726573746172742E202854656D706513
:100750007261747572652069732072657365742E99
:100760002053657420697420616674657220726517
:100770007374617274696E672900D09ED181D182D1
:10078000D0B0D0BDD0BED0B2D0BBD0B5D0BD2E2061
:10079000234D39393900446F6E65207072696E746B
:1007A000696E672066696C6500256920686F7572DF
:1007B00073202569206D696E7574657300D09FD0B4
:1007C000B0D183D0B7D0B020282347342900D09EA1
:1007D000D09A20D0B4D0BBD18F20D0BFD180D0BE92
:1007E000D0B4D0BED0BBD0B6D0B5D0BDD0B8D18FEC
:1007F00000D09FD180D0BED0B4D0BED0BBD0B6D0B8
:10080000B5D0BDD0B8D0B520D0BFD0B5D187D0B08D
:10081000D182D0B8002D3D20D0B3D0BED182D0BE81
:10082000D0B220D0BA20D0BFD0B5D187D0B0D1823D
:10083000D0B8203D2D00D09DD0B5D18220D0B4D0ED
:10084000B2D0B8D0B6D0B5D0BDD0B8D18F2E00427E
:100850006567696E2066696C65206C697374004514
:100860006E642066696C65206C697374002569206C
:100870006D696E2C20256920736563006F6B2054B1
:100880003A00202F0020423A00202F002054003A46
:1008900000202F0020403A002042403A0048656185
:1008A00074696E672E2E2E00543A0020453A0020BF
:1008B000573A0048656174696E6720646F6E652EF3
:1008C000004265642048656174696E672E00543A81
:1008D0000020453A0020423A0042656420646F6E71
:1008E000652E004D61676E756D2D33442D67656E05
:1008F0002E3220D092D18BD0BAD0BB2E202E0046E3
:1009000049524D574152455F56455253494F4E3A11
:100910004D61676E756D2D554E492D4230332D5406
:100920003552204649524D574152455F4E414D4543
:100930003A4D61726C696E2056313B20537072697A
:100940006E7465722F6772626C206D61736875706A
:1009500020666F722067656E36204649524D5741BA
:1009600052455F55524C3A68747470733A2F2F6732
:1009700069746875622E636F6D2F4D61676E756D5A
:1009800033442050524F544F434F4C5F56455253BF
:10099000494F4E3A312E30204D414348494E455F34
:1009A000545950453A4D61676E756D2D33442D672E
:1009B000656E2E322D4D61676E756D2D554E492D2C
:1009C0004230332D543552204558545255444552E7
:1009D0005F434F554E543A3120555549443A656569
:1009E0003465363963342D643131312D3463343517
:1009F0002D623939322D37613637653130386336FB
:100A000064380A004D61676E756D205061737461C2
:100A100020457874727564657220454E41424C459C
:100A200044002000583A0020593A00205A3A002049
:100A3000453A0020436F756E7420583A20002059C3
:100A40003A00205A3A00785F6D61783A2000795F69
:100A50006D61783A20007A5F6D696E3A20005A2005
:100A60004F6666736574206F6B005A204F6666731D
:100A70006574007A5F6D696E3A20007A5F6D617807
:100A80003A20005A204F6666736574203A2000D0E1
:100A90009FD0B5D187D0B0D182D18C20D1812053C5
:100AA0004420D0BAD0B0D180D182D18B2020200078
:100AB0002D3D20D0B3D0BED182D0BED0B220D0BA8E
:100AC00020D0BFD0B5D187D0B0D182D0B8203D2DB5
:100AD000005061737461204578747275646572208A
:100AE00046522044495341424C454400506173747E
:100AF0006120457874727564657220465220454EB7
:100B000041424C45440050617374612045787472D1
:100B10007564657220446972656374204449534169
:100B2000424C45440050617374612045787472757D
:100B30006465722044697265637420454E41424C7D
:100B40004544005061737461204578747275646522
:100B5000722046522044495341424C454400506162
:100B600073746120457874727564657220465220F2
:100B7000454E41424C4544005061737461204578B4
:100B800074727564657220446972656374204449A7
:100B90005341424C45440050617374612045787460
:100BA00072756465722044697265637420454E41B4
:100BB000424C454400556E6B6E6F776E20636F6DCF
:100BC0006D616E643A20220022000101FF00005C8A
:100BD000430000344300000000000000000000005B
:100BE0000000000000000082430000344300003495
:100BF000430000A0400000A0400000004000008230
:100C0000430000344300003443526573656E643A18
:100C100020006F6B005072696E7465722068616CA1
:100C20007465642E206B696C6C28292063616C6C80
:100C300065642100D09ED181D182D0B0D0BDD0BE1C
:100C4000D0B2D0BBD0B5D0BD2E20234D3131320033
:100C50005072696E7465722073746F707065642071
:100C600064756520746F206572726F72732E2046F2
:100C7000697820746865206572726F7220616E6495
:100C800020757365204D39393920746F2072657372
:100C9000746172742E202854656D7065726174756C
:100CA00072652069732072657365742E20536574B4
:100CB0002069742061667465722072657374617254
:100CC00074696E672900D09ED181D182D0B0D0BD29
:100CD000D0BED0B2D0BBD0B5D0BD2E20234D393937
:100CE000390020636F6C6420657874727573696F66
:100CF0006E2070726576656E746564007C3C3E5E45
:100D00002B3D3F2F5B5D3B2C2A225C00656E64739C
:100D1000746F7073206869743A200020583A006537
:100D20006E6473746F7073206869743A2058002081
:100D3000593A00656E6473746F7073206869743A11
:100D4000205900205A3A00656E6473746F707320E6
:100D50006869743A205A0024F404D9201BC40C5C3E
:100D60000E9804C4095F0265077101F405F900FBE0
:100D700004B30048048700C1036900580355000309
:100D8000034500BE023A008402310053022A0029C2
:100D900002250004022000E4011C00C8011900AF74
:100DA0000117009801140084011300710110006103
:100DB00001100051010E0043010D0036010B002B04
:100DC000010B0020010B00150109000C01090003B3
:100DD000010800FB000800F3000800EB000700E436
:100DE000000600DE000600D8000600D2000600CC97
:100DF000000500C7000500C2000500BD000400B9E1
:100E0000000400B5000400B1000400AD000400A916
:100E1000000400A5000300A20003009F0004009B43
:100E20000003009800030095000200930003009067
:100E30000003008D0002008B000300880002008682
:100E400000020084000300810002007F0002007D98
:100E50000002007B000200790002007700010076AA
:100E60000002007400020072000100710002006FB5
:100E70000002006D0001006C0002006A00010069C0
:100E800000020067000100660001006500010064C7
:100E90000002006200010061000100600001005FCB
:100EA0000002005D0001005C0001005B0001005ACF
:100EB00000010059000100580001005700010056D0
:100EC00000010055000100540001005300000053D0
:100ED0000001005200010051000100500001004FCC
:100EE0000001004E0000004E0001004D0001004CCA
:100EF0000001004B0000004B0001004A00010049C6
:100F000000010048000000480001004700010046C1
:100F100000000046000100450000004500010044BB
:100F200000010043000000430001004200000042B5
:100F30000001004100000041000100400001003FAD
:100F40000000003F0001003E0000003E0001003DA7
:100F50000000003D0001003C0000003C0000003C9F
:100F60000001003B0000003B0001003A0000003A95
:100F7000000100390000003900010038000000388D
:100F80000000003800010037000000370001003683
:100F9000000000360000003600010035000000357A
:100FA000000000350001003400000034000000346F
:100FB0000001003300000033000000330001003264
:100FC000000000320000003200010031000000315A
:100FD000000000310001003000000030000000304F
:100FE0000001002F0000002F0000002F0000002F44
:100FF0000001002E0000002E0000002E0001002D38
:101000000000002D0000002D0000002D0001002C2C
:101010000000002C0000002C0000002C0001002B20
:101020000000002B0000002B0000002B0001002A14
:101030000000002A0000002A0000002A0001002908
:1010400000000029000000290000002900000029FC
:1010500000010028000000280000002800000028EF
:1010600000000028000100270000002700000027E2
:1010700000000027000000270001002600000026D5
:1010800000000026000000260000002600010025C8
:1010900000000025000000250000002500000025BC
:1010A00000000025000100240000002400000024AE
:1010B00000000024000000240001002300000023A1
:1010C0000000002300000023000000230000002394
:1010D0000000002300010022000000220000002286
:1010E0000000002200000022000000220001002178
:1010F000000000210000002100000021000000216C
:10110000000000210000002100010020000000205C
:10111000000000200000002000000020000000204F
:1011200000000020000000200001001F0000001F40
:101130000000001F0000001F0000001F0000001F33
:101140000000001F0001001E0000001E0000001E25
:101150000000001E00000024F4D43050C38E20C2D2
:10116000A24017828B7011127A910D816CD90AA856
:1011700061E108C7586607615143061E4B5D05C112
:1011800045A7041A411104093D9803713931034000
:1011900036DB0265339102D4305402802E1D026387
:1011A0002CEE01752AC501B028A001102781018FFE
:1011B0002564012B244B01E0223401AC211F018D59
:1011C000200D01801FFC00841EED00971DDF00B87C
:1011D0001CD200E61BC600201BBC00641AB200B281
:1011E00019A8000A19A0006A189900D117910040A7
:1011F000178B00B516840031167E00B31579003ABE
:10120000157300C7146F0058146A00EE1366008847
:1012100013630025135E00C7125B006C12570015A4
:10122000125400C111510070114F0021114B00D612
:101230001049008D1047004610440002104200C0C3
:101240000F4000800F3E00420F3C00060F3B00CBDA
:101250000E3800930E37005C0E3500270E3400F375
:101260000D3200C10D3100900D3000600D2E0032A6
:101270000D2D00050D2C00D90C2B00AE0C2900857E
:101280000C29005C0C2700350C27000E0C2600E80A
:101290000B2400C40B2400A00B23007D0B23005A59
:1012A0000B2100390B2100180B2000F80A1F00D970
:1012B0000A1E00BB0A1E009D0A1D00800A1D006355
:1012C0000A1C00470A1B002C0A1B00110A1A00F70F
:1012D000091A00DD091900C4091900AB09190092A7
:1012E0000917007B091800630917004C091600361E
:1012F000091600200916000A091500F5081500E076
:10130000081400CC081400B8081400A408140090B5
:101310000813007D0812006B0813005808120046DD
:1013200008120034081100230811001208110001EE
:10133000081100F0071000E0071000D0071000C0EF
:10134000071000B0070F00A107100091070E0083DF
:10135000070F0074070F0065070E0057070E0049BE
:10136000070E003B070D002E070E0020070D00138F
:10137000070D0006070D00F9060C00ED060D00E054
:10138000060C00D4060C00C8060C00BC060C00B00D
:10139000060C00A4060B0099060C008D060B0082BB
:1013A000060B0077060B006C060B0061060A00575F
:1013B000060B004C060A0042060A0038060A002EF8
:1013C000060A0024060A001A060A00100609000789
:1013D000060A00FD050900F4050900EB050900E215
:1013E000050900D9050900D0050900C7050900BE97
:1013F000050900B5050800AD050800A50509009C14
:10140000050800940508008C050800840508007C88
:10141000050800740508006C050700650508005DF7
:10142000050700560508004E050700470507004060
:1014300005080038050700310507002A05070023C5
:101440000507001C050600160507000F0507000824
:1014500005060002050700FB040600F5040700EE80
:10146000040600E8040600E2040700DB040600D5D9
:10147000040600CF040600C9040600C3040600BD2C
:10148000040600B7040600B1040500AC040600A67B
:10149000040600A00405009B0406009504050090C6
:1014A0000406008A04050085040500800406007A0D
:1014B00004050075040500700405006B0405006652
:1014C000040500610405005C040500570405005292
:1014D0000405004D04050048040500430405003ED2
:1014E0000404003A04050035040500300404002C0F
:1014F00004050027040400230405001E0404001A48
:1015000004040016040500110404000D040400097D
:101510000405000404040000040400FC030400F8B3
:10152000030400F4030400F0030400EC030400E8E7
:10153000030400E4030400E0030400DC030400D817
:10154000030400D4030400D0030400CC030400C847
:10155000030300C503030053746570706572206354
:10156000757272656E742076616C756573205B258B
:1015700028726177295D3A0020583A002800292016
:10158000593A00280029205A3A0028002920453AD3
:1015900000280020626961733A200020643A20002C
:1015A000206D696E3A2000206D61783A2000204B52
:1015B000753A20002054753A200020436C61737303
:1015C0006963205049442000204B703A2000204B92
:1015D000693A2000204B643A20005049442041756C
:1015E000746F74756E65206661696C656421205442
:1015F000656D706572617475726520746F6F2068B7
:10160000696768006F6B20423A006F6B20543A00A4
:1016100020403A00504944204175746F74756E65DE
:10162000206661696C6564212074696D656F7574ED
:1016300000504944204175746F74756E6520666969
:101640006E69736865642120507574207468652024
:101650006C617374204B702C204B6920616E642088
:101660004B6420636F6E7374616E74732066726F67
:101670006D2061626F766520696E746F20436F6EB6
:1016800066696775726174696F6E2E680070012CEF
:101690000190012701B0012201C0011D01F00118D4
:1016A000011002130130020E0160020901900204D0
:1016B00001C002FF000003FA004003F5008003F0C0
:1016C00000D003EB002004E6007004E100E004DC3D
:1016D000004005D700C005D2004006CD00D006C8A6
:1016E000008007C3003008BE00F008B900C009B48C
:1016F00000B00AAF00B00BAA00D00CA500000EA0ED
:1017000000500F9B00C01096005012910000148CE6
:1017100000C0158700B0178200B0197D00D01B787B
:1017200000001E730040206E0090226900F02464C7
:101730000040275F0090295A00E02B5500102E50E2
:101740000020304B0010324600E033410090353C21
:10175000001037370070383200A0392D00B03A2819
:1017600000A03B2300603C1E00103D1900903D147A
:1017700000103E0F00703E0A00C03E0500003F0012
:1017800000546865726D616C2052756E6177617985
:101790002C2073797374656D2073746F7070656439
:1017A00021204865617465725F49443A20005448BD
:1017B00045524D414C2052554E41574159003A2017
:1017C00045787472756465722073776974636865AF
:1017D00064206F66662E204D415854454D5020744C
:1017E00072696767657265642021004572723A20EC
:1017F0004D415854454D50003A20457874727564F7
:101800006572207377697463686564206F66662EFD
:10181000204D494E54454D5020747269676765727A
:1018200065642021004572723A204D494E54454D61
:10183000500054656D7065726174757265206865DD
:101840006174656420626564207377697463686598
:1018500064206F66662E204D415854454D502074CB
:101860007269676765726564202121004572723A6A
:10187000204D415854454D5020424544004D333091
:101880003020533635392050323030004D3330302F
:101890002053363938205032303000D092D18BD19D
:1018A00085D0BED0B420D0B8D0B720D0BCD0B5D071
:1018B000BDD18E00D09FD0BED0B4D181D182D18095
:1018C000D0BED0B9D0BAD0B020D0BFD0B5D187D09B
:1018D000B0D182D0B800D0A3D0BFD180D0B0D0B228
:1018E000D0BBD0B5D0BDD0B8D0B500D09DD0B0D190
:1018F00081D182D180D0BED0B8D182D18C20D0BF4E
:10190000D180D0B8D0BDD182D0B5D18000D097D011
:10191000B0D0BCD0B5D0BDD0B8D182D18C20D0BF92
:10192000D180D183D182D0BED0BA00D0A0D0B0D1E6
:1019300081D188D0B8D180D0B5D0BDD0BDD0B0D104
:101940008F20D0BFD0B0D183D0B7D0B000D09FD03F
:10195000B0D183D0B7D0B020D0BFD0B5D187D0B070
:10196000D182D0B800D09FD180D0BED0B4D0BED06C
:10197000BBD0B6D0B8D182D18C20D0BFD0B5D18762
:10198000D0B0D182D18C00D09FD180D0B5D0BAD187
:1019900080D0B0D182D0B8D182D18C20D0BFD0B588
:1019A000D187D0B0D182D18C00D09CD0B5D0BDD160
:1019B0008E20534420D0BAD0B0D180D182D18B00B8
:1019C000D09CD0B5D0BDD18E20534420D0BAD0B059
:1019D000D180D182D18B00D09CD0B5D0BDD18E002A
:1019E000040420D09ED0B1D0BDD0BED0B2D0B8D1EA
:1019F00082D18C00052E2E004D3233202573004DF0
:101A00003234004D383420582059205A204500D017
:101A10009CD0B5D0BDD18E00D09DD0B0D0B3D180F8
:101A2000D0B5D0B220D0B820D0BED0B1D0B4D18300
:101A3000D0B200D0A1D0BAD0BED180D0BED181D199
:101A400082D0BDD0BED0B920D180D0B5D0B6D0B86C
:101A5000D0BC00D094D0BED0BFD0BED0BBD0BDD003
:101A6000B5D0BDD0B8D18F204D61676E756D00D0F7
:101A70009CD0BED0BDD0B8D182D0BED18020D0BF46
:101A8000D180D183D182D0BAD0B000D0A1D0BED184
:101A900085D180D0B0D0BDD0B8D182D18C20D0B289
:101AA000204550524F4D00D097D0B0D0B3D180D107
:101AB00083D0B72E2020D0B8D0B7204550524F4DFC
:101AC00000D0A1D0B1D180D0BED18120D0BDD0B0C6
:101AD000D181D182D180D0BED0B5D0BA00D09CD037
:101AE000BED0BDD0B8D182D0BED18020D0BFD180F1
:101AF000D183D182D0BAD0B000D09CD0BED0BDD0DE
:101B0000B8D182D0BED18000D092D0BAD0BB2E2026
:101B100000D092D18BD0BAD0BB2E2000D092D0BAB8
:101B2000D0BB2E2000D092D18BD0BAD0BB2E2000BB
:101B3000D0A0D0B0D181D181D182D0BED18FD0BD43
:101B4000D0B8D0B5206D6D00D0A0D0B0D181D181FA
:101B5000D182D0BED18FD0BDD0B8D0B5206D6D00B0
:101B6000D09ED182D0BBD0B0D0B4D0BAD0B000D04B
:101B700092D0BAD0BB2E2000D092D18BD0BAD0BB9D
:101B80002E2000D092D0BAD0BB2E2000D092D18B84
:101B9000D0BAD0BB2E2000D094D0BED0BFD0BED003
:101BA000BBD0BDD0B5D0BDD0B8D18F204D61676E50
:101BB000756D00D09FD180D0B8D181D182D0B0D006
:101BC000B2D0BAD0B020D09FD0B0D181D182D0B025
:101BD00000D09CD0BED0BDD0B8D182D0BED18020A4
:101BE000D0BFD180D183D182D0BAD0B000D09BD029
:101BF000B0D0B7D0B5D180D0BDD0B0D18F20D0B3C8
:101C0000D0BED0BBD0BED0B2D0BAD0B000D09BD066
:101C1000B0D0B7D0B5D180D0BDD0B0D18F20D0B3A7
:101C2000D0BED0BBD0BED0B2D0BAD0B000D09BD046
:101C3000B0D0B7D0B5D18000D092D0BAD0BB2E20D2
:101C400000D092D18BD0BAD0BB2E2000D092D0BA87
:101C5000D0BB2E2000D092D18BD0BAD0BB2E20008A
:101C6000D0A2D0B5D181D18200D092D0BAD0BB2E33
:101C70002000D092D18BD0BAD0BB2E2000D092D0F1
:101C8000BAD0BB2E2000D092D18BD0BAD0BB2E20A0
:101C900000D09FD180D0B8D181D182D0B0D0B2D085
:101CA000BAD0B020D09FD0B0D181D182D0B000D0F6
:101CB0009FD0B0D181D182D0B02044495200D0927F
:101CC000D0BAD0BB2E2000D092D18BD0BAD0BB2EB0
:101CD0002000D092D0BAD0BB2E2000D092D18BD091
:101CE000BAD0BB2E2000D09FD0B0D181D182D0B04D
:101CF00020465200D092D0BAD0BB2E2000D092D134
:101D00008BD0BAD0BB2E2000D092D0BAD0BB2E2020
:101D100000D092D18BD0BAD0BB2E2000D09DD0B0B5
:101D2000D181D182D180D0BED0B8D182D18C20D007
:101D3000BFD180D0B8D0BDD182D0B5D18000D0A3E2
:101D4000D181D0BAD0BED180D0B5D0BDD0B8D0B5B9
:101D500000D0A3D181D0BAD0BED180D0B5D0BDD073
:101D6000B8D0B5005859204A65726B005859204ABE
:101D700065726B005A20204A65726B005A20204A17
:101D800065726B004520204A65726B004520204A31
:101D900065726B004D617820D181D0BAD0BED18000
:101DA000D0BED181D182D18C58004D617820D181B3
:101DB000D0BAD0BED180D0BED181D182D18C5800D2
:101DC0004D617820D181D0BAD0BED180D0BED18132
:101DD000D182D18C59004D617820D181D0BAD0BE4A
:101DE000D180D0BED181D182D18C59004D61782073
:101DF000D181D0BAD0BED180D0BED181D182D18C98
:101E00005A004D617820D181D0BAD0BED180D0BEE9
:101E1000D181D182D18C5A004D617820D181D0BA44
:101E2000D0BED180D0BED181D182D18C45004D6150
:101E30007820D181D0BAD0BED180D0BED181D1821C
:101E4000D18C4500D09DD0B0D181D182D180D0BE7F
:101E5000D0B8D182D18C20D0BFD180D0B8D0BDD164
:101E600082D0B5D180000220D0ADD0BAD181D1824C
:101E7000D180D183D0B4D0B5D180207401000220AC
:101E8000D0ADD0BAD181D182D180D183D0B4D0B5F8
:101E9000D180207401003D20D0A1D182D0BED0BB22
:101EA000207401003D20D0A1D182D0BED0BB2074CF
:101EB0000100D09ED0B1D0B4D183D0B220D0BCD05C
:101EC000BED0B4D0B5D0BBD0B800D09ED0B1D0B4C5
:101ED000D183D0B220D0BCD0BED0B4D0B5D0BBD08E
:101EE000B800D09FD180D0B5D0B4D0BDD0B0D0B3E1
:101EF000D180D0B5D0B220504C4100D09FD180D0FD
:101F0000B5D0B4D0BDD0B0D0B3D180D0B5D0B22090
:101F100041425300D09DD0B0D0B3D180D0B5D0B223
:101F200020D0B820D0BED0B1D0B4D183D0B200D0B0
:101F30009ED0B1D0B4D183D0B220D0BCD0BED0B46A
:101F4000D0B5D0BBD0B800D09ED0B1D0B4D183D062
:101F5000B220D0BCD0BED0B4D0B5D0BBD0B8000277
:101F600020D0ADD0BAD181D182D180D183D0B4D0AC
:101F7000B5D180207401000220D0ADD0BAD181D17A
:101F800082D180D183D0B4D0B5D180207401003DFE
:101F900020D0A1D182D0BED0BB207401003D20D082
:101FA000A1D182D0BED0BB20740100D0A1D0BED1BF
:101FB00085D180D0B0D0BDD0B8D182D18C20D0B264
:101FC000204550524F4D00D09DD0B0D0B3D180D0DD
:101FD000B5D0B220D0B820D0BED0B1D0B4D183D04B
:101FE000B200D09ED0B1D0B4D183D0B220D0BCD07A
:101FF000BED0B4D0B5D0BBD0B800D09ED0B1D0B494
:10200000D183D0B220D0BCD0BED0B4D0B5D0BBD05C
:10201000B8000220D0ADD0BAD181D182D180D18395
:10202000D0B4D0B5D180207401000220D0ADD0BA98
:10203000D181D182D180D183D0B4D0B5D180207468
:1020400001003D20D0A1D182D0BED0BB20740100C0
:102050003D20D0A1D182D0BED0BB20740100D0A140
:10206000D0BED185D180D0B0D0BDD0B8D182D18CF6
:1020700020D0B2204550524F4D00D09CD0B5D0BD9D
:10208000D18E00D092D18BD0BAD0BB2E20D0B4D07C
:10209000B2D0B8D0B3D0B0D182D0B5D0BBD0B80018
:1020A0004D383400D09FD0B0D180D0BAD0BED0B29D
:1020B000D0BAD0B020D0BAD0B0D180D0B5D182D0F3
:1020C000BAD0B80047323800D092D18BD0BAD0BB4A
:1020D000D18ED187D0B8D182D18C20D0BDD0B0D014
:1020E000B3D180D0B5D0B200D09FD180D0B5D0B41C
:1020F000D0BDD0B0D0B3D180D0B5D0B220504C41FB
:1021000000D09FD180D0B5D0B4D0BDD0B0D0B3D1A5
:1021100080D0B5D0B22041425300D094D0B2D0B8D4
:10212000D0B6D0B5D0BDD0B8D0B520D0BFD0BE20AD
:10213000D0BED181D18FD0BC00D097D0B0D0BFD08D
:10214000BED0BCD0BDD0B8D182D18C20D0BDD0BE45
:10215000D0BBD18C00D0A3D0BFD180D0B0D0B2D072
:10216000BBD0B5D0BDD0B8D0B500D0A1D0B4D0B21E
:10217000D0B8D0BDD183D182D18C20D0BDD0B020F9
:102180003130206D6D00D0A1D0B4D0B2D0B8D0BD68
:10219000D183D182D18C20D0BDD0B0202031206D10
:1021A0006D00D0A1D0B4D0B2D0B8D0BDD183D1828F
:1021B000D18C20D0BDD0B020302E316D6D00D094A8
:1021C000D0B2D0B8D0B6D0B5D0BDD0B8D0B520D070
:1021D000BFD0BE20D0BED181D18FD0BC00D094D092
:1021E000B2D0B8D0B6D0B5D0BDD0B8D0B520D0BF61
:1021F000D0BE20D0BED181D0B8205800D094D0B26B
:10220000D0B8D0B6D0B5D0BDD0B8D0B520D0BFD022
:10221000BE20D0BED181D0B8205900D094D0B2D049
:10222000B8D0B6D0B5D0BDD0B8D0B520D0BFD0BE14
:1022300020D0BED181D0B8205A00D0ADD0BAD18143
:10224000D182D180D183D0B4D0B5D180004578740B
:102250007275646572005A0059005800D0A3D0BF4F
:10226000D180D0B0D0B2D0BBD0B5D0BDD0B8D0B571
:1022700000D09FD180D0B5D0B4D0BDD0B0D0B3D134
:1022800080D0B5D0B220414253203100D09FD180C0
:10229000D0B5D0B4D0BDD0B0D0B3D180D0B5D0B24D
:1022A00020D181D182D0BED0BBD0B000D0A3D0BFCE
:1022B000D180D0B0D0B2D0BBD0B5D0BDD0B8D0B521
:1022C00000D09FD180D0B5D0B4D0BDD0B0D0B3D1E4
:1022D00080D0B5D0B220504C41203100D09FD18069
:1022E000D0B5D0B4D0BDD0B0D0B3D180D0B5D0B2FD
:1022F00020D181D182D0BED0BBD0B000D09CD0B58F
:10230000D0BDD18E00D0A1D0BAD0BED180D0BED1A8
:1023100081D182D18C00D0A1D0BAD0BED180D0BE24
:10232000D181D182D18C000220D0ADD0BAD181D15F
:1023300082D180D183D0B4D0B5D180207401000285
:1023400020D0ADD0BAD181D182D180D183D0B4D0C8
:10235000B5D180207401003D20D0A1D182D0BED063
:10236000BB207401003D20D0A1D182D0BED0BB20C3
:10237000740100D09ED0B1D0B4D183D0B220D0BCF3
:10238000D0BED0B4D0B5D0BBD0B800D09ED0B1D0E4
:10239000B4D183D0B220D0BCD0BED0B4D0B5D0BBE5
:1023A000D0B800D09FD0BED0B4D0B0D187D0B020AC
:1023B000D0BFD180D183D182D0BAD0B000D09FD04D
:1023C000BED0B4D0B0D187D0B020D0BFD180D1831F
:1023D000D182D0BAD0B0000120000120003C2020E2
:1023E000D09CD0BED0BDD0B8D182D0BED18020D0BC
:1023F000BFD180D183D182D0BAD0B020203E00207E
:102400002020D09DD0B0D0B6D0BCD0B8D182D0B52D
:10241000204F4B20D0B4D0BBD18F2020200020D023
:10242000B2D0BAD0BBD18ED187D0B5D0BDD0B8D1C3
:102430008F20D0BDD0B0D0B3D180D0B5D0B2D0B085
:102440002120003C20D0A0D0B0D181D188D0B8D1FB
:1024500080D0B5D0BDD0BDD0B0D18F20D09FD0B06E
:10246000D183D0B7D0B03E00202020D09DD0B0D0B6
:10247000B6D0BCD0B8D182D0B5204F4B20D0B4D08C
:10248000BBD18F2020200020D0B2D0BAD0BBD18EBB
:10249000D187D0B5D0BDD0B8D18F20D0BDD0B0D0ED
:1024A000B3D180D0B5D0B2D0B02120003C20D0979D
:1024B000D0B0D0BCD0B5D0BDD0B8D182D0B520D0AE
:1024C000BFD180D183D182D0BED0BA21203E00209E
:1024D0002020D09DD0B0D0B6D0BCD0B8D182D0B55D
:1024E000204F4B20D0B4D0BBD18F2020200020D053
:1024F000BFD180D0BED0B4D0BED0BBD0B6D0B5D0C6
:10250000BDD0B8D18F20D0BFD0B5D187D0B0D182C7
:10251000D0B8200020202D2D2D2D2D2D2D2D2D2D11
:102520002D2D2D2D2D2D2020002020203C20D09F32
:10253000D0BED0B6D0B0D0BBD183D0B9D181D182FA
:10254000D0B0203E202020002020203C20D0BFD032
:10255000BED0B4D0BED0B6D0B4D0B8D182D0B52120
:10256000203E202020003C20D097D0B0D0BCD0B559
:10257000D0BDD0B8D182D0B520D0BFD180D183D149
:1025800082D0BED0BA21203E00202020D09DD0B0E5
:10259000D0B6D0BCD0B8D182D0B5204F4B20D0B46B
:1025A000D0BBD18F2020200020D0BFD180D0BED082
:1025B000B4D0BED0BBD0B6D0B5D0BDD0B8D18F20AE
:1025C000D0BFD0B5D187D0B0D182D0B820002059AB
:1025D000005344002D2D2D002D2D3A2D2D002300CC
:1025E000204D415800204E4F57002000012902295C
:1025F000042908291029202940298029012C022C8E
:10260000012602260426082610262026402680269B
:10261000402C802C01230223042308231023202391
:1026200040238023012002200420082010202020A5
:1026300040208020102C202C012F022F042F082F47
:10264000102F202F402F802F7EFE7EFD7EFB7EF7F9
:102650007EEF7EDF7EBF7E7F000100008C261200B1
:102660000200009E264300030000E1260401030946
:1026700004E5261802030904FF26160303090417BC
:10268000270C0001C10201803601813612010002CF
:1026900002000020C01683040001010203010902A8
:1026A0004300020100C032090400000102020100DF
:1026B000052400100105240100010424020605245C
:1026C0000600010705820308004009040100020A10
:1026D00000000007050302400000070584024000D7
:1026E000000403090418035400650065006E0073BC
:1026F0000079006400750069006E006F000000162C
:102700000355005300420020005300650072006929
:102710000061006C0000000C033100320033003413
:102720000035000000494E46494E4954594E414E2D
:10273000000020410000C84200401C4620BCBE4CA6
:10274000CA1B0E5AAEC59D74CDCCCC3D0AD7233CD6
:1027500017B7D13877CC2B329595E6241FB14F0AA5
:102760007B529C84C3C8ACC980D47F5211241FBE45
:10277000CFEFD0E2DEBFCDBF15E0A0E0B1E0E6E2F2
:10278000F0EC01E00BBF02C007900D92A430B1073E
:10279000D9F713E1A4E0B5E001C01D92AF34B10751
:1027A000E1F717E2CAE6D7E200E006C02297010986
:1027B000FE010BBF0E94AED9C036D10780E00807EA
:1027C000A9F70E943CD10C9401E00C940000DB01BD
:1027D0000D900020E9F7AD0141505109461B570B00
:1027E000DC01ED91FC910280F381E02D099420E061
:1027F0000C9485D1CF93DF931F92CDB7DEB7698359
:10280000DC01ED91FC910280F381E02D41E050E08C
:10281000BE016F5F7F4F09950F90DF91CF910895B3
:10282000FC0113821682128283E594E091838083F7
:10283000089523E534E0FC0131832083268122239F
:1028400019F003960C94D2700895CF92DF92EF9214
:10285000FF920F931F93CF93DF93EC018F960E940B
:102860001014CE01815B9F4F0E9410147E012DE653
:10287000E20EF11C87016E0137E6C31A3EEFD30A60
:10288000C8010E941014025E1F4F0C151D05C1F7F0
:10289000FE01E556FE4F89E181831482FE01E05678
:1028A000FE4F178ACE0182549E4F0E941014FE01E3
:1028B000E259FD4F1082118212821382FE01EA5802
:1028C000FD4F10821182128213821A821B8218829B
:1028D0001982FE01EE58FD4FDE01A756BE4F1D9234
:1028E0001C92DE01A452BE4F1C928CE291E0D701F3
:1028F0009C011D9221503040E1F7DE01A658BD4FEA
:1029000081E08C931EA61DA60FB6F8948091381313
:1029100090913913A0913A13B0913B130FBE885791
:102920009C4EAF4FBF4F80839183A283B383DF91CF
:10293000CF911F910F91FF90EF90DF90CF9008956E
:10294000DB01FC0120E03EE24C91403229F02830CE
:1029500009F431934C9141932F5F11962B30A1F7DD
:10296000108208952F923F924F925F926F927F92C2
:102970008F929F92AF92BF92CF92DF92EF92FF928F
:102980000F931F93CF93DF93CDB7DEB7C758D1090D
:102990000FB6F894DEBF0FBECDBF8C017B013901AD
:1029A000312C2A0183E0480E511CF8017196CC5756
:1029B000DF4FF983E883C458D0406801F5E8CF1AA7
:1029C000FDEFDF0A580183E8A81A8DEFB80AEFE39C
:1029D000F0E0EC0FFD1F3396CA57DF4FF983E88311
:1029E000C658D040E7E2F5E02490F1C09C85492F1D
:1029F0004871403109F00BC1F6012081318121304D
:102A0000310509F404C12230310509F0F0C0FFC0DE
:102A100065E073E0CE01835A9F4F0E94CEDCB70180
:102A2000CE01835A9F4F0E94CEDCBE0169587F4F72
:102A3000CE01835A9F4F0E94CEDC65E073E0CE0149
:102A4000835A9F4F0E94CEDCCE01CF960E94101475
:102A500021E0AE0149585F4FB201CA57DF4F88816C
:102A60009981C658D0400E940A7381112DC0F60189
:102A700080819181892B41F5622D87E2882E85E046
:102A8000982E09C083E493E10E94FA13FFEF8F1A96
:102A90009F0AF40164916111F5CF67E073E083E46C
:102AA00093E10E94E7136AE083E493E10E94FA1342
:102AB000BE0169587F4F83E493E10E94E7136AE007
:102AC00083E493E10E94FA138BE1FE01EE5BFF4F7A
:102AD000DE01949601900D928A95E1F722968FADD2
:102AE00022978BA383E594E09AA389A320E030E0AA
:102AF000AE014F5D5F4FBE01635A7F4FC8010E9418
:102B0000B214CE0181960E941914CE01CF960E9474
:102B100019145DC08E3209F45AC08F3509F457C0BC
:102B2000F80181898E3209F452C08F3509F44FC003
:102B300093FD4DC081E0403109F080E0F80184A7A9
:102B4000811107C08985873409F041C08A858E3795
:102B5000F1F14801F4E08F0E911CBE016F5F7F4FD1
:102B6000C4010E94A014F601A081B181109781F4E4
:102B7000B70183E493E10E94E713B40183E493E196
:102B80000E94E7136AE083E493E10E94FA131FC0F6
:102B9000A130B10539F4F5018081918101969183CD
:102BA000808315C0129799F46114710439F0B4014F
:102BB000C3010E94BBDC892B49F42CC0232D30E0DB
:102BC000F501808191812817390721F13394CC5781
:102BD000DF4F48815981C458D040BE016F5F7F4F9D
:102BE000C2010E94276F18160CF400CF13C0BE015B
:102BF0006F5F7F4FCE0189589F4F0E94A0146E9641
:102C00001FAE6E97F7018081811109CF01CF8981B5
:102C1000811180CFC957DF4F0FB6F894DEBF0FBECA
:102C2000CDBFDF91CF911F910F91FF90EF90DF907B
:102C3000CF90BF90AF909F908F907F906F905F905C
:102C40004F903F902F900895EF92FF920F931F9314
:102C5000CF93DF93CDB7DEB76E970FB6F894DEBF94
:102C60000FBECDBF8C01FC01E558FD4F11821082D3
:102C70007C0182E3E80EF11C40E050E0BA01C7019C
:102C80000E94EB6F8BE1F701DE01149601900D922B
:102C90008A95E1F7F80181A98B8383E594E09A8313
:102CA000898320E030E0AE014F5F5F4F62ED74E05A
:102CB000C8010E94B214CE0101960E9419146E96AA
:102CC0000FB6F894DEBF0FBECDBFDF91CF911F913D
:102CD0000F91FF90EF900895CF93DF93EC018BE17C
:102CE000FB013396DE01139601900D928A95E1F770
:102CF000FB0182818A83CE01DF91CF910895EF920B
:102D0000FF920F931F93CF93DF93EC011B828DA94A
:102D1000882321F0CE01C2960E94D2707E0185E602
:102D2000E81A8EEFF80A44E160E0C7010E94FC6AED
:102D3000811131C0E7E2F5E064918F0108C083E4BE
:102D400093E10E94FA130F5F1F4FF8016491611124
:102D5000F6CFE3EEF0E064918F0108C083E493E1E5
:102D60000E94FA130F5F1F4FF80164916111F6CFB3
:102D70006AE083E493E10E94FA138E01015D1F4F24
:102D8000B801CE01815B9F4F0E946C16C35BDF4F81
:102D90001983088377C08E0100561E4F41E0B701AA
:102DA000C8010E941F79811126C040E0B701C80107
:102DB0000E941F7981111FC0EDE2F5E064918F013F
:102DC00008C083E493E10E94FA130F5F1F4FF801DC
:102DD00064916111F6CFE0EFF0E064918F0108C0DB
:102DE00083E493E10E94FA130F5F1F4FF80164918F
:102DF0006111F6CFBDCFB801CE01C2960E94946D8D
:102E000081111FC0EDE2F5E064918F0108C083E4F9
:102E100093E10E94FA130F5F1F4FF8016491611153
:102E2000F6CFE3E0F1E064918F0108C083E493E121
:102E30000E94FA130F5F1F4FF80164916111F6CFE2
:102E400097CF81E08B83E7E2F5E064918F0108C0C2
:102E500083E493E10E94FA130F5F1F4FF80164911E
:102E60006111F6CFE3E1F1E064918F0108C083E4E2
:102E700093E10E94FA130F5F1F4FF80164916111F3
:102E8000F6CF76CFDF91CF911F910F91FF90EF900A
:102E90000895FC01128213820895FC0123812223EC
:102EA00011F021E022830895FC012281222311F0F8
:102EB00012828A980895AF92BF92CF92DF92EF92DA
:102EC000FF920F931F93CF93DF931F92CDB7DEB77F
:102ED0008C018FE2FB0181935F01D12C41E07801ED
:102EE000F7E6EF1AFEEFFF0A9EE1C92E1AC0C29E56
:102EF000C001C39E900D112480599F4FB501800FD2
:102F0000911F49830E94346DC50149815C0101967E
:102F1000F5012081211102C0D39403C04D38F8F08F
:102F2000FBCF2D2D30E0F7018081918128173907E3
:102F3000F0F247FD11C0B501C8018F539E4F0F90AD
:102F4000DF91CF911F910F91FF90EF90DF90CF9085
:102F5000BF90AF900C94346DF501108202C04F5FAA
:102F6000D5CF0F90DF91CF911F910F91FF90EF90F0
:102F7000DF90CF90BF90AF9008954F925F926F9285
:102F80007F928F929F92AF92BF92CF92DF92EF92F9
:102F9000FF920F931F93CF93DF93CDB7DEB7AB971D
:102FA0000FB6F894DEBF0FBECDBF7C016B01FC01F4
:102FB0008381882309F4FCC0C7018F539E4F0E9470
:102FC000D270F7011282AA24A394B12CAC0EBD1EBC
:102FD000C5010E9410144701FDE48F0E911CC7012A
:102FE0008F96F40191838083F60180818F3209F0FE
:102FF0007AC06FE270E0C6010E94D9DC8C010F5FDD
:103000001F4F5A2C4B2C6AC06FE270E0C8010E941F
:10301000D9DC5C01009709F46DC00817190708F0A6
:1030200069C03C01601A710AA301B801CE014F9634
:103030000E9402DDEFE1F0E0EC0FFD1FE60DF71D51
:103040001082BE01615E7F4F83E493E10E94E7132B
:103050006AE083E493E10E94FA13F40160817181D4
:103060006115710519F06D5F7F4F02C060E070E07F
:1030700021E0AE01415E5F4FCE0104960E940A73CB
:10308000811126C0E5E2F2E064918F0108C083E47B
:1030900093E10E94FA130F5F1F4FF80164916111D1
:1030A000F6CFBE01615E7F4F83E493E10E94E71398
:1030B000E9E3F2E064918F0108C083E493E10E94A8
:1030C000FA130F5F1F4FF80164916111F6CF67C0CB
:1030D000F4015082418285010F5F1F4F01151105D8
:1030E00009F092CF08C0C701815B9F4FF401918323
:1030F000808301C06801F701E35BFF4F808191810C
:10310000009711F0039602C080E090E0B6010E94A3
:10311000C773882309F1EBE3F2E064918F0108C0E3
:1031200083E493E10E94FA130F5F1F4FF80164914B
:103130006111F6CFB60183E493E10E94E7136AE0E0
:1031400083E493E10E94FA13F701EA58FD4F1082DD
:1031500011821282138228C0E9E4F2E064918F01A7
:1031600008C083E493E10E94FA130F5F1F4FF80138
:1031700064916111F6CFB60183E493E10E94E713F5
:10318000E1E6F2E064918F0108C083E493E10E94DC
:10319000FA130F5F1F4FF80164916111F6CF6AE0D7
:1031A00083E493E10E94FA13CE0101960E94191460
:1031B000AB960FB6F894DEBF0FBECDBFDF91CF91B7
:1031C0001F910F91FF90EF90DF90CF90BF90AF9045
:1031D0009F908F907F906F905F904F9008950F9386
:1031E0001F93CF93DF93EC018B81882309F434C0C4
:1031F000E3E6F2E064918F0108C083E493E10E946A
:10320000FA130F5F1F4FF80164916111F6CFFE01B1
:10321000EA58FD4F408151816281738183E493E1DB
:103220000E94F713E5E7F2E064918F0108C083E4A0
:1032300093E10E94FA130F5F1F4FF801649161112F
:10324000F6CFC259DD4F488159816A817B8183E481
:1032500093E10E94F7130EC0E7E7F2E06491EF01FB
:1032600007C083E493E10E94FA132196FE01649162
:103270006111F7CF6AE083E493E1DF91CF911F9171
:103280000F910C94FA13CF92DF92EF92FF920F936B
:103290001F93CF93DF937C01EB01EC2FFD2FDF0118
:1032A0000D900020E9F78D01015011090E1B1F0B35
:1032B000F701EF53FE4F10826EE470E0CE010E94E2
:1032C000D9DC6C01009729F4F8013197EC0FFD1F50
:1032D0000DC060E270E00E94D9DCEC0121966AE248
:1032E00070E0C6010E94D9DCFC0131978DE081833A
:1032F0008AE082831382BE01C70182549E4F0E94DE
:10330000B575F701EF53FE4F8081882349F1EDE257
:10331000F5E06491EF0107C083E493E10E94FA13A2
:103320002196FE0164916111F7CFE7E8F2E0649124
:10333000EF0107C083E493E10E94FA132196FE0196
:1033400064916111F7CF6AE083E493E1DF91CF915B
:103350001F910F91FF90EF90DF90CF900C94FA1394
:10336000DF91CF911F910F91FF90EF90DF90CF9061
:1033700008953F924F925F926F927F928F929F92A9
:10338000AF92BF92CF92DF92EF92FF920F931F9373
:10339000CF93DF93CDB7DEB7CC55D1090FB6F894F4
:1033A000DEBF0FBECDBF7C0161111FC0FC01E6581E
:1033B000FD4F8081882309F4BCC00FB6F89440917A
:1033C00038135091391360913A1370913B130FBE2B
:1033D000F701EE58FD4F00811181228133810417DE
:1033E00015072607370708F4A4C0F701E658FD4F74
:1033F0001082F70183818823C9F0F70186A58F9396
:1034000085A58F938DE992E09F938F938E01015C48
:103410001F4F1F930F930E9411DD0F900F900F907D
:103420000F900F900F906801580112C0C7010E94C1
:103430007F16F70183818111E0CF7BC0F601808187
:10344000992787FD90950E944CDCF60181936F01CE
:10345000F50101900020E9F73197EA19FB098C2D5D
:10346000801B8E175CF33701F2E36F0E711C40E096
:1034700050E0BA01C3010E94EB6F312C8E010F5F47
:103480001F4F5E018FE3A80EB11C36EA432E32E0D7
:10349000532E4E01E1E28E0E911C35C0F601808163
:1034A00090E00E944CDCF60181936F01F8010190DD
:1034B0000020E9F73197E01BF10B8C2D801B8E1754
:1034C0006CF38A858E37F9F045E050E0B501C8010C
:1034D0000E94F4DC0097B9F4BF92AF925F924F92D2
:1034E0009F928F920E9411DDC4010E94B22C8DEA3E
:1034F00092E00E94242D0F900F900F900F900F904C
:103500000F903324339440E050E0B801C3010E948F
:10351000276F181614F46801C9CF311004C08FEF5B
:103520009FEFF70104C0F70185A596A5019696A720
:1035300085A7C45ADF4F0FB6F894DEBF0FBECDBFCC
:10354000DF91CF911F910F91FF90EF90DF90CF907F
:10355000BF90AF909F908F907F906F905F904F90B3
:103560003F9008950F931F93CF93DF93EC018C014D
:103570000F531E4FC8010E948670C8010E94D2706E
:1035800018821982DF91CF911F910F910895CF92E8
:10359000DF92EF92FF920F931F93CF93DF93CDB7FC
:1035A000DEB76E970FB6F894DEBF0FBECDBF8C01AD
:1035B0006A017C018DE4E80EF11CC801815B9F4F1C
:1035C000F70191838083F801E558FD4F22E030E058
:1035D00031832083F801E358FD4F7183608340E01D
:1035E00050E0BA0103960E94EB6FF7018081918150
:1035F0002BE1FC013396DE01149601900D922A9581
:10360000E1F7FC0182818B8383E594E09A838983CF
:103610009601AE014F5F5F4F62ED74E0C8010E94FA
:10362000B214CE0101960E9419146E960FB6F8944A
:10363000DEBF0FBECDBFDF91CF911F910F91FF90E5
:10364000EF90DF90CF9008953F924F925F926F92EC
:103650007F928F929F92AF92BF92CF92DF92EF9222
:10366000FF920F931F93CF93DF93CDB7DEB7AB9746
:103670000FB6F894DEBF0FBECDBF7C015B01542EA8
:10368000DC0113968C91882309F4C2C2F701EC5334
:10369000FE4F8081882309F4EFC02111BFC0F701DC
:1036A000E452FE4F8081882371F1EDE2F5E06491F0
:1036B0008F0108C083E493E10E94FA130F5F1F4F4C
:1036C000F80164916111F6CFEEE1F1E064918F01B0
:1036D00008C083E493E10E94FA130F5F1F4FF801C3
:1036E00064916111F6CF41E050E060E070E083E466
:1036F00093E10E94E1D16AE083E493E10E94FA132E
:103700000E94E83385C2E7E2F5E064918F0108C0CA
:1037100083E493E10E94FA130F5F1F4FF801649155
:103720006111F6CFE1E6F1E064918F0108C083E416
:1037300093E10E94FA130F5F1F4FF801649161112A
:10374000F6CFB50183E493E10E94E713EAE7F1E0E5
:1037500064918F0108C083E493E10E94FA130F5F24
:103760001F4FF80164916111F6CF870104521E4F7B
:10377000D8018C914DE8D42EB701D89E600D711DF3
:1037800011246F517E4FC7010E945B17F8018081A1
:10379000B701D89E600D711D11246F517E4F83E4D7
:1037A00093E10E94E713E5E8F1E064918F0108C01E
:1037B00083E493E10E94FA130F5F1F4FF8016491B5
:1037C0006111F6CF87010A581D4FD8014D915D91C7
:1037D0006D917C9183E493E10E94F7136AE083E4A6
:1037E00093E10E94FA13F701E452FE4F8081D70162
:1037F00094E0899FA00DB11D1124AD0143525E4F8D
:10380000D8010D911D912D913C91DA010D931D93DD
:103810002D933C9313978F5F808328C0E7E2F5E0F8
:1038200064918F0108C083E493E10E94FA130F5F53
:103830001F4FF80164916111F6CFEBE8F1E064915C
:103840008F0108C083E493E10E94FA130F5F1F4FBA
:10385000F80164916111F6CFB50183E493E10E9410
:10386000E7136AE083E493E10E94FA13C7018F53E0
:103870009E4F0E94D2702CC0F701E452FE4F10827E
:10388000E7E2F5E064918F0108C083E493E10E94D0
:10389000FA130F5F1F4FF80164916111F6CFECE945
:1038A000F1E064918F0108C083E493E10E94FA1370
:1038B0000F5F1F4FF80164916111F6CFB50183E4EA
:1038C00093E10E94E7136AE083E493E10E94FA1314
:1038D000D70112961C928E010F5F1F4FC8010E94E4
:1038E00010144701BDE48B0E911CC7018F96F401A3
:1038F00091838083D5018C918F3209F07BC06FE278
:1039000070E0C5010E94D9DC01966C01402E312E79
:103910006CC06FE270E0C6010E94D9DC8C01009798
:1039200009F46FC0C816D90608F06BC03C016C18CA
:103930007D08A301B601CE014F960E9402DDEFE1A2
:10394000F0E0EC0FFD1FE60DF71D1082BE01615E79
:103950007F4F83E493E10E94E7136AE083E493E1FD
:103960000E94FA13F401608171816115710519F0EB
:103970006D5F7F4F02C060E070E021E0AE01415E0C
:103980005F4FCE0104960E940A73811126C0EDEAB2
:10399000F1E064918F0108C083E493E10E94FA137F
:1039A0000F5F1F4FF80164916111F6CFBE01615E98
:1039B0007F4F83E493E10E94E713E1ECF1E064912F
:1039C0008F0108C083E493E10E94FA130F5F1F4F39
:1039D000F80164916111F6CFBFC0D4014C921196E9
:1039E0003C926801BFEFCB1ADB0AC114D10409F085
:1039F00090CF06C0C701815B9F4FF4019183808304
:103A0000650187010F531E4FF701E35BFF4F608194
:103A10007181552009F4A6C06115710519F06D5F1B
:103A20007F4F02C060E070E021E0A601C8010E9463
:103A30000A73882309F46DC0F701E259FD4FD801DC
:103A400051960D911D912D913C91549700831183B6
:103A500022833383E3ECF1E064918F0108C083E4B7
:103A600093E10E94FA130F5F1F4FF80164916111F7
:103A7000F6CFB60183E493E10E94E713E1EDF1E0B4
:103A800064918F0108C083E493E10E94FA130F5FF1
:103A90001F4FF80164916111F6CFF701E259FD4F14
:103AA000408151816281738183E493E10E94F71325
:103AB0006AE083E493E10E94FA13F701EA58FD4FAC
:103AC0001082118212821382E9EDF1E064918F017C
:103AD00008C083E493E10E94FA130F5F1F4FF801BF
:103AE00064916111F6CF6AE083E493E10E94FA13D6
:103AF000A60160E070E0C7010E94C71AD701519685
:103B00008C91882309F47DC06701B1E1CB0ED11CF3
:103B100078C0E7EEF1E064918F0108C083E493E19F
:103B20000E94FA130F5F1F4FF80164916111F6CFE5
:103B3000B60183E493E10E94E713EBEFF1E06491B7
:103B40008F0108C083E493E10E94FA130F5F1F4FB7
:103B5000F80164916111F6CF6AE083E493E10E9479
:103B6000FA1352C06115710519F06D5F7F4F02C0E5
:103B700060E070E026E5A601C8010E940A73811189
:103B800024C0EDEFF1E064918F0108C083E493E17C
:103B90000E94FA130F5F1F4FF80164916111F6CF75
:103BA000B60183E493E10E94E713E1E1F2E064915E
:103BB0008F0108C083E493E10E94FA130F5F1F4F47
:103BC000F80164916111F6CFC7CF81E0D7018C93E2
:103BD000E3E1F2E064918F0108C083E493E10E9485
:103BE000FA130F5F1F4FF80164916111F6CFB50111
:103BF00083E493E10E94E7136AE083E493E10E9487
:103C0000FA13C6010E94D5AACE0101960E9419148A
:103C1000AB960FB6F894DEBF0FBECDBFDF91CF914C
:103C20001F910F91FF90EF90DF90CF90BF90AF90DA
:103C30009F908F907F906F905F904F903F900895EE
:103C400021E0FC01218340E00C94241BCF92DF9201
:103C5000EF92FF920F931F93CF93DF93CDB7DEB711
:103C60006E970FB6F894DEBF0FBECDBF8C016C010E
:103C70002DE4C20ED11C815B9F4FF601918380839E
:103C8000F801E558FD4F21E030E0318320837801D1
:103C9000F3E8EF1AFDEFFF0AF7011182108240E00E
:103CA00050E0BA0103960E94EB6FF601808191818A
:103CB0002BE1FC013396DE01149601900D922A95BA
:103CC000E1F7FC0182818B8383E594E09A83898309
:103CD00020E030E0AE014F5F5F4F62ED74E0C8015D
:103CE0000E94B214CE0101960E941914F70180813E
:103CF00091816E960FB6F894DEBF0FBECDBFDF91F7
:103D0000CF911F910F91FF90EF90DF90CF9008958A
:103D1000BF92CF92DF92EF92FF920F931F93CF93B8
:103D2000DF93CDB7DEB76E970FB6F894DEBF0FBE48
:103D3000CDBF8C017B01CE0101960E941014F801C9
:103D4000EB5AFF4F80816801811104C08FE2C80ED9
:103D5000D11C03C0EFE4CE0ED11CB6016D5F7F4FC6
:103D600021E0A701CE0104960E940A73811129C0A7
:103D7000E7E2F5E064918F0108C083E493E10E94DB
:103D8000FA130F5F1F4FF80164916111F6CFE1EB59
:103D9000F2E064918F0108C083E493E10E94FA137A
:103DA0000F5F1F4FF80164916111F6CFB70183E4F3
:103DB00093E10E94E7136AE083E493E10E94FA131F
:103DC0003CC0F801E756FE4FE080F1808AE0E8163B
:103DD000F10458F5C7010196918380835EE1B52E09
:103DE00017C0BE9CB001BF9C700D112463597F4F5A
:103DF000600F711FB29EC001B39E900D11248359B4
:103E00009F4F800F911F0E946C16E1E0EE1AF1089F
:103E100097012F5F3F4FFFEFEF16FF0611F7B60137
:103E2000C80183599F4F0E946C16BE016F5F7F4F80
:103E3000C801815B9F4F0E946C16CE0101960E94C3
:103E400019146E960FB6F894DEBF0FBECDBFDF918A
:103E5000CF911F910F91FF90EF90DF90CF90BF9087
:103E60000895DF92EF92FF920F931F93CF93DF930A
:103E7000EC018C0107561E4FF8018081918100975B
:103E800079F1019791838083BE0163597F4FCE0101
:103E9000815B9F4F0E946C1620E030E06EE1D62ED1
:103EA00019C07901FFEFEF1AFF0ADE9CB001DF9C19
:103EB000700D112463597F4F6C0F7D1FD29EC0017E
:103EC000D39E900D112483599F4F8C0F9D1F0E94EC
:103ED0006C169701F801808191812817390708F342
:103EE000DF91CF911F910F91FF90EF90DF90089598
:103EF000EF92FF920F931F93CF93DF93EC010E94F9
:103F000083828E0104521E4FF8018081E1ECEE2E77
:103F1000FF24F394EC0EFD1E8823A9F1C7010E9433
:103F2000D270F801808181508083BE01FDE88F9FAF
:103F3000600D711D11246F517E4F21E041E0CE01D3
:103F40000E94241BF8018081FE0194E0899FE00D0E
:103F5000F11D1124E352FE4F408151816281738132
:103F6000FE01EA58FD4F4083518362837383C7018A
:103F70000E94EB6FCE01DF91CF911F910F91FF90C7
:103F8000EF900C944D170E940083C7010E94D270DD
:103F90001A8287EC92E00E94242D8091850E88235E
:103FA000F9F01092850EC0911C05D0E0CC0FDD1FFA
:103FB000C354DE4E68817981882777FD8095982FDC
:103FC0000E9419D620913D0130913E0140913F0160
:103FD000509140010E947AD7181614F41982188261
:103FE000DF91CF911F910F91FF90EF900895EF9285
:103FF000FF920F931F93CF93DF931F92CDB7DEB73E
:104000008C017B01460FF70161917F01F8018081EE
:10401000918149830E9450DFF8018081918101964E
:104020009183808349814E11EECF0F90DF91CF9124
:104030001F910F91FF90EF900895EF92FF920F93D1
:104040001F93CF93DF931F92CDB7DEB78C017B0117
:10405000460FF8018081918149830E9448DFF70172
:1040600081937F01F8018081918101969183808302
:1040700049814E11EECF0F90DF91CF911F910F919B
:10408000FF90EF9008950F931F93CF93DF93CDB7D9
:10409000DEB72C970FB6F894DEBF0FBECDBF80E31E
:1040A00090E3A0E3B0E08D839E83AF83B88704E6FE
:1040B00010E01C870B8744E0BE016B5F7F4FCE0191
:1040C0000B960E94F71F40E162ED7EE0CE010B9659
:1040D0000E94F71F40E162EE7EE0CE010B960E9447
:1040E000F71F40E162EC7EE0CE010B960E94F71FC5
:1040F00044E06AEB7EE0CE010B960E94F71F44E09D
:1041000066EB7EE0CE010B960E94F71F44E06EEB5B
:104110007EE0CE010B960E94F71F44E066EA7EE047
:10412000CE010B960E94F71F44E062EF7EE0CE01C5
:104130000B960E94F71F44E062EB7EE0CE010B96E7
:104140000E94F71F44E06EEA7EE0CE010B960E94CB
:10415000F71F44E06AEA7EE0CE010B960E94F71F4B
:104160004CE060E375E0CE010B960E94F71F42E041
:104170006FE672E1CE010B960E94F71F42E06DE6FA
:1041800072E1CE010B960E94F71F42E06BE672E1EE
:10419000CE010B960E94F71F42E069E672E1CE0164
:1041A0000B960E94F71F42E067E672E1CE010B9684
:1041B0000E94F71F42E065E672E1CE010B960E9475
:1041C000F71F44E06DE175E0CE010B960E94F71FEA
:1041D00044E068E571E0CE010B960E94F71F44E0D1
:1041E00064E571E0CE010B960E94F71F44E060E5A4
:1041F00071E0CE010B960E94F71F80E290E09A8753
:10420000898742E0BE01675F7F4FCE010B960E9417
:10421000F71F41E06CE475E0CE010B960E94F71F9A
:1042200044E062E171E0CE010B960E94F71F86E543
:1042300091E3A3E3B0E089839A83AB83BC831C87BB
:104240000B8744E0BE016F5F7F4FCE010B960E944B
:10425000F71FE7E2F5E064918F0108C083E493E182
:104260000E94FA130F5F1F4FF80164916111F6CF9E
:10427000E3EDF2E064918F0108C083E493E10E94D2
:10428000FA130F5F1F4FF80164916111F6CF6AE0D6
:1042900083E493E10E94FA132C960FB6F894DEBFE4
:1042A0000FBECDBFDF91CF911F910F9108950F9356
:1042B0001F93CF93DF93C7E2D5E0FE0164918E0197
:1042C00008C083E493E10E94FA130F5F1F4FF801C7
:1042D00064916111F6CFE3EEF2E064918F0108C0C2
:1042E00083E493E10E94FA130F5F1F4FF80164917A
:1042F0006111F6CF6AE083E493E10E94FA13FE01B4
:10430000649107E215E008C083E493E10E94FA1388
:104310000F5F1F4FF80164916111F6CF4091D20EEB
:104320005091D30E6091D40E7091D50E83EF92E030
:104330000E94502C4091D60E5091D70E6091D80E0D
:104340007091D90E8BEF92E00E94502C4091DA0EC2
:104350005091DB0E6091DC0E7091DD0E8EEF92E0DD
:104360000E94502C4091DE0E5091DF0E6091E00EC5
:104370007091E10E81E093E00E94502C62ED74E0B8
:1043800083E493E10E94E7136AE083E493E10E94EF
:10439000FA13FE01649107E215E008C083E493E19B
:1043A0000E94FA130F5F1F4FF80164916111F6CF5D
:1043B000E4E0F3E064918F0108C083E493E10E949C
:1043C000FA130F5F1F4FF80164916111F6CF6AE095
:1043D00083E493E10E94FA13FE01649107E215E081
:1043E00008C083E493E10E94FA130F5F1F4FF801A6
:1043F00064916111F6CF4091E20E5091E30E60910D
:10440000E40E7091E50E8EE193E00E94502C4091F5
:10441000E60E5091E70E6091E80E7091E90E87E28A
:1044200093E00E94502C4091EA0E5091EB0E609167
:10443000EC0E7091ED0E8AE293E00E94502C4091B8
:10444000EE0E5091EF0E6091F00E7091F10E8DE234
:1044500093E00E94502C62ED74E083E493E10E94AB
:10446000E7136AE083E493E10E94FA13FE0164918A
:1044700007E215E008C083E493E10E94FA130F5F9E
:104480001F4FF80164916111F6CFE0E3F3E064910E
:104490008F0108C083E493E10E94FA130F5F1F4F5E
:1044A000F80164916111F6CF6AE083E493E10E9420
:1044B000FA13FE01649107E215E008C083E493E17A
:1044C0000E94FA130F5F1F4FF80164916111F6CF3C
:1044D0004091C20E5091C30E6091C40E7091C50EF2
:1044E0008EE493E00E94922C4091C60E5091C70E2C
:1044F0006091C80E7091C90E87E593E00E94922CDE
:104500004091CA0E5091CB0E6091CC0E7091CD0EA1
:104510008AE593E00E94922C4091CE0E5091CF0EEE
:104520006091D00E7091D10E8DE593E00E94922C97
:1045300062ED74E083E493E10E94E7136AE083E4B0
:1045400093E10E94FA13FE01649107E215E008C0AE
:1045500083E493E10E94FA130F5F1F4FF801649107
:104560006111F6CFE0E6F3E064918F0108C083E4C7
:1045700093E10E94FA130F5F1F4FF80164916111DC
:10458000F6CF6AE083E493E10E94FA13FE0164919E
:1045900007E215E008C083E493E10E94FA130F5F7D
:1045A0001F4FF80164916111F6CF4091BA0E5091FE
:1045B000BB0E6091BC0E7091BD0E85E993E00E9428
:1045C000502C4091B60E5091B70E6091B80E70917C
:1045D000B90E8EE993E00E94502C62ED74E083E402
:1045E00093E10E94E7136AE083E493E10E94FA13E7
:1045F000FE01649107E215E008C083E493E10E94A4
:10460000FA130F5F1F4FF80164916111F6CFE1EAD1
:10461000F3E064918F0108C083E493E10E94FA13F0
:104620000F5F1F4FF80164916111F6CF6AE083E4D8
:1046300093E10E94FA13FE01649107E215E008C0BD
:1046400083E493E10E94FA130F5F1F4FF801649116
:104650006111F6CF4091BE0E5091BF0E6091C00E19
:104660007091C10E84E594E00E94502C4091A60EFA
:104670005091A70E6091A80E7091A90E8DE594E05F
:104680000E94502C4091F20E5091F30E6091F40E66
:104690007091F50E80E694E00E94922C4091B20E4B
:1046A0005091B30E6091B40E7091B50E83E694E014
:1046B0000E94502C4091AE0E5091AF0E6091B00E02
:1046C0007091B10E86E694E00E94502C4091AA0EA3
:1046D0005091AB0E6091AC0E7091AD0E89E694E0F6
:1046E0000E94502C62ED74E083E493E10E94E71392
:1046F0006AE083E493E10E94FA13FE01649107E209
:1047000015E008C083E493E10E94FA130F5F1F4F86
:10471000F80164916111F6CFECE6F4E064918F0149
:1047200008C083E493E10E94FA130F5F1F4FF80162
:1047300064916111F6CF6AE083E493E10E94FA1379
:10474000FE01649107E215E008C083E493E10E9452
:10475000FA130F5F1F4FF80164916111F6CF40917A
:1047600030055091310560913205709133058EE727
:1047700094E00E94502C4091340550913505609191
:1047800036057091370587E894E00E94502C4091DF
:1047900038055091390560913A0570913B058AE8DA
:1047A00094E00E94502C62ED74E083E493E10E9457
:1047B000E7136AE083E493E10E94FA13FE01649137
:1047C00007E215E008C083E493E10E94FA130F5F4B
:1047D0001F4FF80164916111F6CFEDE8F4E06491A8
:1047E0008F0108C083E493E10E94FA130F5F1F4F0B
:1047F000F80164916111F6CF6AE083E493E10E94CD
:10480000FA13FE01649107E215E008C083E493E126
:104810000E94FA130F5F1F4FF80164916111F6CFE8
:10482000409158015091590160915A0170915B017A
:104830008BE994E00E94502C6091540170915501D5
:1048400080915601909157010E941792AB01BC01D3
:1048500085EA94E00E94502C6091500170915101C2
:1048600080915201909153010E942592AB01BC01AD
:1048700088EA94E00E94502C62ED74E083E493E1B6
:104880000E94E7136AE083E493E1DF91CF911F91E7
:104890000F910C94FA13AF92BF92CF92DF92EF92E6
:1048A000FF920F931F93CF93DF93CDB7DEB7E097BF
:1048B0000FB6F894DEBF0FBECDBF80E1E5E9F1E0B1
:1048C000DE01919601900D928A95E1F780E1E5EA8B
:1048D000F1E0DE01519601900D928A95E1F780E1B9
:1048E000E5EBF1E0DE01119601900D928A95E1F77A
:1048F0006E0181E2C80ED11C82EDE82E8EE0F82E0A
:104900008E010F5E1F4F62EE7EE0AE014F5F5F4F84
:1049100092ECA92E9EE0B92E20E030E0F6018191C4
:104920009191A191B1916F01F70181939193A1931D
:10493000B1937F01F80181919191A191B1918F0182
:10494000FB0181939193A193B193BF01FA018191EE
:104950009191A191B191AF01F50181939193A193AF
:10496000B1935F012F5F3F4F24303105B9F60E94AC
:104970005B6980E090E0AAE7B4E48093BA0E90937C
:10498000BB0EA093BC0EB093BD0E80E090E8ABE3ED
:10499000B5E48093B60E9093B70EA093B80EB09383
:1049A000B90E1092BE0E1092BF0E1092C00E109251
:1049B000C10E80E29EE4A0E0B0E08093F20E9093FE
:1049C000F30EA093F40EB093F50E1092A60E109273
:1049D000A70E1092A80E1092A90E80E090E0A0E21F
:1049E000B1E48093B20E9093B30EA093B40EB09343
:1049F000B50E8DEC9CECACECBEE38093AE0E9093C8
:104A0000AF0EA093B00EB093B10E80E090E0A0EA9C
:104A1000B0E48093AA0E9093AB0EA093AC0EB0932B
:104A2000AD0E109238051092390510923A05109289
:104A30003B05109234051092350510923605109200
:104A40003705109230051092310510923205109200
:104A5000330586E990E09093701280936F1281E4A1
:104A600090E090936E1280936D1210926C121092DF
:104A70006B1288EC90E090936A128093691289E639
:104A800090E09093681280936712109266121092D1
:104A9000651280E090E0A0E4B1E480935801909327
:104AA0005901A0935A01B0935B016DEC7CEC8CE44E
:104AB0009FE30E941092609354017093550180937C
:104AC00056019093570160E070E082E392E40E9407
:104AD0001E92609350017093510180935201909304
:104AE00053010E94E88586E696E6A6EABFE3809336
:104AF0004C0190934D01A0934E01B0934F01109241
:104B00004C0580E090E0A0E4B0E480931201909323
:104B10001301A0931401B09315010E946739E7E2D5
:104B2000F5E064918F0108C083E493E10E94FA13D9
:104B30000F5F1F4FF80164916111F6CFE5ECF4E0CF
:104B400064918F0108C083E493E10E94FA130F5F20
:104B50001F4FF80164916111F6CF6AE083E493E19D
:104B6000E0960FB6F894DEBF0FBECDBFDF91CF91B8
:104B70001F910F91FF90EF90DF90CF90BF90AF907B
:104B80000C94FA130F931F93CF93DF93CDB7DEB737
:104B90002C970FB6F894DEBF0FBECDBF84E690E031
:104BA0009C878B8786E591E3A3E3B0E089839A83B2
:104BB000AB83BC8344E0BE016B5F7F4FCE010B969D
:104BC0000E941D2043E050E0BE016B5F7F4FCE018D
:104BD00001960E94F4DC009709F0DAC040E162ED32
:104BE0007EE0CE010B960E941D2040E162EE7EE049
:104BF000CE010B960E941D2040E162EC7EE0CE01CA
:104C00000B960E941D200E945B6944E06AEB7EE0E7
:104C1000CE010B960E941D2044E066EB7EE0CE01A3
:104C20000B960E941D2044E06EEB7EE0CE010B96B9
:104C30000E941D2044E066EA7EE0CE010B960E94B1
:104C40001D2044E062EF7EE0CE010B960E941D2005
:104C500044E062EB7EE0CE010B960E941D2044E012
:104C60006EEA7EE0CE010B960E941D2044E06AEAC7
:104C70007EE0CE010B960E941D204CE060E375E0C3
:104C8000CE010B960E941D2042E06FE672E1CE013C
:104C90000B960E941D2042E06DE672E1CE010B965C
:104CA0000E941D2042E06BE672E1CE010B960E944D
:104CB0001D2042E069E672E1CE010B960E941D20A4
:104CC00042E067E672E1CE010B960E941D2042E0B1
:104CD00065E672E1CE010B960E941D2044E06DE175
:104CE00075E0CE010B960E941D2044E068E571E05E
:104CF000CE010B960E941D2044E064E571E0CE01D8
:104D00000B960E941D2044E060E571E0CE010B96F9
:104D10000E941D2042E0BE01675F7F4FCE010B96CF
:104D20000E941D2041E06CE475E0CE010B960E94CC
:104D30001D2044E062E171E0CE010B960E941D202F
:104D40000E9467390E94E885E7E2F5E064918F01EF
:104D500008C083E493E10E94FA130F5F1F4FF8012C
:104D600064916111F6CFEBEAF4E064918F0108C021
:104D700083E493E10E94FA130F5F1F4FF8016491DF
:104D80006111F6CF6AE083E493E10E94FA1302C056
:104D90000E944B240E9457212C960FB6F894DEBF38
:104DA0000FBECDBFDF91CF911F910F910895FC01F0
:104DB000858190E0FC010E94CECC24E0322F31505E
:104DC000F1F7FC010E94C8CC2150F1F7FC010E94D0
:104DD000CECC80E991E00197F1F70895AF92BF92B0
:104DE000CF92DF92EF92FF920F931F93CF93DF93B7
:104DF0007C01C0E0D0E0C42ED12CA62EB12C19C06D
:104E000087010C0F1D1FD80116968C910E940ECCA5
:104E1000D8011696EC91F0E095010C2E02C0359564
:104E200027950A94E2F721703327022E0E94C5CC01
:104E30002196CC15DD0524F3C701DF91CF911F9199
:104E40000F91FF90EF90DF90CF90BF90AF900C94B8
:104E5000D7261F93CF93DF93EC01162FEB81F0E061
:104E6000042E0E94C5CCEC81EF3F19F0F0E00E94C7
:104E7000CECC8E8584FF02C048E00CC0612F70E06C
:104E800084E0759567958A95E1F744E0CE010E942C
:104E9000EE2644E0612FCE01DF91CF911F910C945B
:104EA000EE2640E00C942927CF92DF92EF92FF92FA
:104EB0000F931F93CF93DF9300D0CDB7DEB78C0154
:104EC000677088E0689FB00111246064C80149835D
:104ED0005A830E9451274981C42E5A81D52EE12C34
:104EE000F12CD6016D916D01D801ED91FC910190ED
:104EF000F081E02DC8010995BFEFEB1AFB0AE8E04D
:104F0000EE16F10471F70F900F90DF91CF911F9182
:104F10000F91FF90EF90DF90CF900895FC0167858F
:104F2000262F246027876C600C945127CF93DF9342
:104F3000CDB7DEB728970FB6F894DEBF0FBECDBF52
:104F400028E0E5ECF1E0DE01119601900D922A9542
:104F5000E1F7FC012289421710F0422F4150E1E0B5
:104F6000F0E0EC0FFD1F22E0429FE00DF11D112447
:104F70002081260F2068622F28960FB6F894DEBF96
:104F80000FBECDBFDF91CF910C94512761E00E94FD
:104F9000512780E49FE10197F1F708950F931F9344
:104FA000CF93DF93EC01423018F08E8588608E87B6
:104FB0004A8B1B8A222329F0413019F48E858460A4
:104FC0008E8780E49DE00197F1F7EB81F0E00E948D
:104FD000CECCED81F0E00E94CECCEC81EF3F19F019
:104FE000F0E00E94CECC6E8564FD21C044E063E019
:104FF000CE010E94EE2600E516E4C8010197F1F704
:1050000044E063E0CE010E94EE26C8010197F1F76B
:1050100044E063E0CE010E94EE2688E592E001972D
:10502000F1F744E062E0CE010E94EE2616C0606215
:10503000CE010E94512780E596E40197F1F76E8535
:105040006062CE010E94512788E592E00197F1F756
:105050006E856062CE010E9451276E856062CE012E
:105060000E94512784E08F87CE010E948E27CE01B7
:105070000E94C62782E0888B66E0CE01DF91CF9147
:105080001F910F910C9451276F927F928F92AF9244
:10509000CF92EF920F931F93CF93DF93CDB7DEB7ED
:1050A0003C01162F842F5D854E853F859889F3013D
:1050B000838324830583E682C782A0868186528704
:1050C0004387348795870E940ECCF30184818F3FFC
:1050D00011F00E940ECCF30185810E940ECC1123A9
:1050E00019F0F301168603C080E1F301868720E002
:1050F00041E060E1C301DF91CF911F910F91EF90EB
:10510000CF90AF908F907F906F900C94CE278F921E
:10511000AF92CF92EF920F93DC0112961C921297EE
:10512000EEE1F3E0ED93FC931F921F921F921F920A
:105130008C2CAE2CC02EE22E042F2FEF462F61E0D8
:105140000E9444280F900F900F900F900F91EF90B6
:10515000CF90AF908F900895EF92FF920F931F938F
:10516000CF93DF938C01C0E0D0E0E62EF12C06C097
:10517000EC0FFD1F86810E949DCC2196F801CE1573
:10518000DF05B4F3458150E0FA010E94CECC84E003
:10519000982F9150F1F7FA010E94C8CC8150F1F795
:1051A00020E030E080E0A1E0B0E015C0F801E20FBF
:1051B000F31FE681F0E00E94C1CDE13039F4BD017A
:1051C000022E01C0660F0A94EAF702C060E070E0A8
:1051D000862B2F5F3F4F2E153F0544F3FA010E94A7
:1051E000CECCDF91CF911F910F91FF90EF9008955A
:1051F0001F93CF93DF93EC01EB81F0E0062E0E942A
:10520000C5CCEC81EF3F19F0F0E00E94C8CC8E8550
:1052100084FF07C068E0CE01DF91CF911F910C940D
:10522000AC2864E0CE010E94AC28182F1295107FA4
:1052300064E0CE010E94AC28812BDF91CF911F91B9
:1052400008951F93CF93DF93EC01162F8C89813043
:1052500079F460E0CE010E94F8288F77982F98505B
:105260009C3030F4682F685C6068CE010E94512742
:1052700017FF21C0103C18F0105D1D8B21C01F735B
:10528000ED89E11105C0113051F441E062EA15C029
:10529000E13029F4113119F441E065EB0EC080E4EE
:1052A000E89FF00111247097E10FF11DE951FB4FC8
:1052B000649141E002C041E0612FCE010E942927A4
:1052C00081E090E0DF91CF911F910895FC0145911D
:1052D000559165917491E52F362F272F642F7E2FDE
:1052E000832F922F08952F923F924F925F926F9249
:1052F0007F928F929F92AF92BF92CF92DF92EF9266
:10530000FF920F931F93CF93DF93CDB7DEB728970C
:105310000FB6F894DEBF0FBECDBF1C01FC01E653F3
:10532000F44F1491880F991F880F991F98878F83C6
:10533000845C9A4F9C838B83FC01108211821282C1
:10534000138228E435E044E455E060E475E08CE342
:1053500095E00E9495688F8198858350944F0E94B4
:1053600066292B013C01612F772767FD7095872FF8
:10537000972F0E9419D64B015C018F81988589581F
:10538000964F9A83898320E030E040EC5FE3C301CD
:10539000B2010E944CD8A50194010E944CD8E98129
:1053A000FA8160837183828393838F819885845E81
:1053B0009E4F9E838D83FC016081718182819381E8
:1053C00060932C0170932D0180932E0190932F01F7
:1053D00020E030E040E752E40E947ED53CE1C32E5D
:1053E00035E0D32E7B018C0123E839E04FE759E00B
:1053F0006BE779E087E799E00E940D5E0E94838267
:10540000EB81FC81108211821282138228E435E044
:1054100044E455E060E475E08CE395E00E94956813
:105420008F8198858F50944F0E9466292B013C01F3
:105430009058A50194010E944CD8E981FA816083BB
:1054400071838283938320E030E040E752E46091EF
:105450002C0170912D0180912E0190912F010E94BD
:105460007ED57B018C0123E839E04FE759E06BE7FB
:1054700079E087E799E00E940D5E0E948382A30194
:105480009201C301B2010E949ED4A50194010E9421
:105490004CD8E981FA81608371838283938320E011
:1054A00030E040E05FE3ED81FE81608171818281C7
:1054B00093810E944CD8FB01462F5F2F682F792FD4
:1054C00040932C0150932D0160932E0170932F0176
:1054D00020E030E040E752E4BF010E947ED57B012E
:1054E0008C0123E839E04FE759E06BE779E087E783
:1054F00099E00E940D5E0E9483828F81988583537C
:10550000944F0E946629EF81F885E05DFA4F808014
:105510009180A280B380A50194010E949ED42B01AA
:105520003C01982F442D552D692F772DEB81FC815F
:1055300040835183628373838F8198858752944F10
:105540000E9466290F8118850C5D1A4FA5019401F0
:105550000E949ED4F80160837183828393838F813C
:1055600098858B51944F0E9466290F8118850E5F94
:105570001E4FA50194010E949ED4F801608371839F
:1055800082839383442D552D662D772DE981FA81F1
:10559000408351836283738310922C0110922D01FA
:1055A00010922E0110922F010E94267BF101EF5DD7
:1055B000FA4F81E0808328960FB6F894DEBF0FBEC5
:1055C000CDBFDF91CF911F910F91FF90EF90DF90B2
:1055D000CF90BF90AF909F908F907F906F905F9093
:1055E0004F903F902F900895AB01662757FD60952F
:1055F000762F0C94E1D10C94EFD1109258111092A7
:105600006011109261111092621110926311109248
:105610005C1110925D1110925E1110925F1125982D
:105620000895AF92BF92CF92DF92EF92FF920F93C5
:105630001F93CF93DF93CDB7DEB7E0970FB6F89403
:10564000DEBF0FBECDBF8091D507811105C080910F
:10565000D407882309F46BC060E070E0CB010E949E
:1056600052698BEA9AEAA6E2B5E48093DE0E909343
:10567000DF0EA093E00EB093E10E80E1EDECF1E0DF
:10568000DE01519601900D928A95E1F780E1EDEDF2
:10569000F1E0DE01119601900D928A95E1F7FE018D
:1056A000719662EE7EE0AE014F5F5F4F22EC3EE00E
:1056B0008E010F5D1F4FC190D190E190F190DB0101
:1056C000CD92DD92ED92FD92BD01DA01CD90DD909B
:1056D000ED90FD90AD01D901CD92DD92ED92FD925C
:1056E0009D01E017F10739F70E945B6980E090E0C7
:1056F000A8E4B3E48093BA0E9093BB0EA093BC0EC3
:10570000B093BD0E80E090E0A0E4B0E48093B20ED0
:105710009093B30EA093B40EB093B50E8093AE0EDB
:105720009093AF0EA093B00EB093B10E88C060E01E
:1057300070E08AE293E40E94526980E1EDEEF1E0CC
:10574000DE01919601900D928A95E1F780E1EDEFEF
:10575000F1E0DE01519601900D928A95E1F780E12A
:10576000EDE0F2E0DE01119601900D928A95E1F7ED
:105770006E01B1E2CB0ED11C42EDE42E4EE0F42ED0
:105780008E010F5E1F4F62EE7EE0AE014F5F5F4FF6
:10579000E2ECAE2EEEE0BE2E24E030E0F601819188
:1057A0009191A191B1916F01F70181939193A1938F
:1057B000B1937F01F80181919191A191B1918F01F4
:1057C000FB0181939193A193B193BF01FA01819160
:1057D0009191A191B191AF01F50181939193A19321
:1057E000B1935F0121503109C9F60E945B6980E0E5
:1057F00090E0AAE7B4E48093BA0E9093BB0EA09316
:10580000BC0EB093BD0E80E090E0A0E2B1E48093C6
:10581000B20E9093B30EA093B40EB093B50E8DEC70
:105820009CECACECBEE38093AE0E9093AF0EA093D5
:10583000B00EB093B10E80E090E0A0EAB0E48093A7
:10584000AA0E9093AB0EA093AC0EB093AD0EE09663
:105850000FB6F894DEBF0FBECDBFDF91CF911F9181
:105860000F91FF90EF90DF90CF90BF90AF90089591
:105870001092D4078091D507882331F0439A6D9A0E
:105880006A9A7298869A8E98729A0C94112B8091CB
:10589000D507882319F01092D507729A0C94112B12
:1058A000CF92DF92EF92FF92CF93DF93EC016A01E8
:1058B0007B0105C083E493E10E94FA132196FE0167
:1058C00064916111F7CF22E030E0B701A60183E4D3
:1058D00093E1DF91CF91FF90EF90DF90CF900C9408
:1058E000FB2ACF92DF92EF92FF92CF93DF93EC01EE
:1058F0006A017B0105C083E493E10E94FA132196BB
:10590000FE0164916111F7CF22E030E0B701A601FA
:1059100083E493E1DF91CF91FF90EF90DF90CF9000
:105920000C94FB2ACF92DF92EF92FF92CF93DF93FA
:10593000EC016A017B0105C083E493E10E94FA1344
:105940002196FE0164916111F7CF20E0B701A60115
:1059500083E493E1DF91CF91FF90EF90DF90CF90C0
:105960000C9485D1CF93DF932091D6073091D70740
:10597000243031050CF065C04091D8075091D9070B
:1059800060E6649F9001659F300D1124BC01C90140
:105990008652984F0E94EDDCE7E2F5E06491EF015A
:1059A00007C083E493E10E94FA132196FE016491FB
:1059B0006111F7CFE4E3F5E06491EF0107C083E400
:1059C00093E10E94FA132196FE0164916111F7CFD1
:1059D0008091D8079091D90720E6289FB001299F90
:1059E000700D11246652784F83E493E10E94E7130F
:1059F000EFE3F5E06491EF0107C083E493E10E94D7
:105A0000FA132196FE0164916111F7CF6AE083E4F5
:105A100093E10E94FA138091D8079091D9070196DB
:105A200064E070E00E9450D99093D9078093D80722
:105A30008091D6079091D70701969093D7078093CE
:105A4000D607DF91CF910895CF93DF932091D607AA
:105A50003091D707243031050CF065C04091D8074C
:105A60005091D90760E6649F9001659F300D112425
:105A7000BC01C9018652984F0E9454DCE7E2F5E070
:105A80006491EF0107C083E493E10E94FA13219629
:105A9000FE0164916111F7CFE1E4F5E06491EF015B
:105AA00007C083E493E10E94FA132196FE016491FA
:105AB0006111F7CF8091D8079091D90720E6289FF0
:105AC000B001299F700D11246652784F83E493E151
:105AD0000E94E713ECE4F5E06491EF0107C083E472
